:020000040800F2
:10000000000003200DC100082DBE00082FBE00080F
:1000100031BE000833BE000835BE000800000000F5
:1000200000000000000000000000000037BE0008D3
:1000300039BE0008000000003BBE00083DBE0008BD
:100040005DC100085DC100085DC100085DC1000818
:100050005DC100085DC10008E9730108F373010880
:100060005DC100085DC100085DC100085DC10008F8
:100070005DC100085DC100085DC100085DC10008E8
:100080005DC100085DC100085DC100085DC10008D8
:100090005DC100085DC100085DC100085DC10008C8
:1000A0005DC100085DC100085DC100085DC10008B8
:1000B0005DC100085DC100085DC100085DC10008A8
:1000C0005DC100085DC100085DC100085DC1000898
:1000D0005DC10008AD750108DD7501081D760108D8
:1000E000396E01085DC100085DC100085DC10008EE
:1000F0005DC100085DC100085DC100085DC1000868
:100100005DC100085DC100085DC100085DC1000857
:10011000497601085DC100085DC100085DC10008A5
:100120005DC100085DC100085DC100085DC1000837
:100130005DC100085DC100085DC100085DC1000827
:100140005DC100085DC100085DC100085DC1000817
:100150005DC100085DC100085DC100085DC1000807
:100160005DC100085DC100085DC100085DC10008F7
:100170005DC100085DC100085DC10008000000000D
:100180005DC100085DC100085DC100085DC10008D7
:100190005DC100085DC100085DC100085DC10008C7
:0C01A0005DC100085DC100085DC10008E1
:1001C0000348044B834202D0034B03B118477047E6
:1001D00018190020181900200000000005480649E1
:1001E0000B1AD90F01EBA301491002D0034B03B145
:1001F0001847704718190020181900200000000047
:1002000010B5064C237843B9FFF7DAFF044B13B15E
:100210000448AFF300800123237010BD181900209B
:100220000000000028EA010808B5044B1BB104498E
:100230000448AFF30080BDE80840CFE700000000AD
:100240001C19002028EA01084FF0FF0C1CEAD052CC
:100250001EBF1CEAD15392EA0C0F93EA0C0F6FD029
:100260001A4480EA010C400218BF5FEA41211ED007
:100270004FF0006343EA501043EA5111A0FB0131F3
:100280000CF00040B1F5000F3EBF490041EAD371C8
:100290005B0040EA010062F17F02FD2A1DD8B3F144
:1002A000004F40EBC25008BF20F00100704790F0B3
:1002B000000F0CF0004C08BF49024CEA502040EA05
:1002C00051207F3AC2BFD2F1FF0340EAC2507047CB
:1002D00040F400004FF00003013A5DDC12F1190F09
:1002E000DCBF00F000407047C2F10002410021FA7B
:1002F00002F1C2F1200200FA02FC5FEA310040F193
:10030000000053EA4C0308BF20EADC70704792F00B
:10031000000F00F0004C02BF400010F4000F013A43
:10032000F9D040EA0C0093F0000F01F0004C02BF3E
:10033000490011F4000F013BF9D041EA0C018FE7AD
:100340000CEAD15392EA0C0F18BF93EA0C0F0AD0B3
:1003500030F0004C18BF31F0004CD8D180EA0100D9
:1003600000F00040704790F0000F17BF90F0004F72
:10037000084691F0000F91F0004F14D092EA0C0F54
:1003800001D142020FD193EA0C0F03D14B0218BFE7
:10039000084608D180EA010000F0004040F0FE402D
:1003A00040F40000704740F0FE4040F440007047C9
:1003B00081F0004102E000BF83F0004330B54FEA16
:1003C00041044FEA430594EA050F08BF90EA020F83
:1003D0001FBF54EA000C55EA020C7FEA645C7FEA16
:1003E000655C00F0E2804FEA5454D4EB5555B8BF39
:1003F0006D420CDD2C4480EA020281EA030382EAAA
:10040000000083EA010180EA020281EA0303362D3B
:1004100088BF30BD11F0004F4FEA01314FF4801C0E
:100420004CEA113102D0404261EB410113F0004F20
:100430004FEA03334CEA133302D0524263EB4303D7
:1004400094EA050F00F0A780A4F10104D5F1200E75
:100450000DDB02FA0EFC22FA05F2801841F10001D0
:1004600003FA0EF2801843FA05F359410EE0A5F1A4
:1004700020050EF1200E012A03FA0EFC28BF4CF0D5
:10048000020C43FA05F3C01851EBE37101F000458B
:1004900007D54FF0000EDCF1000C7EEB00006EEB98
:1004A0000101B1F5801F1BD3B1F5001F0CD3490822
:1004B0005FEA30004FEA3C0C04F101044FEA445279
:1004C00012F5800F80F09A80BCF1004F08BF5FEA00
:1004D000500C50F1000041EB045141EA050130BDE0
:1004E0005FEA4C0C404141EB0101013C28BFB1F5F2
:1004F000801FE9D291F0000F04BF01460020B1FA3D
:1005000081F308BF2033A3F10B03B3F120020CDA0F
:100510000C3208DD02F1140CC2F10C0201FA0CF0ED
:1005200021FA02F10CE002F11402D8BFC2F1200C52
:1005300001FA02F120FA0CFCDCBF41EA0C01904008
:10054000E41AA2BF01EB0451294330BD6FEA040451
:100550001F3C1CDA0C340EDC04F11404C4F120023C
:1005600020FA04F001FA02F340EA030021FA04F34E
:1005700045EA030130BDC4F10C04C4F1200220FAA5
:1005800002F001FA04F340EA0300294630BD21FAE3
:1005900004F0294630BD94F0000F83F4801306BFA9
:1005A00081F480110134013D4EE77FEA645C18BF9D
:1005B0007FEA655C29D094EA050F08BF90EA020F34
:1005C00005D054EA000C04BF1946104630BD91EA2C
:1005D000030F1EBF0021002030BD5FEA545C05D12F
:1005E0004000494128BF41F0004130BD14F580046E
:1005F0003CBF01F5801130BD01F0004545F0FE41E2
:1006000041F470014FF0000030BD7FEA645C1ABF16
:10061000194610467FEA655C1CBF0B46024650EA4D
:10062000013406BF52EA033591EA030F41F4002179
:1006300030BD00BF90F0000F04BF0021704730B5FF
:100640004FF4806404F132044FF000054FF00001D4
:1006500050E700BF90F0000F04BF0021704730B595
:100660004FF4806404F1320410F0004548BF40426A
:100670004FF000013EE700BF42004FEAE2014FEABF
:1006800031014FEA02701FBF12F07F4393F07F4F9A
:1006900081F06051704732F07F4208BF704793F09D
:1006A0007F4F04BF41F40021704730B54FF46074B0
:1006B00001F0004521F000411CE700BF50EA0102B3
:1006C00008BF704730B54FF000050AE050EA01025C
:1006D00008BF704730B511F0004502D5404261EBCC
:1006E00041014FF4806404F132045FEA915C3FF40D
:1006F000D8AE4FF003025FEADC0C18BF03325FEAAA
:10070000DC0C18BF033202EBDC02C2F1200300FA5A
:1007100003FC20FA02F001FA03FE40EA0E0021FA7F
:1007200002F11444BDE600BF70B54FF0FF0C4CF46D
:10073000E06C1CEA11541DBF1CEA135594EA0C0F1F
:1007400095EA0C0F00F0DEF82C4481EA030621EA5A
:100750004C5123EA4C5350EA013518BF52EA033595
:1007600041F4801143F4801338D0A0FB02CE4FF047
:100770000005E1FB02E506F00042E0FB03E54FF077
:100780000006E1FB03569CF0000F18BF4EF0010E6F
:10079000A4F1FF04B6F5007F64F5407404D25FEA6B
:1007A0004E0E6D4146EB060642EAC62141EA55511E
:1007B0004FEAC52040EA5E504FEACE2EB4F1FD0C60
:1007C00088BFBCF5E06F1ED8BEF1004F08BF5FEADE
:1007D000500E50F1000041EB045170BD06F0004690
:1007E00046EA010140EA020081EA0301B4EB5C043D
:1007F000C2BFD4EB0C0541EA045170BD41F4801135
:100800004FF0000E013C00F3AB8014F1360FDEBF59
:10081000002001F0004170BDC4F10004203C35DA35
:100820000C341BDC04F11404C4F1200500FA05F3B8
:1008300020FA04F001FA05F240EA020001F0004259
:1008400021F0004110EBD37021FA04F642EB0601CF
:100850005EEA430E08BF20EAD37070BDC4F10C04F9
:10086000C4F1200500FA04F320FA05F001FA04F2BD
:1008700040EA020001F0004110EBD37041F10001A9
:100880005EEA430E08BF20EAD37070BDC4F12005B4
:1008900000FA05F24EEA020E20FA04F301FA05F21C
:1008A00043EA020321FA04F001F0004121FA04F2C4
:1008B00020EA020000EBD3705EEA430E08BF20EA94
:1008C000D37070BD94F0000F0FD101F000464000CE
:1008D00041EB010111F4801F08BF013CF7D041EA50
:1008E000060195F0000F18BF704703F00046520054
:1008F00043EB030313F4801F08BF013DF7D043EA25
:100900000603704794EA0C0F0CEA135518BF95EADA
:100910000C0F0CD050EA410618BF52EA4306D1D161
:1009200081EA030101F000414FF0000070BD50EA80
:10093000410606BF1046194652EA430619D094EA0A
:100940000C0F02D150EA013613D195EA0C0F05D1F4
:1009500052EA03361CBF104619460AD181EA030148
:1009600001F0004141F0FE4141F470014FF0000000
:1009700070BD41F0FE4141F4780170BD70B54FF09B
:10098000FF0C4CF4E06C1CEA11541DBF1CEA13551B
:1009900094EA0C0F95EA0C0F00F0A7F8A4EB0504FD
:1009A00081EA030E52EA03354FEA013100F08880F4
:1009B0004FEA03334FF0805545EA131343EA1263BD
:1009C0004FEA022245EA111545EA10654FEA002672
:1009D0000EF000419D4208BF964244F1FD0404F52B
:1009E000407402D25B084FEA3202B61A65EB030587
:1009F0005B084FEA32024FF480104FF4002CB6EB44
:100A0000020E75EB030E22BFB61A754640EA0C00C3
:100A10005B084FEA3202B6EB020E75EB030E22BF03
:100A2000B61A754640EA5C005B084FEA3202B6EB44
:100A3000020E75EB030E22BFB61A754640EA9C0003
:100A40005B084FEA3202B6EB020E75EB030E22BFD3
:100A5000B61A754640EADC0055EA060E18D04FEA91
:100A6000051545EA16754FEA06164FEAC30343EA31
:100A700052734FEAC2025FEA1C1CC0D111F4801FFE
:100A80000BD141EA00014FF000004FF0004CB6E7F7
:100A900011F4801F04BF01430020B4F1FD0C88BF96
:100AA000BCF5E06F3FF6AFAEB5EB030C04BFB6EBA1
:100AB000020C5FEA500C50F1000041EB045170BD94
:100AC0000EF0004E4EEA113114EB5C04C2BFD4EBC1
:100AD0000C0541EA045170BD41F480114FF0000E45
:100AE000013C90E645EA060E8DE60CEA135594EAC1
:100AF0000C0F08BF95EA0C0F3FF43BAF94EA0C0FC4
:100B00000AD150EA01347FF434AF95EA0C0F7FF438
:100B100025AF104619462CE795EA0C0F06D152EA8C
:100B200003353FF4FDAE1046194622E750EA410670
:100B300018BF52EA43067FF4C5AE50EA41047FF481
:100B40000DAF52EA43057FF4EBAE12E74FF0FF3CE6
:100B500006E000BF4FF0010C02E000BF4FF0010CB7
:100B60004DF804CD4FEA410C7FEA6C5C4FEA430C30
:100B700018BF7FEA6C5C1BD001B050EA410C0CBF7F
:100B800052EA430C91EA030F02BF90EA020F0020E1
:100B9000704710F1000F91EA030F58BF994208BF48
:100BA00090422CBFD8176FEAE37040F00100704705
:100BB0004FEA410C7FEA6C5C02D150EA013C07D15C
:100BC0004FEA430C7FEA6C5CD6D152EA033CD3D0A7
:100BD0005DF8040B704700BF8446104662468C46A1
:100BE0001946634600E000BF01B5FFF7B7FF0028D4
:100BF00048BF10F1000F01BD4DF808EDFFF7F4FFFD
:100C00000CBF012000205DF808FB00BF4DF808ED87
:100C1000FFF7EAFF34BF012000205DF808FB00BFAA
:100C20004DF808EDFFF7E0FF94BF012000205DF8CC
:100C300008FB00BF4DF808EDFFF7CEFF94BF012081
:100C400000205DF808FB00BF4DF808EDFFF7C4FF7A
:100C500034BF012000205DF808FB00BF4FEA4102CD
:100C600012F5001215D211D56FF47873B3EB6252FE
:100C700012D94FEAC12343F0004343EA505311F025
:100C8000004F23FA02F018BF404270474FF00000B7
:100C9000704750EA013005D111F0004008BF6FF0F5
:100CA000004070474FF00000704700BF4A0011D26B
:100CB00012F5001211D20DD56FF47873B3EB6252B6
:100CC0000ED44FEAC12343F0004343EA505323FAC2
:100CD00002F070474FF00000704750EA013002D137
:100CE0004FF0FF3070474FF0000070474FEA41026D
:100CF000B2F1E04324BFB3F5001CDCF1FE5C0DD97A
:100D000001F0004C4FEAC0024CEA5070B2F1004FC3
:100D100040EB830008BF20F00100704711F0804FC6
:100D200021D113F13872BCBF01F00040704741F48B
:100D300080114FEA5252C2F11802C2F1200C10FA8F
:100D40000CF320FA02F018BF40F001004FEAC12373
:100D50004FEAD32303FA0CFC40EA0C0023FA02F317
:100D60004FEA4303CCE77FEA625307D150EA0133ED
:100D70001EBF4FF0FE4040F44000704701F00040BD
:100D800040F0FE4040F40000704700BF80F000409B
:100D900002E000BF81F0004142001FBF5FEA410353
:100DA00092EA030F7FEA226C7FEA236C6AD04FEA53
:100DB0001262D2EB1363C1BFD21841404840414098
:100DC000B8BF5B42192B88BF704710F0004F40F44A
:100DD000000020F07F4018BF404211F0004F41F466
:100DE000000121F07F4118BF494292EA030F3FD032
:100DF000A2F1010241FA03FC10EB0C00C3F1200345
:100E000001FA03F100F0004302D5494260EB4000D3
:100E1000B0F5000F13D3B0F1807F06D340084FEA3E
:100E2000310102F10102FE2A51D2B1F1004F40EB33
:100E3000C25008BF20F0010040EA0300704749009B
:100E400040EB0000013A28BFB0F5000FEDD2B0FA38
:100E500080FCACF1080CB2EB0C0200FA0CF0AABF5B
:100E600000EBC25052421843BCBFD04018437047F9
:100E700092F0000F81F4000106BF80F400000132FF
:100E8000013BB5E74FEA41037FEA226C18BF7FEAD6
:100E9000236C21D092EA030F04D092F0000F08BF18
:100EA0000846704790EA010F1CBF0020704712F0FF
:100EB0007F4F04D1400028BF40F00040704712F13E
:100EC00000723CBF00F50000704700F0004343F0A3
:100ED000FE4040F4000070477FEA226216BF0846D9
:100EE0007FEA23630146420206BF5FEA412390EA9C
:100EF000010F40F4800070474FF0000304E000BF92
:100F000010F0004348BF40425FEA000C08BF704742
:100F100043F0964301464FF000001CE050EA010206
:100F200008BF70474FF000030AE000BF50EA01021B
:100F300008BF704711F0004302D5404261EB410108
:100F40005FEA010C02BF84460146002043F0B6432D
:100F500008BFA3F18053A3F50003BCFA8CF2083A52
:100F6000A3EBC25310DB01FA02FC634400FA02FC5B
:100F7000C2F12002BCF1004F20FA02F243EB020062
:100F800008BF20F00100704702F1200201FA02FCC4
:100F9000C2F1200250EA4C0021FA02F243EB0200B7
:100FA00008BF20EADC7070474FF0FF3C06E000BF4E
:100FB0004FF0010C02E000BF4FF0010C4DF804CDE2
:100FC0004FEA40024FEA41037FEA226C18BF7FEAF2
:100FD000236C11D001B052EA530C18BF90EA010FF4
:100FE00058BFB2EB030088BFC81738BF6FEAE17083
:100FF00018BF40F0010070477FEA226C02D15FEA1F
:10100000402C05D17FEA236CE4D15FEA412CE1D08A
:101010005DF8040B704700BF844608466146FFE751
:101020000FB5FFF7C9FF002848BF10F1000F0FBD33
:101030004DF808EDFFF7F4FF0CBF012000205DF82C
:1010400008FB00BF4DF808EDFFF7EAFF34BF0120B1
:1010500000205DF808FB00BF4DF808EDFFF7E0FF4A
:1010600094BF012000205DF808FB00BF4DF808ED9B
:10107000FFF7D2FF94BF012000205DF808FB00BFFE
:101080004DF808EDFFF7C8FF34BF012000205DF8E0
:1010900008FB00BF53B94AB9002908BF00281CBF8C
:1010A0004FF0FF314FF0FF3000F0ACB9ADF1080C5C
:1010B0006DE904CE00F03EF8DDF804E0DDE902233E
:1010C00004B0704738B505460C4628462146002234
:1010D0000023FFF79BFD28B928462146BDE838408C
:1010E00000F00AB8284604F1004100F005F840423B
:1010F00061EB410138BD00BFD0B50C4B0022064664
:101100000F46FFF711FBFFF7D1FD0446FFF792FAF8
:10111000074B0022FFF708FB02460B4630463946D4
:10112000FFF74AF9FFF7C2FD2146D0BD0000F03DB0
:101130000000F0412DE9F047089E0D460446884620
:10114000002B4DD18A42944668D9B2FA82F252B14C
:1011500001FA02F3C2F1200120FA01F10CFA02FCBB
:1011600041EA030894404FEA1C45210CB8FBF5FE08
:101170001FFA8CF705FB1E8341EA03430EFB07F1C0
:1011800099420BD91CEB03030EF1FF3080F01E8156
:10119000994240F21B81AEF1020E63445B1AA4B285
:1011A000B3FBF5F005FB103344EA034400FB07F7FB
:1011B000A7420AD91CEB040400F1FF3380F0088138
:1011C000A74240F2058164440238E41B40EA0E4025
:1011D00000211EB1D4400023C6E90043BDE8F087DA
:1011E0008B4208D9002E00F0EE800021C6E90005F0
:1011F0000846BDE8F087B3FA83F100294AD1AB4233
:1012000002D3824200F2F980841A65EB03030120C5
:101210009846002EE2D0C6E90048DFE702B9FFDEBB
:10122000B2FA82F2002A40F09180A1EB0C054FEA5D
:101230001C471FFA8CFE0121B5FBF7F307FB135087
:10124000250C45EA00450EFB03F0A84208D91CEB2B
:10125000050503F1FF3802D2A84200F2CB804346D5
:101260002D1AA4B2B5FBF7F007FB105544EA05446C
:101270000EFB00FEA64508D91CEB040400F1FF3567
:1012800002D2A64500F2BB802846A4EB0E0440EA39
:1012900003409EE7C1F120078B4022FA07FC4CEA8D
:1012A000030C20FA07F405FA01F31C43FD404FEA52
:1012B0001C4900FA01F3B5FBF9F8200C1FFA8CFE6B
:1012C00009FB185540EA054508FB0EF0A84202FA52
:1012D00001F20BD91CEB050508F1FF3A80F088807C
:1012E000A84240F28580A8F1020865442D1AA4B2F4
:1012F000B5FBF9F009FB105544EA054500FB0EFE6D
:10130000AE4508D91CEB050500F1FF346CD2AE45A3
:101310006AD90238654440EA0840A0FB0294A5EB74
:101320000E05A542C846A64656D353D05EB1B3EBD0
:10133000080265EB0E0505FA07F722FA01F3CD4026
:101340001F43C6E900750021BDE8F087C2F1200304
:1013500020FA03F10CFA02FC25FA03F395400D4341
:101360004FEA1C471FFA8CFEB3FBF7F107FB113065
:101370002B0C43EA004301FB0EF0984204FA02F4FE
:1013800008D91CEB030301F1FF382FD298422DD965
:10139000023963441B1AADB2B3FBF7F007FB1033FD
:1013A00045EA034500FB0EF3AB4208D91CEB0505EB
:1013B00000F1FF3816D2AB4214D902386544ED1A59
:1013C00040EA014138E73146304607E78646E5E620
:1013D0001846FAE64B45A9D2B9EB020864EB0C0EAD
:1013E0000138A3E74046EAE7204694E74146D1E7C3
:1013F000D0467BE7023B654432E7084609E7644490
:10140000023842E7704700BF002301461A461846DB
:1014100004F0B8BA002101F01DBC00BF0A2200216F
:1014200001F074BD0A23002201F050BD38B5084B0D
:10143000084D5B1B9C1007D0043B1D44013C55F834
:1014400004399847002CF9D1BDE838401DF0F2BAB4
:10145000905D02088C5D020870B50D4E0D4D761B37
:10146000B61006D0002455F8043B01349847A64234
:10147000F9D1094E094D761B1DF0D6FAB61006D0EB
:10148000002455F8043B01349847A642F9D170BDB9
:10149000845D0208845D02088C5D0208845D020898
:1014A000032A10B517D940EA010C1CF0030F0446BB
:1014B0000B4623D119462046D1F800E0D0F800C0F1
:1014C000F44504F1040403F1040317D1043A032A98
:1014D00020461946EED8541EA2B100F1FF3C013956
:1014E00001E0C3180CD01CF801EF11F8012F96454C
:1014F000A4EB0C03F5D0AEEB020010BD541EECE7DC
:10150000184610BD104610BD844641EA000313F092
:1015100003036DD1403A41D351F8043B40F8043BFA
:1015200051F8043B40F8043B51F8043B40F8043BBD
:1015300051F8043B40F8043B51F8043B40F8043BAD
:1015400051F8043B40F8043B51F8043B40F8043B9D
:1015500051F8043B40F8043B51F8043B40F8043B8D
:1015600051F8043B40F8043B51F8043B40F8043B7D
:1015700051F8043B40F8043B51F8043B40F8043B6D
:1015800051F8043B40F8043B51F8043B40F8043B5D
:1015900051F8043B40F8043B403ABDD2303211D3FD
:1015A00051F8043B40F8043B51F8043B40F8043B3D
:1015B00051F8043B40F8043B51F8043B40F8043B2D
:1015C000103AEDD20C3205D351F8043B40F8043BFD
:1015D000043AF9D2043208D0D2071CBF11F8013BFB
:1015E00000F8013B01D30B8803806046704700BFC1
:1015F000082A13D38B078DD010F003038AD0C3F1D0
:101600000403D21ADB071CBF11F8013B00F8013BB1
:1016100080D331F8023B20F8023B7BE7043AD9D370
:10162000013A11F8013B00F8013BF9D20B78037045
:101630004B7843708B7883706046704788420DD931
:101640008B1883420AD900EB020CBAB1624613F838
:1016500001CD02F801CD9942F9D170470F2A0ED879
:10166000034602F1FF3C4AB10CF1010C013B8C44F2
:1016700011F8012B03F8012F6145F9D1704740EAB9
:1016800001039B0750D1A2F1100370B501F1200CAA
:1016900023F00F0501F1100E00F11004AC441B09FA
:1016A0005EF8105C44F8105C5EF80C5C44F80C5C6E
:1016B0005EF8085C44F8085C5EF8045C44F8045C7E
:1016C0000EF1100EE64504F11004E9D1013312F0D9
:1016D0000C0F01EB031102F00F0400EB031327D0F2
:1016E000043C24F003064FEA940C1E441C1F8E4653
:1016F0005EF8045B44F8045FB442F9D10CF10104D4
:1017000002F0030203EB840301EB840102F1FF3CCE
:101710004AB10CF1010C013B8C4411F8012B03F888
:10172000012F6145F9D170BD02F1FF3C03469BE7F3
:101730002246EBE7830730B548D0541E002A3FD03D
:10174000CAB2034601E0013C3AD303F8012B9D07DE
:10175000F9D1032C2DD9CDB245EA05250F2C45EA48
:10176000054536D9A4F1100222F00F0C03F1200E2A
:10177000E6444FEA121C03F1100242E9045542E923
:10178000025510327245F8D10CF1010214F00C0F21
:1017900003EB021204F00F0C13D0ACF1040323F09E
:1017A00003030433134442F8045B9342FBD10CF06F
:1017B00003042CB1CAB21C4403F8012B9C42FBD198
:1017C00030BD64461346002CF4D1F9E703461446B5
:1017D000BFE71A46A446E0E70EB400B582B003ABFB
:1017E000816853F8042B019302F0D0FD02B05DF83C
:1017F00004EB03B0704700BF0FB400B5074983B0D6
:1018000004AB086853F8042B8168019302F0BEFD15
:1018100003B05DF804EB04B0704700BF0000002087
:1018200070B5044688B008460D4600F089F9154E9B
:10183000A26B059001214318CDE9066104A802219D
:1018400004950393A56801900291B2B1B5F90C30EB
:101850009A0406D46A6E43F4005322F40052AB811A
:101860006A6601AA2946204605F0EAFB002814BF53
:101870004FF0FF300A2008B070BD204605F06AFA2C
:10188000E4E700BFD4180208024B01461868FFF7CE
:10189000C7BF00BF00000020024B1B680022C3E945
:1018A0002A027047000000200A4A0B4910B414684D
:1018B0000A4AD4E92A0300FB02F201FB0322A0FB3F
:1018C0000101431C42EB0100C4E92A3020F0004032
:1018D00010BC7047000000202D7F954C2DF451580E
:1018E00008B410B5002A9DB0044633DB4FF40273F0
:1018F000ADF814300291069120AB17D0013A4FF6A3
:10190000FF7104920792ADF816101F9A019302A975
:1019100001F010FB421C01DA8B232360029B0022A2
:101920001A701DB0BDE8104001B070474FF6FF714E
:1019300004920792ADF816101F9A019302A901F0C4
:10194000F9FA431C01DA8B2323601DB0BDE8104077
:1019500001B070478B2303604FF0FF30F5E700BF05
:101960000CB410B51F4B00291C689CB035DB4FF43C
:101970000273ADF81430029006901FAB18D00139F5
:101980004FF6FF7204910791ADF8162002A91E9A36
:101990000193204601F0CEFA421C01DA8B2323602A
:1019A000029B00221A701CB0BDE8104002B07047C4
:1019B0004FF6FF7204910791ADF8162002A91E9A06
:1019C0000193204601F0B6FA431C01DA8B23236011
:1019D0001CB0BDE8104002B070478B2323604FF06D
:1019E000FF30F5E7000000200CB410B59CB01EAB32
:1019F0006FF00044CDE906140291084953F8042B16
:101A0000059102A90193049401F094FA029B00222B
:101A10001A701CB0BDE8104002B070470802FFFF0A
:101A20000EB410B59DB06FF000411FABCDE90601BB
:101A30000491094953F8042B0290084C086801935B
:101A400002A9059401F076FA029B00221A701DB0DB
:101A5000BDE8104003B07047000000200802FFFFFF
:101A600080EA0102844612F0030F4FD111F0030FF8
:101A700032D14DF8044D11F0040F51F8043B0BD056
:101A8000A3F101329A4312F0803F04BF4CF8043BAB
:101A900051F8043B16D100BF51F8044BA3F10132B9
:101AA0009A4312F0803FA4F101320BD14CF8043B71
:101AB000A24312F0803F04BF51F8043B4CF8044BA2
:101AC000EAD023460CF8013B13F0FF0F4FEA332313
:101AD000F8D15DF8044B704711F0010F06D011F8F2
:101AE000012B0CF8012B002A08BF704711F0020FE0
:101AF000BFD031F8022B12F0FF0F16BF2CF8022BCB
:101B00008CF8002012F47F4FB3D1704711F8012BED
:101B10000CF8012B002AF9D1704700BF000000002B
:101B200000000000000000000000000000000000B5
:101B300000000000000000000000000000000000A5
:101B400090F800F06DE9024520F007016FF0000CFD
:101B500010F0070491F820F040F049804FF00004A5
:101B60006FF00700D1E9002391F840F000F1080080
:101B700082FA4CF2A4FA8CF283FA4CF3A2FA8CF3B8
:101B80004BBBD1E9022382FA4CF200F10800A4FA1F
:101B90008CF283FA4CF3A2FA8CF3E3B9D1E9042373
:101BA00082FA4CF200F10800A4FA8CF283FA4CF3AA
:101BB000A2FA8CF37BB9D1E9062301F1200182FA64
:101BC0004CF200F10800A4FA8CF283FA4CF3A2FA6A
:101BD0008CF3002BC6D0002A04BF04301A4612BA78
:101BE000B2FA82F2FDE8024500EBD2007047D1E97B
:101BF000002304F00305C4F100004FEAC50514F00A
:101C0000040F91F840F00CFA05F562EA05021CBFDA
:101C100063EA050362464FF00004A9E7A2B330B5BA
:101C200040EA0104A40784460B462AD09CF8000031
:101C30000C7884422FD1012A0DD0E64660B11EF8FF
:101C4000010F11F8014F6FEA0E03A042134422D195
:101C50001CEB0303F2D1002030BD0468194653F891
:101C6000045BA4F1013EAC4284462EEA040E00F16E
:101C700004000BD1043A84461946ECD01EF0803F94
:101C8000E9D1032AE9D8D1E7104670479CF8000053
:101C90000C78A042D1D0001B30BD00BF30B540EA67
:101CA0000104A30701D1032A0FD8844601F1FF3EA6
:101CB00007E01EF8011F03F8011B541EC1B19C462A
:101CC00022466346002AF4D130BD0B4684461946AD
:101CD00053F8045BA5F1013424EA050414F0803FB5
:101CE000E4D1043A032A4CF8045B1946EFD8DDE747
:101CF0006244002CE8D003F8011B9342FBD130BDB5
:101D00002DE9F04F1C46984B1B68A1B00025814679
:101D10001846884608921C950493FFF711FF00218E
:101D200083460020CDE90601CDF86C804246174677
:101D300012F8013B2D2B2FD8DFE813F0A1002E0065
:101D40002E002E002E002E002E002E002E00AF00A2
:101D5000AF00AF00AF00AF002E002E002E002E000F
:101D60002E002E002E002E002E002E002E002E0003
:101D70002E002E002E002E002E002E00AF002E0072
:101D80002E002E002E002E002E002E002E002E00E3
:101D90002E0006042E00FC0300220A92302B7ED077
:101DA000002209922F2B1C4640F233854FF0000A87
:101DB00038465646554612E00130082D1B90C8BFE4
:101DC0000AEB8A0A0478C6BF03EB4A03A3F1300A80
:101DD000A2F130062F2C05F10105234670DD06EB3C
:101DE0008602392C03EB4202E6DD04995A46FFF7DE
:101DF00015FF0346002835D11B9A11465A441B9201
:101E000011F80B40002D40F0AC85302C40F064857B
:101E1000C2F10101531801321B921478302CF9D011
:101E2000A4F13102082A00F23883A4F1300E1B9C81
:101E300003F1010B002301252746049306EB8606D8
:101E40000EEB46060023621C1B926478A4F130015D
:101E5000092900F2ED8201338E46002940F0B88452
:101E60001B9CF0E70023652C04959B469E4601D001
:101E7000452C32D1002D7CD1099A1A4378D1089B88
:101E800013B1089BC3F800804FF0000BCDF810B0E1
:101E90000499584621B0BDE8F08F1B9247E77B7844
:101EA00003F0DF03582B00F0748401371B973B7855
:101EB000302BFAD0002B00F0CC800122099271E780
:101EC00004995A46FFF7AAFE0346002800F0D68080
:101ED00004954FF0000B5B46DE4600220B92002D6E
:101EE00000F09380049A1346002A08BF2B46304620
:101EF0000493FEF79FFB0B460246CDE906230B9B9E
:101F0000102DA3EB0B032C46A8BF1024092D0E9314
:101F100013DD164B03EBC40353E91223FEF704FC55
:101F2000CDE906015046FEF785FB02460B46DDE98A
:101F30000601FEF743FACDE906010F2D00F3A78055
:101F40000E9B002B00F018840E9B40F39283162BFF
:101F500040F3F9840E9AC5F12503934280F20C8573
:101F60000E9B2C1B1C4498E0D8EC0108F8EC0108EF
:101F70000025DDF86C8008F101021B9298F8014001
:101F80002B2C00F087822D2C00F0218200220E9253
:101F9000A4F13002092A00F21582302C05D11B9AD7
:101FA00001321B921478302CFAD0A4F13102082AA5
:101FB00093D81B990B914A1C1B92A4F130004C78CA
:101FC0002F2C09DC00F034BC01321B929CF801403C
:101FD0002F2CA1F1300006DD00EB8001392C944656
:101FE00004EB4101F0DD0B99521A082A40F32084DA
:101FF00044F61F620B920E9A002A3FF470AF0B9AC0
:1020000052420B92002D7FF46DAF099A134320D1F9
:10201000BEF1000F7FF433AF692C00F03B8400F376
:102020004183492C00F036844E2C7FF428AFAC4914
:102030001BA805F0EDFC00283FF421AF1B9B1B788B
:10204000282B00F06D85A74807F008F98346049116
:1020500003E04FF0000BCDF810B0089A0AB11B9BBB
:1020600013600A9B002B3FF413AF049901F1004366
:1020700004930499584621B0BDE8F08F1B9A04954B
:1020800002EB0B011B9112F80B409B46DEE60E9B08
:102090002C1B1C44002C40F30A8314F00F000AD0C0
:1020A000914901EBC001DDE90623D1E90001FEF70A
:1020B0003BFBCDE9060134F00F0340F08B82002397
:1020C0000993049A00962B463946484606F024FAAE
:1020D0001390002800F055830B9BABEB03000E9B85
:1020E000002BB4BF024600220F9223EAE3730022C2
:1020F000934612939046139C4846616806F08CF90B
:102100000746002800F0418122690232920004F162
:102110000C010C30FFF7F8F9DDE9060104910B46DC
:102120001EA901911DA90B9002460091484606F098
:102130009FFD1C90002800F018810121484606F000
:1021400093FA8046002800F020811D9B002BC0F2EE
:102150000F810F9A129D9E18099A1E9C9B1A234468
:10216000624A013B9342C4F1360480F2AE80D21A37
:102170001F2AA4EB020400F31D814FF0010A002383
:102180000AFA02FA0C93099B25443444A6421D44E2
:102190003346A8BF2346AB42A8BF2B46002B02DD27
:1021A000E41AED1AF61A0F9B002B00F3BE80002CE8
:1021B00000F3D2800E9B002B00F3DE80002D00F395
:1021C000EF80002E08DD41463246484606F088FB87
:1021D0008046002800F0D9801C993A46484606F00F
:1021E00017FC8346002800F0D0800026C368C66034
:1021F0004146109306F0ECFBB042C0F2638400F05D
:10220000D2834146584606F095FD00224FF08043A8
:1022100004460D46FEF704FD00286FD0109B002BEE
:1022200000F0E180079B1193314B314C0022CDE946
:102230000C2335462F4E119A2F4B02EA060A9A4577
:1022400000F0FC80099B93B1BAF1D46F0FD822A3A0
:10225000D3E9002328462146FEF7E2FC002840F09F
:1022600087810D9B03F1D663A3EB0A030D93049EB4
:102270000B98DDE90C233146CDE9042306F06EFC12
:1022800002460B46DDE90401FEF74EFA33460B9A8F
:10229000FEF794F8CDE906010E46099B23B9154BCC
:1022A00033409A4500F002811C99484606F0DAF85E
:1022B0003946484606F0D6F84146484606F0D2F878
:1022C0005946484606F0CEF815E700230C934FF028
:1022D000010A58E7AFF300800000C0FFFFFFDF41B5
:1022E000285C020894490208F8EC010802FCFFFF90
:1022F0000000F03F0000F07F0000E07FAE4B204682
:1023000029460022FEF710FA109B024605460C46AD
:10231000002B64D101F1004314901593079B119396
:10232000DDE91423CDE90C2384E741461A464846EB
:1023300006F076FA804640B301461C9A484606F0FD
:10234000C1F910B310901C99484606F08BF8109B09
:102350001C93002C7FF72EAF1C992246484606F0AE
:10236000BFFA1C9000287FF425AFBA465E460FE006
:10237000129A0F9ED51AEFE63946129A484606F091
:102380004FFA074600287FF419AFBA465E461C98FC
:102390002223C9F80030894B04934FF0000BB4E0BE
:1023A00039462A46484606F09BFA074600287FF43D
:1023B00008AFEAE7824A4FF0010AD31A0AFA03F398
:1023C0000C93E0E60022CDF86C800B9287E50122A9
:1023D0000E9208F102021B9298F80240D8E50B46D3
:1023E000CDE914239AE7DDE90612002940F0AF8019
:1023F000C2F313031192002B40F0AF80714B002207
:1024000020462946FEF702FC002840F0AE826A4BC7
:10241000204629460022FEF787F901F100430546D0
:102420000C4618901993DDE91823CDE90C2301E738
:10243000652C4FF0010E3FF49CAD19E5A2F15473E9
:102440000793DDE90623DDE90C01CDE9060110461D
:102450001946CDE90C2306F081FB02460B46DDE967
:102460000601FEF761F9DDE90C23FDF7A7FF564AE7
:102470000E409642CDE9060176D9049A534B9A4212
:1024800002D10B9B013380D0504A4FF0FF33CDE98E
:10249000063209E700220E929BE7652C00F0FB80D4
:1024A000452C00F0F8804FF0010EAEE5284621469D
:1024B000FEF708FEFEF70AF90B46024621462846BB
:1024C000FDF77AFF109C069DC6F3130644EA050C3F
:1024D0005CEA060304460D4600F0C28032A3D3E94D
:1024E0000023FEF793FB48B931A3D3E9002320462C
:1024F0002946FEF7A9FB00283FF4D6AEDDE90634F5
:102500001C9804945E46BA469B460146484605F030
:10251000A9FF5146484605F0A5FF4146484605F04B
:10252000A1FF1399484605F09DFF3146484605F046
:1025300099FF92E501230A937A1C1B927B78002B6A
:102540003FF49DAC174629E400230A93F4E7DDE944
:102550000612012900F0748111921D4B194C0022C2
:10256000CDE90C23002565E601F15476079694E643
:1025700021462846FEF79AFB012838BF0120FEF7C6
:1025800059F8109B024605460C46002B40F0698125
:1025900001F1004316901793DDE91623CDE90C23D2
:1025A0005FE600BFAFF300809535A094FFFFDF3FEB
:1025B00035E5AF350000E03F0000E03F0000F07F70
:1025C000E2FBFFFF0000F03FFFFF9F7CFFFFEF7F7C
:1025D0000000F0BFB3F59A7F00F3D380102B4FEAD1
:1025E0002314A54B40F3C682DDE906019846099302
:1025F00000239A4614F0010F0AF1010A4FEA64041D
:1026000004D0D8E90023FEF78FF80123012C08F14C
:102610000808EFD10BB1CDE90601099B03EBCA0114
:10262000079BA3F154730793DDE90623D1E9000169
:10263000FEF77AF8914BCDE906010B400A46904926
:102640008B4200F29E80A1F580118B4240F21C82E9
:102650008C494FF0FF33CDE906310023099330E573
:1026600083A3D3E90023FEF7D1FA00283FF41CAE80
:1026700044E71633FFF60BAD0B9BABEB0302824B2B
:1026800003EBC203DDE90601D3E90023FEF776F987
:1026900083460491E1E40022049293464FF0010E38
:1026A000FFF7EABB6E2C3FF4C2ACFFF7E8BB3FF488
:1026B00006AD644214F00F020AD0734B03EBC20361
:1026C000DDE90601D3E90023FEF758F9CDE906015B
:1026D00024113FF4F4AC1F2C35DC14F01003DDE9B9
:1026E000060118BF6A23DFF8A48109930023E207DB
:1026F00004D5D8E90023FEF717F80123641008F188
:102700000808F4D10BB1CDE90601099B93B1DDE9CD
:102710000601C1F30A52C2F16B03002B0ADD1F2B25
:1027200040F350820020342B069040F356824FF045
:102730005C730793DDE9060100220023FEF75CFAD3
:1027400000283FF4BEAC22234FF0000BC9F8003044
:10275000CDF810B081E41E9B06931D9B03F233421B
:102760001F9B23F4801343EA02530793200742BFC1
:10277000079B43F000430793DDE906349B4604942E
:102780006BE43E4A04922223C9F800304FF0000B5C
:1027900063E40A9B01931CAB029400933C4A1DAB7B
:1027A0001BA9484604F056FE10F0070504463FF406
:1027B00050AC062D40F09380089B0137002B3FF46E
:1027C00063AB4FF0000B1F60CDF810B0FFF760BB9C
:1027D0006A1C012B1B9C9B44104615D02B4403F113
:1027E000FF3C03E0460094450DD001322B46082BF8
:1027F000154606EB8600F5D9102ADCBF0AEB8A0ADB
:102800004FEA4A0AEFE7981C082D5BDC0546FFF704
:1028100015BB04995A463846FFF700FA002800F025
:10282000888000231D4604939A461E46FFF751BB3D
:1028300044F61F629042A8BF10460B90FFF7DBBB27
:10284000DDE906341194002C7FF487AEBA465E466B
:1028500022234FF0000B1C98C9F80030CDF810B0BF
:1028600053E60B46CDE9162396E600BFAFF3008092
:102870009535A094FFFFCF3FE8ED01080000F07F01
:102880000000A07CFFFFEF7FF8EC010870EB01086F
:1028900048EB0108AD491BA805F0BAF800283FF441
:1028A000EEAA1B9BAA49013B1BA81B9305F0B0F89D
:1028B00010B91B9B01331B93A64B04934FF0000BE5
:1028C000FFF7CBBB1028DCBF0AEB8A0A01EB4A0AF0
:1028D00005460023FFF7B7BA0023FFF7A1BA1C9AF9
:1028E0003AB135211EA806F06FFA1C99484605F04A
:1028F000B9FD013D042D3FF639AF01A353F825F092
:10290000572700082929000823290008152900084D
:10291000572700084FF0FF336FF00045CDE906352B
:1029200024E78C4B079321E71E9B06931F9B07937D
:102930001CE71B9A13465A441B9213F80B40064699
:102940008246FFF762BA0E98834901EBC001DDE9C8
:102950000623D1E90001FDF7E7FE83460491FFF766
:102960007CBB04958346FFF771BA7C4B7C4C109D71
:102970000022CDE9182356E5774CC5F10F0504EB8D
:10298000C501DDE90623D1E90001FDF7CDFE0E9B6F
:102990005D1B04EBC504D4E90023FDF7C5FE8346A7
:1029A0000491FFF75ABB109B5E46D446BA46DDE958
:1029B0000BB7002B6FD0DDE906456A4BC5F3130159
:1029C00099422A463CD0002F00F0A380DDE906237F
:1029D0001F421C4621D0109B04995846002B00F042
:1029E000CD8006F0BBF8099D02460B467DB1C4F3CD
:1029F0000A54C4F16B04002C09DD240504F17F5353
:102A0000002203F54013FDF78FFE02460B460499A2
:102A10005846FDF7D3FC83460491099B73B1049992
:102A2000514B58460022FDF77FFE03460B4308BF7B
:102A300022238346049108BFC9F800301C9864E53E
:102A4000099B0699002B00F0C580424B2B40B3F147
:102A5000D46F00F2BF801B0DC3F16B034FF0FF304A
:102A600000FA03F39942AED1404B9A4200F0D8806D
:102A7000384B134003F58013079300230693DDE9D9
:102A800006349B460494C8E702F15473079300236D
:102A90000993FFF716BBDDE90612C2F313030B43DC
:102AA000144690D1099B002B40F0AF80294B234066
:102AB000A3F580136FEA13536FEA035307934FF0A4
:102AC000FF33DBE7DDE90612109B0B4358465E46F9
:102AD000BA46DDF82CB0A0D1C2F313031446002B84
:102AE0009BD122F000431B0D1B05B3F1D66F94D987
:102AF000436913B90369012B8FDD31460122484632
:102B000005F0EEFE4146064605F062FF002884DD32
:102B1000C8E7DDE906341CEA030F3FF47EAF5AE74D
:102B200013491BA81EAA04F08DFF05287FF48BAA69
:102B30001F9B43F0FF4343F4E00307931E9B069360
:102B4000DDE906349B460494FFF787BA1C5C020853
:102B5000205C02080000F07FF8EC01080000E0BFF4
:102B60000000E03FFFFF0F0000005039FFFFEF7F44
:102B70005CEB010809934FF0000A4EE505F0EEFF0B
:102B8000099D02460B4695B3C4F30A54C4F16B0485
:102B9000002C09DD240504F17F53109A03F540133E
:102BA000FDF7C2FD02460B4604995846FDF704FCAA
:102BB0000022002383460491FEF71EF800283FF40C
:102BC0002EAF45E64FF0FF3202FA03F3069A1A40A1
:102BD0000692AFE54FF0FF3344E74FF0FF33C2F109
:102BE0004B0203FA02F202EA01030793A2E50499F9
:102BF0005846FDF7E1FB0022002383460491FDF7D0
:102C0000FBFF00283FF41AAF22E6084B2340B3F144
:102C1000D66F3FF74DAFB3F15C7F3FF700AF17E6DC
:102C200001317FF425AFFFF7B2BB00BF0000F07F9A
:102C3000014BFFF765B800BF3404002010B4044C0A
:102C400084461346206810BC0A466146FFF758B810
:102C50000000002010B4044C044B84460A4620684F
:102C600010BC6146FFF74CB800000020340400207F
:102C70002DE9F041214F0446134638680A462146A3
:102C8000FFF73EF802460B4605460C4608F01AFDD3
:102C900040BB21462846FEF729F820F000480646AA
:102CA0001749404608F024FDC8B915494046FEF7CB
:102CB000D3F9A0B924F00044124B284621464FF026
:102CC000FF3208F0FFFC38B90E4B284621464FF082
:102CD000FF32FDF7A5FF10B13B6822221A60304693
:102CE000BDE8F081002C084804DA06F0CFFA00F1C4
:102CF0000046F4E7BDE8F04106F0C8BA0000002045
:102D0000FFFF7F7FFFFFEF7F944902082DE9F0412D
:102D1000214F224B04460A4638682146FEF7F0FF51
:102D200002460B4605460C4608F0CCFC40BB21464B
:102D30002846FDF7DBFF20F00048064618494046CC
:102D400008F0D6FCC8B916494046FEF785F9A0B987
:102D500024F00044134B284621464FF0FF3208F080
:102D6000B1FC38B90F4B284621464FF0FF32FDF732
:102D700057FF10B13B6822221A603046BDE8F0814F
:102D8000002C094804DA06F081FA00F10046F4E765
:102D9000BDE8F04106F07ABA0000002034040020BB
:102DA000FFFF7F7FFFFFEF7F944902082DE9F04F7F
:102DB000814645488E4675461EF801CB10F80C40FA
:102DC00014F00804F7D1BCF12D0FE34654D0BCF148
:102DD0002B0F08BF9EF800B06FF0004808BF05F148
:102DE000020E1BB1102B4FD01F4604E0BBF1300F79
:102DF00055D00A231F460025B8FBF7F6284607FBE7
:102E0000168A07E0864215D329D007FB00C00125AA
:102E10001EF801BBABF1300CBCF1090F06D9ABF1C8
:102E2000410CBCF1190F08D8ABF1370C63450DDD2F
:102E3000002DE7DA4FF0FF35EAE7ABF1610CBCF1AA
:102E4000190F03D8ABF1570C6345F1DC002D0BDBF8
:102E500004B140420AB195BB1160BDE8F08FE24574
:102E6000D3DA4FF0FF35D3E72223C9F800301AB385
:102E70000EF1FF314046EFE79EF800B04FF00048FA
:102E800005F1020E0124ACE7BBF1300FACD19EF886
:102E9000000000F0DF00582807D01F46ABE79EF87F
:102EA000003003F0DF03582B0BD110279EF801B040
:102EB0003B460EF1020E9EE74046BDE8F08F80468D
:102EC000D6E708231F4696E741EA0108012B02D006
:102ED000242B00D86AE710B503F07CFD16230360AD
:102EE000002010BD012A08D0242A134605D8064A1E
:102EF000844610680A46614658E710B503F06AFD3B
:102F000016230360002010BD00000020012A08D015
:102F1000242A134605D8064A844610680A466146A4
:102F200044E710B503F056FD16230360002010BDE2
:102F3000000000202DE9F04FBFB0884691460D9368
:102F40000C9004F09DFE036814931846FEF7F8FDFC
:102F5000B8F80C301390180604D5D8F81030002BB0
:102F600000F0CA860023CDE922330F931293159304
:102F7000099300240023CDE910342EAA2192924611
:102F800099F80030002B00F080814C4604E014F8E2
:102F9000013F002B00F0C580252BF8D1B4EB0905CB
:102FA00040F0C3802378002B00F06F8100234FF0A6
:102FB000FF3265788DF8673004F1010918460892F0
:102FC0000A939B4609F10109A5F12002582A00F253
:102FD000D380DFE812F05302D100D1004E02D100BD
:102FE000D100D100D100D100D10001024902D100AD
:102FF0000C021102D1004402590059005900590035
:1030000059005900590059005900D100D100D10090
:10301000D100D100D100D100D100D100D1002B02CC
:103020006401D1006401D100D100D100D1005B0264
:10303000D100D1007800D100D100D100D100D10061
:103040006800D100D1006E02D100D100D100D100C2
:10305000D100D100D100D100D100D1006002C40163
:103060006401640164018F02C401D100D100030333
:10307000D100ED027A00D202CD02D100AB02D10024
:103080006A00D100D1009402A5F13002002119F8A4
:10309000015B01EB810102EB4101A5F13002092A3C
:1030A000F5D90A9190E74BF0100B1BF0200100F0CE
:1030B00048810D9B073323F00703596853F8080B29
:1030C0000D9301230EE04BF0100B1BF0200100F0DC
:1030D0002B810D9B073323F00703596853F8080B26
:1030E0000D93002300248DF86740089A561C00F0C9
:1030F00084822BF08006069650EA010640F07B821F
:10310000002A40F00383002B40F024851BF00103CC
:103110000B9300F0908530238DF8B7300DF1B70692
:1031200090E2B4EB090500F0B080239B2B4423937D
:10313000229B0133072BCAE90095229305DC0AF193
:10314000080A099B2B4409932CE70C9821AA4146B5
:1031500006F064FA18B90DF1B80AF2E7B846B8F803
:103160000C3013F0400F099B18BF4FF0FF33099349
:1031700009983FB0BDE8F08F002B40F0C587002DC7
:1031800000F0838000238DF8673001238DF8905084
:1031900007930B9324AE0023CDF818B008930E9339
:1031A000069B13F0020302D0079A02320792069A96
:1031B00012F0840B05D10A9A0799571A002F00F3D1
:1031C0009883239C9DF867208AB1229A0DF16701AC
:1031D00001320134CAF80010072A4FF0010123948C
:1031E0002292CAF8041000F3CD830AF1080A83B1D1
:1031F000229B1AAA01330234CAF80020072B4FF091
:10320000020223942293CAF8042000F3C9830AF12E
:10321000080ABBF1800F00F09582089B0B9AA3EB84
:10322000020BBBF1000F00F3CF82069BDF0500F11C
:1032300012820B9BCAF804301C44229BCAF800601F
:103240000133072B2394229300F347830AF1080AE2
:10325000069B5B0705D50A9B079A9D1A002D00F374
:10326000AB83DDE9093207998A42ACBF9B185B1832
:103270000993002C40F0E2820023229399F8003059
:103280000DF1B80A002B7FF480AE239B002B3FF496
:1032900066AF0C9821AA414606F0C0F95FE7002B03
:1032A00040F0D4870D9B073323F00702F2E8023485
:1032B000CDE91034DDE9103424F000440D921E46AF
:1032C00018462146B54B4FF0FF3208F0FBF90028B5
:1032D00040F0B884B14B304621464FF0FF32FDF745
:1032E0009FFC002840F0AE84DDE91001002200239D
:1032F000FDF78CFC002840F0E0869DF86740A84E62
:103300002BF080030693A74B0022472DC8BF1E4613
:103310000323CDE907320B930E92002C3FF440AF0C
:10332000079B013307933BE71BF0100348D11BF0C9
:10333000400145D00D9A52F8040B0D92194680B207
:10334000D0E61BF0100341D11BF040013ED00D9A96
:1033500052F8040B0D92194680B20123C2E6002BED
:1033600040F07C871BF0200F0D9B68D0073323F0C3
:1033700007031A465B6852F8080B0D921946002B9A
:10338000C0F23084089B013300F06B852BF0800382
:10339000069350EA01039DF8674000F0D783DDF8FB
:1033A00018B00A2871F1000380F0FC84303001234A
:1033B0008DF8B700CDF818B00B930DF1B70641E1C9
:1033C0000D9B53F8040B0D930B468BE60D9B53F8A6
:1033D000040B0D93012385E60D9A52F8041B0A9104
:1033E000002980F223840A990D9249420A9199F8A2
:1033F00000504BF0040BE5E5494611F8015B2A2D1E
:1034000000F0A387A5F13002092A894698BF002160
:1034100000F2208719F8015B01EB810102EB410109
:10342000A5F13002092AF5D90891CDE5002B40F02D
:1034300019874BF0100B1BF0200F0D9B96D153F802
:10344000040B0D931BF0100F40F0C7831BF0400FCF
:1034500000F0C38340F3C0310B4600B28FE799F808
:1034600000504BF0800BADE599F8005001232B2064
:10347000A8E599F800504BF0010BA3E599F800502E
:1034800000287FF49FAD012320209BE599F8005090
:103490004BF0080B96E50D9B00228DF8672053F842
:1034A000042B0D9301238DF8902007930B9324AEEA
:1034B00071E6002B40F0DA863B4B12931BF02001A3
:1034C00025D00D9B073323F00703596853F8080BE9
:1034D0000D931BF0010F0BD050EA010308D03023ED
:1034E0008DF868308DF869504BF0020B0223F9E536
:1034F0000223F7E599F800504BF0400B62E5002BF2
:1035000040F0A086294B12931BF02001D9D11BF06B
:10351000100340F05D831BF0400100F059830D9AC9
:1035200052F8040B0D92194680B2D2E70D9C089B0D
:1035300054F8046B00278DF86770002E00F0C884E3
:103540005A1C00F0E9831A463946304604F010FF51
:10355000002800F05F86831B0B9323EAE3730D942E
:1035600008979DF86740CDF818B007930E97D4E6FA
:1035700099F800504BF0200B24E50D9B53F8040BF9
:103580000D93302378258DF86830084B12934BF05B
:10359000020B8DF8695000210223A3E5FFFFEF7FA6
:1035A0002C5C0208305C0208505C02083C5C02089B
:1035B000002B40F05F861BF0200F40F087831BF04C
:1035C000100F40F0E1831BF0400F00F0DD830D9BF6
:1035D000099953F8042B0D931180D1E499F8005008
:1035E0006C2D03BF99F801504BF0200B09F1010934
:1035F0004BF0100BE6E4DDF818B0012B3FF4D1AE30
:10360000022B00F08B802EAE00F00703C00840EACA
:103610004170C908303350EA0107324606F8013DCF
:10362000F2D11BF0010F00F08780302B00F0848076
:103630003023023A06F8013C2EAB9B1ACDF818B0A5
:103640000B931646089B0B9A9342B8BF13460793F9
:1036500000230E9361E6652D40F3F980DDE910014A
:1036600000220023FDF7C8FA002800F0DE81229B2B
:10367000C14ACAF80020013301340122072B2394E8
:103680002293CAF8042000F3FC830AF1080A1B9B6A
:103690000F9A934203DB069BD8077FF5D9AD139BA6
:1036A000149A1C44CAE90023229B23940133072B5C
:1036B000229300F300840AF1080A0F9B5D1E002D7F
:1036C0007FF7C6AD102D229BAC4F40F3CE83DDF8C3
:1036D00030B0102605E00AF1080A103D102D40F325
:1036E000C48301331034072BCAE90076CDE92234B4
:1036F000F1DD21AA4146584605F090FF00287FF4ED
:103700002EADDDE922340DF1B80AE6E7012B00F019
:103710004C85022BDDF818B07FF475AF129A2EAEEF
:1037200000F00F030009D35C06F8013D40EA017088
:10373000090950EA0103F3D12EAB9B1BCDF818B059
:103740000B937FE70A9B079AA3EB020BBBF1000FD9
:103750007FF763ADBBF1100F229A884F26DD21461B
:1037600010230C9C06E0ABF1100BBBF1100F0AF11B
:10377000080A1ADD01321031072ACAE90073CDE9BF
:103780002221F0DD21AA414620460DF1B80A05F0BC
:1037900045FF00287FF4E3ACABF1100BBBF1100F39
:1037A000DDE922214FF01003E4DC0C4601325C44D9
:1037B000072ACDE92224CAF80070CAF804B000F341
:1037C0006D830AF1080A28E5BBF1100F229A6B4FAE
:1037D00026DD214610230C9C06E0ABF1100BBBF15B
:1037E000100F0AF1080A1ADD01321031072ACAE95E
:1037F0000073CDE92221F0DD21AA4146204605F0E3
:103800000DFF00287FF4ABACABF1100BBBF1100F38
:10381000DDE922210DF1B80A4FF01003E4DC0C467B
:1038200001325C44072ACDE92224CAF80070CAF8A4
:1038300004B000F3C0810AF1080AF6E40C9821AA4A
:10384000414605F0EBFE00283FF416AD87E40F9BE0
:10385000012B40F35D81229DCAF8006001350134DF
:103860000123072D23942295CAF8043000F3C48164
:103870000AF1080A139B149A01351C44072DCAE962
:103880000023CDE9225400F3C4810AF1080ADDE9DE
:10389000100100220023FDF7AFF9002840F05F81FE
:1038A0000F9B0135013B01361C44072DCAF800600F
:1038B0002295CAF80430239400F33B810AF1080AE8
:1038C000159BCAF8043001351C44072D1DABCDE90A
:1038D0002254CAF800307FF7B9AC0C9821AA4146AF
:1038E00005F09CFE00287FF43AAC239C0DF1B80A49
:1038F000AEE4102FDDE922212FDDCDE916354B4650
:103900000C9DB14610243E4608464746984604E0C2
:10391000103E102E0AF1080A17DD0132184B103044
:10392000072ACAE90034CDE92220F1DD21AA39466F
:1039300028460DF1B80A05F071FE00287FF40EACA0
:10394000103E102EDDE92220E7DCDDE916350146C8
:103950004046B84637464E46814601327C18072A13
:103960000749CAF80470CDE92224CAF8001000F310
:1039700035820AF1080A25E484FE0108A8EB010853
:1039800098EB01080C98169321AA414605F046FED3
:1039900000287FF4E4AB239C169B0DF1B80A26E4C3
:1039A0000C9821AA414605F039FE00287FF4D7ABD8
:1039B000239C0DF1B80A2CE4102D229B1FDD0C9FD7
:1039C000102604E0103D102D0AF1080A17DD01331E
:1039D0009A4A1034072BCAE90026CDE92234F1DDDA
:1039E00021AA414638460DF1B80A05F017FE002815
:1039F0007FF4B5AB103D102DDDE92234E7DC013357
:103A00008E4ACAF804502C44072BCDE92234CAF858
:103A100000207FF726AC0C9821AA414605F0FEFD58
:103A200000287FF49CAB239C1BE41B99002940F3E6
:103A3000E481DDE90E379F42A8BF1F46002F0BDD52
:103A4000229B01333C44072BCAE90067239422934D
:103A500000F3C2830AF1080A0E9D002FA8BFED1BD8
:103A6000002D00F369811B9D0F9B9D4280F23881E0
:103A7000139B149A1C44CAE90023229B239401330C
:103A8000072B229300F31E830AF1080A0F9B0E9A5C
:103A90005D1B9F1AAF42A8BF2F46002F0EDD229B51
:103AA000CAF80470013316443C44072BCAF800607E
:103AB0002394229300F39F830AF1080A002FA8BFE2
:103AC000ED1B002D7FF7C4AB102D229B5C4F40F304
:103AD000CC81DDF830B0102605E00AF1080A103D6F
:103AE000102D40F3C28101331034072BCAE9007650
:103AF000CDE92234F1DD21AA4146584605F08EFD7C
:103B000000287FF42CABDDE922340DF1B80AE6E79A
:103B1000069BDA073FF59FAE229DCAF8006001358B
:103B200001340123072D23942295CAF804307FF72E
:103B3000C5AE0C9821AA414605F070FD00287FF41F
:103B40000EABDDE922540DF1B80AB9E6089B002B53
:103B500040F02B83002308930B932EAE72E50F9B4E
:103B60005E1E002E7FF7ACAE102E354F40F3F08175
:103B7000CDF820904FF0100BC146DDF8308005E005
:103B80000AF1080A103E102E40F3DF81013510348F
:103B9000072DCAE9007BCDE92254F1DD21AA49466F
:103BA000404605F03BFD002840F06883DDE92254E3
:103BB0000DF1B80AE6E70C9821AA414605F02EFD62
:103BC00000287FF4CCAA239C0DF1B80AFFF72DBB87
:103BD0000D9B53F8040B0D937BE4C1170B46002B90
:103BE000BFF6D0AB40424FF02D0461EB41018DF8A0
:103BF00067400123FFF779BA0C9821AA414605F0E6
:103C00000DFD00287FF4ABAADDE922540DF1B80ABE
:103C100030E60C9821AA414605F000FD00287FF40B
:103C20009EAADDE922540DF1B80A30E699F8005059
:103C30000D92FFF7C7B92EAE04E500BF98EB01085F
:103C4000A8EB0108DDE9100102460B4607F03AFD3A
:103C5000002840F03C83089B013325F020030B93A0
:103C600000F0C682472B00F09780DDE910124BF47C
:103C70008073171E0693C0F23F82109B07930023A8
:103C80001693662D00F07081462D00F06D810B9B20
:103C9000079A0C98452B1FA908BF089B04911CA9E3
:103CA00003911BA90CBF5C1C089C029102213B469E
:103CB0000194009101F02EFF672D064640F08282AC
:103CC0001BF0010F00F09881344464E10D9B0998CA
:103CD00053F8041B0D93C217C1E90002FFF750B956
:103CE000069BD9073FF5C4AEDDE90E239F1A5D1B85
:103CF000AF42A8BF2F46E1E60C98402104F068F8D7
:103D0000C8F80000C8F81000002800F02D834023F8
:103D1000C8F81430FFF726B930460D940897CDF84F
:103D200018B0FDF70DFF20EAE0739DF867400B9097
:103D300007930E97FFF7F1BA102D229BAB4F40F37C
:103D4000AF813A46089647460C9E4FF0100B9046BE
:103D500005E00AF1080A103D102D40F39D81013362
:103D60001034072BCAE9008BCDE92234F1DD21AAFA
:103D70003946304605F052FC00287FF4EFA9DDE912
:103D800022340DF1B80AE6E70D9B099953F8042B8C
:103D900011600D93FFF7F4B8089B002B08BF0123B7
:103DA000089362E72EAE06950A22002307460D46C9
:103DB000FDF770F9303206F8012D00233846294608
:103DC0000A22FDF767F90A2F75F10003ECD22EAB3A
:103DD0009B1B069D0B93CDF818B033E40C981693FB
:103DE00021AA414605F01AFC00287FF4B8A9239CBB
:103DF000169B0DF1B80AFFF7E5B9229B7C4ACAF879
:103E00000020013301340122072B23942293CAF8A6
:103E1000042000F364810AF1080A002961D1069B9D
:103E20000F9A03F0010313433FF412AA139B149952
:103E30001A19CAE90013229B23920133072B2293FC
:103E400000F366810AF1080A0F99CAF8006001338D
:103E50008C18072BCDE92234CAF804107FF7F6A995
:103E60003BE59DF86740FFF79CBA01332C44072BD4
:103E7000CAF80070CAF80450CDE922347FF7E6A9E9
:103E80002BE50C9821AA414605F0C8FB00287FF4D9
:103E900066A9239C0DF1B80AFFF7F9BB0C9821AA7B
:103EA000414605F0BBFB00287FF459A9239C0DF186
:103EB000B80AFFF7B2B90C9821AA414605F0AEFB4B
:103EC00000287FF44CA9239C0DF1B80AFFF7F5BB3D
:103ED000062B28BF0623474E0B930D940793FFF73D
:103EE0005AB9139B14981A19CAE90003229B23920A
:103EF0000133072B229300F30B810AF1080A0029F2
:103F0000A2DA4D421031394F80F2BB81DDF830B07A
:103F1000102405E00AF1080A103D102D40F3B1818C
:103F200001331032072BCAE90074CDE92232F1DDEA
:103F300021AA4146584605F071FB00287FF40FA9DD
:103F4000DDE922320DF1B80AE6E7C846DDF8209037
:103F5000CAF8007001353444072DCDE92254CAF85F
:103F600004607FF7ABACE4E51FA904911CA90391A1
:103F70001BA9089C029103213B460194079A0C98C7
:103F8000009101F0C7FD064604193378302B00F08C
:103F900090811B9B1C440798394600220023FCF7A4
:103FA0002BFE002840F0AE801F9BA34206D230219A
:103FB0005A1C1F9219701F9B9C42F9D89B1B0F9390
:103FC0000B9B472B1FD0662D40F0D6811B9B0E9379
:103FD000002B0BF0010B40F3EC8008995BEA010227
:103FE00040F098810E9B07930B9321E0A8EB01080A
:103FF00084FE0108645C02081F9B9B1B0F930B9BB4
:10400000472B40F0B9811B9B0E93D91C1BDB089AF0
:10401000934218DCDDE90E329342C0F207811BF0B7
:10402000010F40F06E8123EAE37207920B9367253C
:10403000169B002B00F0CA802D238DF867300023DB
:104040000893FFF76DB9023D0E9A8DF87450531E18
:10405000002B1B93B6BFC2F101032B222D22092B8B
:104060008DF875206EDC30338DF8773030238DF885
:104070007630042315930F9A159B012A13440B9352
:1040800040F336810B9B139A13440B9323EAE3739B
:10409000079300230E93CBE74246089EB846174687
:1040A00001332C44072BCDE92234CAF80070CAF83A
:1040B00004503BDC0AF1080AD5E42D248DF8674052
:1040C000FFF71DB90C9821AA414605F0A7FA002870
:1040D0007FF445A81B9D239C0DF1B80AD6E40C98EB
:1040E00021AA414605F09AFA00287FF438A81B99C6
:1040F000239C0DF1B80A90E62D23079102F10047A9
:104100001693BEE5234659E78DF86700FFF737B8E9
:104110000C9821AA414605F081FA00287FF41FA8D7
:10412000DDE922321B990DF1B80AE8E60C9821AAC4
:10413000414605F073FA00287FF411A8239C0DF185
:10414000B80A90E40DF183048D4F2246104687FB98
:104150000321DA17C2EBA10202EB8201A3EB4101BA
:10416000303100F8011C19466329134600F1FF3273
:10417000ECDC3033D9B2831E9C4202F8011C40F2C1
:10418000F08013460DF1760201E013F8011B02F8EE
:10419000011B9C42F9D10DF185030DF176021B1A2A
:1041A00013441DAA9B1A159365E7DDF818B0FFF7B5
:1041B000FDB8089A5BEA020340F0B480012307933C
:1041C0000B9335E7472D3FF47BAD7DE5169B9DF8BE
:1041D00067400893FFF7A1B80C9821AA414605F063
:1041E0001DFA00287EF4BBAF239C0DF1B80A33E41E
:1041F0000623089339E50C9821AA414605F00EFAEA
:1042000000287EF4ACAF1B9D0F9B239C5D1B0DF122
:10421000B80A53E4089B0D94CDF818B09DF8674098
:1042200007930B9308900E90FFF777B8139A0F9BA4
:1042300013440E9A0B93002A7CDD23EAE373079361
:104240006725F5E68DF86700FFF75CB98DF8670024
:10425000FFF728B800220892FEF7B6BE8DF8670077
:10426000FFF780B88DF86700FFF7E3B88DF86700B7
:10427000FFF722B98DF86700FFF79DB9C846FEF732
:104280006EBF01332A44072BCDE92232CAF80070F1
:10429000CAF804507FF7D6AD0C9821AA414605F024
:1042A000BDF900287EF45BAFDDE922320DF1B80ADA
:1042B000CAE50798394600220023FCF79DFC002838
:1042C0007FF467AE089BC3F101031B9362E6119B69
:1042D0002C4E002BB8BF2D242BF080030693A8BFD3
:1042E0009DF86740284BB8BF8DF86740FFF70CB8C2
:1042F0001BF001020E927FF4C5AE23EAE37307932D
:1043000096E60E9B139A13440B9323EAE3730793E9
:1043100067258DE6139A1344194421EAE1730B9142
:10432000079385E6139B01331A4422EAE2730B924A
:1043300007937DE60E9B0B9AC3F101031A4422EA10
:10434000E2730B920793672572E60D9A99F8015074
:10435000894652F8041B0D9241EAE1710891FEF77B
:1043600031BE0223159386E60C9A0C2313604FF09E
:10437000FF330993FEF7FCBE1B9B0E9364E600BF60
:1043800067666666345C0208385C02082DE9F04F07
:10439000BFB01C468846914605460C9003F070FC61
:1043A0000268149210460D94FDF7CAFB12901DB1DD
:1043B000AB6B002B00F03282B8F90C309D049AB23E
:1043C0000AD443F40053A8F80C309AB2D8F86430F9
:1043D00023F40053C8F86430100740F1AB80D8F8DC
:1043E0001030002B00F0A68002F01A020A2A00F01A
:1043F000AF800023CDE922330F93139315930A93D3
:1044000000240023CDE910342EAA2192924699F877
:104410000030002B00F098814C4604E014F8013F76
:10442000002B00F0E180252BF8D1B4EB090540F01A
:10443000DF802378002B00F0878100234FF0FF32CC
:10444000CDE9082365788DF8673004F10109184635
:104450009B4609F10109A5F12002582A00F2EB80E0
:10446000DFE812F06F02E900E9006A02E900E90002
:10447000E900E900E900E9001D026502E9002802FF
:104480002D02E900600259005900590059005900F5
:104490005900590059005900E900E900E900E90014
:1044A000E900E900E900E900E900E90047027C01D0
:1044B000E9007C01E900E900E900E900A602E90061
:1044C000E9009400E900E900E900E900E90084005E
:1044D000E900E9008502E900E900E900E900E900F6
:1044E000E900E900E900E900E9007702E0017C0168
:1044F0007C017C01AB02E001E900E900DC02E9009B
:10450000C6029600B502B002E9000A03E90086007F
:10451000E900E900E902A5F13002002119F8015B88
:1045200001EB810102EB4101A5F13002092AF5D925
:10453000099190E70C98414601F0BAF9002841F042
:10454000F380B8F80C2002F01A020A2A7FF451AF67
:10455000B8F90E30002BFFF64CAF0C9823464A46B4
:1045600041463FB0BDE8F04F01F06CB94BF0100B85
:104570001BF0200100F044810D9B073323F007035B
:10458000596853F8080B0D9301230EE04BF0100B04
:104590001BF0200100F027810D9B073323F0070358
:1045A000596853F8080B0D93002300248DF86740D9
:1045B000089A561C00F084822BF08006069650EA7A
:1045C000010640F07B82002A40F00083002B40F07F
:1045D00003851BF001030B9300F0788530238DF8E1
:1045E000B7300DF1B70690E2B4EB090500F0AC80EE
:1045F000239B2B442393229B0133072BCAE900956D
:10460000229305DC0AF1080A0A9B2B440A9310E75F
:104610000C9821AA414605F0E7FD18B90DF1B80A3A
:10462000F2E7B846B8F80C305B0601F17D800A98D5
:104630003FB0BDE8F08F002B40F0BF87002D00F0A9
:10464000838000238DF8673001238DF89050079305
:104650000B9324AE0023CDF818B008930E93069B5D
:1046600013F0020302D0079A02320792069A12F060
:10467000840B05D1099A0799571A002F00F39983E3
:10468000239C9DF867208AB1229A0DF167010132BF
:104690000134CAF80010072A4FF001012394229236
:1046A000CAF8041000F3CE830AF1080A83B1229BF2
:1046B0001AAA01330234CAF80020072B4FF0020275
:1046C00023942293CAF8042000F3CA830AF1080A4B
:1046D000BBF1800F00F09682089B0B9AA3EB020BB4
:1046E000BBF1000F00F3D082069BDF0500F11682BC
:1046F0000B9BCAF804301C44229BCAF800600133AB
:10470000072B2394229300F348830AF1080A069B9F
:104710005A0705D5099B079A9D1A002D00F3AC8313
:10472000DDE9092307998A42ACBF9B185B180A93FD
:10473000002C40F0E3820023229399F800300DF121
:10474000B80A002B7FF468AE239B002B3FF46AAFBE
:104750000C9821AA414605F047FD63E7002B40F085
:10476000CC870D9B073323F00702F2E80234CDE932
:104770001034DDE9103424F000440D921E46184632
:104780002146B84B4FF0FF3206F09CFF002840F066
:10479000A384B44B304621464FF0FF32FCF740FA79
:1047A000002840F09984DDE9100100220023FCF785
:1047B0002DFA002840F0E4869DF86740AA4E2BF0C1
:1047C00080030693A94B0022472DC8BF1E46032332
:1047D000CDE907320B930E92002C3FF440AF079BBC
:1047E000013307933BE71BF0100352D11BF040014C
:1047F0004FD00D9A52F8040B0D92194680B2D4E6B0
:104800001BF010033FD11BF040013CD00D9A52F831
:10481000040B0D92194680B20123C6E60C9802F0F3
:1048200099FAC9E5002B40F078871BF0200F0D9B0B
:1048300068D0073323F007031A465B6852F8080B69
:104840000D921946002BC0F22D84089B013300F015
:10485000F2842BF08003069350EA01039DF8674031
:1048600000F0B683DDF818B00A2871F1000380F07B
:10487000E984303001238DF8B700CDF818B00B93E0
:104880000DF1B70641E10D9B53F8040B0D93012385
:104890008BE60D9B53F8040B0D930B4685E60D9AA2
:1048A00052F8041B0991002980F20B8409990D929A
:1048B0004942099199F800504BF0040BC9E549466B
:1048C00011F8015B2A2D00F09E87A5F13002092A1C
:1048D000894698BF002100F20C8719F8015B01EBB3
:1048E000810102EB4101A5F13002092AF5D90891B5
:1048F000B1E5002B40F009874BF0100B1BF0200FA7
:104900000D9B96D153F8040B0D931BF0100F40F044
:10491000C4831BF0400F00F0C08340F3C0310B464E
:1049200000B28FE799F800504BF0800B91E599F8B1
:10493000005001232B208CE599F800504BF0010B1F
:1049400087E599F8005000287FF483AD01232020EB
:104950007FE50D9B00228DF8672053F8042B0D9303
:1049600001238DF8902007930B9324AE72E6002B61
:1049700040F0BB863E4B13931BF0200163D00D9B90
:10498000073323F00703596853F8080B0D931BF006
:10499000010F0BD050EA010308D030238DF86830A6
:1049A0008DF869504BF0020B0223FEE50223FCE573
:1049B00099F800504BF0080B4BE599F800504BF07C
:1049C000400B46E599F800504BF0200B41E50D9B5C
:1049D00053F8040B0D93302378258DF86830254B60
:1049E00013934BF0020B8DF8695000210223DCE594
:1049F000002B40F086861BF0200F40F012841BF045
:104A0000100F40F084841BF0400F00F080840D9B59
:104A10000A9953F8042B0D931180F8E499F800508B
:104A20006C2D03BF99F801504BF0200B09F10109DF
:104A30004BF0100B0DE5002B40F06B860D4B1393E4
:104A40001BF020019BD11BF0100340F021831BF0D1
:104A5000400100F01D830D9A52F8040B0D92194687
:104A600080B294E7FFFFEF7F2C5C0208305C020805
:104A7000505C02083C5C02080D9C089B54F8046BD7
:104A800000278DF86770002E00F010845A1C00F08B
:104A900005851A463946304603F06AFC002800F0C6
:104AA0000C86831B0B9323EAE3730D9408979DF800
:104AB0006740CDF818B007930E978DE6DDF818B073
:104AC000012B3FF4D1AE022B00F088802EAE00F017
:104AD0000703C00840EA4170C908303350EA0107B3
:104AE000324606F8013DF2D11BF0010F00F0848040
:104AF000302B00F081803023023A06F8013C2EABC7
:104B00009B1ACDF818B00B931646089B0B9A93424C
:104B1000B8BF1346079300230E935DE6652D40F35F
:104B2000F680DDE9100100220023FCF765F800287B
:104B300000F0DB81229BC04ACAF800200133013417
:104B40000122072B23942293CAF8042000F35084F7
:104B50000AF1080A1B9B0F9A934280F2AD82129BC6
:104B6000149A1C44CAE90023229B23940133072B87
:104B7000229300F38F830AF1080A0F9B5D1E002D1C
:104B80007FF7C5AD102D229BAC4F40F32584DDF897
:104B900030B0102605E00AF1080A103D102D40F350
:104BA0001B8401331034072BCAE90076CDE9223487
:104BB000F1DD21AA4146584605F016FB00287FF496
:104BC00031ADDDE922340DF1B80AE6E7012B00F042
:104BD0002585022BDDF818B07FF478AF139A2EAE3E
:104BE00000F00F030009D35C06F8013D40EA0170B4
:104BF000090950EA0103F3D12EAB9B1BCDF818B085
:104C00000B9382E7099B079AA3EB020BBBF1000F02
:104C10007FF762ADBBF1100F229A884F26DD214647
:104C200010230C9C06E0ABF1100BBBF1100F0AF146
:104C3000080A1ADD01321031072ACAE90073CDE9EA
:104C40002221F0DD21AA414620460DF1B80A05F0E7
:104C5000CBFA00287FF4E6ACABF1100BBBF1100FE0
:104C6000DDE922214FF01003E4DC0C4601325C4404
:104C7000072ACDE92224CAF80070CAF804B000F36C
:104C8000C4830AF1080A27E5BBF1100F229A6B4F83
:104C900026DD214610230C9C06E0ABF1100BBBF186
:104CA000100F0AF1080A1ADD01321031072ACAE989
:104CB0000073CDE92221F0DD21AA4146204605F00E
:104CC00093FA00287FF4AEACABF1100BBBF1100FE0
:104CD000DDE922210DF1B80A4FF01003E4DC0C46A7
:104CE00001325C44072ACDE92224CAF80070CAF8D0
:104CF00004B000F3C0810AF1080AF5E40C9821AA77
:104D0000414605F071FA00283FF415AD8AE40F9B87
:104D1000012B40F36681229DCAF800600135013401
:104D20000123072D23942295CAF8043000F3F7825B
:104D30000AF1080A129B149A01351C44072DCAE98E
:104D40000023CDE9225400F3F7820AF1080ADDE9D5
:104D5000100100220023FBF74FFF002840F05F8185
:104D60000F9B0135013B01361C44072DCAF800603A
:104D70002295CAF80430239400F344810AF1080A0A
:104D8000159BCAF8043001351C44072D1DABCDE935
:104D90002254CAF800307FF7B8AC0C9821AA4146DB
:104DA00005F022FA00287FF43DAC239C0DF1B80AEF
:104DB000ADE4102FDDE922212FDDCDE916354B467C
:104DC0000C9DB14610243E4608464746984604E0EE
:104DD000103E102E0AF1080A17DD0132184B103070
:104DE000072ACAE90034CDE92220F1DD21AA39469B
:104DF00028460DF1B80A05F0F7F900287FF411AC48
:104E0000103E102EDDE92220E7DCDDE916350146F3
:104E10004046B84637464E46814601327C18072A3E
:104E20000749CAF80470CDE92224CAF8001000F33B
:104E3000C4820AF1080A24E484FE0108C8EB0108D0
:104E4000B8EB01080C98169321AA414605F0CCF95D
:104E500000287FF4E7AB239C169B0DF1B80A25E4EC
:104E60000C9821AA414605F0BFF900287FF4DAAB7F
:104E7000239C0DF1B80A2BE4102D229B1FDD0C9F03
:104E8000102604E0103D102D0AF1080A17DD013349
:104E90008F4A1034072BCAE90026CDE92234F1DD10
:104EA00021AA414638460DF1B80A05F09DF90028BF
:104EB0007FF4B8AB103D102DDDE92234E7DC01337F
:104EC000834ACAF804502C44072BCDE92234CAF88F
:104ED00000207FF725AC0C9821AA414605F084F903
:104EE00000287FF49FAB239C1AE41B99002940F310
:104EF0003082DDE90E379F42A8BF1F46002F0BDD31
:104F0000229B01333C44072BCAE900672394229378
:104F100000F3B5830AF1080A0E9D002FA8BFED1B10
:104F2000002D00F3CC811B9D0F9B9D4280F2A6813A
:104F3000129B149A1C44CAE90023229B2394013338
:104F4000072B229300F38E830AF1080A0F9B0E9A17
:104F50005D1B9F1AAF42A8BF2F46002F0EDD229B7C
:104F6000CAF80470013316443C44072BCAF80060A9
:104F70002394229300F392830AF1080A002FA8BF1A
:104F8000ED1B002D7FF7C3AB102D229B514F40F33B
:104F90002382DDF830B0102605E00AF1080A103D42
:104FA000102D40F3198201331034072BCAE9007623
:104FB000CDE92234F1DD21AA4146584605F014F925
:104FC00000287FF42FABDDE922340DF1B80AE6E7C3
:104FD000089B002B40F02283002308930B932EAEF6
:104FE00093E5069BD9073FF596AE229DCAF800606F
:104FF000013501340123072D23942295CAF804308A
:105000007FF7BCAE0C9821AA414605F0EDF80028C8
:105010007FF408ABDDE922540DF1B80AB0E60F9B2E
:105020005E1E002E7FF7ACAE102E2A4F40F3498251
:10503000CDF820904FF0100BC146DDF8308005E030
:105040000AF1080A103E102E40F338820135103460
:10505000072DCAE9007BCDE92254F1DD21AA49469A
:10506000404605F0C1F8002840F05B83DDE922549A
:105070000DF1B80AE6E70C9821AA414605F0B4F80C
:1050800000287FF4CFAA239C0DF1B80AFFF72CBBB0
:105090000D9B53F8040B0D9379E4C1170B46002BBD
:1050A000BFF6D3AB40424FF02D0461EB41018DF8C8
:1050B00067400123FFF77CBA069BDD077FF527AB2E
:1050C0004DE599F800500D92FFF7C3B92EAE1CE5DF
:1050D000B8EB0108C8EB0108DDE9100102460B46F8
:1050E00006F0F0FA002840F04E83089B013325F0CB
:1050F00020030B9300F0CF82472B00F06F82DDE995
:1051000010124BF48073171E0693C0F23E82109B60
:10511000079300231693662D00F0DF81462D00F0E3
:10512000DC810B9B079A0C98452B1FA908BF089B95
:1051300004911CA903911BA90CBF5C1C089C029143
:1051400002213B460194009100F0E4FC672D0646E5
:1051500040F02E821BF0010F40F02D821F9B9B1B05
:105160000F930B9B472B40F05A831B9B0E93D91C2C
:1051700003DB089A934240F36782023D0E9A8DF852
:105180007450531E002B1B93B6BFC2F101032B2298
:105190002D22092B8DF8752040F3E3820DF1830455
:1051A000BA4F2246104687FB0321DA17C2EBA10251
:1051B00002EB8201A3EB4101303100F8011C1946DA
:1051C0006329134600F1FF32ECDC3033D9B2831E81
:1051D0009C4202F8011C40F2138313460DF1760243
:1051E00001E013F8011B02F8011B9C42F9D10DF1FB
:1051F00085030DF176021B1A13441DAA9B1A159301
:105200000F9A159B012A13440B9340F3B3820B9B17
:10521000129A13440B9323EAE373079300230E932C
:1052200093E10D9B0A9853F8041B0D93C217C1E933
:105230000002FFF7ECB80A2871F100039DF86740FF
:10524000FFF417AB2EAE06950A22002307460D4643
:10525000FBF720FF303206F8012D0023384629469F
:105260000A22FBF717FF0A2F75F10003ECD22EABD1
:105270009B1B069D0B93CDF818B046E4069BD80700
:105280003FF556AEDDE90E239F1A5D1BAF42A8BF66
:105290002F4673E60C9821AA414604F0A5FF00288A
:1052A0007FF4C0A9239C0DF1B80A66E4062B28BF41
:1052B0000623774E0B930D940793FFF7CBB9102D70
:1052C000229B744F40F34F813A46089647460C9E06
:1052D0004FF0100B904605E00AF1080A103D102D22
:1052E00040F33D8101331034072BCAE9008BCDE92F
:1052F0002234F1DD21AA3946304604F075FF00283A
:105300007FF48FA9DDE922340DF1B80AE6E70D9BA1
:105310000A9953F8042B11600D93FFF778B80C9895
:1053200021AA414604F060FF00287FF47BA9DDE953
:1053300022540DF1B80AFDE40C9821AA414604F06C
:1053400053FF00287FF46EA9DDE922540DF1B80A5D
:10535000FDE4229B504ACAF80020013301340122A7
:10536000072B23942293CAF8042000F314810AF136
:10537000080A002956D1069B0F9A03F00103134334
:105380003FF4C5A9129B14991A19CAE90013229B6C
:1053900023920133072B229300F326810AF1080A96
:1053A0000F99CAF8006001338C18072BCDE922341D
:1053B000CAF804107FF7A9A9EFE40C98169321AA64
:1053C000414604F011FF00287FF42CA9239C169B72
:1053D0000DF1B80AFFF755B901332C44072BCAF871
:1053E0000070CAF80450CDE922347FF78EA9D4E4C6
:1053F0000C9821AA414604F0F7FE00287FF412A978
:10540000239C0DF1B80AFFF7A5BB0C9821AA4146D1
:1054100004F0EAFE00287FF405A9239C0DF1B80AE8
:10542000FFF75AB9129B14981A19CAE90003229B74
:1054300023920133072B229300F3D6800AF1080A46
:105440000029ADDA4D421031124F80F27281DDF841
:1054500030B0102405E00AF1080A103D102D40F389
:10546000688101331032072BCAE90074CDE922327A
:10547000F1DD21AA4146584604F0B6FE00287FF42B
:10548000D1A8DDE922320DF1B80AE6E76766666663
:10549000645C0208C8EB010884FE010830460D94E4
:1054A0000897CDF818B0FCF74BFB20EAE0739DF8A5
:1054B00067400B9007930E97FFF78EB9C846DDF84B
:1054C0002090CAF8007001353444072DCDE92254EC
:1054D000CAF804607FF752AC94E51FA904911CA997
:1054E00003911BA9089C029103213B460194079A52
:1054F0000C98009100F00EFB064604193378302B0F
:105500005FD01B9B1C440798394600220023FBF701
:1055100073FB002800F0868023469B1B0F930B9B98
:10552000472B3FF422AE662D40F079811B9B0E93F2
:10553000002B0BF0010B40F3538108995BEA010249
:1055400040F03B810E9B07930B93169B002B75D06D
:105550002D238DF8673000230893FFF740B94246AA
:10556000089EB846174601332C44072BCDE9223458
:10557000CAF80070CAF8045044DC0AF1080AD2E400
:105580002D248DF86740FFF719B92D23079102F1FB
:1055900000471693BFE50C9821AA414604F024FE6B
:1055A00000287FF43FA81B99239C0DF1B80AE0E680
:1055B000472D3FF4CFAD3444A5E78DF86700FFF7E2
:1055C0003DB80798394600220023FBF715FB002859
:1055D00097D1089BC3F101031B9393E7089B002B12
:1055E00008BF012308938AE50C9821AA414604F0DC
:1055F000FBFD00287FF416A8DDE922321B990DF18E
:10560000B80A1DE70C9821AA414604F0EDFD0028D8
:105610007FF408A8239C0DF1B80A84E4DDF818B0E3
:10562000FFF727B91F9BA342BFF477AF30215A1C65
:105630001F9219701F9B9C42F9D86EE7169B9DF82C
:1056400067400893FFF7C8B8DDE90E32934240DBAC
:105650001BF0010F40F0A88023EAE37207920B933E
:10566000672572E70C9821AA414604F0BDFD002889
:105670007EF4D8AF1B9D239C0DF1B80A66E40C980C
:1056800021AA414604F0B0FD00287EF4CBAF239C54
:105690000DF1B80A40E40623089330E50C9821AADE
:1056A000414604F0A1FD00287EF4BCAF1B9D0F9B7A
:1056B000239C5D1B0DF1B80A60E4089B0D94CDF8A6
:1056C00018B09DF8674007930B9308900E90FFF772
:1056D00083B8129A0F9B13440E9A0B93002A74DD21
:1056E00023EAE373079367252FE78DF86700FFF739
:1056F00041B900220892FEF7AEBE8DF86700FFF7B1
:1057000030B88DF86700FFF776B98DF86700FFF7BE
:10571000F3B88DF86700FFF791B98DF86700FFF7D0
:1057200084B8C846FEF77EBF4FF0FF330A93FEF7FA
:105730007EBF01332A44072BCDE92232CAF800701C
:10574000CAF804507FF72AAE0C9821AA414604F00B
:105750004BFD00287EF466AFDDE922320DF1B80A78
:105760001EE630338DF8773030238DF87630042301
:10577000159345E51BF001020E927FF448AD23EA34
:10578000E3730793E1E6119B264E002BB8BF2D244F
:105790002BF080030693A8BF9DF86740224BB8BF4B
:1057A0008DF86740FFF70FB80E9B129A13440B93C6
:1057B00023EAE37307936725C7E6129A1344194453
:1057C00021EAE1730B910793BFE60E9B0B9AC3F19D
:1057D00001031A4422EAE2730B9207936725B4E6A9
:1057E000089A5BEA020303D1012307930B93ACE60B
:1057F000129B01331A4422EAE2730B920793A4E648
:1058000002231593FCE40D9A99F80150894652F849
:10581000041B0D9241EAE1710891FEF71ABE1B9B31
:105820000E93ABE4345C0208385C020810B4044CFC
:1058300084461346206810BC0A466146FEF7A6BDA2
:105840000000002070B50C468989ADF58D6D21F002
:105850000201ADF80C10616E1991E189ADF80E10DE
:10586000E1690791616A09911AA9009104914FF4C5
:105870008061029105910021069169460646FEF776
:1058800085FD051E07DB6946304601F039F9002821
:1058900018BF4FF0FF35BDF80C305B0603D5A38968
:1058A00043F04003A38128460DF58D6D70BD00BF08
:1058B00038B5334B1B6805460C460BB19A6B12B3D7
:1058C000B4F90C3018079AB225D5216900292DD0DA
:1058D00012F0010007D00020A06060694042A06182
:1058E00039B1002038BD950758BF6069A060002914
:1058F000F7D1120658BF0846F4D543F04003A38100
:105900004FF0FF3038BD184601F024FAB4F90C30DE
:1059100018079AB2D9D4D1062AD5520714D42169CE
:1059200043F00803A3819AB20029D1D102F4207078
:10593000B0F5007FCCD02146284602F0A9F9B4F991
:105940000C3021699AB2C3E7216B51B104F14002D6
:10595000914204D0284601F06DFAB4F90C300022CF
:10596000226321690022C4E9001223F02403D7E74F
:10597000092243F040032A604FF0FF30A38138BD75
:105980000000002070B4184C2568D5F848411CB3BD
:1059900065681F2D25DC38B9AB1C0135656044F8FE
:1059A0002310002070BC704704EB850C0228CCF853
:1059B0008820D4F888614FF0010202FA05F246EA25
:1059C0000206C4F88861CCF80831E5D1D4F88C31EE
:1059D0001343C4F88C31DFE705F5A674C5F84841D8
:1059E000D6E74FF0FF30DDE744EB01080000000090
:1059F0002DE9F04F03690C69A34283B0C0F28680A1
:105A0000013C01F11405A30000F11408009355F8BE
:105A1000243058F8242001338A469A4208EB840146
:105A2000814605EB84070191B2FBF3F638D30023DE
:105A3000AE4640469B465EF8041B02681FFA81FC96
:105A400006FB0C33090C4FEA134C06FB01CC99B250
:105A5000ABEB01011FFA8CF311FA82F1C3EB124296
:105A600002EB214289B241EA0241774540F8041B2A
:105A70004FEA1C434FEA224BDDD2009B58F803301B
:105A800073B9019B043B984504D307E0984504F1A2
:105A9000FF3403D253F80429002AF7D0C9F8104084
:105AA0005146484602F094FF00282BDB0136404661
:105AB000002355F8041BD0F800C08AB29A1A0B0CC8
:105AC00012FA8CF2C3EB1C4303EB224392B242EA7C
:105AD0000342AF4240F8042B4FEA2343E9D258F87F
:105AE000242008EB84036AB9043B984504D307E0FB
