:020000040800F2
:1000000000000320611E0008611B0008631B00083C
:10001000651B0008671B0008691B00080000000042
:100020000000000000000000000000006B1B000842
:100030006D1B0008000000006F1B0008711B00080A
:10004000B11E0008B11E0008B11E0008B11E000854
:10005000B11E0008B11E00088DC1000897C100083C
:10006000B11E0008B11E0008B11E0008B11E000834
:10007000B11E0008B11E0008B11E0008B11E000824
:10008000B11E0008B11E0008B11E0008B11E000814
:10009000B11E0008B11E0008B11E0008B11E000804
:1000A000B11E0008B11E0008B11E0008B11E0008F4
:1000B000B11E0008B11E0008B11E0008B11E0008E4
:1000C000B11E0008B11E0008B11E0008B11E0008D4
:1000D000B11E00085DC300088DC30008CDC3000831
:1000E0006D170008B11E0008B11E0008B11E0008FF
:1000F000B11E0008B11E0008B11E0008B11E0008A4
:10010000B11E0008B11E0008B11E0008B11E000893
:10011000F9C30008B11E0008B11E0008B11E000896
:10012000B11E0008B11E0008B11E0008B11E000873
:10013000B11E0008B11E0008B11E0008B11E000863
:10014000B11E0008B11E0008B11E0008B11E000853
:10015000B11E0008B11E0008B11E0008B11E000843
:10016000B11E0008B11E0008B11E0008B11E000833
:10017000B11E0008B11E0008B11E000800000000FA
:10018000B11E0008B11E0008B11E0008B11E000813
:10019000B11E0008B11E0008B11E0008B11E000803
:0C01A000B11E0008B11E0008B11E0008CE
:1001C0004FF0FF0C1CEAD0521EBF1CEAD15392EA3A
:1001D0000C0F93EA0C0F6FD01A4480EA010C400216
:1001E00018BF5FEA41211ED04FF0006343EA501070
:1001F00043EA5111A0FB01310CF00040B1F5000FB2
:100200003EBF490041EAD3715B0040EA010062F160
:100210007F02FD2A1DD8B3F1004F40EBC25008BF4A
:1002200020F00100704790F0000F0CF0004C08BF68
:1002300049024CEA502040EA51207F3AC2BFD2F135
:10024000FF0340EAC250704740F400004FF0000343
:10025000013A5DDC12F1190FDCBF00F0004070477D
:10026000C2F10002410021FA02F1C2F1200200FABB
:1002700002FC5FEA310040F1000053EA4C0308BF82
:1002800020EADC70704792F0000F00F0004C02BFD3
:10029000400010F4000F013AF9D040EA0C0093F04E
:1002A000000F01F0004C02BF490011F4000F013BA8
:1002B000F9D041EA0C018FE70CEAD15392EA0C0F16
:1002C00018BF93EA0C0F0AD030F0004C18BF31F081
:1002D000004CD8D180EA010000F00040704790F057
:1002E000000F17BF90F0004F084691F0000F91F0FB
:1002F000004F14D092EA0C0F01D142020FD193EAC1
:100300000C0F03D14B0218BF084608D180EA010048
:1003100000F0004040F0FE4040F40000704740F024
:10032000FE4040F44000704781F0004102E000BF11
:1003300083F0004330B54FEA41044FEA430594EAA5
:10034000050F08BF90EA020F1FBF54EA000C55EAE0
:10035000020C7FEA645C7FEA655C00F0E2804FEAB1
:100360005454D4EB5555B8BF6D420CDD2C4480EA93
:10037000020281EA030382EA000083EA010180EAC3
:10038000020281EA0303362D88BF30BD11F0004F11
:100390004FEA01314FF4801C4CEA113102D0404247
:1003A00061EB410113F0004F4FEA03334CEA133382
:1003B00002D0524263EB430394EA050F00F0A7809A
:1003C000A4F10104D5F1200E0DDB02FA0EFC22FA95
:1003D00005F2801841F1000103FA0EF2801843FA89
:1003E00005F359410EE0A5F120050EF1200E012A7A
:1003F00003FA0EFC28BF4CF0020C43FA05F3C018B8
:1004000051EBE37101F0004507D54FF0000EDCF130
:10041000000C7EEB00006EEB0101B1F5801F1BD3D9
:10042000B1F5001F0CD349085FEA30004FEA3C0CDD
:1004300004F101044FEA445212F5800F80F09A80D3
:10044000BCF1004F08BF5FEA500C50F1000041EBD7
:10045000045141EA050130BD5FEA4C0C404141EBDB
:100460000101013C28BFB1F5801FE9D291F0000FD6
:1004700004BF01460020B1FA81F308BF2033A3F185
:100480000B03B3F120020CDA0C3208DD02F1140C7C
:10049000C2F10C0201FA0CF021FA02F10CE002F1B7
:1004A0001402D8BFC2F1200C01FA02F120FA0CFCB0
:1004B000DCBF41EA0C019040E41AA2BF01EB0451F9
:1004C000294330BD6FEA04041F3C1CDA0C340EDCF7
:1004D00004F11404C4F1200220FA04F001FA02F33A
:1004E00040EA030021FA04F345EA030130BDC4F1F8
:1004F0000C04C4F1200220FA02F001FA04F340EAED
:100500000300294630BD21FA04F0294630BD94F09D
:10051000000F83F4801306BF81F480110134013D84
:100520004EE77FEA645C18BF7FEA655C29D094EAF5
:10053000050F08BF90EA020F05D054EA000C04BF73
:100540001946104630BD91EA030F1EBF002100205E
:1005500030BD5FEA545C05D14000494128BF41F0FD
:10056000004130BD14F580043CBF01F5801130BD61
:1005700001F0004545F0FE4141F470014FF00000EC
:1005800030BD7FEA645C1ABF194610467FEA655C9D
:100590001CBF0B46024650EA013406BF52EA03353F
:1005A00091EA030F41F4002130BD00BF90F0000F2D
:1005B00004BF0021704730B54FF4806404F1320469
:1005C0004FF000054FF0000150E700BF90F0000F22
:1005D00004BF0021704730B54FF4806404F1320449
:1005E00010F0004548BF40424FF000013EE700BF19
:1005F00042004FEAE2014FEA31014FEA02701FBFA9
:1006000012F07F4393F07F4F81F06051704732F0DA
:100610007F4208BF704793F07F4F04BF41F4002131
:10062000704730B54FF4607401F0004521F000418F
:100630001CE700BF50EA010208BF704730B54FF019
:1006400000050AE050EA010208BF704730B511F01A
:10065000004502D5404261EB41014FF4806404F152
:1006600032045FEA915C3FF4D8AE4FF003025FEAD8
:10067000DC0C18BF03325FEADC0C18BF033202EB5C
:10068000DC02C2F1200300FA03FC20FA02F001FAB6
:1006900003FE40EA0E0021FA02F11444BDE600BF59
:1006A0004FF0FF3C06E000BF4FF0010C02E000BF3E
:1006B0004FF0010C4DF804CD4FEA410C7FEA6C5C21
:1006C0004FEA430C18BF7FEA6C5C1BD001B050EAC4
:1006D000410C0CBF52EA430C91EA030F02BF90EAAF
:1006E000020F0020704710F1000F91EA030F58BF6E
:1006F000994208BF90422CBFD8176FEAE37040F0D0
:10070000010070474FEA410C7FEA6C5C02D150EA6D
:10071000013C07D14FEA430C7FEA6C5CD6D152EA28
:10072000033CD3D05DF8040B704700BF84461046ED
:1007300062468C461946634600E000BF01B5FFF7EC
:10074000B7FF002848BF10F1000F01BD4DF808EDBC
:10075000FFF7F4FF0CBF012000205DF808FB00BF8D
:100760004DF808EDFFF7EAFF34BF012000205DF8E7
:1007700008FB00BF4DF808EDFFF7E0FF94BF012034
:1007800000205DF808FB00BF4DF808EDFFF7CEFF35
:1007900094BF012000205DF808FB00BF4DF808ED74
:1007A000FFF7C4FF34BF012000205DF808FB00BF45
:1007B0004FEA410212F5001215D211D56FF4787389
:1007C000B3EB625212D94FEAC12343F0004343EA2C
:1007D000505311F0004F23FA02F018BF4042704707
:1007E0004FF00000704750EA013005D111F0004091
:1007F00008BF6FF0004070474FF00000704700BF27
:100800004A0011D212F5001211D20DD56FF478738F
:10081000B3EB62520ED44FEAC12343F0004343EAE4
:10082000505323FA02F070474FF00000704750EA2F
:10083000013002D14FF0FF3070474FF00000704799
:100840004FEA4102B2F1E04324BFB3F5001CDCF1F2
:10085000FE5C0DD901F0004C4FEAC0024CEA50702A
:10086000B2F1004F40EB830008BF20F00100704759
:1008700011F0804F21D113F13872BCBF01F000405C
:10088000704741F480114FEA5252C2F11802C2F18E
:10089000200C10FA0CF320FA02F018BF40F001000F
:1008A0004FEAC1234FEAD32303FA0CFC40EA0C00C1
:1008B00023FA02F34FEA4303CCE77FEA625307D1FE
:1008C00050EA01331EBF4FF0FE4040F44000704735
:1008D00001F0004040F0FE4040F40000704700BFCF
:1008E00080F0004002E000BF81F0004142001FBFE5
:1008F0005FEA410392EA030F7FEA226C7FEA236CEE
:100900006AD04FEA1262D2EB1363C1BFD2184140E2
:1009100048404140B8BF5B42192B88BF704710F078
:10092000004F40F4000020F07F4018BF404211F01B
:10093000004F41F4000121F07F4118BF494292EA83
:10094000030F3FD0A2F1010241FA03FC10EB0C00AF
:10095000C3F1200301FA03F100F0004302D549423C
:1009600060EB4000B0F5000F13D3B0F1807F06D3E9
:1009700040084FEA310102F10102FE2A51D2B1F1E1
:10098000004F40EBC25008BF20F0010040EA0300D6
:100990007047490040EB0000013A28BFB0F5000F56
:1009A000EDD2B0FA80FCACF1080CB2EB0C0200FA0C
:1009B0000CF0AABF00EBC25052421843BCBFD0405B
:1009C0001843704792F0000F81F4000106BF80F4D5
:1009D00000000132013BB5E74FEA41037FEA226C98
:1009E00018BF7FEA236C21D092EA030F04D092F063
:1009F000000F08BF0846704790EA010F1CBF002097
:100A0000704712F07F4F04D1400028BF40F00040F3
:100A1000704712F100723CBF00F50000704700F013
:100A2000004343F0FE4040F4000070477FEA22623A
:100A300016BF08467FEA23630146420206BF5FEA0B
:100A4000412390EA010F40F4800070474FF000030B
:100A500004E000BF10F0004348BF40425FEA000CD2
:100A600008BF704743F0964301464FF000001CE07A
:100A700050EA010208BF70474FF000030AE000BFD0
:100A800050EA010208BF704711F0004302D540420E
:100A900061EB41015FEA010C02BF84460146002080
:100AA00043F0B64308BFA3F18053A3F50003BCFA9B
:100AB0008CF2083AA3EBC25310DB01FA02FC634448
:100AC00000FA02FCC2F12002BCF1004F20FA02F24F
:100AD00043EB020008BF20F00100704702F1200242
:100AE00001FA02FCC2F1200250EA4C0021FA02F2A3
:100AF00043EB020008BF20EADC7070474FF0FF3C78
:100B000006E000BF4FF0010C02E000BF4FF0010C07
:100B10004DF804CD4FEA40024FEA41037FEA226CD0
:100B200018BF7FEA236C11D001B052EA530C18BFF2
:100B300090EA010F58BFB2EB030088BFC81738BF57
:100B40006FEAE17018BF40F0010070477FEA226C45
:100B500002D15FEA402C05D17FEA236CE4D15FEA41
:100B6000412CE1D05DF8040B704700BF8446084675
:100B70006146FFE70FB5FFF7C9FF002848BF10F136
:100B8000000F0FBD4DF808EDFFF7F4FF0CBF01207B
:100B900000205DF808FB00BF4DF808EDFFF7EAFF05
:100BA00034BF012000205DF808FB00BF4DF808EDC0
:100BB000FFF7E0FF94BF012000205DF808FB00BFB5
:100BC0004DF808EDFFF7D2FF94BF012000205DF83B
:100BD00008FB00BF4DF808EDFFF7C8FF34BF012048
:100BE00000205DF808FB00BF53B94AB9002908BFCF
:100BF00000281CBF4FF0FF314FF0FF3000F00CB861
:100C0000ADF1080C6DE904CE10F02EFADDF804E029
:100C1000DDE9022304B07047704700BF844641EA13
:100C2000000313F003036DD1403A41D351F8043B64
:100C300040F8043B51F8043B40F8043B51F8043BB6
:100C400040F8043B51F8043B40F8043B51F8043BA6
:100C500040F8043B51F8043B40F8043B51F8043B96
:100C600040F8043B51F8043B40F8043B51F8043B86
:100C700040F8043B51F8043B40F8043B51F8043B76
:100C800040F8043B51F8043B40F8043B51F8043B66
:100C900040F8043B51F8043B40F8043B51F8043B56
:100CA00040F8043B51F8043B40F8043B403ABDD2C5
:100CB000303211D351F8043B40F8043B51F8043B67
:100CC00040F8043B51F8043B40F8043B51F8043B26
:100CD00040F8043B103AEDD20C3205D351F8043BF6
:100CE00040F8043B043AF9D2043208D0D2071CBFC2
:100CF00011F8013B00F8013B01D30B8803806046EB
:100D0000704700BF082A13D38B078DD010F0030360
:100D10008AD0C3F10403D21ADB071CBF11F8013BD0
:100D200000F8013B80D331F8023B20F8023B7BE71F
:100D3000043AD9D3013A11F8013B00F8013BF9D24A
:100D40000B7803704B7843708B78837060467047E4
:100D50000000000000000000000000000000000093
:100D60000000000000000000000000000000000083
:100D70000000000000000000000000000000000073
:100D800030B490F800F020F007016FF0000C10F084
:100D9000070491F820F040F048804FF000046FF015
:100DA0000700D1E9002391F840F000F1080082FA31
:100DB0004CF2A4FA8CF283FA4CF3A2FA8CF34BBBFC
:100DC000D1E9022382FA4CF200F10800A4FA8CF275
:100DD00083FA4CF3A2FA8CF3E3B9D1E9042382FA43
:100DE0004CF200F10800A4FA8CF283FA4CF3A2FA58
:100DF0008CF37BB9D1E9062301F1200182FA4CF290
:100E000000F10800A4FA8CF283FA4CF3A2FA8CF3F6
:100E1000002BC6D0002A04BF04301A4612BAB2FA18
:100E200082F200EBD20030BC7047D1E9002304F01D
:100E30000305C4F100004FEAC50514F0040F91F852
:100E400040F00CFA05F562EA05021CBF63EA0503EF
:100E500062464FF00004AAE7000000000000000016
:100E600001F0FF01102A2BDB10F0070F08D010F85B
:100E7000013B013A8B422DD010F0070F42B3F6D15F
:100E8000F0B441EA012141EA014122F007047FF078
:100E900000070023F0E80256083C85EA010586EACF
:100EA000010685FA47F5A3FA87F586FA47F6A5FA0B
:100EB00087F68EB9EED1F0BC01F0FF0102F0070217
:100EC00032B110F8013B013A83EA010313B1F8D1C2
:100ED0000020704701387047002D06BF35460338A3
:100EE000073815F0010F07D1013015F4807F02BFDC
:100EF000013015F4C03F0130F0BC0138704700BF2D
:100F000070B54FF0FF0C4CF4E06C1CEA11541DBF9F
:100F10001CEA135594EA0C0F95EA0C0F00F0DEF86A
:100F20002C4481EA030621EA4C5123EA4C5350EA4F
:100F3000013518BF52EA033541F4801143F48013A0
:100F400038D0A0FB02CE4FF00005E1FB02E506F031
:100F50000042E0FB03E54FF00006E1FB03569CF086
:100F6000000F18BF4EF0010EA4F1FF04B6F5007F8C
:100F700064F5407404D25FEA4E0E6D4146EB0606FE
:100F800042EAC62141EA55514FEAC52040EA5E5087
:100F90004FEACE2EB4F1FD0C88BFBCF5E06F1ED831
:100FA000BEF1004F08BF5FEA500E50F1000041EB68
:100FB000045170BD06F0004646EA010140EA020015
:100FC00081EA0301B4EB5C04C2BFD4EB0C0541EA37
:100FD000045170BD41F480114FF0000E013C00F34C
:100FE000AB8014F1360FDEBF002001F0004170BD70
:100FF000C4F10004203C35DA0C341BDC04F1140489
:10100000C4F1200500FA05F320FA04F001FA05F214
:1010100040EA020001F0004221F0004110EBD370E1
:1010200021FA04F642EB06015EEA430E08BF20EA0D
:10103000D37070BDC4F10C04C4F1200500FA04F3B0
:1010400020FA05F001FA04F240EA020001F0004142
:1010500010EBD37041F100015EEA430E08BF20EAB5
:10106000D37070BDC4F1200500FA05F24EEA020EFD
:1010700020FA04F301FA05F243EA020321FA04F02C
:1010800001F0004121FA04F220EA020000EBD370E3
:101090005EEA430E08BF20EAD37070BD94F0000FE3
:1010A0000FD101F00046400041EB010111F4801F17
:1010B00008BF013CF7D041EA060195F0000F18BFC8
:1010C000704703F00046520043EB030313F4801F04
:1010D00008BF013DF7D043EA0603704794EA0C0FBE
:1010E0000CEA135518BF95EA0C0F0CD050EA4106D4
:1010F00018BF52EA4306D1D181EA030101F0004151
:101100004FF0000070BD50EA410606BF1046194678
:1011100052EA430619D094EA0C0F02D150EA013684
:1011200013D195EA0C0F05D152EA03361CBF1046C5
:1011300019460AD181EA030101F0004141F0FE4164
:1011400041F470014FF0000070BD41F0FE4141F4E8
:10115000780170BD70B54FF0FF0C4CF4E06C1CEAE8
:1011600011541DBF1CEA135594EA0C0F95EA0C0F9D
:1011700000F0A7F8A4EB050481EA030E52EA033558
:101180004FEA013100F088804FEA03334FF0805579
:1011900045EA131343EA12634FEA022245EA1115A6
:1011A00045EA10654FEA00260EF000419D4208BF57
:1011B000964244F1FD0404F5407402D25B084FEA04
:1011C0003202B61A65EB03055B084FEA32024FF4B0
:1011D00080104FF4002CB6EB020E75EB030E22BF0D
:1011E000B61A754640EA0C005B084FEA3202B6EBCD
:1011F000020E75EB030E22BFB61A754640EA5C007C
:101200005B084FEA3202B6EB020E75EB030E22BF0B
:10121000B61A754640EA9C005B084FEA3202B6EB0C
:10122000020E75EB030E22BFB61A754640EADC00CB
:1012300055EA060E18D04FEA051545EA16754FEA2D
:1012400006164FEAC30343EA52734FEAC2025FEA4B
:101250001C1CC0D111F4801F0BD141EA00014FF0DA
:1012600000004FF0004CB6E711F4801F04BF0143AB
:101270000020B4F1FD0C88BFBCF5E06F3FF6AFAEC7
:10128000B5EB030C04BFB6EB020C5FEA500C50F157
:10129000000041EB045170BD0EF0004E4EEA1131DA
:1012A00014EB5C04C2BFD4EB0C0541EA045170BDE1
:1012B00041F480114FF0000E013C90E645EA060E25
:1012C0008DE60CEA135594EA0C0F08BF95EA0C0F53
:1012D0003FF43BAF94EA0C0F0AD150EA01347FF49B
:1012E00034AF95EA0C0F7FF425AF104619462CE772
:1012F00095EA0C0F06D152EA03353FF4FDAE1046D5
:10130000194622E750EA410618BF52EA43067FF425
:10131000C5AE50EA41047FF40DAF52EA43057FF4B5
:10132000EBAE12E74FEA410C7FEA6C5C02D150EA67
:10133000013C0AD14FEA430C7FEA6C5C02D152EACD
:10134000033C02D14FF0000070474FF0010070479E
:101350000348044B834202D0034B03B11847704744
:10136000AC190020AC190020000000000548064B15
:101370001B1AD90F01EBA301491002D0034B03B193
:1013800018477047AC190020AC190020000000007D
:1013900010B5064C237843B9FFF7DAFF044B13B1BD
:1013A0000448AFF300800123237010BDB019002062
:1013B000000000003CC5010808B5054B1BB10549FC
:1013C0000548AFF30080BDE80840FFF7CFBF00BF7E
:1013D00000000000B41900203CC501082DE9F041CF
:1013E0008CB007AD00240794089409940A940B94D8
:1013F00001943A4B1A6B42F004021A631A6B02F022
:1014000004020192019A02941A6B42F080021A635C
:101410001A6B02F080020292029A03941A6B42F055
:1014200001021A631A6B02F001020392039A0494F8
:101430001A6B42F002021A631A6B02F00202049263
:10144000049A05941A6B42F008021A631A6B02F0B0
:1014500008020592059A06941A6B42F040021A633C
:101460001B6B03F040030693069BDFF87480224653
:1014700044F28101404601F0FAFD1A4E2246402115
:10148000304601F0F4FD4FF4005307934FF48813F6
:10149000089309942946144801F0DCFC44F28103C6
:1014A00007930127089709940A942946404601F0BA
:1014B000D1FC40230793089709940A9429463046A3
:1014C00001F0C8FC8023079308940994294630460C
:1014D00001F0C0FC0CB0BDE8F08100BF0038024054
:1014E00000040240001802400008024008B50A4B00
:1014F0001B684BB1094B1B6833B130B1084B1868FE
:1015000083689B680749984708BD054B186883683E
:101510009B6805499847F7E7141F0020101F00201B
:10152000E0040208940102089001020808B5034B88
:101530001B6813B1024B1B68984708BD141F00209D
:10154000CC1900207047000030B587B00C460E481B
:1015500011F03CFDA288132A12D801ADA1682846DB
:10156000FFF75CFBA38818336B44002203F8142CAC
:10157000236962692946054810F0EEF907B030BDCD
:10158000034811F023FDF9E758C5010870C50108AB
:1015900090C5010810B5184B3A221A8000249C709F
:1015A000DC700AF0EFFA15480AF0FAFD0AF02AFD9D
:1015B00013480AF05FFB0AF07DFB12480AF092FB29
:1015C000114905200AF070FD0BF050F90AF09AFA63
:1015D00020460BF085F80D4920460AF08DFF0120CA
:1015E0000BF07EF80A4901200AF086FF0AF038FD68
:1015F000084B186010BD00BFE81E0020AD160008A3
:1016000019160008ED140008939F673F2D15000878
:1016100045150008CC19002038B51F4B1B6803B9CD
:1016200038BD00200AF03AFB04460D4616A3D3E964
:101630000023FFF7B3F848B115A3D3E900232046F0
:101640002946FFF78DF880B9002300E00023134AF4
:1016500012689342E4D0114A136043B9104B1868E2
:1016600083689B680F499847DAE70123EFE70AF0A0
:1016700027FB0028F2D00A4B186883689B680A4948
:101680009847CDE7AFF300804B8336943545EF3F65
:101690004B8336943545FF3F141F0020101F002058
:1016A000E0040208900102089401020808B50D4BFD
:1016B0001B68B3B1052814D8DFE800F003030D035D
:1016C000030D0AF0FDFA60B1074B186883689B6848
:1016D0000649984705E0044B186883689B680349EE
:1016E000984708BD141F0020E0040208900102087A
:1016F00000B583B001904FF0FF33012201A90348E8
:1017000002F05BFA019803B05DF804FB841F00202F
:1017100010B586B000240094124B1A6B42F00402FC
:101720001A631B6B03F004030093009B01A901944F
:101730004C608C60CC600C614FF4005301934FF40B
:101740000413029301230393074801F083FB22460D
:101750000F21282000F028FD282000F035FD06B0DC
:1017600010BD00BF003802400008024008B5084B19
:101770005B6913F4005F09D0054B4FF400525A61C6
:10178000044B186883689B680349984708BD00BFED
:10179000003C0140E00402089401020872B6FEE732
:1017A00010B594B008AC30220021204611F0F8FDAD
:1017B0000023039304930593069307930193204A10
:1017C000116C41F080511164126C02F08052019250
:1017D000019A02931B4B1A6842F440421A601B683C
:1017E00003F440430293029B012308934FF4A02388
:1017F000099302230E934FF480020F920422109259
:10180000A8221192129307231393204601F0C6FCDD
:1018100090B90F23039302230493002305934FF4FD
:10182000A05306934FF480530793052103A801F0BA
:101830001FFF18B914B010BDFFF7B0FFFFF7AEFFE0
:101840000038024000700040F0B583B0FFF7A2FE00
:1018500000F004FCFFF7A4FFFFF75AFFFFF7BEFDFF
:1018600000F04AFA00F09AFA00F0ECF802F0C0FD3D
:1018700000F0C0F80EF026FD0EF07EFC04221021D0
:1018800046480EF04FFC48224FF4806144480EF069
:1018900049FC444810F060F8434811F097FB434B73
:1018A0001C6804E002F02CFE642000F003FC002C15
:1018B000F8D094F82D3013F0010FF3D03C4811F01C
:1018C00085FB04E002F01CFE642000F0F3FB94F8BA
:1018D0002D3013F0040FF5D0201D04F08FF80146D1
:1018E000344810F039F84FF47A7000F0E3FB324CD2
:1018F00005232380042363804FF4C873A383012648
:1019000084F82E602D4B04F1040C0FCBACE80700DB
:101910008CF800302A4B07CBC4F81E00C4F8221004
:10192000C4F82620274B04F1340C0FCBACE8070099
:10193000ACF80030244B2363244920460CF084F992
:101940002348082303800BF0B1FD224B1D68AB68D0
:101950001F6800240094234610221F492846B847D8
:101960001E4B186883681F680094234610221C4988
:10197000B8471C4B186883681F68009423461022E0
:101980001949B847AB689B68184928469847184BCF
:101990001E600EF099FC204603B0F0BDD01D002063
:1019A000D0190020A0C50108C8C5010804120120F3
:1019B000ECC5010800C60108A41E002014C60108D9
:1019C00024C6010830C6010849150008F9E40008DA
:1019D000A01E0020700E0208201E00201C1002080D
:1019E000601E0020E0040208E01D002098010208AB
:1019F000141F002008B50548054B036001F00EFFD9
:101A000000B908BDFFF7CAFEFBE700BF181F0020A2
:101A1000000806500268094B9A4200D0704782B015
:101A200000230193064B5A6B42F040025A635B6BF2
:101A300003F040030193019B02B070470008065079
:101A40000038024008B50D480D4B03604FF4827317
:101A5000436000238360C360036143614FF40072FD
:101A60008261C3610362436283620A23C36201F03D
:101A7000ECFE00B908BDFFF791FEFBE7281F002030
:101A8000003001402DE9F04188B000230393049316
:101A90000593069307930268204B9A4202D008B040
:101AA000BDE8F0810024009403F584335A6C42F4BD
:101AB00080525A645A6C02F480520092009A019447
:101AC0001A6B42F001021A631A6B02F001020192D2
:101AD000019A02941A6B42F002021A631B6B03F024
:101AE00002030293029B602303934FF00208CDF898
:101AF0001080032706970526079603AD2946084858
:101B000001F0A8F920230393CDF8108005940697DF
:101B100007962946034801F09DF9C0E700300140CF
:101B2000000002400004024082B0002100910B4BF3
:101B30005A6C42F480425A645A6C02F48042009219
:101B4000009A01911A6C42F080521A641B6C03F0E7
:101B500080530193019B02B0704700BF00380240E0
:101B60007047FEE7FEE7FEE7FEE770477047704705
:101B700010B500F08DFA00F08BFA054CD4E9002383
:101B8000501C43F10001C4E900010FF01BF910BD26
:101B9000701D012001207047024B16221A604FF081
:101BA000FF307047E81E012008B54FF0FF31FFF706
:101BB000F3FFFEE770B50C461646002506E0AFF3CE
:101BC0000080214601F8010B01350C46B542F6DBD9
:101BD000304670BD70B50C461646002504E014F87A
:101BE000010BFFF785FD0135B542F8DB304670BDCE
:101BF0004FF0FF3070474FF400534B6000207047A8
:101C0000012070470020704710B403460C4A0D496C
:101C10000D48006848B10C4800680344521A9342CA
:101C200007D8094A136010BC70470748074C046086
:101C3000F1E7074B0C221A604FF0FF30F3E700BFCB
:101C40000000032000040000801F002090200120DD
:101C5000E81E012070470000224B9B6803F00C0334
:101C6000042B11D0082B13D0002B37D11E4B1F4A49
:101C70001A601C4B9B68C3F303131D4AD15C1A4ABC
:101C80001368CB4013607047174B1A4A1A60F0E78D
:101C9000144B59685A6802F03F0211F4800F13D0B8
:101CA000144BB3FBF2F30F4A5268C2F3881202FBE3
:101CB00003F30C4A5268C2F3014201325200B3FBF3
:101CC000F2F3094A1360D4E7084BB3FBF2F3054A79
:101CD0005268C2F3881202FB03F3EAE7024B034A9D
:101CE0001A60C6E700380240000000200024F4001B
:101CF000A401020800127A0008B50A480A4B0360E2
:101D00004FF4E133436000238360C36003610C221E
:101D100042618361C36101F020FF00B908BDFFF794
:101D20003DFDFBE7841F00200048004000B589B05E
:101D30000023039304930593069307930268154BBE
:101D40009A4202D009B05DF804FB0021019103F52D
:101D5000F8331A6C42F480221A641A6C02F480225E
:101D60000192019A02911A6B42F008021A631B6BEE
:101D700003F008030293029B4FF440730393022382
:101D80000493032306930723079303A9024801F052
:101D900061F8D7E700480040000C024008B50C4845
:101DA0004FF0A0430360042303710222C271002399
:101DB0008371427201228272C37203738273C3738E
:101DC00001F06AF900B908BDFFF7E8FCFBE700BFC6
:101DD000CC1F0020F0B589B0002303930493059332
:101DE000069307930368B3F1A04F01D009B0F0BD8B
:101DF00003AA00250195184C236B43F001032363CC
:101E0000236B03F001030193019B4FF4E853039309
:101E100002230493032306930A23079317460F4EC6
:101E20001146304601F016F84FF400730393049501
:101E300005953946304601F00DF8636B43F0800399
:101E400063630295636C43F480436364636C03F4DF
:101E500080430293029BC9E7003802400000024021
:101E6000DFF834D00D480E490E4A002302E0D45862
:101E7000C4500433C4188C42F9D30B4A0B4C0023D2
:101E800001E013600432A242FBD3FFF7E3FE11F03E
:101E9000CFFBFFF7D9FC70470000032000000020B3
:101EA000AC190020BC230208B01900208C200120AE
:101EB000FEE788B1CA6892B18A689AB10A69A2B18C
:101EC0000A6882604A68C260CA6842618A680261C0
:101ED0000A698261002070474FF0FF3070474FF071
:101EE000FF3070474FF0FF3070474FF0FF307047C2
:101EF00070B582B00023019344680CBB054683682B
:101F000003B1984720232B60002602E06FF00406FF
:101F100001341F2C0DD86B6901AA12212046984765
:101F20000028F3DB019B03F01F03A342F0D12C60D8
:101F300000262B681F2B07D81EB901236B6000E019
:101F40000026304602B070BD6FF00206F9E710B50A
:101F500082B0044600230193436901AA012100686D
:101F60009847002839DB636901AA01212068984756
:101F7000002835DB019B13F0040F34D0636901AAFC
:101F8000002120689847002830DB019B13F4805F14
:101F90000CD103F40452B2F5045F2AD013F4005FAD
:101FA00029D113F4807F28D004201DE0636901AAA1
:101FB0001F2120689847002821DB019B13F4805FD4
:101FC00020D003F01C03182B1ED0082B1ED0142B7E
:101FD00001D0052008E0042006E06FF0040003E0D3
:101FE0006FF0040000E0012002B010BD6FF00400AB
:101FF000FAE70220F8E70320F6E70520F4E76FF0A0
:102000000400F1E70620EFE70220EDE70320EBE70D
:1020100010B504460E4B1A784FF47A73B3FBF2F303
:102020000C4A1068B0FBF3F000F0D6F868B90F2C3A
:1020300001D901200AE0002221464FF0FF3000F0D4
:10204000B3F8054B1C60002000E0012010BD00BF6C
:1020500004000020000000200800002008B50B4B01
:102060001A6842F400721A601A6842F480621A60B8
:102070001A6842F480721A60032000F083F800208E
:10208000FFF7C6FFFFF750FD002008BD003C0240EF
:10209000034A1168034B1B780B441360704700BF61
:1020A000B024002004000020014B1868704700BFD6
:1020B000B024002038B50446FFF7F6FF0546B4F11A
:1020C000FF3F02D0044B1B781C44FFF7EDFF401B81
:1020D000A042FAD338BD00BF04000020002807DB6F
:1020E00000F01F02400901239340024A42F82030C9
:1020F000704700BF00E100E000280CDB00F01F0289
:102100004009012393402030034A42F82030BFF3B6
:102110004F8FBFF36F8F704700E100E0002808DBAE
:102120000901C9B200F1604000F5614080F8001378
:10213000704700F00F000901C9B2014B19547047F4
:1021400014ED00E000B500F00700C0F1070CBCF191
:10215000040F28BF4FF0040C031D062B0FD9C31E1C
:102160004FF0FF3E0EFA0CF021EA000199400EFA02
:1021700003FE22EA0E0241EA02005DF804FB00239E
:10218000EEE70000074AD36823F4E0631B041B0C4E
:10219000000200F4E060034343F0BF6343F4003304
:1021A000D360704700ED00E010B50446054BD868D9
:1021B000C0F30220FFF7C6FF01462046FFF7AEFF3F
:1021C00010BD00BF00ED00E008B5FFF787FF08BDB8
:1021D00008B5FFF791FF08BD0138B0F1807F0BD241
:1021E0004FF0E0235861054AF02182F823100020C7
:1021F000986107221A6170470120704700ED00E0E6
:10220000042806D04FF0E022136923F00403136181
:1022100070474FF0E022136943F0040313617047E5
:1022200070B50446866DFFF73FFF94F83530022BFA
:1022300006D080236365002384F83430012070BD0C
:1022400005462268136823F0160313602268536959
:1022500023F080035361236CE3B12268136823F0F9
:10226000080313602268136823F0010313602368D6
:102270001B6813F0010F11D0FFF716FF431B052B4E
:10228000F5D920236365032084F83500002384F802
:102290003430D4E7A36C002BDFD1E3E7E26D3F23BA
:1022A0009340B360012384F83530002084F8340073
:1022B000C5E790F83530022B03D080234365012019
:1022C0007047052380F835300268136823F0010356
:1022D0001360002070472DE9F04182B005460023CD
:1022E0000193D0F8688008F1120350F82340C66EBD
:1022F000012714E001A802F04FFB019B13B12362F8
:10230000A36011E000270FE06B6943F48043636032
:1023100015E003F1120255F82240013E9846CEB175
:10232000C7B1236A002BE5D0002FF8D0AB6D002B8E
:10233000EAD16B6943F0004343F480436360236850
:1023400043F00043236008F10103032BE1D9A8F116
:102350000303DEE7EB6EB34211D008F1010303F093
:102360000303BFF35F8F2A6903EB830302EBC3020E
:102370002B6803F580539A60C5F86880EE6602B05A
:10238000BDE8F0815079137943EA002307480B50E8
:10239000D07893781B0443EA0063507843EA002323
:1023A00012781343024A8B50704700BF40800240AE
:1023B0004480024010B5002208E0C468DC6051F897
:1023C0000C3043F4400341F80C300132032A20D88A
:1023D000C16802EB82034FEAC30C01EBC303002484
:1023E00041F80C405C609C60DC60941D40F8243037
:1023F00051F80C4044F4801441F80C40022ADCD817
:10240000541C04EB8404D0F80CE00EEBC404DC6034
:10241000D5E700238362C268036803F580531A611D
:1024200010BD10B4002202E00169D9600132032A14
:1024300028D8046902EB82034FEAC30C04EBC30300
:10244000002144F80C1059609960D96019625962F2
:102450004FF0004144F80C10416941F4804159604B
:10246000596821F00041596002F1120140F8213011
:10247000022AD9D80469511C01EB810104EBC10483
:10248000DC60D3E70023C36503668366C3668365A8
:102490000269036803F58053DA6010BC7047F0B539
:1024A000856A00EB85039B698C681E68002EC0F26C
:1024B000B3802E1D00EB8606F669002E40F0AE803C
:1024C00026689E605E686FF30C0667683E435E6038
:1024D0000E6816F0010F05D01E6826F440064F69FD
:1024E0003E431E600E6816F0200F05D01E6826F0D1
:1024F00040660F693E431E60096811F0040F03D067
:10250000196841F080011960196841F08051196023
:102510002F4600264FF0010E27E0196821F0804178
:1025200019602EE000EB8C039B691968002930DBF1
:102530000CF1040100EB8101C96951BB196821F05C
:10254000805119600EF1010EA468216899605968E4
:102550006FF30C016768394359600136BFF35F8F31
:10256000196841F0004119606746A16851B31968C4
:1025700021F000511960002ACFD0196841F0804144
:10258000196007F1010CBCF1030FCBD9A7F1030CC3
:10259000C8E700EB85039969002204E000EB8301A2
:1025A000896901321D4672450AD2BFF35F8F0B68FD
:1025B00023F000430B606B1C032BEFD9EB1EEDE700
:1025C0000220F0BD1AB31A6842F080421A601A68FD
:1025D00042F000521A6000EB8505AA69BFF35F8FD5
:1025E000136843F000431360C26B3B1D00EB830391
:1025F000DA618762EFF31082012383F31088036CA2
:1026000033440133036482F310880020D9E71A6849
:1026100022F080421A60DAE70220D2E70220D0E7F7
:1026200070B505460C46026813683C491940A37B07
:102630005B06207C002861D14FF400000343607CDE
:1026400000285DD14FF480000343A0680343E07F7E
:1026500043EA004360690343A07F002852D14FF44E
:1026600000500343207F43EA0033A06903432079ED
:1026700043EA802394F82000002845D14FF40070ED
:102680000343E07B43EAC013606A034394F82800E5
:1026900043EA00130B4313602B681E680120FFF709
:1026A00009FD2B681E6029688A6922F0BE021204A7
:1026B000120CA36C1B0494F84C0038BB802003431D
:1026C000206D034394F85500012821D000200343D6
:1026D00094F8560001281DD00020034394F85400BC
:1026E000012819D00020034313438B612B689C6998
:1026F0000120FFF7DFFC2B689C6170BD00209DE787
:102700000020A1E70020ACE70020B9E70020D6E7D1
:102710000820DCE70420E0E70220E4E70F8120FD49
:1027200070B505460C46026802F580539B692B493B
:102730001940237B002B4DD14FF08063607B43EA2F
:102740004063607F002847D14FF480100343A07B93
:1027500043EA405360690343207F43EAC013A07FEC
:1027600043EA8013206A034394F8240043EA800379
:102770000B4302F5805293612B6803F580539E69E9
:102780000120FFF797FC2B6803F580539E612279A7
:10279000A36843EA4263A26913432269134394F88E
:1027A000252043EAC213A26A43EA82032268134344
:1027B0002A6843F4000302F5805213602B6803F586
:1027C00080531C680120FFF775FC2B6803F58053CC
:1027D0001C6070BD0023B1E70020B7E7233FDEF89F
:1027E00070B5A4B0064601258DF83C508DF83D50DB
:1027F00000240D948DF84B408DF84A508DF84840D8
:102800008DF83A508DF830508DF84C408DF83B40A3
:1028100014948DF854401D948DF878401F948DF8D1
:1028200082408DF880404FF4804310934FF4006352
:1028300011938DF881400BA9FFF7F2FE8DF80C5033
:102840008DF80D508DF81D508DF80E5005948DF8B3
:102850001C408DF81E4008948DF824508DF80450CB
:102860004FF4803302934FF4800306934FF40053E8
:1028700004938DF825500A94009469463046FFF77A
:102880004FFF24B070BD10B582B004460023019301
:10289000036803F580539A6942F480129A610368D1
:1028A00003F580539B6901930120FFF703FC236824
:1028B000019A03F580539A6102B010BD00286CD0D4
:1028C00030B583B00446D0F88430002B34D00023D8
:1028D0000193334B5A6C42F480425A645B6C03F4AC
:1028E00080430193019B2F4B5A6822F400025A60E7
:1028F0005A68A1680A435A605B68236803F58053ED
:102900001A6842F001021A60FFF7CEFB0546236801
:1029100003F580531B6813F0010F13D0FFF7C4FBBE
:10292000401BB0F5FA7FF2D90423C4F88830E023C5
:10293000C4F8843001202EE02323C0F8843001F055
:10294000A3FEC4E72046FFF74BFF2046FFF732FD0A
:102950002046FFF766FD626800212046FFF712FD62
:102960002268D36B43F40273D3632268D2F80C312C
:1029700043F4003343F06003C2F80C312268D2F80C
:10298000103143F40313C2F810310020C4F888005A
:102990001023C4F8843003B030BD0120704700BF5D
:1029A0000038024000380140D0F88430102B01D0AC
:1029B0000120704770B504462325C0F884500423D5
:1029C000C366FFF788FC2268136843F008031360AE
:1029D00023681E680120FFF76DFB23681E602268D4
:1029E000136843F00403136023681E680120FFF797
:1029F00061FB23681E602046FFF745FF236803F54F
:102A000080539A6942F400529A61236803F5805317
:102A10009A6942F002029A61C4F88450002070BDA5
:102A200038B5D0F88430232B01D0012038BD0446BE
:102A3000C0F88430036803F580539A6922F4005289
:102A40009A61036803F580539A6922F002029A6141
:102A50000268136823F00403136003681D680120F3
:102A6000FFF728FB23681D602046FFF70CFF226854
:102A7000136823F00803136023681D680120FFF723
:102A800019FB23681D601023C4F884300020CDE7B3
:102A9000F8B5044631B11546D4F88430232B09D05B
:102AA0000120F8BDD0F8883043F00103C0F8883029
:102AB0000120F6E700222046FFF7F1FC002835D17F
:102AC000BFF34F8FA36A9A1D54F822605A1CA2626A
:102AD000032A01D9033BA362A26A2368063254F891
:102AE000222003F580535A60FFF7DEFA0746336869
:102AF000002B30DA236803F58052526912F4005F2C
:102B00001CD1B5F1FF3FF2D0FFF7CEFAC01BA842AF
:102B100001D8002DEBD1D4F8883043F00403C4F879
:102B200088304FF0405333600120BAE7D4F8883042
:102B300043F00203C4F888300120B2E7D4F88820BB
:102B400042F00802C4F8882003F580535B69C4F89A
:102B50008C300120A5E70020A3E72DE9F84F0446BB
:102B600081B18A46D0F88430232B6CD1C76D07F130
:102B7000120350F82350C36EC3F104094FF000084C
:102B8000464634E0D0F8883043F00103C0F888307E
:102B9000012059E02B6813F4007F02D00023236644
:102BA00063662B68C3F30D4B2B6813F4807F03D04F
:102BB0002B6823674FF00108AA682A625B4604F17C
:102BC000800104F17C0001F00DFF236E01332366C8
:102BD000636E5B44636600232B627B1C032B00D96E
:102BE000FB1E03F1120254F8225001361F462B68D7
:102BF000002B14DB4E4512D2B8F1000F0FD12B6819
:102C000013F4807F03D0EB69A367AB6963672B681C
:102C100013F4007FBED1E36F002BBBD1DDE7E36E81
:102C20003344E3662BB9E765B8F1000F05D1012005
:102C30000AE02046FFF74FFBF5E7E36FCAF80030E4
:102C40000020E06700E00120BDE8F88FF8B50546F8
:102C50001E460068036903F01C03C90289B21943C8
:102C6000940104F4F8640C4344F001040461FFF798
:102C70001BFA074601E02B681C6914F0010F07D00E
:102C8000FFF712FAC01BB0F5803FF4D3012004E037
:102C90002B685B699BB233600020F8BD70B50546B8
:102CA0000668306900F01C00C90289B20143940132
:102CB00004F4F8640C4344F003049BB273612B6882
:102CC0001C61FFF7F1F9064601E02B681C6914F05E
:102CD000010F07D0FFF7E8F9801BB0F5803FF4D370
:102CE000012000E0002070BD002979D00268126840
:102CF000C2F3001281F828200268126802F0600214
:102D00004A620268126802F40072B2FA82F2520950
:102D100081F8202002681268C2F30042CA77026874
:102D2000126802F40052B2FA82F252098A770268FB
:102D30001268C2F300320A770268126802F4006275
:102D40008A610268126802F480424A61026812686D
:102D500002F48002B2FA82F252094A7402681268DE
:102D600002F40002B2FA82F252090A74026812688E
:102D7000C2F3C012CA730268126802F460228A6049
:102D800002681268C2F380220A7102681268C2F3F4
:102D900040628A7302689269C2F3400281F854204B
:102DA0000268926902F08002B2FA82F2520981F856
:102DB0004C200268926902F030020A65026892694A
:102DC000120C8A6402689269C2F3800281F856206C
:102DD00002689269C2F3C00281F855200020704752
:102DE0000120704751B108B5D0F88430102B01D0C4
:102DF000012008BDFFF714FC0020FAE7012070470E
:102E000038B5054603681C6924F01C0400F0E0FC9A
:102E10000C4B984204D844F008042B681C6138BD60
:102E2000094B984202D244F00C04F6E7074B984253
:102E3000F3D9074B984202D844F00404EDE744F07C
:102E40001004EAE7BF0E160200879303FFE0F505C2
:102E50007FD1F00800230F2B00F2F98030B583B04A
:102E600069E085684FEA430E032404FA0EF425EA6C
:102E70000405CC6804FA0EF42C438460446824EA08
:102E800002044A68C2F300129A402243426060E0A2
:102E9000DC08083450F8242003F00705AD004FF09B
:102EA0000F0E0EFA05FE22EA0E0E0A69AA4042EA49
:102EB0000E0240F8242060E0092200E0002202FA1D
:102EC0000EF22A430234624D45F82420614A946888
:102ED0006FEA0C0224EA0C05D1F804E01EF4801F0E
:102EE00001D04CEA04055B4CA560E46802EA0405E5
:102EF000D1F804E01EF4001F01D04CEA0405554C43
:102F0000E560646802EA0405D1F804E01EF4003FBD
:102F100001D04CEA04054F4C6560246822404D689E
:102F200015F4803F01D04CEA04024A4C2260013380
:102F30000F2B00F28A8001229A400C6804EA020CEE
:102F400032EA0404F3D14C6804F00304013C012C80
:102F500087D94A6802F00302032A09D0C4685D00D9
:102F60000322AA4024EA02048A68AA402243C260DB
:102F70004A6802F00302022A8AD004684FEA430E2C
:102F8000032202FA0EF224EA02044A6802F0030263
:102F900002FA0EF2224302604A6812F4403FC6D0A1
:102FA000002201922C4A546C44F480445464526CC4
:102FB00002F480420192019A9C08A51C244A52F80E
:102FC000255003F0030E4FEA8E0E0F2202FA0EF286
:102FD00025EA0205214A90423FF470AF02F5806273
:102FE000904222D002F58062904220D002F58062A9
:102FF00090421ED002F5806290421CD002F58062A1
:1030000090421AD002F58062904218D002F5806298
:10301000904216D002F58062904214D002F5806290
:1030200090423FF449AF0A2249E7012247E70222D2
:1030300045E7032243E7042241E705223FE7062252
:103040003DE707223BE7082239E703B030BD704770
:1030500000380140003C01400038024000000240BE
:103060000369194201D001207047002070470AB15E
:1030700081617047090481617047000008B5054B04
:103080005B69034200D108BD024B586108F05CFE49
:10309000F9E700BF003C014030B583B000287AD08A
:1030A0000446056890F89534C3B1032384F8953439
:1030B000B5F1A04F17D0206801F020F8237C8DF8DF
:1030C0000030231D0ECB206800F0CFFF70B102232B
:1030D00084F895340125284603B030BD80F8943437
:1030E000FEF778FEE1E70023A371E4E70021206802
:1030F00001F038F90246B8B903462079984218D948
:1031000003EBC30104EB8101012048750B75CB85EE
:1031100000200876C861086203EBC30104EB81015B
:1031200048620133DBB2E8E7022384F895340125D5
:10313000D1E7904217D902EBC20304EB83030021CD
:1031400083F8551283F8542283F85812C3F85C129E
:10315000C3F8601202EBC20304EB8303C3F86412EA
:103160000132D2B2E5E7237C8DF80030231D0ECB6F
:10317000206801F019F8054620B1022384F895343F
:103180000125A8E700236374012384F8953420689F
:1031900001F0D6F89FE701259DE70000002800F028
:1031A000E08170B582B00446036813F0010F3BD094
:1031B0009F4B9B6803F00C03042B2CD09C4B9B680B
:1031C00003F00C03082B21D06368B3F5803F4FD088
:1031D000B3F5A02F52D0964B1A6822F480321A60B1
:1031E0001A6822F480221A606368002B50D0FEF720
:1031F0005BFF05468E4B1B6813F4003F14D1FEF7AE
:1032000053FF401B6428F5D90320B1E1884B5B686C
:1032100013F4800FD8D0864B1B6813F4003F03D003
:103220006368002B00F09F81236813F0020F54D0D5
:103230007F4B9B6813F00C0F3ED07D4B9B6803F0D7
:103240000C03082B33D0E368002B68D0794B0122A4
:103250001A60FEF729FF0546754B1B6813F0020F35
:1032600054D1FEF721FF401B0228F5D903207FE14E
:103270006F4A136843F480331360B5E76C4B1A68E8
:1032800042F480221A601A6842F480321A60ABE776
:10329000FEF70AFF0546664B1B6813F4003FC3D0D8
:1032A000FEF702FF401B6428F5D9032060E1604B64
:1032B0005B6813F4800FC6D15D4B1B6813F0020FDF
:1032C00003D0E368012B40F05081594A136823F082
:1032D000F803216943EAC1031360236813F0080F60
:1032E00042D063696BB3534B0122C3F8802EFEF7C3
:1032F000DBFE05464E4B5B6F13F0020F34D1FEF739
:10330000D3FE401B0228F5D9032031E1484A136857
:1033100023F0F803216943EAC1031360DDE7454B5D
:1033200000221A60FEF7C0FE0546414B1B6813F0F1
:10333000020FD2D0FEF7B8FE401B0228F5D90320B9
:1033400016E13C4B0022C3F8802EFEF7ADFE054689
:10335000374B5B6F13F0020F06D0FEF7A5FE401B44
:103360000228F5D9032003E1236813F0040F77D076
:103370002F4B1B6C13F0805F33D1002301932C4B38
:103380001A6C42F080521A641B6C03F08053019354
:10339000019B0125284B1B6813F4807F23D0A36871
:1033A000012B34D0052B38D0214B1A6F22F00102AB
:1033B0001A671A6F22F004021A67A368002B3DD027
:1033C000FEF772FE06461A4B1B6F13F0020F46D132
:1033D000FEF76AFE801B41F288339842F3D903203E
:1033E000C6E00025D6E7144A136843F480731360DF
:1033F000FEF75AFE0646104B1B6813F4807FCED1B1
:10340000FEF752FE801B0228F5D90320B0E0084ADF
:10341000136F43F001031367CFE7054B1A6F42F0B8
:1034200004021A671A6F42F001021A67C5E700BF6B
:10343000003802400000474200700040FEF734FEB2
:103440000646524B1B6F13F0020F08D0FEF72CFEFE
:10345000801B41F288339842F3D9032088E0EDB90C
:10346000A369002B00F08380484A926802F00C02A6
:10347000082A51D0022B17D0454B00221A66FEF7BE
:1034800013FE0446414B1B6813F0007F42D0FEF749
:103490000BFE001B0228F5D9032069E03B4A136CA0
:1034A00023F080531364DBE7394B00221A66FEF7E2
:1034B000FBFD0546354B1B6813F0007F06D0FEF779
:1034C000F3FD401B0228F5D9032051E0E369226A8D
:1034D0001343626A43EA8213A26A5208013A43EA3A
:1034E0000243E26A43EA0263284A5360284B0122FE
:1034F0001A66FEF7D9FD0446244B1B6813F0007FC3
:1035000006D1FEF7D1FD001B0228F5D903202FE0DC
:1035100000202DE000202BE0012B2BD01B4B5B6803
:1035200003F48001E269914226D103F03F02216A4F
:103530008A4223D1616A47F6C0721A40B2EB811FFA
:103540001ED103F44031A26A5208013AB1EB024F96
:1035500018D103F07063E26AB3EB026F14D100205C
:1035600006E001207047012002E0012000E0002079
:1035700002B070BD0120FBE70120F9E70120F7E769
:103580000120F5E70120F3E70120F1E700380240D0
:103590000000474208B5334B9B6803F00C03042B33
:1035A0005BD0082B5BD12F4B5A6802F03F025B685F
:1035B00013F4800F2CD02B4B5868C0F388104FEABF
:1035C000401CBCEB000C6EEB0E0E4FEA8E1343EA70
:1035D0009C634FEA8C11B1EB0C0163EB0E03DB0033
:1035E00043EA5173C90011EB000C43F10003590287
:1035F00000234FEA4C2041EADC51FDF7F5FA194B64
:103600005B68C3F3014301335B00B0FBF3F008BD1B
:10361000144B5868C0F388104FEA401CBCEB000CF8
:103620006EEB0E0E4FEA8E1343EA9C634FEA8C1149
:10363000B1EB0C0163EB0E03DB0043EA5173C900ED
:1036400011EB000C43F10003990200234FEA8C2098
:1036500041EA9C51FDF7C8FAD1E70348D7E7034890
:10366000D5E700BF0038024000127A000024F400C1
:10367000002800F09B8070B50D4604464F4B1B6838
:1036800003F00F038B4208D2CBB24C4A137013687D
:1036900003F00F038B4240F08B80236813F0020F7E
:1036A00017D013F0040F04D0454A936843F4E05355
:1036B0009360236813F0080F04D0414A936843F4E1
:1036C000604393603E4A936823F0F003A1680B4384
:1036D0009360236813F0010F32D06368012B21D06F
:1036E0009A1E012A25D9364A126812F0020F61D0BB
:1036F00033498A6822F0030213438B60FEF7D4FC3F
:1037000006462F4B9B6803F00C036268B3EB820FF5
:1037100016D0FEF7C9FC801B41F288339842F0D9DD
:10372000032042E0264A126812F4003FE0D1012053
:103730003BE0234A126812F0007FD9D1012034E027
:103740001E4B1B6803F00F03AB4207D9EAB21B4BB9
:103750001A701B6803F00F03AB422DD1236813F0DE
:10376000040F06D0164A936823F4E053E1680B4334
:103770009360236813F0080F07D0114A936823F46D
:103780006043216943EAC1039360FFF703FF0C4BD9
:103790009B68C3F303130B4AD35CD8400A4B1860F1
:1037A0000A4B1868FEF734FC002070BD01207047FA
:1037B0000120FAE70120F8E70120F6E7003C02408B
:1037C00000380240A4010208000000200800002088
:1037D000014B1868704700BF0000002008B5FFF7D4
:1037E000F7FF044B9B68C3F38223034AD35CD840A2
:1037F00008BD00BF003802409C01020808B5FFF771
:10380000E7FF044B9B68C3F34233034AD35CD840C1
:1038100008BD00BF003802409C01020898B110B5F5
:10382000044643795BB1022363712268136843F055
:1038300004031360012363710020A06010BD0371B5
:10384000FEF7E8F8EFE70120704700285AD010B5DE
:103850000446436A33B94368B3F5827F05D0002339
:10386000C36102E00023036143610023A36294F873
:103870005130002B40D0022384F851302268136865
:1038800023F040031360636803F48273A26802F4B8
:1038900004421343E26802F400621343226902F017
:1038A00002021343626902F001021343A26902F4A7
:1038B00000721343E26902F038021343226A02F0F5
:1038C00080021343A26A02F40052216813430B6082
:1038D000638B03F00403626A02F010022168134351
:1038E0004B602268D36923F40063D36100206065D4
:1038F000012384F8513010BD84F850302046FEF783
:10390000C1F8B8E701207047026802F10C0353E8E0
:10391000003F23F490730C3242E800310029F3D1C8
:10392000026802F1140353E8003F23F0010314324C
:1039300042E800310029F3D1036B012B05D020238D
:1039400080F84230002303637047026802F10C03E1
:1039500053E8003F23F010030C3242E80031002905
:10396000F3D1ECE790F84130212B01D002207047D1
:103970008368B3F5805F17D0036A5A1C02621A7815
:1039800003685A60C38C9BB2013B9BB2C3844BB9A2
:103990000268D36823F08003D3600268D36843F0E1
:1039A0004003D360002070470369002BE4D1036A11
:1039B0001B880268C3F308035360036A023303627F
:1039C000E0E7000010B504460268136923F4405391
:1039D000C1680B431361836802691A4343691A4340
:1039E000C3691A430168CB6823F4164323F00C0320
:1039F0001343CB600268536923F4407381690B431E
:103A000053610368314A934206D002F580629342C3
:103A100002D0FFF7E3FE01E0FFF7F0FEE369B3F544
:103A2000004F29D00021031849411B1841F1000122
:103A3000C90041EA5371DB00181863684FEA83023A
:103A40004FEA937341F10001FDF7CEF8204AA2FB43
:103A500000314909642303FB11031B013233A2FB2C
:103A600003235B0903F0F00202EB011203F00F03E2
:103A7000216813448B6010BD0023021843EB03013F
:103A8000121841F10001C90041EA5271D200101828
:103A900041F10001626892185B41FDF7A5F80C4AFC
:103AA000A2FB00314909642303FB1103DB0032331D
:103AB000A2FB03235B095A0002F4F87202EB011225
:103AC00003F00703216813448B60D4E70010014022
:103AD0001F85EB512DE9F04383B005460E4617468E
:103AE0009946DDF828802B681C6836EA04040CBF70
:103AF00001240024BC4228D1B8F1FF3FF3D0FEF7E7
:103B0000D3FAA0EB0900404523D8B8F1000F22D02A
:103B10002B68DA6812F0040FE5D0802EE3D0402E37
:103B2000E1D01A6812F0080FDDD0002401941A6861
:103B300001925B680193019B2846FFF7E5FE08238D
:103B40006B6485F84040012000E0002003B0BDE830
:103B5000F0830320FAE70320F8E760B310B50446CA
:103B600090F8413013B3242384F841302268D3689D
:103B700023F40053D3602046FFF724FF2268136923
:103B800023F4904313612268536923F02A0353619D
:103B90002268D36843F40053D3600020606420237C
:103BA00084F8413084F84230606310BD80F84030C2
:103BB000FEF7BCF8D7E7012070472DE9F04182B04D
:103BC0001E4690F84130202B56D104460D469046B3
:103BD000002955D00AB901204FE000234364212376
:103BE00080F84130FEF760FA0746A4F82480A4F874
:103BF0002680A368B3F5805F02D04FF0000814E080
:103C000023692BB34FF000080FE0202384F84130E4
:103C1000032032E038F8023B2268C3F30803536004
:103C2000E28C92B2013A92B2E284E38C9BB293B1FD
:103C300000963B46002280212046FFF74BFF0028DC
:103C4000E3D1002DE6D015F8012B23685A60E7E791
:103C5000A8460025E9E700963B4600224021204681
:103C6000FFF738FF18B9202384F8413005E02023FE
:103C700084F84130032000E0022002B0BDE8F0816A
:103C80000120FAE7704708B50168CA6822F04002CF
:103C9000CA60202280F84120FFF7F4FF002008BD11
:103CA0007047704708B5806B0023C385C384FFF756
:103CB000F8FF08BD704790F84230222B69D1836825
:103CC000B3F5805F4FD0826AB3F5805F04D0002BDC
:103CD00056D10369002B53D103685B681370836A64
:103CE00001338362C38D9BB2013B9BB2C385002B22
:103CF00051D100B583B00268D36823F02003D360AC
:103D00000268D36823F48073D3600268536923F098
:103D100001035361202380F8423000234363036B87
:103D2000012B33D100230363026802F10C0353E833
:103D3000003F23F010030C3242E800310029F3D198
:103D400003681A6812F0100F06D0002201921A6858
:103D500001925B680193019B818DFFF7ABFF00200F
:103D600003B05DF804FB0269002AACD1826A0368E3
:103D70005B68C3F308031380836A02338362B1E78D
:103D800003685B6803F07F031370A8E7FFF788FF01
:103D9000E5E70220704700207047000010B582B0B0
:103DA000044602681368D068516913F00F0F09D1F7
:103DB00013F0200F0CD010F0200F09D02046FFF791
:103DC0007AFF16E011F0010115D110F4907F12D1A5
:103DD000216B012979D013F0800F03D010F0800FF0
:103DE00040F0148113F0400F03D010F0400F40F06A
:103DF000118102B010BD13F0010F06D010F4807FC6
:103E000003D0626C42F00102626413F0040F04D02C
:103E100019B1626C42F00202626413F0020F04D026
:103E200019B1626C42F00402626413F0080F07D00B
:103E300010F0200F00D119B1626C42F008026264E8
:103E4000626C002AD5D013F0200F02D010F0200FA2
:103E500029D123685B6903F04003626C12F0080FFC
:103E600000D163B32046FFF74FFD23685B6913F071
:103E7000400F20D0226802F1140353E8003F23F0E2
:103E80004003143242E800310029F3D1E36B73B1EF
:103E9000624A1A65E06BFEF70CFA0028A9D0E06BC5
:103EA000036D9847A5E72046FFF705FFD1E72046B9
:103EB000FFF7F7FE9DE72046FFF7F3FE99E7204660
:103EC000FFF7EFFE0023636493E713F0100F82D037
:103ED00010F0100F3FF47FAF00230193136801939C
:103EE00053680193019B536913F0400F52D0E26B6A
:103EF00013685B689BB2002B3FF47BAFA18D9942A6
:103F00007FF677AFE385D369B3F5807F37D022683A
:103F100002F10C0353E8003F23F480730C3242E8B3
:103F200000310029F3D1226802F1140353E8003F65
:103F300023F00103143242E800310029F3D1226852
:103F400002F1140353E8003F23F04003143242E827
:103F500000310029F3D1202384F842300023236369
:103F6000226802F10C0353E8003F23F010030C32E7
:103F700042E800310029F3D1E06BFEF751F902234A
:103F80006363A18DE38D9BB2C91A89B22046FFF706
:103F900091FE2EE7A18DE38D9BB2C91A89B2E38D04
:103FA0009BB2002B3FF425AF00293FF422AF2268DB
:103FB00002F10C0353E8003F23F490730C3242E803
:103FC00000300028F3D1226802F1140353E8003FC7
:103FD00023F00103143242E800300028F3D12023FB
:103FE00084F8423000232363226802F10C0353E873
:103FF000003F23F010030C3242E800300028F3D1D8
:10400000022363632046FFF755FEF2E62046FFF7E2
:10401000A9FCEEE62046FFF736FEEAE6A53C0008DE
:1040200082B000230193019B01330193019BB3F103
:10403000706F15D80369002BF5DA0023019303692B
:1040400043F001030361019B01330193019BB3F131
:10405000706F08D8036913F0010FF4D1002000E05D
:10406000032002B070470320FBE784B010B504467C
:1040700003A880E80E009DF81130012B21D1A36B1D
:1040800023F48033A363E36823F4840323F0400321
:10409000E360E36823F44013E3609DF81830012BDC
:1040A0000AD02046FFF7BCFF9DF80E30012B1CD034
:1040B000BDE8104004B07047E36843F48013E36048
:1040C000EFE7E36843F04003E3602046FFF7A8FF13
:1040D0009DF8153023B9A36B43F48033A363E3E762
:1040E000A36B23F48033A363DEE7A36843F00603E6
:1040F000A360A36843F02003A360D9E7836823F09B
:10410000010383600020704782B000230193019B6C
:1041100001330193019BB3F1706F15D80369002B34
:10412000F5DA00230193890141F020010161019B2F
:1041300001330193019BB3F1706F08D8036913F049
:10414000200FF4D1002000E0032002B070470320CC
:10415000FBE782B000230193019B01330193019B94
:10416000B3F1706F13D80369002BF5DA00230193C4
:1041700010230361019B01330193019BB3F1706F25
:1041800008D8036913F0100FF4D1002000E00320D9
:1041900002B070470320FBE7D0F800381943C0F89D
:1041A000001800207047000084B0F8B5044607A846
:1041B00080E80E00002306E003F1400204EB8202D7
:1041C0000021516001330E2BF6D99DF8266006BB05
:1041D000D4F8043843F00203C4F80438A36B43F462
:1041E0000013A363A36B23F40023A363A36B23F443
:1041F0008023A3630023C4F8003E9DF82130012BE7
:1042000015D19DF81F306BB900212046FFF7C4FF80
:1042100011E0A36B23F40013A363A36B43F4002307
:10422000A363E7E701212046FFF7B6FF03E0032180
:104230002046FFF7B1FF10212046FFF765FF054636
:1042400000B101252046FFF784FF00B1012504F5E8
:10425000006C0023CCF81030CCF81430CCF81C30B3
:104260000DE04FF09040C2F8000902E00020C2F8D3
:10427000000900220A614FF67F328A6001339DF8FF
:104280001C1099420ED904EB431202F51061D2F8CA
:1042900000090028EADA002BE3D14FF00060C2F8F1
:1042A0000009E6E700230AE0BBB14FF09047C2F8EF
:1042B000007B002202614FF67F3282600133994217
:1042C00010D904EB431202F53060D2F8007B002FC6
:1042D000EADB0027C2F8007BEBE74FF00067C2F88B
:1042E000007BE6E7DCF8103023F48073CCF8103064
:1042F0000023A3616FF0804363619DF81E301BB9FA
:10430000A36943F01003A361A2690C4B1343A3619B
:104310009DF822301BB1A36943F00803A361012E6D
:1043200004D02846BDE8F84004B07047A36943F0C4
:10433000804343F00403A361F3E700BF00383C80EF
:10434000D0F8003E23F00303C0F8003ED0F8043854
:1043500043F00203C0F8043800207047406900F0C1
:104360000100704738B50546C36823F0C043C360F9
:10437000012913D019BBC36843F08043C3600024F4
:104380000A20FDF797FE0A342846FFF7E7FF08B139
:10439000C72CF5D9C82C14D0002038BDC36843F011
:1043A0000053C36000240A20FDF784FE0A34284627
:1043B000FFF7D4FF0128EDD0C72CF4D9EAE701209C
:1043C000EBE70120E9E7704710B50446FDF76CFE06
:1043D000064B1B68C31A632B00D810BDFDF764FEA3
:1043E000024B1860204600F0E5F9F6E700250020B2
:1043F000F0B585B0384FC0203870A82179700123FE
:10440000BB705022FA70354EFF2232707270B2705B
:104410000024F470324D28706970AB70EB7000F0BE
:104420000DFB3A787B781B0443EA0263BA7843EACF
:104430000223F9780B431A0202F47F0242EA016276
:10444000190A01F47F410A4342EA136325490B60CC
:10445000327873781B0443EA0263B27843EA02239A
:10446000F07803431A0202F47F0242EA0062180A5B
:1044700000F47F40024342EA13631B4A136028782A
:104480006B781B0443EA0063A87843EA0023ED78C5
:104490002B43180200F47F0040EA05601D0A05F472
:1044A0007F45284340EA1360104B1860104D1148B7
:1044B0000290114801900094284602F0EFFA284635
:1044C00002F07EFB284602F081FB0C49284602F0F0
:1044D000FDFB05B0F0BD00BFBC240020B8240020C7
:1044E000B4240020C8240020C4240020C0240020BC
:1044F000CC24002099B9000851490008C74300089E
:1045000010B5054C204600F0A7F807F0E5F8204666
:10451000FFF75AFF10BD00BFCC24002000207047D9
:1045200000B583B000230193054B1B781BB10198A4
:1045300003B05DF804FB01A90248FEF70EFBF6E7A5
:104540004C2700205C25002070B58CB00C4630262E
:104550003246002168460EF023FF324600216846AD
:104560000EF01EFF2246002303E01168E9B101337B
:1045700012681AB3032B2DD8516803EB43000CAD1E
:1045800005EB800040F8301C518940F82C1C002BB2
:10459000EBD0581E03EB430C0DEB8C0100EB4000FD
:1045A00005EB800040F8281CDFE703EB43010CA873
:1045B00000EB8101002041F8280CD8E72389074946
:1045C0004B60C1F808D04C6314220548FEF760FA2E
:1045D000002001E06FF00B000CB070BD242500201E
:1045E0005C25002008B50146054802F073F9054B2B
:1045F0001B78012B00D008BD024B00221A70FAE78D
:10460000B40102084C27002008B5FDF74DFD08BD98
:1046100008B50248FEF7F4FB002008BD5C25002029
:1046200008B513460A4601460348FEF70FFB00B9DA
:1046300008BD4FF0FF30FBE75C25002008B51346AE
:104640000A4601460348FEF729FB00B908BD4FF0B2
:10465000FF30FBE75C25002038B5054600E074B16B
:104660002846FFF75DFF04460028F8D02B6929464D
:1046700098470028F3D0204602F032FCEFE738BD1F
:1046800008B5FDF711FD08BD2DE9F0418CB0002300
:104690000793089309930A930B930268404B9A423D
:1046A00002D00CB0BDE8F08100240094A3F5904343
:1046B0001A6B42F000721A631A6B02F000720092D9
:1046C000009A01941A6B42F080621A631A6B02F02E
:1046D00080620192019A02941A6B42F000621A639E
:1046E0001A6B02F000620292029A03941A6B42F073
:1046F00004021A631A6B02F004020392039A0494F0
:104700001A6B42F001021A631A6B02F00102049262
:10471000049A05941A6B42F002021A631A6B02F0B3
:1047200002020592059A06941A6B42F040021A633F
:104730001B6B03F040030693069B322307934FF055
:104740000208CDF8208003270A970B260B9607ADA9
:1047500029461448FEF77EFB86230793CDF8208078
:1047600009940A970B9629460F48FEF773FB4FF4FE
:1047700000530793CDF8208009940A970B96294699
:104780000A48FEF767FB4FF420530793CDF82080CB
:1047900009940A970B9629460548FEF75BFB80E7CC
:1047A0000080024000080240000002400004024075
:1047B000001802402DE9F0419AB00446642200211D
:1047C00001A80EF0EDFD2448FDF7C1FB94F82D3053
:1047D00013F0040F01D001280BDD13F0040F2CD1CE
:1047E00001282ADD831E032B27D8DFE803F00C2ED7
:1047F00029321A48FEF714F9204602F005FA20463D
:1048000002F046FA19E04FF400674FF4804801AE19
:10481000124D31462846FEF767FA0797CDF8188003
:1048200031462846FEF7DEFA2846FEF7BDF8204658
:1048300002F0CCF9204602F007FA1AB0BDE8F08188
:104840004FF400674FF00008E1E700274FF480487D
:10485000DDE70027B846DAE7042500205C250020C4
:104860002DE9F04182B00446314D324B2B600026D9
:104870008DF8006080238DF80130E1238DF802303F
:104880008DF803608DF804608DF80560C5F804D0DC
:104890004FF40003AB60284BEB60284B2B614FF4C7
:1048A000C0636B612846FEF709F80746DFF8908081
:1048B0003822314640460EF073FD2123C8F80030FF
:1048C0004FF44003C8F814301E4801F0AFFF062330
:1048D00084F82C306B681A7884F826205A7884F88B
:1048E00027209A7884F82820DA7884F829201A7901
:1048F00084F82A205B7984F82B3040F2DC53A384BF
:1049000094F82D3043F00A0384F82D300E4D0F49F2
:104910002846FDF7CEFA2846FDF7EAFA2FB92046D9
:10492000FFF748FF02B0BDE8F081FCF737FFF9E779
:104930005C250020008002400C260020AC260020D0
:1049400024250020B4010208042500200C000020CA
:1049500010B5044670B1732384F82E30742384F8A4
:104960002F30084B6361084BA3612046FFF778FFA7
:10497000002010BD054B4FF4B572054905480CF0F9
:10498000EBFFE8E7F95100084945000840C6010877
:1049900098C60108A8C6010810B582B004460E48A2
:1049A00001F068FF88B1034600F1200222600B4A43
:1049B00002614FF4C06201922268009241220021FC
:1049C000084602F027FA02B010BD054B01221A700A
:1049D00000232360F7E700BFB4010208E5450008A3
:1049E0004C27002030B4A2F12004002542F8205CBE
:1049F00022F8185C22F8163C026822B10A6814609A
:104A00000C60026805E00460FAE71189194411811D
:104A10001268002AF9D130BC7047030243EA102023
:104A200080B27047030203F47F0343EA0063020A83
:104A300002F47F42134343EA1060704708B501F067
:104A4000D9FC01F007FF01F0F1FF06F0BDFE02F016
:104A5000FBFD06F02DFE08BD10B5044600EB40023C
:104A6000094B53F8320038B102F03AFA04EB440330
:104A7000DB00054A0021D15004EB4404024B03EB58
:104A8000C40300221A7510BDF47000202DE9F04F08
:104A900083B0064617464FF00009CDF80090CB468C
:104AA0004FF00A0A4B465546D046CDF804A003E025
:104AB00078B91D4601331BB2092B4BDC1C4603EBB6
:104AC0004300564A02EBC002107D0A2DF0D00028A8
:104AD000F0D056B104EB440E504A02EBCE0CDCF899
:104AE0000420D6F800C094450ED0012816D0012825
:104AF000E0D904EB4404494A02EBC402528A4A4515
:104B0000D8D391469846D5E7002F7FD0434A02EB91
:104B1000CE029268BA42E8D11D4651E004EB44024D
:104B20003E4850F832204AB104EB440400EBC40282
:104B3000528A5A45BED393469A46BBE704EB4404D7
:104B4000364A02EBC402528A00988242B2D30092E3
:104B50000193AFE711F0020F5AD10A2D34D0092D7D
:104B600016DDB8F1090F35DC08EB48032B4A52F883
:104B70003330002B36D02A4B40F26D1229492A4897
:104B80000CF0EAFE45462846FFF766FF092D2DDCAE
:104B90002C4605EB4502214B03EBC2031B7D6BBB8F
:104BA00036B1316804EB44021C4B03EBC20359607D
:104BB0001A4B04EB440203EBC202002151829760BE
:104BC000284603B0BDE8F08F11F0010FC7D14FF0B8
:104BD000FF35F5E7019B092B06DDBAF1090F1ADC59
:104BE0005546D0E74546CEE7019DCCE70C4B40F259
:104BF00083120E490C480CF0AFFEC9E7084B4FF486
:104C0000C2720B4908480CF0A7FEC9E71D46D7E75A
:104C10004FF0FF35D4E74FF0FF35D1E7F4700020B7
:104C2000D0C6010844C70108A8C601085CC701082E
:104C300070C70108F0B583B005460C4616461F46FE
:104C400090F82C20062A3DD1002C43D02068002863
:104C500040D0294600F05FFE00283BD1226802F0D8
:104C6000F002E02A36D02A4639462046FFF70EFFEA
:104C7000B0F1000C31DB1C4B0CEB4C0003EBC00221
:104C8000022111759560C1000831194434684C60E7
:104C9000B4880C810021518253F830700FB3C300E7
:104CA0000C46114AD1504FF400630093334605F18E
:104CB00026023946284606F0C3FE384602F010F9AF
:104CC00020460CE0094B40F2A912094909480CF0B2
:104CD00043FEB9E76FF00F0001E04FFA8CF003B02C
:104CE000F0BD0020FBE700BFF4700020D0C6010833
:104CF0009CC70108A8C601082DE9F04782B00F46FD
:104D000090461D46DDF82CA08146002842D04FF485
:104D100020721C210E2002F045F90646002851D0D1
:104D200043891B2B3ED97468BDF83400FFF775FE2C
:104D3000E08099F82C30062B3CD12B68A360AB881F
:104D4000A381DAF80030C4F81230BAF80430E382F4
:104D50000A9B1B68C4F80E300C9B1B68A3610025DE
:104D60002570012363700823A370E5700623237167
:104D70000423637140F60603009343463A463146E6
:104D8000484606F05DFE304602F0AAF8284602B01A
:104D9000BDE8F0870D4B40F257420D490D480CF02D
:104DA000DBFDB4E7094B40F262420B4909480CF0C5
:104DB000D3FDB8E7054B40F26942084905480CF0BD
:104DC000CBFDBAE74FF0FF30E1E700BFD0C60108E6
:104DD00098C60108A8C60108C0C70108F4C70108A1
:104DE00030B585B000F12603041D0125039502911D
:104DF0000349019100941946FFF77EFF05B030BDCD
:104E00009402020838B50546002400E00134092C5C
:104E100011DC04EB4402084B03EBC2031B7D002BA7
:104E2000F4D0054B03EBC2039B68AB42EED12046A6
:104E3000FFF712FEEAE738BDF47000202DE9F041DB
:104E400086B0A9B104460E4645682B88B3F5807F2D
:104E500008D12B79062B05D16B79042B02D16B88F5
:104E6000082B0DD0204602F03BF806B0BDE8F081DB
:104E70001D4B40F28A221D491D480CF06DFDF4E7E0
:104E8000D5F80E300593AA694F687FB905F1080877
:104E90000223424605A93046FFF7CCFEEB88B3F566
:104EA000807F0ED0204602F01BF8DEE7974214BF49
:104EB0000027012705F108080FB10123E9E70223C4
:104EC000E7E7002FEED006F12601331D0222039200
:104ED00005AA0292CDF8048000930B464246304664
:104EE000FFF70AFFDEE700BFD0C6010898C6010839
:104EF000A8C6010808B5024AFFF772FF08BD00BF47
:104F00009C02020810B5002405E0042B1BD92046A2
:104F1000FFF7A2FD0134092C35DC04EB4403DA0071
:104F2000194B13441A7D002AF4D004EB4401CB0042
:104F3000154919444B8A01339BB24B82B3F5967FD6
:104F4000E5D2012AE1D0032A0DD0042A13D0012A88
:104F5000E0D104EB4402D3000B4A1344191D9868B6
:104F6000FFF7C8FFD6E704EB4403DA00064B13440F
:104F700004221A75CEE704EB4403DA00024B134413
:104F800002221A75C6E710BDF470002070B582B019
:104F900005460E46144602EB42022E4B03EBC203BB
:104FA0001B7D012B19D904EB44022A4B03EBC203EE
:104FB0001B7D022B19D004EB4403DB000833254A88
:104FC00013444FF400620092043305F12602314687
:104FD000284606F035FD02B070BD1F4B40F2EE22B0
:104FE0001E491F480CF0B8FCDDE71A4B03EBC20367
:104FF0005B8AB3F58E7F1BD8B3F5877FDBD304EBD9
:105000004401144B03EBC10104EB4402D20008320B
:105010001A44043204312846FFF7E2FE0028CAD1C0
:1050200004EB44020B4B03EBC20303221A75C2E7E5
:10503000084901EBC20104312846FFF75BFF002855
:10504000B9D104EB4402034B03EBC20303221A75EC
:10505000B1E700BFF4700020D0C6010858C80108AD
:10506000A8C601082DE9F04383B0054688461646D8
:1050700000F126070146D8F8000000F04CFC00289B
:1050800040F09F80D8F8003003F0F002E02A00F0F2
:105090009B80002B00F09B802A4601214046FFF7B1
:1050A000F5FC041E2BDBA3B27E2B2AD8E4B204EB62
:1050B00044024A4B03EBC2031B7D53BB474B03EB3C
:1050C000C2034FF0010983F814909D6004EB440281
:1050D000424B03EBC2031B7DF3B1B9F1000F23D1A7
:1050E00016B34FF0FF3004EB44023C4B03EBC2031A
:1050F0001B7D012B1FD8012B2CD1354639E060B226
:1051000028E0374B40F2C132364937480CF024FCD6
:10511000CCE74FF00009D9E7314B40F2CD323349AB
:1051200031480CF019FCD8E741462846FFF7E2FE6B
:10513000002ED8D10EE02E4B1C70D3000833274A26
:1051400013444FF40062009204333A463146284635
:1051500006F076FC03B0BDE8F083214B40F2F1325B
:10516000244921480CF0F8FB2B7B13F0400F22D18F
:105170002D683DB16A892B899A42F5D12B68002BA5
:10518000EBD1F1E70023C3B132464FF420710E207A
:1051900002F054F90646EEB104EB44030F4A52F80C
:1051A000330008B101F09CFE04EB44040B4B43F8C0
:1051B00034600020CEE70123E5E7304602F010F826
:1051C000E9E76FF00F00C5E76FF00F00C2E76FF07F
:1051D0000F00BFE74FF0FF30BCE700BFF4700020C6
:1051E000D0C6010888C80108A8C6010898C80108E7
:1051F000F0700020C0C8010870B584B00E46144697
:10520000054600283DD0002E43D0002C49D0294629
:10521000206800F080FB0346002840F0848022686C
:1052200002F0F001E02944D06968A86851400142C9
:1052300009D092B24FF6A9618A4204D0EA68002AE6
:105240007DD005F10C043F4A127802EB42003E4942
:1052500001EBC001097D012943D93B4901EBC001A4
:105260008968A9423DD1206802EB420C364901EB26
:10527000CC014968884234D131462846FFF786FE82
:105280005BE0324B40F21E32314932480CF064FB95
:10529000B9E72E4B40F21F322F492E480CF05CFB31
:1052A000B3E72A4B4FF448722C492A480CF054FBC0
:1052B000ADE701238DF8083000238DF809305E2317
:1052C0008DF80A30637803F07F038DF80B30A378F4
:1052D0008DF80C30E3788DF80D3002AB24E001330B
:1052E000DBB2092B19D803EB430C174800EBCC00B9
:1052F000027D012AF3D98268AA42F0D12068124ABD
:1053000002EBCC0252689042E9D10E4A13701A4661
:1053100031462846FFF73AFE0FE03246214628463E
:10532000FFF7A0FE09E00E4B4FF40062009205F17A
:1053300026023146284606F083FB04B070BD6FF0AC
:105340000300FAE7F0700020F4700020D0C60108D6
:1053500098C60108A8C60108DCC8010838C80108B9
:105360009C0202082DE9F04186B0064688461746A1
:105370004FF420722421222001F014FEA0B3054630
:105380004389232B33D9D6F804C06C6884F8008095
:105390006770002323716371A371E3716B68726896
:1053A000166850689168D7689E60D86019615F611F
:1053B0001669506991699E61D8611962DCF80C30F8
:1053C000059305A800F0EAF858B10021A170E1703A
:1053D0000290012301930091FF2305AA284600F0C3
:1053E00085FA284601F07CFD06B0BDE8F081044B4B
:1053F0004FF4B472034904480CF0AEFAC3E700BF9F
:10540000E8C8010858C90108A8C601082DE9F041FB
:1054100084B00546494B9E68347804F00F04A4001C
:10542000132C15D90F464389032B11D943681B78D8
:10543000082B61D1414B586900F0F003E02B1AD0E2
:105440003E4B196800F067FAA8B92B89072B05D8DD
:10545000284601F045FD04B0BDE8F08104F10E08D6
:105460004146284601F0F5FC00283AD02B8919194D
:1054700089B28B4203D9284601F032FDEBE74FF4A5
:1054800020720E2001F08EFD80460028F3D0428964
:1054900004F108039A4213D3224631464068FBF7D1
:1054A000BDFB2146404601F0D9FC60B92946404683
:1054B00001F0E8FE88B9284601F012FD454615E0E6
:1054C00001F00EFDD7E71E4BB6221E491E480CF018
:1054D00043FA404601F004FDCDE7404601F000FDEF
:1054E000C9E74146284601F0B9FC48B96E68214633
:1054F000284601F0AEFC50B1284601F0F1FCAAE7C5
:105500000F4BC722114910480CF026FAB3E7686820
:105510000A494B69C3600B69036100223270B270A3
:10552000F270FF2303728272C2720297012001900F
:1055300000921431284600F0D9F9DDE7D870002038
:10554000E8C8010884C90108A8C60108BCC9010847
:1055500008B50A460321FFF705FF08BD08B50A464E
:105560000B21FFF7FFFE08BD08B590F82D3013F0B2
:10557000010F0DD00146436863B1074A5069834269
:1055800004D000F0C8F908B9002002E0012000E0D2
:10559000002008BD0020FCE7D870002084462B4B7B
:1055A000186830E00068C8B190F82D3013F0010F92
:1055B000F8D013F0040FF5D04268002AF2D0DCF8DE
:1055C00000104A40D0F808E012EA0E0F18D013F08D
:1055D000020FE7D1C3689942E4D111E01C4B1B686C
:1055E00073B193F82D2012F0010F09D012F0040FBF
:1055F00006D05A6822B19CF800207F2A00D01846B5
:105600005DF804FB006860B190F82D3013F0010FD5
:10561000F8D013F0040FF5D04268002AF2D000B59C
:10562000CDE70B4B1B687BB193F82D2012F0010FD7
:105630000AD012F0040F07D05A682AB19CF8002053
:105640007F2A01D018467047704700BF081201201A
:10565000041201202DE9F041044647683B781A09FD
:10566000042A04D001F03CFC0020BDE8F0810E4685
:1056700003F00F039D007888FFF7CFF98046238958
:1056800083421BD86389AB421DD3238943451AD378
:10569000132D18D93B69534A5361F968116103F01E
:1056A000F003E02B13D196F82D3013F0010F28D022
:1056B0007368002B67D14FF0000824E001462046B4
:1056C00001F030FDDEE7204601F00AFCCCE7304671
:1056D000FFF74AFF002858D1424B1B7D7F2B56D045
:1056E000414BD3F8008001E0D8F80080B8F1000FFA
:1056F00009D0B045F8D04046FFF736FF0028F3D078
:1057000001E04FF000083146364B186900F003F90C
:1057100000283FD1334B1B6903F0F003E02B39D055
:10572000B8F1000F3AD0FB8833F0C00306D0204612
:1057300000F0A4FB0446002896D04768294AC2F826
:105740000080566097603B7803F00F039B009381C5
:105750002946204601F082FB7B7A062B2FD0112BA5
:1057600020D0012B30D041461E4B586900F0D3F8B1
:1057700028B91C4B5B6903F0F003E02B29D12046CC
:1057800001F0AEFB12E0B046BDE7B046BBE74FF01C
:105790000008B8E7204601F0A3FB65E7204601F0CA
:1057A0009FFB61E73146204606F01AF80D4B0022B8
:1057B0001A605A609A609A811A615A6154E73146B8
:1057C000204604F05DF9F1E731462046FFF71EFE62
:1057D000ECE72946204601F07DFB02212046FFF739
:1057E000B7FECCE7D8700020081201202DE9F04365
:1057F00083B004460F4616469946DDF83080827B1A
:10580000012A3FD1002E51D01421204601F021FB66
:10581000002859D165686389132B3BD985F8089016
:105820009DF82C306B7233682B6145232B709DF8EB
:1058300028306B702089FFF7F0F868800023AB7187
:10584000EB71DFF89090B9F80000FFF7E6F8A88058
:10585000B9F800300133A9F800301FB33B68EB60A2
:105860000023AB72EB72B8F8243013B12289934253
:1058700024D3D8F81430324621464046984703B026
:10588000BDE8F083144B4FF45572144914480CF0E2
:1058900063F8B7E7104B4FF46272124910480CF0EE
:1058A0005BF8BBE7104B1B68EB60D9E76389132BF0
:1058B0000DD963681B69019301AED4E732464146B6
:1058C000204600F0E3FBDAE76FF00100D7E76FF066
:1058D0000100D4E7E4710020F0C9010860CA0108A2
:1058E000A8C601086CCA0108C001020810B584B03E
:1058F000089C94461AB109B10A6802B9211D0294A4
:105900009DF81C2001929DF8182000926246FFF736
:105910006DFF04B010BD0346421E12F1030F12D8F2
:1059200091F82D0010F0020014D04A689A420CD071
:1059300089685A400A420AD1CA4323EA01039A42BB
:1059400007D00020704701207047002070470020DA
:1059500070470120704700002DE9F04182B0884671
:10596000036801930C460026304601AF03283BD85C
:1059700000233D782049A1FB05CE4FEADE0E0EEB59
:105980008E0CA5EB4C0C5FFA8CFC87F800E09E4671
:105990000133DBB20CF1300C0EF108010DEB010EFE
:1059A0000EF808CC092DE4D809E005F108010DEB4B
:1059B000010616F8086C04F8016B1E462B465D1EA6
:1059C000EDB233B1731C9642EFDB002002B0BDE8AC
:1059D000F081731C96420CDA2E2504F8015B013726
:1059E0000130C0B21E46C1E7002304F8013C404626
:1059F000ECE70020EAE700BFCDCCCCCC08B5102204
:105A00000149FFF7A9FF08BDE871002038B5044639
:105A10000C4B1B68834208D00D4651B123682B60A4
:105A20002146042000F06AFF38BD0268054B1A6069
:105A3000F6E7054B40F24512044905480BF08CFF90
:105A4000ECE700BFFC7100209CCA010810CB0108E4
:105A5000A8C601082DE9F84380468946814215D041
:105A6000B9F1000F09D0D9F80030434505D0314BCA
:105A7000AD22314931480BF06FFFD8F8044063681C
:105A80009A8852B10026D8F804502BE0294BAB225B
:105A90002B492A480BF060FFE2E71B68C8F8043086
:105AA0006368D8F80820D8F80C50D8F81000D8F857
:105AB00014101A605D609860D960D8F818201A61D7
:105AC00001212046FFF74AFD204601F07FFB0646F4
:105AD000204601F005FAD6E73444A6B2284601F084
:105AE000FFF93D4685B16B681F68284601F06EFBE3
