:020000040800F2
:10000000000003205D150008ED120008EF12000843
:10001000F1120008F3120008F512000800000000B9
:100020000000000000000000000000009136000801
:10003000F71200080000000031370008A935000859
:10004000AD150008AD150008AD150008AD15000888
:10005000AD150008AD150008D54B0008DF4B0008B2
:10006000AD150008AD150008AD150008AD15000868
:10007000AD150008AD150008AD150008AD15000858
:10008000AD150008AD150008AD150008AD15000848
:10009000AD150008AD150008AD150008AD15000838
:1000A000AD150008AD150008AD150008AD15000828
:1000B000AD150008AD150008AD150008AD15000818
:1000C000AD150008AD150008AD150008AD15000808
:1000D000AD150008E94B0008194C0008594C000800
:1000E000C94B0008AD150008AD150008AD15000896
:1000F000AD150008AD150008AD150008AD150008D8
:10010000AD150008AD150008AD150008AD150008C7
:10011000854C0008AD150008F9120008AD1500085F
:10012000AD150008AD150008AD150008AD150008A7
:10013000AD15000809130008AD150008AD1500083D
:10014000AD150008AD150008AD150008AD15000887
:10015000AD150008AD150008AD150008AD15000877
:10016000AD150008AD150008AD150008AD15000867
:10017000AD150008AD150008AD1500080000000021
:10018000AD150008AD150008AD150008AD15000847
:10019000AD150008AD150008AD150008AD15000837
:0C01A000AD150008AD150008AD150008F5
:1001C00081F0004102E000BF83F0004330B54FEA08
:1001D00041044FEA430594EA050F08BF90EA020F75
:1001E0001FBF54EA000C55EA020C7FEA645C7FEA08
:1001F000655C00F0E2804FEA5454D4EB5555B8BF2B
:100200006D420CDD2C4480EA020281EA030382EA9B
:10021000000083EA010180EA020281EA0303362D2D
:1002200088BF30BD11F0004F4FEA01314FF4801C00
:100230004CEA113102D0404261EB410113F0004F12
:100240004FEA03334CEA133302D0524263EB4303C9
:1002500094EA050F00F0A780A4F10104D5F1200E67
:100260000DDB02FA0EFC22FA05F2801841F10001C2
:1002700003FA0EF2801843FA05F359410EE0A5F196
:1002800020050EF1200E012A03FA0EFC28BF4CF0C7
:10029000020C43FA05F3C01851EBE37101F000457D
:1002A00007D54FF0000EDCF1000C7EEB00006EEB8A
:1002B0000101B1F5801F1BD3B1F5001F0CD3490814
:1002C0005FEA30004FEA3C0C04F101044FEA44526B
:1002D00012F5800F80F09A80BCF1004F08BF5FEAF2
:1002E000500C50F1000041EB045141EA050130BDD2
:1002F0005FEA4C0C404141EB0101013C28BFB1F5E4
:10030000801FE9D291F0000F04BF01460020B1FA2E
:1003100081F308BF2033A3F10B03B3F120020CDA01
:100320000C3208DD02F1140CC2F10C0201FA0CF0DF
:1003300021FA02F10CE002F11402D8BFC2F1200C44
:1003400001FA02F120FA0CFCDCBF41EA0C019040FA
:10035000E41AA2BF01EB0451294330BD6FEA040443
:100360001F3C1CDA0C340EDC04F11404C4F120022E
:1003700020FA04F001FA02F340EA030021FA04F340
:1003800045EA030130BDC4F10C04C4F1200220FA97
:1003900002F001FA04F340EA0300294630BD21FAD5
:1003A00004F0294630BD94F0000F83F4801306BF9B
:1003B00081F480110134013D4EE77FEA645C18BF8F
:1003C0007FEA655C29D094EA050F08BF90EA020F26
:1003D00005D054EA000C04BF1946104630BD91EA1E
:1003E000030F1EBF0021002030BD5FEA545C05D121
:1003F0004000494128BF41F0004130BD14F5800460
:100400003CBF01F5801130BD01F0004545F0FE41D3
:1004100041F470014FF0000030BD7FEA645C1ABF08
:10042000194610467FEA655C1CBF0B46024650EA3F
:10043000013406BF52EA033591EA030F41F400216B
:1004400030BD00BF90F0000F04BF0021704730B5F1
:100450004FF4806404F132044FF000054FF00001C6
:1004600050E700BF90F0000F04BF0021704730B587
:100470004FF4806404F1320410F0004548BF40425C
:100480004FF000013EE700BF42004FEAE2014FEAB1
:1004900031014FEA02701FBF12F07F4393F07F4F8C
:1004A00081F06051704732F07F4208BF704793F08F
:1004B0007F4F04BF41F40021704730B54FF46074A2
:1004C00001F0004521F000411CE700BF50EA0102A5
:1004D00008BF704730B54FF000050AE050EA01024E
:1004E00008BF704730B511F0004502D5404261EBBE
:1004F00041014FF4806404F132045FEA915C3FF4FF
:10050000D8AE4FF003025FEADC0C18BF03325FEA9B
:10051000DC0C18BF033202EBDC02C2F1200300FA4C
:1005200003FC20FA02F001FA03FE40EA0E0021FA71
:1005300002F11444BDE600BF70B54FF0FF0C4CF45F
:10054000E06C1CEA11541DBF1CEA135594EA0C0F11
:1005500095EA0C0F00F0DEF82C4481EA030621EA4C
:100560004C5123EA4C5350EA013518BF52EA033587
:1005700041F4801143F4801338D0A0FB02CE4FF039
:100580000005E1FB02E506F00042E0FB03E54FF069
:100590000006E1FB03569CF0000F18BF4EF0010E61
:1005A000A4F1FF04B6F5007F64F5407404D25FEA5D
:1005B0004E0E6D4146EB060642EAC62141EA555110
:1005C0004FEAC52040EA5E504FEACE2EB4F1FD0C52
:1005D00088BFBCF5E06F1ED8BEF1004F08BF5FEAD0
:1005E000500E50F1000041EB045170BD06F0004682
:1005F00046EA010140EA020081EA0301B4EB5C042F
:10060000C2BFD4EB0C0541EA045170BD41F4801126
:100610004FF0000E013C00F3AB8014F1360FDEBF4B
:10062000002001F0004170BDC4F10004203C35DA27
:100630000C341BDC04F11404C4F1200500FA05F3AA
:1006400020FA04F001FA05F240EA020001F000424B
:1006500021F0004110EBD37021FA04F642EB0601C1
:100660005EEA430E08BF20EAD37070BDC4F10C04EB
:10067000C4F1200500FA04F320FA05F001FA04F2AF
:1006800040EA020001F0004110EBD37041F100019B
:100690005EEA430E08BF20EAD37070BDC4F12005A6
:1006A00000FA05F24EEA020E20FA04F301FA05F20E
:1006B00043EA020321FA04F001F0004121FA04F2B6
:1006C00020EA020000EBD3705EEA430E08BF20EA86
:1006D000D37070BD94F0000F0FD101F000464000C0
:1006E00041EB010111F4801F08BF013CF7D041EA42
:1006F000060195F0000F18BF704703F00046520046
:1007000043EB030313F4801F08BF013DF7D043EA16
:100710000603704794EA0C0F0CEA135518BF95EACC
:100720000C0F0CD050EA410618BF52EA4306D1D153
:1007300081EA030101F000414FF0000070BD50EA72
:10074000410606BF1046194652EA430619D094EAFC
:100750000C0F02D150EA013613D195EA0C0F05D1E6
:1007600052EA03361CBF104619460AD181EA03013A
:1007700001F0004141F0FE4141F470014FF00000F2
:1007800070BD41F0FE4141F4780170BD70B54FF08D
:10079000FF0C4CF4E06C1CEA11541DBF1CEA13550D
:1007A00094EA0C0F95EA0C0F00F0A7F8A4EB0504EF
:1007B00081EA030E52EA03354FEA013100F08880E6
:1007C0004FEA03334FF0805545EA131343EA1263AF
:1007D0004FEA022245EA111545EA10654FEA002664
:1007E0000EF000419D4208BF964244F1FD0404F51D
:1007F000407402D25B084FEA3202B61A65EB030579
:100800005B084FEA32024FF480104FF4002CB6EB35
:10081000020E75EB030E22BFB61A754640EA0C00B5
:100820005B084FEA3202B6EB020E75EB030E22BFF5
:10083000B61A754640EA5C005B084FEA3202B6EB36
:10084000020E75EB030E22BFB61A754640EA9C00F5
:100850005B084FEA3202B6EB020E75EB030E22BFC5
:10086000B61A754640EADC0055EA060E18D04FEA83
:10087000051545EA16754FEA06164FEAC30343EA23
:1008800052734FEAC2025FEA1C1CC0D111F4801FF0
:100890000BD141EA00014FF000004FF0004CB6E7E9
:1008A00011F4801F04BF01430020B4F1FD0C88BF88
:1008B000BCF5E06F3FF6AFAEB5EB030C04BFB6EB93
:1008C000020C5FEA500C50F1000041EB045170BD86
:1008D0000EF0004E4EEA113114EB5C04C2BFD4EBB3
:1008E0000C0541EA045170BD41F480114FF0000E37
:1008F000013C90E645EA060E8DE60CEA135594EAB3
:100900000C0F08BF95EA0C0F3FF43BAF94EA0C0FB5
:100910000AD150EA01347FF434AF95EA0C0F7FF42A
:1009200025AF104619462CE795EA0C0F06D152EA7E
:1009300003353FF4FDAE1046194622E750EA410662
:1009400018BF52EA43067FF4C5AE50EA41047FF473
:100950000DAF52EA43057FF4EBAE12E74FF0FF3CD8
:1009600006E000BF4FF0010C02E000BF4FF0010CA9
:100970004DF804CD4FEA410C7FEA6C5C4FEA430C22
:1009800018BF7FEA6C5C1BD001B050EA410C0CBF71
:1009900052EA430C91EA030F02BF90EA020F0020D3
:1009A000704710F1000F91EA030F58BF994208BF3A
:1009B00090422CBFD8176FEAE37040F001007047F7
:1009C0004FEA410C7FEA6C5C02D150EA013C07D14E
:1009D0004FEA430C7FEA6C5CD6D152EA033CD3D099
:1009E0005DF8040B704700BF8446104662468C4693
:1009F0001946634600E000BF01B5FFF7B7FF0028C6
:100A000048BF10F1000F01BD4DF808EDFFF7F4FFEE
:100A10000CBF012000205DF808FB00BF4DF808ED79
:100A2000FFF7EAFF34BF012000205DF808FB00BF9C
:100A30004DF808EDFFF7E0FF94BF012000205DF8BE
:100A400008FB00BF4DF808EDFFF7CEFF94BF012073
:100A500000205DF808FB00BF4DF808EDFFF7C4FF6C
:100A600034BF012000205DF808FB00BF4FEA4102BF
:100A700012F5001215D211D56FF47873B3EB6252F0
:100A800012D94FEAC12343F0004343EA505311F017
:100A9000004F23FA02F018BF404270474FF00000A9
:100AA000704750EA013005D111F0004008BF6FF0E7
:100AB000004070474FF00000704700BF53B94AB97B
:100AC000002908BF00281CBF4FF0FF314FF0FF3056
:100AD00000F00CB8ADF1080C6DE904CE04F032F969
:100AE000DDF804E0DDE9022304B07047704700BF81
:100AF000844641EA000313F003036DD1403A41D329
:100B000051F8043B40F8043B51F8043B40F8043BE7
:100B100051F8043B40F8043B51F8043B40F8043BD7
:100B200051F8043B40F8043B51F8043B40F8043BC7
:100B300051F8043B40F8043B51F8043B40F8043BB7
:100B400051F8043B40F8043B51F8043B40F8043BA7
:100B500051F8043B40F8043B51F8043B40F8043B97
:100B600051F8043B40F8043B51F8043B40F8043B87
:100B700051F8043B40F8043B51F8043B40F8043B77
:100B8000403ABDD2303211D351F8043B40F8043B17
:100B900051F8043B40F8043B51F8043B40F8043B57
:100BA00051F8043B40F8043B103AEDD20C3205D327
:100BB00051F8043B40F8043B043AF9D2043208D01F
:100BC000D2071CBF11F8013B00F8013B01D30B8891
:100BD00003806046704700BF082A13D38B078DD06F
:100BE00010F003038AD0C3F10403D21ADB071CBF41
:100BF00011F8013B00F8013B80D331F8023B20F8AB
:100C0000023B7BE7043AD9D3013A11F8013B00F8E3
:100C1000013BF9D20B7803704B7843708B7883706B
:100C20006046704700000000000000000000000067
:100C300000000000000000000000000000000000B4
:100C400030B490F800F020F007016FF0000C10F0C5
:100C5000070491F820F040F048804FF000046FF056
:100C60000700D1E9002391F840F000F1080082FA72
:100C70004CF2A4FA8CF283FA4CF3A2FA8CF34BBB3D
:100C8000D1E9022382FA4CF200F10800A4FA8CF2B6
:100C900083FA4CF3A2FA8CF3E3B9D1E9042382FA84
:100CA0004CF200F10800A4FA8CF283FA4CF3A2FA99
:100CB0008CF37BB9D1E9062301F1200182FA4CF2D1
:100CC00000F10800A4FA8CF283FA4CF3A2FA8CF338
:100CD000002BC6D0002A04BF04301A4612BAB2FA5A
:100CE00082F200EBD20030BC7047D1E9002304F05F
:100CF0000305C4F100004FEAC50514F0040F91F894
:100D000040F00CFA05F562EA05021CBF63EA050330
:100D100062464FF00004AAE7000000000000000057
:100D200001F0FF01102A2BDB10F0070F08D010F89C
:100D3000013B013A8B422DD010F0070F42B3F6D1A0
:100D4000F0B441EA012141EA014122F007047FF0B9
:100D500000070023F0E80256083C85EA010586EA10
:100D6000010685FA47F5A3FA87F586FA47F6A5FA4C
:100D700087F68EB9EED1F0BC01F0FF0102F0070258
:100D800032B110F8013B013A83EA010313B1F8D103
:100D90000020704701387047002D06BF35460338E4
:100DA000073815F0010F07D1013015F4807F02BF1D
:100DB000013015F4C03F0130F0BC0138704700BF6E
:100DC0004FEA410C7FEA6C5C02D150EA013C0AD147
:100DD0004FEA430C7FEA6C5C02D152EA033C02D139
:100DE0004FF0000070474FF0010070470348044B7C
:100DF000834202D0034B03B11847704730070020ED
:100E000030070020000000000548064B1B1AD90FD0
:100E100001EBA301491002D0034B03B118477047FF
:100E200030070020300700200000000010B5064CFD
:100E3000237843B9FFF7DAFF044B13B10448AFF34B
:100E400000800123237010BD300700200000000047
:100E5000B4B0000808B5054B1BB105490548AFF310
:100E60000080BDE80840FFF7CFBF00BF00000000D2
:100E700034070020B4B00008F0B58DB0002407940A
:100E8000089409940A940B940194394B1A6B42F01C
:100E900004021A631A6B02F004020192019A02948E
:100EA0001A6B42F080021A631A6B02F080020292FF
:100EB000029A03941A6B42F001021A631A6B02F051
:100EC00001020392039A04941A6B42F002021A631D
:100ED0001A6B02F002020492049A05941A6B42F013
:100EE00008021A631A6B02F008020592059A06942A
:100EF0001A6B42F040021A631B6B03F04003069327
:100F0000069B1C4F224644F28101384600F003FE46
:100F1000194D22464021284600F0FDFD4FF40053B4
:100F200007934FF488130893099407A9134800F016
:100F3000E7FC44F2810307930126089609940A947A
:100F400007A9384600F0DCFC402307930896099473
:100F50000A9407A9284600F0D3FC8023079308943D
:100F6000099407A9284600F0CBFC0DB0F0BD00BFE6
:100F7000003802400004024000180240000802400D
:100F800000B583B001904FF0FF33012201A903485F
:100F900001F0E5FE019803B05DF804FB2408002091
:100FA00008B50268034B9A4200D008BD00F03AFB36
:100FB000FBE700BF0010004072B6FEE700B595B039
:100FC0003022002108A804F0D3F9002303930493EE
:100FD0000593069307930193214A116C41F08051C8
:100FE0001164126C02F080520192019A02931D4B1F
:100FF0001A6842F440421A601B6803F440430293AB
:10100000029B092308934FF4A023099301230D9316
:1010100002230E934FF480020F9204221092A82212
:10102000119212930723139308A800F00BFE98B9AE
:101030000F23039302230493002305934FF4A0533B
:1010400006934FF480530793052103A801F064F839
:1010500020B915B05DF804FBFFF7AEFFFFF7ACFF5A
:10106000003802400070004010B582B000F0C0FAB5
:10107000FFF7A4FFFFF700FF00F0BEF900F00EFA43
:1010800000F018F800F052F803F038FD03F01CFEF1
:10109000002400942346042204490548006803F014
:1010A000A3FB03F0A1F8204602B010BD4C070020BE
:1010B00048B6000808B50948094B0360002343609F
:1010C0007F228260FF22C26003614361836101F07D
:1010D000ABFA00B908BDFFF76FFFFBE75C07002024
:1010E0000028004010B58CB004463022002168462C
:1010F00004F03EF922680B4B9A4201D00CB010BDAF
:10110000202300934FF400730A93684601F0F8F827
:1011100020B9054B0122C3F83C2EEFE7FFF74CFF47
:10112000F7E700BF002800400000474208B50D481F
:101130000D4B03604FF48273436000238360C360F0
:10114000036143614FF400728261C36103624362D1
:1011500083620A23C36201F0B6FA00B908BDFFF743
:101160002BFFFBE77C07002000300140F0B589B081
:1011700000230393049305930693079302681E4B81
:101180009A4201D009B0F0BD0024009403F58433E5
:101190005A6C42F480525A645A6C02F480520092A3
:1011A000009A01941A6B42F001021A631A6B02F062
:1011B00001020192019A02941A6B42F002021A6330
:1011C0001B6B03F002030293029B6023039302272D
:1011D0000497032606960525079503A9074800F0FE
:1011E0008FFB20230393049705940696079503A984
:1011F000034800F085FBC5E70030014000000240D5
:101200000004024000B583B0002200920D4B596CDF
:1012100041F480415964596C01F480410091009976
:101220000192196C41F0805119641B6C03F08053DA
:101230000193019B0F216FF0010000F06DFA03B0E4
:101240005DF804FB0038024030B589B00446002345
:101250000193214B1A6C42F010021A641B6C03F0CC
:1012600010030193019B02A903A801F02BF8069B30
:10127000CBB901F007F80346184AA2FB03239B0CE5
:10128000013B1748174A026040F2E732C2604360F0
:10129000002303618360836101F0DAFB054630B10E
:1012A000284609B030BD00F0EDFF4300E4E70C48EC
:1012B00001F06AFA05460028F2D1362000F03CFA27
:1012C0000F2C01D90125EBE700222146362000F042
:1012D00023FA054B1C60E3E70038024083DE1B4322
:1012E000D407002000100040140000207047FEE7E3
:1012F000FEE7FEE7FEE7704708B5024801F08CFA0A
:1013000008BD00BFD407002008B5024800F078FAF5
:1013100008BD00BF540D0020014B1860704700BF8E
:101320001C08002001207047024B16221A604FF063
:10133000FF307047DC15002008B54FF0FF31FFF794
:10134000F3FFFEE770B50C461646002506E0AFF346
:101350000080214601F8010B01350C46B542F6DB51
:10136000304670BD70B50C461646002504E014F8F2
:10137000010BFFF705FE0135B542F8DB304670BDC5
:101380004FF0FF3070474FF400534B600020704720
:10139000012070470020704710B403460C4A0D49E5
:1013A0000D48006850B10C4800680344521A93423B
:1013B00008D8094A13605DF8044B70470648074C8B
:1013C0000460F0E7064B0C221A604FF0FF30F2E7A2
:1013D000000003200004000020080020B8170020AF
:1013E000DC150020034AD2F8883043F47003C2F8B9
:1013F0008830704700ED00E008B50A480A4B0360EA
:101400004FF4E133436000238360C36003610C2227
:1014100042618361C36101F072FC00B908BDFFF74E
:10142000CBFDFBE7240800200048004000B589B050
:101430000023039304930593069307930268154BC7
:101440009A4202D009B05DF804FB0021019103F536
:10145000F8331A6C42F480221A641A6C02F4802267
:101460000192019A02911A6B42F008021A631B6BF7
:1014700003F008030293029B4FF44073039302238B
:101480000493032306930723079303A9024800F05C
:1014900037FAD7E700480040000C024008B50C4876
:1014A0004FF0A0430360042303710222C2710023A2
:1014B0008371427201228272C37203738273C37397
:1014C00000F03EFB00B908BDFFF776FDFBE700BF6B
:1014D0006C08002070B588B0002303930493059333
:1014E000069307930368B3F1A04F01D008B070BD15
:1014F00000250195174C236B43F001032363236BF5
:1015000003F001030193019B4FF4E853039302237B
:101510000493032306930A2307930F4E03A930462F
:1015200000F0EEF94FF4007303930495059503A9B9
:10153000304600F0E5F9636B43F080036363029586
:10154000636C43F480436364636C03F480430293ED
:10155000029BCBE70038024000000240DFF834D0A5
:101560000D480E490E4A002302E0D458C4500433FB
:10157000C4188C42F9D30B4A0B4C002301E01360D2
:101580000432A242FBD3FFF72DFF03F083FFFFF7E6
:101590006BFD704700000320000000203007002092
:1015A0003CB9000830070020B4170020FEE7000017
:1015B00008B50122044B33F81010044B53F82000F7
:1015C00000F0A9FA08BD00BFE8B000080400002040
:1015D00008B50022044B33F81010044B53F82000D8
:1015E00000F099FA08BD00BFE8B000080400002030
:1015F00008B50B4B1A6842F400721A601A6842F47C
:1016000080621A601A6842F480721A60032000F047
:1016100071F80F20FFF718FEFFF7F4FD002008BD5A
:10162000003C0240034A1168034B1B780B441360D3
:10163000704700BF500D002010000020014B1868BB
:10164000704700BF500D002038B50446FFF7F6FF85
:101650000546B4F1FF3F02D0044B1B781C44FFF752
:10166000EDFF401BA042FAD338BD00BF10000020A0
:10167000002807DB00F01F02400901239340024AC3
:1016800042F82030704700BF00E100E0002808DB8E
:101690000901C9B200F1604000F5614080F8001313
:1016A000704700F00F000901C9B2014B195470478F
:1016B00014ED00E000B500F00700C0F1070CBCF12C
:1016C000040F28BF4FF0040C031D062B0FD9C31EB7
:1016D0004FF0FF3E0EFA0CF021EA000199400EFA9D
:1016E00003FE22EA0E0241EA02005DF804FB002339
:1016F000EEE70000074AD36823F4E0631B041B0CE9
:10170000000200F4E060034343F0BF6343F400339E
:10171000D360704700ED00E010B50446054BD86873
:10172000C0F30220FFF7C6FF01462046FFF7AEFFD9
:1017300010BD00BF00ED00E008B5FFF799FF08BD40
:1017400070B50446866DFFF779FF94F83530DBB24B
:10175000022B06D080236365002384F834300120F7
:1017600070BD05462268136823F0160313602268D3
:10177000536923F080035361236CE3B1226813683B
:1017800023F0080313602268136823F00103136039
:1017900023681B6813F0010F11D0FFF74FFF431BA5
:1017A000052BF5D920236365032084F83500002339
:1017B00084F83430D4E7A36C002BDFD1E3E7E26D8B
:1017C0003F239340B360012384F83530002084F830
:1017D0003400C5E790F83530DBB2022B03D080230C
:1017E000436501207047052380F83530026813688F
:1017F00023F001031360002070477047704700001A
:101800002DE9F04104460368D3F8388003F580528F
:101810005569D669364A576915F0400F02D016F05F
:10182000400F34D115F0010F02D016F0010F35D161
:1018300015F4004F23D016F4004F20D0D4F8883090
:1018400043F00803C4F8883015F4005F30D02368F3
:1018500003F580535A6922F07F4222F4010222F4F8
:101860005F4222F0FF02C4F88C20DA6922F4C03211
:10187000DA61E023C4F88430204601F087FE18F0D6
:10188000080F20D117F4002F2AD1BDE8F08103F50D
:101890008053184A5A6101F069FEC3E7236803F5D3
:1018A00080534FF001125A61204601F067FEBFE7F6
:1018B000236803F580535A6948F280610A40C4F8EE
:1018C0008C205961D8E72368DB6A03F06003C4F811
:1018D00094302046FFF791FF0023C4F89430D1E7FD
:1018E000034B4FF400225A612046FFF787FFCCE7F5
:1018F000003C014040000100D0F88C00704700001F
:1019000000230F2B00F2F68070B582B066E0856888
:101910004FEA430E032404FA0EF425EA0405CC68CA
:1019200004FA0EF42C438460446824EA02044A68F2
:10193000C2F300129A40224342605DE0DC080834A2
:1019400050F8242003F00705AD004FF00F0E0EFAFB
:1019500005FE22EA0E0E0A69AA4042EA0E0240F88B
:1019600024205DE0092200E0002202FA0EF22A4360
:101970000234614D45F82420604A94686FEA0C02F5
:1019800024EA0C054E6816F4801F01D04CEA0405C9
:101990005A4CA560E46802EA04054E6816F4001F7C
:1019A00001D04CEA0405554CE560646802EA040580
:1019B0004E6816F4003F01D04CEA04054F4C6560B8
:1019C000246822404D6815F4803F01D04CEA04029F
:1019D0004A4C226001330F2B00F28A8001229A4088
:1019E0000C6804EA020C32EA0404F3D14C6804F0F7
:1019F0000304013C012C8AD94A6802F00302032A3D
:101A000009D0C4685D000322AA4024EA02048A685F
:101A1000AA402243C2604A6802F00302022A8DD023
:101A200004684FEA430E032202FA0EF224EA02048B
:101A30004A6802F0030202FA0EF2224302604A6888
:101A400012F4403FC6D0002201922D4A546C44F457
:101A500080445464526C02F480420192019A9C08C2
:101A6000A51C254A52F8255003F0030E4FEA8E0EAE
:101A70000F2202FA0EF225EA0205224A90423FF4B2
:101A800073AF02F58062904222D002F580629042EC
:101A900020D002F5806290421ED002F58062904212
:101AA0001CD002F5806290421AD002F5806290420A
:101AB00018D002F58062904216D002F58062904202
:101AC00014D002F5806290423FF44CAF0A224CE7FA
:101AD00001224AE7022248E7032246E7042244E7BC
:101AE000052242E7062240E707223EE708223CE7BC
:101AF00002B070BD704700BF00380140003C01409B
:101B000000380240000002400369194201D0012060
:101B10007047002070470AB18161704709048161F4
:101B20007047000008B5054B5B69034200D108BD52
:101B3000024B586103F03AF8F9E700BF003C01405E
:101B400030B583B000287AD00446056890F8953403
:101B5000C3B1032384F89534B5F1A04F17D02068A2
:101B600001F0A0FB237C8DF80030231D0ECB2068F4
:101B700001F04FFB70B1022384F89534012528460B
:101B800003B030BD80F89434FFF7A4FCE1E70023F4
:101B9000A371E4E70021206801F0B6FC024608B911
:101BA000034617E0022384F895340125E7E703EBA9
:101BB000C30104EB8101012048750B75CB85002022
:101BC0000876C861086203EBC30104EB8101486237
:101BD0000133DBB220799842E9D816E002EBC20368
:101BE00004EB8303002183F8551283F8542283F811
:101BF0005812C3F85C12C3F8601202EBC20304EB84
:101C00008303C3F864120132D2B29042E6D8237C37
:101C10008DF80030231D0ECB206801F099FB05469E
:101C200020B1022384F895340125A8E700236374CA
:101C3000012384F89534206801F054FC9FE70125C6
:101C40009DE70000002800F0E08170B582B00446F6
:101C5000036813F0010F3BD09F4B9B6803F00C030C
:101C6000042B2CD09C4B9B6803F00C03082B21D039
:101C70006368B3F5803F4FD0B3F5A02F52D0964B99
:101C80001A6822F480321A601A6822F480221A60DC
:101C90006368002B50D0FFF7D1FC05468E4B1B68C4
:101CA00013F4003F14D1FFF7C9FC401B6428F5D999
:101CB0000320B1E1884B5B6813F4800FD8D0864BCA
:101CC0001B6813F4003F03D06368002B00F09F8172
:101CD000236813F0020F54D07F4B9B6813F00C0F56
:101CE0003ED07D4B9B6803F00C03082B33D0E36898
:101CF000002B68D0794B01221A60FFF79FFC054644
:101D0000754B1B6813F0020F54D1FFF797FC401B73
:101D10000228F5D903207FE16F4A136843F480332A
:101D20001360B5E76C4B1A6842F480221A601A6897
:101D300042F480321A60ABE7FFF780FC0546664B41
:101D40001B6813F4003FC3D0FFF778FC401B6428E6
:101D5000F5D9032060E1604B5B6813F4800FC6D1B6
:101D60005D4B1B6813F0020F03D0E368012B40F0BA
:101D70005081594A136823F0F803216943EAC103EB
:101D80001360236813F0080F42D063696BB3534BA1
:101D90000122C3F8802EFFF751FC05464E4B5B6FC6
:101DA00013F0020F34D1FFF749FC401B0228F5D98C
:101DB000032031E1484A136823F0F803216943EA1C
:101DC000C1031360DDE7454B00221A60FFF736FCC4
:101DD0000546414B1B6813F0020FD2D0FFF72EFCD3
:101DE000401B0228F5D9032016E13C4B0022C3F822
:101DF000802EFFF723FC0546374B5B6F13F0020F75
:101E000006D0FFF71BFC401B0228F5D9032003E195
:101E1000236813F0040F77D02F4B1B6C13F0805FF7
:101E200033D1002301932C4B1A6C42F080521A6478
:101E30001B6C03F080530193019B0125284B1B6809
:101E400013F4807F23D0A368012B34D0052B38D026
:101E5000214B1A6F22F001021A671A6F22F0040256
:101E60001A67A368002B3DD0FFF7E8FB06461A4B24
:101E70001B6F13F0020F46D1FFF7E0FB801B41F20E
:101E800088339842F3D90320C6E00025D6E7144AE8
:101E9000136843F480731360FFF7D0FB0646104BC2
:101EA0001B6813F4807FCED1FFF7C8FB801B02288C
:101EB000F5D90320B0E0084A136F43F0010313671C
:101EC000CFE7054B1A6F42F004021A671A6F42F00F
:101ED00001021A67C5E700BF003802400000474210
:101EE00000700040FFF7AAFB0646524B1B6F13F031
:101EF000020F08D0FFF7A2FB801B41F28833984203
:101F0000F3D9032088E0EDB9A369002B00F08380AA
:101F1000484A926802F00C02082A51D0022B17D0CE
:101F2000454B00221A66FFF789FB0446414B1B68AC
:101F300013F0007F42D0FFF781FB001B0228F5D988
:101F4000032069E03B4A136C23F080531364DBE702
:101F5000394B00221A66FFF771FB0546354B1B68AB
:101F600013F0007F06D0FFF769FB401B0228F5D96C
:101F7000032051E0E369226A1343626A43EA821351
:101F8000A26A5208013A43EA0243E26A43EA026360
:101F9000284A5360284B01221A66FFF74FFB04467C
:101FA000244B1B6813F0007F06D1FFF747FB001B93
:101FB0000228F5D903202FE000202DE000202BE09F
:101FC000012B2BD01B4B5B6803F48001E26991422B
:101FD00026D103F03F02216A8A4223D1616A47F683
:101FE000C0721A40B2EB811F1ED103F44031A26AC5
:101FF0005208013AB1EB024F18D103F07063E26A64
:10200000B3EB026F14D1002006E0012070470120DD
:1020100002E0012000E0002002B070BD0120FBE7DB
:102020000120F9E70120F7E70120F5E70120F3E7B8
:102030000120F1E7003802400000474208B5334B69
:102040009B6803F00C03042B5BD0082B5BD12F4B58
:102050005A6802F03F025B6813F4800F2CD02B4BC0
:102060005868C0F388104FEA401CBCEB000C6EEBC4
:102070000E0E4FEA8E1343EA9C634FEA8C11B1EBCC
:102080000C0163EB0E03DB0043EA5173C90011EB53
:10209000000C43F10003590200234FEA4C2041EAAF
:1020A000DC51FEF70BFD194B5B68C3F301430133B1
:1020B0005B00B0FBF3F008BD144B5868C0F3881008
:1020C0004FEA401CBCEB000C6EEB0E0E4FEA8E1379
:1020D00043EA9C634FEA8C11B1EB0C0163EB0E03F6
:1020E000DB0043EA5173C90011EB000C43F100031C
:1020F000990200234FEA8C2041EA9C51FEF7DEFC56
:10210000D1E70348D7E70348D5E700BF00380240CE
:1021100000127A000024F400002800F09B8070B5C3
:102120000D4604464F4B1B6803F00F038B4208D249
:10213000CBB24C4A1370136803F00F038B4240F08C
:102140008B80236813F0020F17D013F0040F04D014
:10215000454A936843F4E0539360236813F0080FF3
:1021600004D0414A936843F4604393603E4A9368C5
:1021700023F0F003A1680B439360236813F0010F71
:1021800032D06368012B21D09A1E012A25D9364A04
:10219000126812F0020F61D033498A6822F00302FC
:1021A00013438B60FFF74AFA06462F4B9B6803F0F8
:1021B0000C036268B3EB820F16D0FFF73FFA801B67
:1021C00041F288339842F0D9032042E0264A12684F
:1021D00012F4003FE0D101203BE0234A126812F0E4
:1021E000007FD9D1012034E01E4B1B6803F00F03A0
:1021F000AB4207D9EAB21B4B1A701B6803F00F03FE
:10220000AB422DD1236813F0040F06D0164A936811
:1022100023F4E053E1680B439360236813F0080F45
:1022200007D0114A936823F46043216943EAC1034C
:102230009360FFF703FF0C4B9B68C3F303130B4A38
:10224000D35CD8400A4B18600A4B1868FEF7FCFFB5
:10225000002070BD012070470120FAE70120F8E757
:102260000120F6E7003C024000380240D8B00008E8
:102270000000002014000020014B1868704700BFC8
:102280000000002008B5FFF7F7FF044B9B68C3F37D
:102290008223034AD35CD84008BD00BF0038024007
:1022A000D0B0000808B5FFF7E7FF044B9B68C3F305
:1022B0004233034AD35CD84008BD00BF0038024017
:1022C000D0B000080F2303600B4B9A6802F00302A2
:1022D00042609A6802F0F00282609A6802F4E0526A
:1022E000C2609B68DB0803F4E0530361034B1B6887
:1022F00003F00F030B60704700380240003C0240BF
:1023000030B583B00446036813F0430F15D123683A
:1023100013F00C0F6AD1236813F0200F40F0BF8038
:10232000236813F0100F00F0238194F82C20914BB8
:10233000C3F8E021002003B030BD8F4B00229A6625
:10234000FFF77CF905468D4B1B6813F0006F06D034
:10235000FFF774F9431B022BF5D90320EBE7236841
:1023600013F0010F07D06268A3681B0743EA8213CA
:10237000824AC2F88430236813F0020F15D07F4AD6
:10238000D2F884106068E3681B0643EA801301F00A
:10239000E0410B43C2F88430D2F88C3023F01F03A5
:1023A000E16901390B43C2F88C30236813F0400F08
:1023B0000AD06268E3681B0643EA8213A26843EA14
:1023C00002736E4AC2F884306B4B01229A66FFF7A3
:1023D00035F90546694B1B6813F0006F97D1FFF77D
:1023E0002DF9401B0228F5D90320A4E7624B0022F7
:1023F0001A67FFF723F90546604B1B6813F0005F6F
:1024000006D0FFF71BF9431B022BF5D9032092E7F7
:10241000236813F0040F16D0584AD2F888102069A8
:1024200063691B0643EA801301F0E0410B43C2F8E5
:102430008830D2F88C3023F4F853216A013943EA0A
:102440000123C2F88C30236813F0080F14D04B4AD4
:10245000D2F88830216903F0706343EA8113A169DF
:1024600043EA0173C2F88830D2F88C3023F4403349
:10247000616A0B43C2F88C303F4B01221A67FFF7A9
:10248000DDF805463D4B1B6813F0005F7FF443AF5A
:10249000FFF7D4F8401B0228F4D903204BE70023B0
:1024A0000193364B1A6C42F080521A641B6C03F095
:1024B00080530193019B324A136843F48073136085
:1024C000FFF7BCF805462E4B1B6813F4807F06D13E
:1024D000FFF7B4F8401B0228F5D903202BE7274B60
:1024E0001B6F13F4407314D0A26A02F440729A4234
:1024F0000FD0224B1A6F22F440721F490120C1F8FD
:10250000400E0020C1F8400E1A671B6F13F0010F38
:1025100012D1A36A03F44072B2F5407F1DD0174A6E
:10252000936823F4F813936014490B6FA26AC2F303
:102530000B0213430B67F3E6FFF780F805460F4BDA
:102540001B6F13F0020FE4D1FFF778F8401B41F244
:1025500088339842F3D90320EDE608498A6822F4CB
:10256000F81223F0704323F4407313438B60DBE7CE
:102570000020E0E6001047420000474200380240D9
:102580000070004038B5044603680A4ADA60FFF775
:1025900055F805462368DB6813F0200F07D1FFF7D5
:1025A0004DF8401BB0F57A7FF4D9032000E00020FD
:1025B00038BD00BF5F7F010070B50368DA6812F0B4
:1025C000400F02D00025284670BD0446DA6842F06C
:1025D0008002DA60FFF732F8064600252368DB68E0
:1025E00013F0400FEFD1002DEDD1FFF727F8831B3B
:1025F000B3F57A7FF2D9042363770125EEE7026809
:10260000D36823F08003D36003689B6813F0200F26
:1026100001D00020704710B50446FFF7B3FF10B19A
:1026200004236377012010BD00284AD010B504466A
:10263000437F53B1022363772368DA6812F0100FE7
:1026400007D000200123637710BD0377FEF74AFD12
:10265000F0E7CA225A62236853225A622046FFF7E3
:10266000ABFF28B12368FF225A620028ECD1E9E7CA
:102670002268936823F4E00323F040039360216809
:102680008A686368206903436069034313438B606E
:102690002368E2681A6122681369A16843EA01436A
:1026A00013612046FFF7ABFF0028DBD12268136CD3
:1026B00023F4802313642268136CA1690B43136411
:1026C000D0E70120704700285AD010B50446436A6D
:1026D00033B94368B3F5827F05D00023C36102E0BC
:1026E0000023036143610023A36294F85130002B5F
:1026F00040D0022384F851302268136823F040034D
:102700001360636803F48273A26802F40442134303
:10271000E26802F400621343226902F002021343EA
:10272000626902F001021343A26902F400721343CA
:10273000E26902F038021343226A02F08002134376
:10274000A26A02F40052216813430B60638B03F00A
:102750000403626A02F01002216813434B6022688E
:10276000D36923F40063D36100206065012384F8FA
:10277000513010BD84F850302046FEF7F7FCB8E722
:10278000012070477047000090F83D30DBB2012B0C
:1027900037D1022380F83D300268D36843F001034B
:1027A000D3600368194A934220D0B3F1804F1DD003
:1027B000A2F57C42934219D002F58062934215D073
:1027C00002F58062934211D002F5784293420DD017
:1027D00002F57052934209D0A2F59432934205D08B
:1027E0001A6842F001021A60002070479A6802F0ED
:1027F0000702062A07D01A6842F001021A60002078
:102800007047012070470020704700BF0000014062
:10281000704770477047704770B504460368DE68BC
:102820001D6915F0020F10D016F0020F0DD06FF0D9
:1028300002021A610123037703689B6913F0030FF7
:102840005ED0FFF7E6FF0023237715F0040F12D0C8
:1028500016F0040F0FD023686FF004021A610223F0
:10286000237723689B6913F4407F4FD02046FFF7FE
:10287000D0FF0023237715F0080F12D016F0080FB1
:102880000FD023686FF008021A61042323772368AE
:10289000DB6913F0030F40D02046FFF7BAFF002397
:1028A000237715F0100F12D016F0100F0FD02368F9
:1028B0006FF010021A61082323772368DB6913F491
:1028C000407F31D02046FFF7A4FF0023237715F087
:1028D000010F02D016F0010F2DD115F0800F02D09C
:1028E00016F0800F2FD115F0400F02D016F0400FD8
:1028F00031D115F0200F02D016F0200F33D170BD6A
:10290000FFF786FF2046FFF785FF9CE72046FFF78D
:102910007FFF2046FFF77EFFABE72046FFF778FFFB
:102920002046FFF777FFBAE72046FFF771FF204602
:10293000FFF770FFC9E723686FF001021A612046B4
:10294000FEF72EFBC9E723686FF080021A6120466C
:1029500000F0ABF8C7E723686FF040021A61204629
:10296000FFF759FFC5E723686FF020021A61204680
:1029700000F09AF8C3E700000368344A904212D08E
:10298000B0F1804F0FD0A2F57C4290420BD002F5FF
:102990008062904207D002F58062904203D002F537
:1029A0007842904203D123F070034A681343274AC8
:1029B00090422AD0B0F1804F27D0A2F57C429042BD
:1029C00023D002F5806290421FD002F580629042CF
:1029D0001BD002F57842904217D002F57052904217
:1029E00013D002F5806290420FD002F580629042CF
:1029F0000BD0A2F59832904207D002F58062904247
:102A000003D002F58062904203D123F44073CA6878
:102A1000134323F080034A69134303608B68C36246
:102A20000B688362094B984203D003F58063984298
:102A300001D10B69036301234361036913F0010FA3
:102A400003D0036923F001030361704700000140D4
:102A500040B310B5044690F83D30F3B1022384F83A
:102A60003D30214651F8040BFFF786FF012384F81F
:102A7000463084F83E3084F83F3084F8403084F8A3
:102A8000413084F8423084F8433084F8443084F88C
:102A9000453084F83D30002010BD80F83C30FFF711
:102AA00071FEDBE70120704770477047026802F152
:102AB0000C0353E8003F23F490730C3242E80031DA
:102AC0000029F3D1026802F1140353E8003F23F018
:102AD0000103143242E800310029F3D1036B012BCA
:102AE00005D0202380F8423000230363704702683A
:102AF00002F10C0353E8003F23F010030C3242E8CC
:102B000000310029F3D1ECE790F84130DBB2212B02
:102B100001D0022070478368B3F5805F17D0036A45
:102B20005A1C02621A7803685A60C38C9BB2013B3C
:102B30009BB2C3844BB90268D36823F08003D3608F
:102B40000268D36843F04003D360002070470369F4
:102B5000002BE4D1036A1B880268C3F308035360A7
:102B6000036A02330362E0E710B5044602681369A2
:102B700023F44053C1680B431361836802691A430D
:102B800043691A43C3691A430168CB6823F41643A7
:102B900023F00C031343CB600268536923F44073A2
:102BA00081690B4353610368314A934206D002F5B1
:102BB0008062934202D0FFF765FB01E0FFF772FBF2
:102BC000E369B3F5004F29D00021031849411B18D0
:102BD00041F10001C90041EA5371DB001818636834
:102BE0004FEA83024FEA937341F10001FDF766FF5C
:102BF000204AA2FB00314909642303FB11031B0196
:102C00003233A2FB03235B0903F0F00202EB011253
:102C100003F00F03216813448B6010BD00230218DA
:102C200043EB0301121841F10001C90041EA52715E
:102C3000D200101841F10001626892185B41FDF763
:102C40003DFF0C4AA2FB00314909642303FB110339
:102C5000DB003233A2FB03235B095A0002F4F87253
:102C600002EB011203F00703216813448B60D4E7E1
:102C7000001001401F85EB512DE9F04383B005465C
:102C80000E4617469946DDF828802B681C6836EA00
:102C900004040CBF01240024BC4228D1B8F1FF3F3A
:102CA000F3D0FEF7CBFCA0EB0900404523D8B8F1E8
:102CB000000F22D02B68DA6812F0040FE5D0802EC6
:102CC000E3D0402EE1D01A6812F0080FDDD00024C6
:102CD00001941A6801925B680193019B2846FFF7F3
:102CE000E5FE08236B6485F84040012000E00020E9
:102CF00003B0BDE8F0830320FAE70320F8E760B3F0
:102D000010B5044690F8413013B3242384F84130C1
:102D10002268D36823F40053D3602046FFF724FFD2
:102D20002268136923F4904313612268536923F0E6
:102D30002A0353612268D36843F40053D360002010
:102D40006064202384F8413084F84230606310BD11
:102D500080F84030FEF76AFBD7E7012070472DE985
:102D6000F04182B01E4690F84130DBB2202B56D1A4
:102D700004460D469046002955D00AB901204FE07F
:102D800000234364212380F84130FEF757FC0746B7
:102D9000A4F82480A4F82680A368B3F5805F02D04D
:102DA0004FF0000814E023692BB34FF000080FE048
:102DB000202384F84130032032E038F8023B2268B7
:102DC000C3F308035360E28C92B2013A92B2E284F8
:102DD000E38C9BB293B100963B46002280212046B3
:102DE000FFF74AFF0028E3D1002DE6D015F8012BAC
:102DF00023685A60E7E7A8460025E9E700963B46C6
:102E0000002240212046FFF737FF18B9202384F81D
:102E1000413005E0202384F84130032000E0022007
:102E200002B0BDE8F0810120FAE7704708B50168FB
:102E3000CA6822F04002CA60202280F84120FFF7D1
:102E4000F4FF002008BD7047704708B5806B002371
:102E5000C385C384FFF7F8FF08BD704790F8423080
:102E6000DBB2222B69D18368B3F5805F4FD0826AD1
:102E7000B3F5805F04D0002B56D10369002B53D1EA
:102E800003685B681370836A01338362C38D9BB2EE
:102E9000013B9BB2C385002B51D100B583B00268C2
:102EA000D36823F02003D3600268D36823F48073CF
:102EB000D3600268536923F001035361202380F833
:102EC000423000234363036B012B33D100230363A0
:102ED000026802F10C0353E8003F23F010030C32A8
:102EE00042E800310029F3D103681A6812F0100F8C
:102EF00006D0002201921A6801925B680193019B3F
:102F0000818DFFF7AAFF002003B05DF804FB026982
:102F1000002AACD1826A03685B68C3F3080313809C
:102F2000836A02338362B1E703685B6803F07F035F
:102F30001370A8E7FFF787FFE5E70220704700203E
:102F40007047000010B582B0044602681368D0686C
:102F5000516913F00F0F09D113F0200F0CD010F0AE
:102F6000200F09D02046FFF779FF16E011F001018C
:102F700015D110F4907F12D1216B012979D013F073
:102F8000800F03D010F0800F40F0148113F0400F39
:102F900003D010F0400F40F0118102B010BD13F0CB
:102FA000010F06D010F4807F03D0626C42F0010262
:102FB000626413F0040F04D019B1626C42F0020293
:102FC000626413F0020F04D019B1626C42F0040283
:102FD000626413F0080F07D010F0200F00D119B170
:102FE000626C42F008026264626C002AD5D013F071
:102FF000200F02D010F0200F29D123685B6903F065
:103000004003626C12F0080F00D163B32046FFF753
:103010004DFD23685B6913F0400F20D0226802F158
:10302000140353E8003F23F04003143242E8003118
:103030000029F3D1E36B73B1624A1A65E06BFEF7C6
:10304000C9FB0028A9D0E06B036D9847A5E720468F
:10305000FFF704FFD1E72046FFF7F6FE9DE7204685
:10306000FFF7F2FE99E72046FFF7EEFE00236364C8
:1030700093E713F0100F82D010F0100F3FF47FAFE2
:10308000002301931368019353680193019B5369D3
:1030900013F0400F52D0E26B13685B689BB2002BB9
:1030A0003FF47BAFA18D99427FF677AFE385D3697B
:1030B000B3F5807F37D0226802F10C0353E8003F5C
:1030C00023F480730C3242E800310029F3D12268E6
:1030D00002F1140353E8003F23F00103143242E8E5
:1030E00000310029F3D1226802F1140353E8003FB4
:1030F00023F04003143242E800310029F3D12023A9
:1031000084F8423000232363226802F10C0353E861
:10311000003F23F010030C3242E800310029F3D1C4
:10312000E06BFEF70DFB02236363A18DE38D9BB281
:10313000C91A89B22046FFF790FE2EE7A18DE38DD4
:103140009BB2C91A89B2E38D9BB2002B3FF425AF25
:1031500000293FF422AF226802F10C0353E8003F3C
:1031600023F490730C3242E800300028F3D1226837
:1031700002F1140353E8003F23F00103143242E844
:1031800000300028F3D1202384F842300023236349
:10319000226802F10C0353E8003F23F010030C32C5
:1031A00042E800300028F3D1022363632046FFF792
:1031B00054FEF2E62046FFF7A7FCEEE62046FFF7B6
:1031C00035FEEAE64B2E000882B000230193019BF6
:1031D00001330193019BB3F1706F15D80369002B84
:1031E000F5DA00230193036943F001030361019BB6
:1031F00001330193019BB3F1706F08D8036913F099
:10320000010FF4D1002000E0032002B0704703203A
:10321000FBE784B010B5044603A880E80E009DF8D3
:103220001130012B21D1A36B23F48033A363E36816
:1032300023F4840323F04003E360E36823F44013A2
:10324000E3609DF81830012B0AD02046FFF7BCFF41
:103250009DF80E30012B1CD0BDE8104004B0704723
:10326000E36843F48013E360EFE7E36843F040036F
:10327000E3602046FFF7A8FF9DF8153023B9A36B44
:1032800043F48033A363E3E7A36B23F48033A363A6
:10329000DEE7A36843F00603A360A36843F02003BE
:1032A000A360D9E7836823F001038360002070479F
:1032B00082B000230193019B01330193019BB3F181
:1032C000706F15D80369002BF5DA0023019389018B
:1032D00041F020010161019B01330193019BB3F196
:1032E000706F08D8036913F0200FF4D1002000E0BC
:1032F000032002B070470320FBE782B00023019354
:10330000019B01330193019BB3F1706F13D80369E3
:10331000002BF5DA0023019310230361019B013395
:103320000193019BB3F1706F08D8036913F0100F7C
:10333000F4D1002000E0032002B070470320FBE737
:10334000D0F800381943C0F800180020704700007A
:1033500084B0F8B5044607A880E80E00002306E014
:1033600003F1400204EB82020021516001330E2B75
:10337000F6D99DF8266006BBD4F8043843F0020362
:10338000C4F80438A36B43F40013A363A36B23F4C2
:103390000023A363A36B23F48023A3630023C4F857
:1033A000003E9DF82130012B15D19DF81F306BB9DF
:1033B00000212046FFF7C4FF11E0A36B23F40013A4
:1033C000A363A36B43F40023A363E7E70121204633
:1033D000FFF7B6FF03E003212046FFF7B1FF1021FE
:1033E0002046FFF765FF054600B101252046FFF79F
:1033F00084FF00B1012504F5006C0023CCF81030E7
:10340000CCF81430CCF81C300AE0CBB94FF0006097
:10341000C2F8000900220A614FF67F328A60013348
:103420009DF81C10994210D904EB431202F510616B
:10343000D2F800090028E8DB0020C2F80009E9E71B
:103440004FF09040C2F80009E4E700230AE0BBB166
:103450004FF09047C2F8007B002202614FF67F32A6
:1034600082600133994210D904EB431202F53060B7
:10347000D2F8007B002FEADB0027C2F8007BEBE7E5
:103480004FF00067C2F8007BE6E7DCF8103023F469
:103490008073CCF810300023A3616FF08043636128
:1034A0009DF81E301BB9A36943F01003A361A26904
:1034B0000B4B1343A3619DF822301BB1A36943F06A
:1034C0000803A361012E04D02846BDE8F84004B0EB
:1034D0007047A36943F0804343F00403A361F3E71B
:1034E00000383C80D0F8003E23F00303C0F8003ED3
:1034F000D0F8043843F00203C0F8043800207047C5
:10350000406900F00100704738B50546C36823F0F4
:10351000C043C360012913D019BBC36843F0804383
:10352000C36000240A20FEF78FF80A342846FFF70C
:10353000E7FF08B1C72CF5D9C82C14D0002038BD3E
:10354000C36843F00053C36000240A20FEF77CF8F0
:103550000A342846FFF7D4FF0128EDD0C72CF4D950
:10356000EAE70120EBE70120E9E7000008B5024B9C
:10357000186800F025F808BD080E002008B5024BB9
:10358000186800F01DF808BD040E002008B5FEF70D
:10359000B3F910F0800F00D108BD024B186800F09D
:1035A0000FF8F9E7080E002008B54FF0E0231B697B
:1035B00000F03AFD012800D108BD00F0EBF8FBE770
:1035C00020B300B583B0EFF30583A3B100230193CB
:1035D00001A900F068FA01281BD1019898B14FF0B9
:1035E000E0234FF08052C3F8042DBFF34F8FBFF399
:1035F0006F8F002007E000231A46194600F08FF96C
:10360000012809D1002003B05DF804FB6FF003002E
:1036100070476FF00200F6E76FF00200F3E74368CF
:103620004B609A688A605160996008610368013351
:103630000360704730B40D68B5F1FF3F11D000F161
:1036400008031C465B681A68AA42FAD963684B6093
:1036500099608C606160086103680133036030BC6D
:1036600070470469F2E70369416882688A604168CB
:1036700051605A68824206D0002202611A68013AFB
:103680001A601868704782685A60F5E70000000009
:10369000074B19680868B0E8F04F80F30988BFF35A
:1036A0006F8F4FF0000080F311887047AFF30080F8
:1036B000C81200204FF0500383F31188BFF36F8FBF
:1036C000BFF34F8F0B4A136801331360012B00D0F7
:1036D00070474FF0E023D3F8043D13F0FF0FF7D00D
:1036E0004FF0500383F31188BFF36F8FBFF34F8FF9
:1036F000FEE700BF18000020094B1B6843B94FF0DC
:10370000500383F31188BFF36F8FBFF34F8FFEE732
:10371000013B034A13600BB983F31188704700BF64
:103720001800002000000000000000000000000061
:10373000EFF30980BFF36F8F154B1A681EF0100F5F
:1037400008BF20ED108A20E9F04F10602DE9090034
:103750004FF0500080F31188BFF34F8FBFF36F8F8E
:1037600000F05EFB4FF0000080F3118809BC19687F
:103770000868B0E8F04F1EF0100F08BFB0EC108AD8
:1037800080F30988BFF36F8F704700BFAFF30080ED
:10379000C812002008B54FF0500383F31188BFF31F
:1037A0006F8FBFF34F8F00F033FA28B14FF0E02353
:1037B0004FF08052C3F8042D002383F3118808BD15
:1037C000EFF305830F2B0FD9114A9B5CDBB2114A33
:1037D00012789A4208D94FF0500383F31188BFF34F
:1037E0006F8FBFF34F8FFEE74FF0E023D3F80C3D10
:1037F00003F4E063084A1268934208D94FF050037B
:1038000083F31188BFF36F8FBFF34F8FFEE77047CD
:10381000F0E300E0100E00200C0E002010B504466E
:10382000FFF748FFA26BE36B9A4204D00024FFF736
:1038300063FF204610BD0124F9E770B50446154624
:10384000866B026C5AB903681BB100200136A6636F
:1038500070BD806800F0F8FB0023A360F6E76DB947
:103860004068FDF745F96368226C13446360A26801
:10387000934219D3236863602846E7E7C068FDF7E1
:1038800037F9E368226C51429B1AE3602268934245
:1038900002D2A3680B44E360022D01D00020D5E7DB
:1038A00026B1013E0020D1E72846CFE70020CDE732
:1038B00038B50546FFF7FEFE95F8454064B201E0D5
:1038C000013C64B2002C0ADD6B6A43B105F12400AF
:1038D00000F010FB0028F3D000F0A0FBF0E7FF237E
:1038E00085F84530FFF708FFFFF7E4FE95F8444000
:1038F00064B201E0013C64B2002C0ADD2B6943B1E3
:1039000005F1100000F0F6FA0028F3D000F086FB75
:10391000F0E7FF2385F84430FFF7EEFE38BDF0B541
:1039200085B0019288B10F461D460446B1B1022D03
:1039300020D1E36B012B1DD04FF0500383F311888E
:10394000BFF36F8FBFF34F8FFEE74FF0500383F34A
:103950001188BFF36F8FBFF34F8FFEE7036C002B0F
:10396000E5D04FF0500383F31188BFF36F8FBFF39F
:103970004F8FFEE700F058FB064658B9019B002B1D
:1039800048D04FF0500383F31188BFF36F8FBFF31C
:103990004F8FFEE700263DE02A4639462046FFF7D6
:1039A0004CFF636A7BB948B14FF0E0234FF080527F
:1039B000C3F8042DBFF34F8FBFF36F8FFFF79CFE4B
:1039C000012005B0F0BD04F1240000F093FA0028B6
:1039D000F4D04FF0E0234FF08052C3F8042DBFF332
:1039E0004F8FBFF36F8FE9E7FFF786FE0020E8E710
:1039F00002A800F0C5FA012619E0002384F844303B
:103A000021E0002384F8453023E02046FFF750FFF3
:103A100000F08AF9FFF74EFEA26BE36B9A42BBD32C
:103A2000022DB9D0019B002BDED0002EE0D0FFF795
:103A300063FE00F0E5F8FFF73DFE94F8442052B233
:103A4000B2F1FF3FD9D094F8452052B2B2F1FF3F16
:103A5000D7D0FFF751FE01A902A800F09DFAD8B90E
:103A60002046FFF7DBFE0028CFD0019904F11000BB
:103A700000F028FA2046FFF71BFF00F055F9002858
:103A8000C8D14FF0E0234FF08052C3F8042DBFF3AC
:103A90004F8FBFF36F8FBDE72046FFF709FF00F0A0
:103AA00043F900208DE768B170B50C460546036CFC
:103AB0008BB14FF0500383F31188BFF36F8FBFF3C7
:103AC0004F8FFEE74FF0500383F31188BFF36F8FE2
:103AD000BFF34F8FFEE70368EBB1FFF771FEEFF323
:103AE00011864FF0500383F31188BFF36F8FBFF33C
:103AF0004F8FAA6BEB6B934226D995F845305BB29A
:103B00000132AA63B3F1FF3F11D001335BB285F8F4
:103B10004530012019E08368002BDED04FF05003C0
:103B200083F31188BFF36F8FBFF34F8FFEE76B6A8C
:103B30000BB9012009E005F1240000F0DBF938B1F0
:103B400044B10120206000E0002086F3118870BDA0
:103B50000120FAE70120F8E7084B1B681B6823B92E
:103B6000074B4FF0FF321A607047044B1B68DB684D
:103B7000DB685A68024B1A60704700BF640E002071
:103B8000180E002070B504460D46174B1E68174BE3
:103B900018680430FFF767FDB4F1FF3F0DD03444DF
:103BA000124B1B685C60A64210D9114B18680F4B72
:103BB00019680431FFF73EFD70BD002DEFD00B4BAF
:103BC000196804310B48FFF72AFDF5E70A4B18681E
:103BD000064B19680431FFF72DFD084B1B68A34203
:103BE000EAD9064B1C60E7E7300E0020C81200201F
:103BF000600E0020380E0020640E0020180E0020F9
:103C0000024A136801331360704700BF140E00208E
:103C1000F8B53A4B1B68002B69D1394B1D6801354B
:103C20001D60C5B9374B1B681B6843B14FF050038B
:103C300083F31188BFF36F8FBFF34F8FFEE7314AD5
:103C40001168314B186810601960304A13680133ED
:103C50001360FFF781FF2E4B1B68AB423DD9002755
:103C60002C4B1B68DB6A03EB83039A002A4B9B589F
:103C7000012B00D90127294B1B68002B3CD00127C1
:103C80003AE001271F4B1B681B6843B31D4B1B68A1
:103C9000DB68DC6863689D4226D3261D3046FFF74B
:103CA000E2FCA36A1BB104F11800FFF7DCFCE36A35
:103CB0001B4A1268934201D9194A136003EB83032C
:103CC0009A00314614481044FFF7A9FCE26A114BF0
:103CD0001B68DB6A9A42D4D2D4E70027D2E70C4BA8
:103CE0004FF0FF321A60BBE7094A1360B8E70D4A8C
:103CF00013680133136000273846F8BD140E002006
:103D0000300E0020640E0020600E00201C0E0020EB
:103D1000180E0020C8120020680E0020200E00207F
:103D20002C0E0020240E002038B5354B1B6843B9FB
:103D30004FF0500383F31188BFF36F8FBFF34F8FA2
:103D4000FEE7FFF7B7FC2E4B1A68013A1A601B68B2
:103D5000002B4FD12B4B1B680BB900244BE00024E8
:103D6000294B1B681BB3284BDB68DC6804F1180087
:103D7000FFF779FC251D2846FFF775FCE06A234B09
:103D80001B68984201D9214B186000EB800029463E
:103D90001F4B03EB8000FFF742FCE26A1D4B1B68E0
:103DA000DB6A9A42DCD31C4B01221A60D8E70CB1C3
:103DB000FFF7D2FE194B1C6884B9174B1C68D4B1AD
:103DC0004FF0E0234FF08052C3F8042DBFF34F8F24
:103DD000BFF36F8F01240EE0013C07D0FFF718FFFF
:103DE0000028F9D00C4B01221A60F5E70B4B00229A
:103DF0001A60E2E70024FFF77FFC204638BD00BFD1
:103E0000140E0020340E00204C0E00202C0E00203A
:103E1000680E0020C8120020200E0020240E002072
:103E2000224B1B681BB1224B01221A607047204BAA
:103E300000221A601F4B1B6803EB83018A001E4996
:103E40008A585AB90BB1013BF6E74FF0500383F3A0
:103E50001188BFF36F8FBFF34F8FFEE7084603EB68
:103E600083018A00024451684968516003EB830C66
:103E70004FEA8C020832024491420FD003EB8302D6
:103E800091000D4A0A445268D1680C4A11600949F0
:103E90000B60136858330A4A1360704748686246DB
:103EA0009100054A0A445060E8E700BF140E002064
:103EB000200E00202C0E0020680E0020C8120020CA
:103EC000D401002058B110B50C46094A11681831C8
:103ED000FFF7B0FB01212046FFF754FE10BD4FF065
:103EE000500383F31188BFF36F8FBFF34F8FFEE74B
:103EF000C812002038B5C368DC6824B304F1180583
:103F00002846FFF7B0FB184B1B682BBB251D284626
:103F1000FFF7A9FBE06A154B1B68984201D9134BC8
:103F2000186000EB80002946114B03EB8000FFF77F
:103F300076FBE26A0F4B1B68DB6A9A4211D90120BB
:103F40000D4B186038BD4FF0500383F31188BFF359
:103F50006F8FBFF34F8FFEE729460848FFF75FFBDF
:103F6000E7E70020EEE700BF140E00202C0E002033
:103F7000680E0020C8120020200E00204C0E0020E9
:103F8000034B1B680360034B1B684360704700BF13
:103F90001C0E0020300E0020F8B5C8B10C460546B6
:103FA000F9B1FFF787FB1B4B19686B68C81A2268C9
:103FB000B2F1FF3F26D0184E36682F68B74201D0C5
:103FC0008B4224D9824215D80023236001241AE0B1
:103FD0004FF0500383F31188BFF36F8FBFF34F8F00
:103FE000FEE74FF0500383F31188BFF36F8FBFF3E9
:103FF0004F8FFEE75B1A134423602846FFF7C0FF8C
:10400000002400E00024FFF777FB2046F8BD0124E0
:10401000F9E700BF300E00201C0E0020014B0122EA
:104020001A607047200E0020054B1B6833B1054B0A
:104030001B680BB1002070470220704701207047B9
:10404000280E0020140E002000283BD038B504466E
:104050001E4B1B68834208D04FF0500383F3118836
:10406000BFF36F8FBFF34F8FFEE7036D43B94FF080
:10407000500383F31188BFF36F8FBFF34F8FFEE7B9
:10408000013B0365C16AC26C91421DD00BB1002097
:1040900038BD051D2846FFF7E6FAE06CE062C0F186
:1040A0003803A3610A4B1B68984201D9084B18607A
:1040B00000EB80002946074B03EB8000FFF7AFFAC7
:1040C0000120E5E7002070470020E1E7C81200204A
:1040D0002C0E0020680E0020072802D8024B185C26
:1040E0007047FF20704700BFF0B10008014B185C1B
:1040F000704700BFF0B00008437863B310B50146C5
:10410000EFF311834FF0000282F31188BFF36F8F3A
:10411000BFF34F8F1A46104B1868441C1C604B7835
:10412000012B09D9013B4B700B490B68013B0B601C
:1041300083B982F311880DE08B78013BDBB2064C2A
:10414000206008B982F31188044A02EBC30358685F
:1041500000F006F810BD7047E4120020CC120020D9
:1041600008B500F061F808BD0078003818BF0120DC
:10417000704770B504460D46CE083046FFF7ACFFD9
:1041800023780343237005F00700FFF7A5FF3444AD
:1041900063780343637070BD38B505460C4601F083
:1041A0000700FFF799FFE20805EBD404637823EAE0
:1041B0000003637003B138BD1046FFF78DFF2B7805
:1041C00023EA00032B70F6E738B504460078FFF7C2
:1041D0008DFFC500EDB204446078FFF787FF2844E7
:1041E000C0B238BD7047000038B500F0AFFC11E038
:1041F00000F04CFB0B4B53F8205062B6284600F001
:1042000023FB04460146284600F023FB29462046AE
:10421000FFF772FF72B600F021FB0028E8D100F032
:10422000B7FCF7E73C130020EFF311834FF00002D7
:1042300082F31188BFF36F8FBFF34F8F9C46084AFC
:1042400013680133136003680B6001600379013365
:1042500003711368013B13600BB98CF3118870472D
:10426000E41200200048704700B200080048704780
:1042700008B20008C1604160816002704FF0000C1C
:1042800080F801C001EB82010161436170470000C9
:1042900070B50446EFF311864FF0000383F31188E5
:1042A000BFF36F8FBFF34F8F1A4B1A68511C196001
:1042B0004569D5B1284600F0F1FA63681A1D6260BD
:1042C0001D686378013BDBB2637021698A4215D0B7
:1042D0006069B0B1ABB900F0E8FA0E4A1368013B6F
:1042E0001360ABB986F3118812E04378002BE4D158
:1042F000084B1A6062B986F3118809E0E2686260CF
:10430000E6E7044A1368013B13600BB986F3118892
:10431000284670BDE412002008B5427803789A421E
:104320000ED283681A1D826019604378013343708E
:10433000826803699A4204D0406908B100F0AFFA7C
:1043400008BDC3688360F7E700E010300378FF2BF7
:1043500003D0FE2BF9D1012070470020704738B5FB
:1043600004460568802D05D0882D0CD1E36843B143
:10437000012009E00069FFF7E7FF0028F4D00120E1
:1043800002E0002000E0002038BD1378072B0AD897
:1043900059B103681960036804330360137801336B
:1043A00013700020704701207047002070470346BB
:1043B0000068A0F1800CBCF1010F0BD988280BD04C
:1043C0000020704741F8043BDB680130C0B29342E3
:1043D000F8D170470020FAE70020F8E72DE9F04F08
:1043E00085B005460E460B78FD2B14BF0023012334
:1043F0004FF00008C346DBB96968BBF1000F02D07B
:104400004FF0000B854EB3B1854A11602A68906861
:10441000844A1060002284480270844802700F466B
:10442000834A00201070B94603913C469A462AE11F
:104430002A685168E1E77A4A1160002489469A4661
:1044400013E010342378FF2B08D0BB42F9D1636806
:1044500023B13146284698470128F2D12378FF2B13
:1044600009D16F4B1A68D2681A606D4B1B6813B183
:1044700037781C69E6E7494653462278FF2A00F060
:104480005F81E768A068674A1060C9E74C4635E07D
:10449000DFF8A491D9F800301B68314628469847C8
:1044A000D9F800300433C9F80030624A1378013B70
:1044B0001370604B1B78002BEAD15F4B5F4A1A6088
:1044C000646800E010342378FF2B07D06368002B6A
:1044D000F8D03146284698470128F3D12378FF2B9E
:1044E00000F03A81534AA1685348FFF74EFF002875
:1044F00040F03581E468B8F1000F0ED1236813F065
:10450000800F01D0822B11D1022BD9D0042B40F087
:104510001D81494B494A1A60CBE7414B1A6848490B
:104520002046FFF744FF404B1870E7E7A146B8F17B
:10453000000F6AD1BAF1000F09D00022404920468D
:10454000FFF735FF384A137803441370ABE00023BC
:104550003C4A13703C4A1370344A13703B4B039A25
:104560001A6019E0384B01221A70374B1B781BB1C7
:104570002E4B1B78002B42D1A3680BB128469847DD
:10458000314B1B78012B2DD0304B1A68D2681A6042
:10459000264A1378013313702C4B1C68002C2ED044
:1045A000284B00221A702A4B254A1A601C4BC3F86C
:1045B00000901B4B1B68002BD7D0A342D2D0214ABE
:1045C0001278052A00F2CE802148016841F8043BA8
:1045D000D3F80CC0124BC3F800C001600132194B74
:1045E0001A70E6E71A4B1B680D4A12681A60154AE2
:1045F0001378013313700D4A137801331370114B84
:104600001A78094B1A704C464DE0054B1A680C4954
:104610002046FFF7CCFE044B187044E044B6000877
:1046200038130020341300203313002032130020ED
:1046300031130020301300202C1300200C13002015
:10464000F4120020F1120020F0120020EC120020E1
:10465000E8120020454C23681B68314628469847DD
:10466000236804332360424A1378013B1370404BA4
:104670001B78002BEED1029C3C4B3E4A1A60BFB91E
:10468000B8F1000F53D03A4A002313703748394B22
:104690000360394B1968FFF778FE0190002852D16A
:1046A000002F7FF4F3AE314B324A1A600294DEE7FA
:1046B000324B1A78324B1A70324B03EB8203324A78
:1046C0001360584608E0304B1B681868FFF747FE38
:1046D0002B4A1378013B1370294B1B785BB12A4A94
:1046E0001368191F116053F8043C5B68002BEAD073
:1046F00028469847E7E78346234B1B681A68234BF5
:104700001A60234A13781D4909780B4413702368F3
:10471000812B09D1A269184B1A60D4F814901B4B55
:104720001C604FF00108ABE7DDF80480A8E717B183
:10473000164B1B686B60BBF1000F09D043465AE66D
:104740004FF0010B04E04FF0060B01E04FF0040BBB
:10475000584605B0BDE8F08F4FF0020BF8E74FF078
:10476000060BF5E74FF0050BF2E700BF2C13002016
:10477000301300200C1300203413002033130020CA
:10478000F1120020F4120020E8120020381300205B
:104790003113002008B50249FFF720FE08BD00BF15
:1047A00040B6000810B4036893F800C0EFF311831B
:1047B0004FF0000282F31188BFF36F8FBFF34F8F6A
:1047C0001946074A13685C1C1460064C44F82C0018
:1047D00013600BB981F311885DF8044B704700BF7B
:1047E000E41200203C13002010B5044603460830B4
:1047F000FFF740FD2046FFF7D5FF2046FFF7CAFF31
:1048000010BD000010B5EFF311844FF0000383F3E7
:104810001188BFF36F8FBFF34F8F0A4A13680133BC
:1048200013608B7813B14B7801334B700830FFF76E
:1048300073FD044A1368013B13600BB984F31188BC
:1048400010BD00BFE412002008B50830FFF720FDBE
:1048500008BD08B5FFF7C2FD08BD000008B5024855
:10486000FFF782FC08BD00BF5413002008B50146C5
:104870000148FFF77EFC08BD5413002008B501462F
:104880000148FFF789FC08BD5413002008B5024811
:10489000FFF79AFC08BD00BF54130020704708B50D
:1048A00003681878FFF7E2FF08BD08B503681878B9
:1048B000FFF7E4FF08BD0000064B1B68834204D0ED
:1048C00043684B600023037470474268014B1A60D1
:1048D000F8E700BF5813002008B50346064A1068E1
:1048E000002101E00146406808B19842FAD108B1C0
:1048F000FFF7E2FF08BD00BF5813002070B51F4846
:1049000000F0E0FB00F034F9EFF311864FF0000304
:1049100083F31188BFF36F8FBFF34F8F184A13686B
:1049200001331360174B1C6800250BE02946204615
:10493000FFF7C2FF05E029462046FFF7BDFF10E064
:104940002546646894B1237C002BEFD0A389013BFA
:104950009BB2A381002BF3D1E389002BEBD0A38181
:1049600025462168A068FFF74DFFEAE7044A13686F
:10497000013B13600BB986F3118870BD1CB20008AF
:10498000E41200205813002070B504460D4612486A
:1049900000F098FBEFF311864FF0000383F31188CA
:1049A000BFF36F8FBFF34F8F0C4A1368013313604F
:1049B000237C012B0BD00023A38123742560074A9D
:1049C0001368013B13600BB986F3118870BD204654
:1049D000FFF782FFEFE700BF2CB20008E4120020CF
:1049E00070B4EFF311844FF0000585F31188BFF325
:1049F0006F8FBFF34F8FA4460A4D2C68661C2E6044
:104A000081608281C381037C2BB9074B1A684260A5
:104A1000186001230374034B1C600CB98CF31188DC
:104A200070BC7047E41200205813002010B50446F3
:104A30000023C82201462C30FFF7D2FF0020FCF7EC
:104A4000B7FD0120FCF7B4FD0220FCF7B1FD00F03A
:104A50005BF894F82430013384F8243010BD08B595
:104A60000023C82201462C30FFF7BAFF0020FCF7D4
:104A7000AFFD0120FCF7ACFD0220FCF7A9FD00F022
:104A80004BF808BD38B50446002580F8285080F85A
:104A9000295080F82A5000F128012C30FFF774FFCC
:104AA00084F8245038BD000008B50D4800F00AFB1A
:104AB0000C490D4800F0A4FAFFF7D4FB01460B485F
:104AC00000F09EFAFFF7D2FB0146094800F098FA81
:104AD000084800F0F7FA084800F0F4FA08BD00BFF3
:104AE0003CB20008F8B100086CB2000884B20008BB
:104AF0009CB20008B4B200082CB4000808B5FFF757
:104B0000D3FFFFF76FFB08BD08B5024800F0DAFAE3
:104B100008BD00BF48B4000808B5024800F0D2FA4A
:104B200008BD00BF50B4000808B5074B1B681BB197
:104B3000013B054A136003B108BD13460A221A60FF
:104B4000FFF7DCFEF8E700BF6013002008B505485A
:104B500000F0B8FA044B0A221A600448FCF7DCFBA8
:104B600008BD00BF58B4000860130020294B00089E
:104B700008B5054800F0A6FA044A1368013313602B
:104B800000F0AEF808BD00BF68B400085C13002058
:104B900062B6704708B54FF400510348FCF7B4FF04
:104BA000B0FA80F0400908BD00080240B0F5005F8F
:104BB00000D0704710B5034B1C6814B1FFF7EAFF33
:104BC000A04710BD6413002008B54FF40050FCF757
:104BD000A9FF08BD08B50120FCF7A4FF08BD08B572
:104BE0000220FCF79FFF08BD08B5084BD3F89030B2
:104BF0001A6812F0200F05D05868C0B2044B1B6829
:104C000003B198470348FEF79DF908BD78130020CB
:104C1000741300200814002010B50B4B9B6C1A680D
:104C200012F0200F0BD05C68E4B2084B1B680BB18C
:104C300020469847064B1B680BB12046984705480D
:104C4000FEF780F910BD00BF781300206C13002020
:104C500068130020C013002008B5084B1B681A68B1
:104C600012F0200F05D05868C0B2054B1B6803B185
:104C700098470248FEF766F908BD00BF7813002088
:104C80007013002008B5084BD3F8D8301A6812F01A
:104C9000200F05D05868C0B2044B1B6803B1984779
:104CA0000348FEF74FF908BD781300206813002071
:104CB0005014002010B5044601E0984704342368DE
:104CC000002BFAD110BD0000034B00221A80034BC9
:104CD00001221A60704700BF9C1400209814002025
:104CE00038B5144800F0EEF9134B1B680BB30323DF
:104CF000124D01E0083523465A1ED4B26BB12A8802
:104D00000F4B1B88B3FBF2F102FB11339BB2002B5C
:104D1000F0D16868FFF7CEFFECE7094A138801334A
:104D20009BB2138035F8082C934202D3044B002227
:104D30001A8038BD7CB4000898140020C0B6000862
:104D40009C1400202DE9F047089D0E4604460F46AE
:104D5000002B4AD194468C45B2FA82F260D942B116
:104D6000C2F12003974020FA03F30CFA02FC1F4320
:104D700094404FEA1C4E1FFA8CF6B7FBFEF1230C51
:104D80000EFB117743EA074301FB06F098420AD96C
:104D90001CEB030301F1FF3780F01581984240F2CC
:104DA0001281023963441B1AA4B2B3FBFEF00EFB5E
:104DB000103344EA034400FB06F6A6420AD91CEB72
:104DC000040400F1FF3380F00081A64240F2FD8030
:104DD0006444023840EA0140A41B00211DB1D440C4
:104DE0000023C5E90043BDE8F0878B4205D90DB12A
:104DF000C5E9000100210846F5E7B3FA83F100296F
:104E000046D1B34202D3824200F2F580841A66EBA7
:104E1000030201201746002DE5D0C5E90047E2E76F
:104E2000002A40F09380A1EB0C034FEA1C471FFAC5
:104E30008CFE0121B3FBF7F607FB1630230C43EA87
:104E400000430EFB06F0984208D91CEB030306F161
:104E5000FF3802D2984200F2D08046461B1AA4B214
:104E6000B3FBF7F007FB103344EA03440EFB00FEEC
:104E7000A64508D91CEB040400F1FF3302D2A64575
:104E800000F2B6801846A4EB0E0440EA0640A5E7FF
:104E9000C1F120078B4022FA07FC4CEA030C06FA0A
:104EA00001FE20FA07F426FA07F344EA0E0400FA9A
:104EB00001F84FEA1C404FEA1449B3FBF0FE1FFA19
:104EC0008CF600FB1E3349EA03430EFB06F99945B5
:104ED00002FA01F20BD91CEB03030EF1FF3A80F04A
:104EE0008580994540F28280AEF1020E6344A3EBC7
:104EF0000909A4B2B9FBF0F300FB139944EA094491
:104F000003FB06F6A64208D91CEB040403F1FF30AC
:104F100068D2A64266D9023B644443EA0E40A41B11
:104F2000A0FB02E6B4427346B14652D34FD05DB106
:104F3000B8EB030264EB090404FA07F722FA01F361
:104F40001F43CC40C5E9007400214CE7C2F12001A9
:104F500020FA01F30CFA02FC26FA01F196403343E1
:104F60004FEA1C471FFA8CFEB1FBF7F007FB101647
:104F7000190C41EA064100FB0EF68E4204FA02F4D7
:104F800008D91CEB010100F1FF382DD28E422BD93C
:104F900002386144891B9BB2B1FBF7F607FB16117F
:104FA00043EA014306FB0EF1994208D91CEB0303C7
:104FB00006F1FF3814D2994212D9023E63445B1ABB
:104FC00046EA004136E73946EDE6184602E7F04585
:104FD000ADD2BEEB020366EB0C060138B146A6E784
:104FE0004646ECE7034698E74046D3E7D6467EE7D9
:104FF0006444023847E708460DE7023E63442DE764
:105000000FB400B5074983B004AB086853F8042B0C
:105010008168019300F0A0FE03B05DF804EB04B0DA
:10502000704700BFD401002070B5054688B008461F
:105030000C46FBF705FE224E6A6B059001214318D2
:10504000CDE9066104A8022104940393AC680190A1
:1050500002916AB3636EB4F90C20D90701D49605A6
:105060001FD5900405D442F4005223F40053A281CA
:105070006366990420D401AA2146284602F0BEFCAA
:10508000636EC8B90A25DA0702D4A3899B0502D545
:10509000284608B070BDA06D00F02AFA284608B076
:1050A00070BDA06D00F022FAB4F90C20636ED8E751
:1050B000284600F0B3F8CDE74FF0FF35E3E700BF37
:1050C00068B20008024B01461868FFF7ADBF00BF89
:1050D000D4010020024A0349034802F01BBE00BF6E
:1050E0005C00002065880008D80100200C4B416856
:1050F000994210B5044601D003F0B4FBA168094BF6
:10510000994202D0204603F0ADFBE168064B99427C
:1051100004D02046BDE8104003F0A4BB10BD00BF82
:10512000A014002008150020701500202DE9F84378
:10513000314A324C3249DFF8DC90DFF8DC80314F05
:105140001160002504232946082204F15C00C4E90B
:1051500003352D4EA560C4E90055C4E905556566C3
:1051600000F006F904F15800C4E90749C4E90987C9
:10517000E66200F0B7F92946244B6367082204F180
:10518000C400C4E91A55C4E91E552567C4F8CC50BB
:10519000C4F8805000F0ECF804F1680304F1C0009A
:1051A000C4F88430C4E92298C4E9247600F09AF95E
:1051B000174BC4F8DC30294604F596700822C4E980
:1051C0003455C4E93855C4F8D850C4F83451C4F83B
:1051D000E85000F0CDF804F1D003C4E93D87C4F8ED
:1051E000F09004F59470C4F8FC60C4F8EC30BDE8AD
:1051F000F84300F077B900BFD8150020A0140020B4
:10520000D5500008158B0008398B000809000100F3
:1052100012000200B18A0008D58A000810B50446C1
:105220000A4800F063F9636B23B9094B094A1B680C
:10523000626323B1BDE81040044800F059B9FFF79C
:1052400075FFBDE81040014800F052B9E815002094
:10525000D8150020ED500008014800F047B900BF04
:10526000E8150020014800F043B900BFE815002010
:1052700088420ED98B1883420BD900EB020C002A0E
:105280006ED0624613F801CD02F801CD9942F9D1F2
:1052900070470F2A0FD8034602F1FF3C002A5FD067
:1052A0000CF1010C013B8C4411F8012B03F8012F88
:1052B0006145F9D1704740EA01039B0751D1A2F142
:1052C000100370B501F1200C23F00F0501F1100E51
:1052D00000F11004AC441B095EF8105C44F8105C4B
:1052E0005EF80C5C44F80C5C5EF8085C44F8085C02
:1052F0005EF8045C44F8045C0EF1100EE64504F11F
:105300001004E9D1013312F00C0F01EB031102F08C
:105310000F0400EB031328D0043C24F003064FEAEB
:10532000940C1E441C1F8E465EF8045B44F8045F18
:10533000B442F9D10CF1010402F0030203EB84033F
:1053400001EB840102F1FF3C4AB10CF1010C013B7D
:105350008C4411F8012B03F8012F6145F9D170BD80
:10536000704702F1FF3C03469AE72246EAE700BF96
:10537000830730B547D0541E002A3ED0CAB2034638
:1053800001E0013C39D303F8012B9D07F9D1032C2F
:105390002CD9CDB205EB05250F2C05EB054535D9EC
:1053A000A4F1100222F00F0C03F1100EE6444FEAB4
:1053B000121C1A46C2E90055C2E902551032724564
:1053C000F8D10CF1010214F00C0F03EB021204F0FF
:1053D0000F0C13D0ACF1040323F003030433134484
:1053E00042F8045B9342FBD10CF003042CB1C9B228
:1053F0001C4403F8011BA342FBD130BD6446134695
:10540000002CF4D1F9E703461446C0E71A46A44637
:10541000E0E700BF40EA01039B0710B501D1032A72
:1054200017D8844601F1FF3E07E01EF8011F03F87C
:10543000011B541E29B19C4622466346002AF4D122
:1054400010BD9444002CFBD003F8011B6345FBD135
:1054500010BD8E468446DEF80040A4F1013323EAF5
:10546000040313F0803F71460EF1040EDAD1043AC2
:10547000032A4CF8044BEED87146D3E7014B93F85E
:105480002801704768000020014B1868704700BF72
:10549000D401002070B50F4B0F4DAB42A3EB0506B6
:1054A00007D0B610002455F8043B01349847A642B3
:1054B000F9D805F0FFFD094D094B5E1BAB424FEAE1
:1054C000A60606D0002455F8043B01349847A642AE
:1054D000F9D870BD30B9000830B9000830B90008FB
:1054E00038B90008704700BF704700BF704700BF61
:1054F000704700BF024B13B1024800F005B8704777
:1055000000000000F58C0008002301461A461846EA
:1055100003F036BC2DE9F84306460820894603F01F
:10552000DBFBDFF8A4800546304602F0E7FBD8F845
:1055300008305F6827F00307A7F11104A4EB090402
:105540002C44B4FBF5F4013C05FB04F4A54208DC53
:105550000021304603F098FBD8F808303B449842CD
:1055600005D0304602F0D0FB0020BDE8F883614250
:10557000304603F089FB01300FD0114AD8F80830CB
:105580003F1B47F001075F60136830461B1B136029
:1055900002F0BAFB0120BDE8F8830021304603F099
:1055A00073FBD8F80820831A0F2BDADD43F00103D0
:1055B0005360044B02491B68C01A0860D1E700BF62
:1055C000F01500201C0300202803002000297CD0B7
:1055D0002DE9F0410C46804602F090FB54F8043C63
:1055E000754FA4F1080523F001016818BE684268F0
:1055F000864222F0030200F08380DE07426000EB67
:10560000020C33D454F8084CDCF804302D1B214430
:10561000AC6807F1080C644503F0010364D0D5F8C9
:105620000CE0C4F80CE0CEF80840002B00F08180BC
:1056300041F001036B600160B1F5007F22D2786810
:10564000CB080122490901338A40024357F833103D
:105650007A6007EBC302083AC5E9021247F83350F3
:10566000CD604046BDE8F04102F04EBBDCF80430AE
:10567000DB072BD541F00103B1F5007F44F8043C72
:105680000160DCD3B1F5206F4FEA512353D28B096F
:1056900003F1390003F13802C300F818FB58083849
:1056A000984203D161E09B68984204D05A6822F086
:1056B00003028A42F7D8D868C5E902308560DD6008
:1056C0004046BDE8F04102F01FBB7047114407F1AE
:1056D000080C836863453FD0C268DA60936041F08C
:1056E00001036B606950A7E7002B5FD10A44D0E942
:1056F0000213CB60996042F001036B60AA50B0E7DF
:10570000DB070A4407D454F8083CED1A1A44D5E9DB
:105710000213CB60996042F001036B60274BBD60C0
:105720001B6893429DD8264B40461968FFF7F2FE4E
:1057300097E71144CDE7142B08D9542B1DD80B0B38
:1057400003F16F0003F16E02C300A6E703F15C00F2
:1057500003F15B02C300A0E741F00103C7E9045570
:10576000C5E902CC6B6069507BE77968921001242F
:1057700004FA02F20A437A609EE7B3F5AA7F06D8DC
:10578000CB0B03F1780003F17702C30085E740F209
:105790005452934206D88B0C03F17D0003F17C0236
:1057A000C3007AE74FF47E737E2276E741F001036F
:1057B0006B60016055E700BF280300202003002034
:1057C000201600202DE9F04F01F10B05162D83B0B6
:1057D000064623D8102900F2AF8002F08FFA102578
:1057E00018230220B74F3B44A3F108025C6894429F
:1057F00000F01E816368E268A16823F00303CA60B9
:105800002344304691605A6842F001025A6002F027
:105810007BFA0834204603B0BDE8F08F35F0070569
:1058200000F18A80A94200F2878002F067FAB5F59C
:10583000FC7FC0F06E816B0A00F08280042B00F2C6
:105840001D81AB0903F1390003F1380EC3009D4FF0
:105850003B44A3F1080C5C68A44507D10DE0002A85
:10586000E16880F2DF808C4507D00C46636823F046
:1058700003035A1B0F2AF2DD7046DFF860823C6991
:10588000444500F0BC80636823F0030CACEB0503D7
:105890000F2B00F34281002BC7E9048880F22D8191
:1058A000BCF5007FD7F804E080F0C8804FEADC0147
:1058B00001314FEA5C1C012303FA0CF357F8312045
:1058C000A2604EEA030E07EBC103083BE360C7F892
:1058D00004E047F83140D46083104FF0010C0CFA1B
:1058E00003FCF44532D81CEA0E0F08D120F0030067
:1058F0004FEA4C0C1CEA0E0F00F10400F8D007EB45
:10590000C00AD6468146DEF80C300BE0596821F01B
:1059100003014A1B0F2A1C46DB6800F3BB80002AE8
:1059200080F2DE809E45F1D109F1010919F0030FE3
:105930000EF1080EE7D119E10C233360002469E76A
:105940004FF4007340204FF03F0E80E7BC6863685F
:1059500023F00309A94503D3A9EB05030F2B51DC61
:10596000594B1B68082003F1100804EB090300934E
:1059700003F0B2F9554A13680133A844834605D0B1
:1059800008F1FF388044434203EA080841463046A4
:1059900003F07AF9B0F1FF3F4C4A824600F0D8801C
:1059A000009B834200F2D280494B186840440BF1BF
:1059B000FF311860844640F0FC801AEA010F40F085
:1059C000F880D7F808A0C84448F00102CAF80420BB
:1059D000404B1968814238BF18603F4B19688142BB
:1059E00038BF1860544622F00308A845A8EB050309
:1059F00001D30F2B06DC304602F086F99EE7D7F87C
:105A000004E069E7621943F0010345F001056560B0
:105A10003046BA60536002F077F90834204603B08C
:105A2000BDE8F08FA2682344D16030468A60EAE680
:105A3000DC68A3427FF4DEAE02301EE7BCF5206FC7
:105A40004FEA5C227BD3142A00F2128102F15C033C
:105A5000DB005B32F918FB580839994203D1ECE0BE
:105A60009B68994204D05A6822F003026245F7D835
:105A7000D968C4E902318C60DC602DE7142B6AD947
:105A8000542B00F2FE802B0B03F16F0003F16E0E1E
:105A9000C300DCE6D4F808C03046661945F00105BD
:105AA0006560CCF80C30C3F808C042F00103C7E9C8
:105AB0000466C6E902887360625002F025F9083472
:105AC000A8E600BF28030020201600201C030020A9
:105AD000F01500201C1600201816002030030020AE
:105AE000214430464A6842F001024A6054F8082FC7
