:020000040800F2
:100000000000032045170008D5140008D714000885
:10001000D9140008DB140008DD14000800000000FB
:10002000000000000000000000000000DF140008D5
:10003000E114000800000000E3140008E5140008C3
:1000400095170008951700089517000895170008E0
:1000500095170008951700089517000895170008D0
:1000600095170008951700089517000895170008C0
:1000700095170008951700089517000895170008B0
:1000800095170008951700089517000895170008A0
:100090009517000895170008951700089517000890
:1000A0009517000895170008951700089517000880
:1000B0009517000895170008951700089517000870
:1000C0009517000895170008951700089517000860
:1000D0009517000895170008951700089517000850
:1000E0009517000895170008951700089517000840
:1000F0009517000895170008951700089517000830
:10010000951700089517000895170008951700081F
:10011000951700089517000895170008951700080F
:1001200095170008951700089517000895170008FF
:1001300095170008951700089517000895170008EF
:1001400095170008951700089517000895170008DF
:1001500095170008951700089517000895170008CF
:1001600095170008951700089517000895170008BF
:100170009517000895170008951700080000000063
:10018000951700089517000895170008951700089F
:10019000951700089517000895170008951700088F
:0C01A00095170008951700089517000837
:1001C00010B5054C237833B9044B13B10448AFF391
:1001D00000800123237010BD080A002000000000E9
:1001E0001099000808B5034B1BB103490348AFF34E
:1001F000008008BD000000000C0A002010990008D3
:1002000053B94AB9002908BF00281CBF4FF0FF317D
:100210004FF0FF3000F074B9ADF1080C6DE904CE79
:1002200000F006F8DDF804E0DDE9022304B07047D1
:100230002DE9F047089D04468E46002B4DD18A4299
:10024000944669D9B2FA82F252B101FA02F3C2F1CC
:10025000200120FA01F10CFA02FC41EA030E94405D
:100260004FEA1C48210CBEFBF8F61FFA8CF708FB7E
:1002700016E341EA034306FB07F199420AD91CEB56
:10028000030306F1FF3080F01F81994240F21C8188
:10029000023E63445B1AA4B2B3FBF8F008FB1033D0
:1002A00044EA034400FB07F7A7420AD91CEB040405
:1002B00000F1FF3380F00A81A74240F207816444D5
:1002C000023840EA0640E41B00261DB1D44000235A
:1002D000C5E900433146BDE8F0878B4209D9002DBE
:1002E00000F0EF800026C5E9000130463146BDE848
:1002F000F087B3FA83F6002E4AD18B4202D38242B2
:1003000000F2F980841A61EB030301209E46002D60
:10031000E0D0C5E9004EDDE702B9FFDEB2FA82F2B5
:10032000002A40F09280A1EB0C014FEA1C471FFA13
:100330008CFE0126200CB1FBF7F307FB131140EAFA
:1003400001410EFB03F0884208D91CEB010103F1C7
:10035000FF3802D2884200F2CB804346091AA4B289
:10036000B1FBF7F007FB101144EA01440EFB00FE5D
:10037000A64508D91CEB040400F1FF3102D2A645C2
:1003800000F2BB800846A4EB0E0440EA03409CE761
:10039000C6F12007B34022FA07FC4CEA030C20FA0E
:1003A00007F401FA06F31C43F9404FEA1C4900FA2E
:1003B00006F3B1FBF9F8200C1FFA8CFE09FB1811AB
:1003C00040EA014108FB0EF0884202FA06F20BD91E
:1003D0001CEB010108F1FF3A80F08880884240F26E
:1003E0008580A8F102086144091AA4B2B1FBF9F0B2
:1003F00009FB101144EA014100FB0EFE8E4508D9AD
:100400001CEB010100F1FF346CD28E456AD9023831
:10041000614440EA0840A0FB0294A1EB0E01A14216
:10042000C846A64656D353D05DB1B3EB080261EB84
:100430000E0101FA07F722FA06F3F1401F43C5E95E
:10044000007100263146BDE8F087C2F12003D84094
:100450000CFA02FC21FA03F3914001434FEA1C47D6
:100460001FFA8CFEB3FBF7F007FB10360B0C43EAC8
:10047000064300FB0EF69E4204FA02F408D91CEB78
:10048000030300F1FF382FD29E422DD90238634476
:100490009B1B89B2B3FBF7F607FB163341EA034116
:1004A00006FB0EF38B4208D91CEB010106F1FF3865
:1004B00016D28B4214D9023E6144C91A46EA00465C
:1004C00038E72E46284605E70646E3E61846F8E6EE
:1004D0004B45A9D2B9EB020864EB0C0E0138A3E737
:1004E0004646EAE7204694E74046D1E7D0467BE718
:1004F000023B614432E7304609E76444023842E790
:10050000704700BF844641EA000313F003036DD136
:10051000403A41D351F8043B40F8043B51F8043BC6
:1005200040F8043B51F8043B40F8043B51F8043BCD
:1005300040F8043B51F8043B40F8043B51F8043BBD
:1005400040F8043B51F8043B40F8043B51F8043BAD
:1005500040F8043B51F8043B40F8043B51F8043B9D
:1005600040F8043B51F8043B40F8043B51F8043B8D
:1005700040F8043B51F8043B40F8043B51F8043B7D
:1005800040F8043B51F8043B40F8043B51F8043B6D
:1005900040F8043B403ABDD2303211D351F8043B0D
:1005A00040F8043B51F8043B40F8043B51F8043B4D
:1005B00040F8043B51F8043B40F8043B103AEDD2BC
:1005C0000C3205D351F8043B40F8043B043AF9D20D
:1005D000043208D0D2071CBF11F8013B00F8013BE0
:1005E00001D30B8803806046704700BF082A13D3ED
:1005F0008B078DD010F003038AD0C3F10403D21A05
:10060000DB071CBF11F8013B00F8013B80D331F838
:10061000023B20F8023B7BE7043AD9D3013A11F8B8
:10062000013B00F8013BF9D20B7803704B78437023
:100630008B78837060467047000000000000000067
:1006400090F800F06DE9024520F007016FF0000C12
:1006500010F0070491F820F040F049804FF00004BA
:100660006FF00700D1E9002391F840F000F1080095
:1006700082FA4CF2A4FA8CF283FA4CF3A2FA8CF3CD
:100680004BBBD1E9022382FA4CF200F10800A4FA34
:100690008CF283FA4CF3A2FA8CF3E3B9D1E9042388
:1006A00082FA4CF200F10800A4FA8CF283FA4CF3BF
:1006B000A2FA8CF37BB9D1E9062301F1200182FA79
:1006C0004CF200F10800A4FA8CF283FA4CF3A2FA7F
:1006D0008CF3002BC6D0002A04BF04301A4612BA8D
:1006E000B2FA82F2FDE8024500EBD2007047D1E990
:1006F000002304F00305C4F100004FEAC50514F01F
:10070000040F91F840F00CFA05F562EA05021CBFEF
:1007100063EA050362464FF00004A9E70000000009
:1007200001F0FF01102A2BDB10F0070F08D010F8A2
:10073000013B013A8B422DD010F0070F42B3F6D1A6
:10074000F0B441EA012141EA014122F007047FF0BF
:1007500000070023F0E80256083C85EA010586EA16
:10076000010685FA47F5A3FA87F586FA47F6A5FA52
:1007700087F68EB9EED1F0BC01F0FF0102F007025E
:1007800032B110F8013B013A83EA010313B1F8D109
:100790000020704701387047002D06BF35460338EA
:1007A000073815F0010F07D1013015F4807F02BF23
:1007B000013015F4C03F0130F0BC0138704700BF74
:1007C00081F0004102E000BF83F0004330B54FEA02
:1007D00041044FEA430594EA050F08BF90EA020F6F
:1007E0001FBF54EA000C55EA020C7FEA645C7FEA02
:1007F000655C00F0E2804FEA5454D4EB5555B8BF25
:100800006D420CDD2C4480EA020281EA030382EA95
:10081000000083EA010180EA020281EA0303362D27
:1008200088BF30BD11F0004F4FEA01314FF4801CFA
:100830004CEA113102D0404261EB410113F0004F0C
:100840004FEA03334CEA133302D0524263EB4303C3
:1008500094EA050F00F0A780A4F10104D5F1200E61
:100860000DDB02FA0EFC22FA05F2801841F10001BC
:1008700003FA0EF2801843FA05F359410EE0A5F190
:1008800020050EF1200E012A03FA0EFC28BF4CF0C1
:10089000020C43FA05F3C01851EBE37101F0004577
:1008A00007D54FF0000EDCF1000C7EEB00006EEB84
:1008B0000101B1F5801F1BD3B1F5001F0CD349080E
:1008C0005FEA30004FEA3C0C04F101044FEA445265
:1008D00012F5800F80F09A80BCF1004F08BF5FEAEC
:1008E000500C50F1000041EB045141EA050130BDCC
:1008F0005FEA4C0C404141EB0101013C28BFB1F5DE
:10090000801FE9D291F0000F04BF01460020B1FA28
:1009100081F308BF2033A3F10B03B3F120020CDAFB
:100920000C3208DD02F1140CC2F10C0201FA0CF0D9
:1009300021FA02F10CE002F11402D8BFC2F1200C3E
:1009400001FA02F120FA0CFCDCBF41EA0C019040F4
:10095000E41AA2BF01EB0451294330BD6FEA04043D
:100960001F3C1CDA0C340EDC04F11404C4F1200228
:1009700020FA04F001FA02F340EA030021FA04F33A
:1009800045EA030130BDC4F10C04C4F1200220FA91
:1009900002F001FA04F340EA0300294630BD21FACF
:1009A00004F0294630BD94F0000F83F4801306BF95
:1009B00081F480110134013D4EE77FEA645C18BF89
:1009C0007FEA655C29D094EA050F08BF90EA020F20
:1009D00005D054EA000C04BF1946104630BD91EA18
:1009E000030F1EBF0021002030BD5FEA545C05D11B
:1009F0004000494128BF41F0004130BD14F580045A
:100A00003CBF01F5801130BD01F0004545F0FE41CD
:100A100041F470014FF0000030BD7FEA645C1ABF02
:100A2000194610467FEA655C1CBF0B46024650EA39
:100A3000013406BF52EA033591EA030F41F4002165
:100A400030BD00BF90F0000F04BF0021704730B5EB
:100A50004FF4806404F132044FF000054FF00001C0
:100A600050E700BF90F0000F04BF0021704730B581
:100A70004FF4806404F1320410F0004548BF404256
:100A80004FF000013EE700BF42004FEAE2014FEAAB
:100A900031014FEA02701FBF12F07F4393F07F4F86
:100AA00081F06051704732F07F4208BF704793F089
:100AB0007F4F04BF41F40021704730B54FF460749C
:100AC00001F0004521F000411CE700BF50EA01029F
:100AD00008BF704730B54FF000050AE050EA010248
:100AE00008BF704730B511F0004502D5404261EBB8
:100AF00041014FF4806404F132045FEA915C3FF4F9
:100B0000D8AE4FF003025FEADC0C18BF03325FEA95
:100B1000DC0C18BF033202EBDC02C2F1200300FA46
:100B200003FC20FA02F001FA03FE40EA0E0021FA6B
:100B300002F11444BDE600BF70B54FF0FF0C4CF459
:100B4000E06C1CEA11541DBF1CEA135594EA0C0F0B
:100B500095EA0C0F00F0DEF82C4481EA030621EA46
:100B60004C5123EA4C5350EA013518BF52EA033581
:100B700041F4801143F4801338D0A0FB02CE4FF033
:100B80000005E1FB02E506F00042E0FB03E54FF063
:100B90000006E1FB03569CF0000F18BF4EF0010E5B
:100BA000A4F1FF04B6F5007F64F5407404D25FEA57
:100BB0004E0E6D4146EB060642EAC62141EA55510A
:100BC0004FEAC52040EA5E504FEACE2EB4F1FD0C4C
:100BD00088BFBCF5E06F1ED8BEF1004F08BF5FEACA
:100BE000500E50F1000041EB045170BD06F000467C
:100BF00046EA010140EA020081EA0301B4EB5C0429
:100C0000C2BFD4EB0C0541EA045170BD41F4801120
:100C10004FF0000E013C00F3AB8014F1360FDEBF45
:100C2000002001F0004170BDC4F10004203C35DA21
:100C30000C341BDC04F11404C4F1200500FA05F3A4
:100C400020FA04F001FA05F240EA020001F0004245
:100C500021F0004110EBD37021FA04F642EB0601BB
:100C60005EEA430E08BF20EAD37070BDC4F10C04E5
:100C7000C4F1200500FA04F320FA05F001FA04F2A9
:100C800040EA020001F0004110EBD37041F1000195
:100C90005EEA430E08BF20EAD37070BDC4F12005A0
:100CA00000FA05F24EEA020E20FA04F301FA05F208
:100CB00043EA020321FA04F001F0004121FA04F2B0
:100CC00020EA020000EBD3705EEA430E08BF20EA80
:100CD000D37070BD94F0000F0FD101F000464000BA
:100CE00041EB010111F4801F08BF013CF7D041EA3C
:100CF000060195F0000F18BF704703F00046520040
:100D000043EB030313F4801F08BF013DF7D043EA10
:100D10000603704794EA0C0F0CEA135518BF95EAC6
:100D20000C0F0CD050EA410618BF52EA4306D1D14D
:100D300081EA030101F000414FF0000070BD50EA6C
:100D4000410606BF1046194652EA430619D094EAF6
:100D50000C0F02D150EA013613D195EA0C0F05D1E0
:100D600052EA03361CBF104619460AD181EA030134
:100D700001F0004141F0FE4141F470014FF00000EC
:100D800070BD41F0FE4141F4780170BD70B54FF087
:100D9000FF0C4CF4E06C1CEA11541DBF1CEA135507
:100DA00094EA0C0F95EA0C0F00F0A7F8A4EB0504E9
:100DB00081EA030E52EA03354FEA013100F08880E0
:100DC0004FEA03334FF0805545EA131343EA1263A9
:100DD0004FEA022245EA111545EA10654FEA00265E
:100DE0000EF000419D4208BF964244F1FD0404F517
:100DF000407402D25B084FEA3202B61A65EB030573
:100E00005B084FEA32024FF480104FF4002CB6EB2F
:100E1000020E75EB030E22BFB61A754640EA0C00AF
:100E20005B084FEA3202B6EB020E75EB030E22BFEF
:100E3000B61A754640EA5C005B084FEA3202B6EB30
:100E4000020E75EB030E22BFB61A754640EA9C00EF
:100E50005B084FEA3202B6EB020E75EB030E22BFBF
:100E6000B61A754640EADC0055EA060E18D04FEA7D
:100E7000051545EA16754FEA06164FEAC30343EA1D
:100E800052734FEAC2025FEA1C1CC0D111F4801FEA
:100E90000BD141EA00014FF000004FF0004CB6E7E3
:100EA00011F4801F04BF01430020B4F1FD0C88BF82
:100EB000BCF5E06F3FF6AFAEB5EB030C04BFB6EB8D
:100EC000020C5FEA500C50F1000041EB045170BD80
:100ED0000EF0004E4EEA113114EB5C04C2BFD4EBAD
:100EE0000C0541EA045170BD41F480114FF0000E31
:100EF000013C90E645EA060E8DE60CEA135594EAAD
:100F00000C0F08BF95EA0C0F3FF43BAF94EA0C0FAF
:100F10000AD150EA01347FF434AF95EA0C0F7FF424
:100F200025AF104619462CE795EA0C0F06D152EA78
:100F300003353FF4FDAE1046194622E750EA41065C
:100F400018BF52EA43067FF4C5AE50EA41047FF46D
:100F50000DAF52EA43057FF4EBAE12E74FF0FF3CD2
:100F600006E000BF4FF0010C02E000BF4FF0010CA3
:100F70004DF804CD4FEA410C7FEA6C5C4FEA430C1C
:100F800018BF7FEA6C5C1BD001B050EA410C0CBF6B
:100F900052EA430C91EA030F02BF90EA020F0020CD
:100FA000704710F1000F91EA030F58BF994208BF34
:100FB00090422CBFD8176FEAE37040F001007047F1
:100FC0004FEA410C7FEA6C5C02D150EA013C07D148
:100FD0004FEA430C7FEA6C5CD6D152EA033CD3D093
:100FE0005DF8040B704700BF8446104662468C468D
:100FF0001946634600E000BF01B5FFF7B7FF0028C0
:1010000048BF10F1000F01BD4DF808EDFFF7F4FFE8
:101010000CBF012000205DF808FB00BF4DF808ED73
:10102000FFF7EAFF34BF012000205DF808FB00BF96
:101030004DF808EDFFF7E0FF94BF012000205DF8B8
:1010400008FB00BF4DF808EDFFF7CEFF94BF01206D
:1010500000205DF808FB00BF4DF808EDFFF7C4FF66
:1010600034BF012000205DF808FB00BF4FEA410CAF
:101070007FEA6C5C02D150EA013C0AD14FEA430C92
:101080007FEA6C5C02D152EA033C02D14FF00000CF
:1010900070474FF0010070474FEA410212F500120D
:1010A00015D211D56FF47873B3EB625212D94FEAAF
:1010B000C12343F0004343EA505311F0004F23FA99
:1010C00002F018BF404270474FF00000704750EAEE
:1010D000013005D111F0004008BF6FF000407047AB
:1010E0004FF00000704700BF10B51548154B036066
:1010F000154B00221A7080215970E1219970DA7025
:101100001A715A7143604FF4000383600F4BC36040
:101110000F4B036140F2F453436100F0C3FD58B933
:101120000C4C38220021204602F06CFB2123236066
:101130004FF44003636110BD00F030F9F0E700BFE9
:10114000A40B002000800240640B0020C40A002091
:10115000240A00206C0B0020F0B58DB0002307930B
:10116000089309930A930B9302683D4B9A4201D06E
:101170000DB0F0BD00240094A3F590431A6B42F02B
:1011800000721A631A6B02F000720092009A0194C6
:101190001A6B42F080621A631A6B02F0806201924D
:1011A000019A02941A6B42F000621A631A6B02F001
:1011B00000620292029A03941A6B42F004021A63CC
:1011C0001A6B02F004020392039A04941A6B42F021
:1011D00001021A631A6B02F001020492049A059448
:1011E0001A6B42F002021A631A6B02F002020592B5
:1011F000059A06941A6B42F040021A631B6B03F0C7
:1012000040030693069B3223079302270897032681
:101210000A960B250B9507A9124800F0A3FD86231B
:101220000793089709940A960B9507A90E4800F0B2
:1012300099FD4FF400530793089709940A960B956C
:1012400007A90A4800F08EFD4FF420530793089732
:1012500009940A960B9507A9054800F083FD87E7D6
:1012600000800240000802400000024000040240EA
:1012700000180240F0B58DB000240794089409943A
:101280000A940B940194394B1A6B42F004021A63CE
:101290001A6B02F004020192019A02941A6B42F056
:1012A00080021A631A6B02F080020292029A03947F
:1012B0001A6B42F001021A631A6B02F001020392E8
:1012C000039A04941A6B42F002021A631A6B02F03A
:1012D00002020492049A05941A6B42F008021A63FF
:1012E0001A6B02F008020592059A06941A6B42F0F6
:1012F00040021A631B6B03F040030693069B1C4FCE
:10130000224644F28101384600F02AFE194D224659
:101310004021284600F024FE4FF4005307934FF479
:1013200088130893099407A9134800F01BFD44F2A1
:10133000810307930126089609940A9407A9384661
:1013400000F010FD40230793089609940A9407A91A
:10135000284600F007FD802307930894099407A905
:10136000284600F0FFFC0DB0F0BD00BF0038024081
:1013700000040240001802400008024000B583B09B
:1013800001904FF0FF33012201A9034801F0BDFA9B
:10139000019803B05DF804FB6C0C002072B6FEE708
:1013A00000B595B03022002108A802F02BFA0023E6
:1013B000039304930593069307930193204A116CBA
:1013C00041F080511164126C02F080520192019A36
:1013D00002931C4B1A6842F440421A601B6803F4E3
:1013E00040430293029B012308934FF4A0230993E7
:1013F00002230E934FF480020F9204221092A8222F
:10140000119212930723139308A800F047FE98B98E
:101410000F23039302230493002305934FF4A05357
:1014200006934FF480530793052103A801F09CF81D
:1014300020B915B05DF804FBFFF7B0FFFFF7AEFF72
:10144000003802400070004010B582B0104802F031
:101450008DFA00F0C7F9FFF7A3FFFFF70BFFFFF7C7
:1014600043FE00F0BDF800F00DF901F0F7FC01F0CB
:101470006BFD0024009423460422064906480068B8
:1014800002F07AF801F0EEFD204602B010BD00BF78
:1014900028990008540C00206099000882B00021AF
:1014A00000910B4B5A6C42F480425A645A6C02F41D
:1014B00080420092009A01911A6C42F080521A64A4
:1014C0001B6C03F080530193019B02B0704700BF77
:1014D000003802407047FEE7FEE7FEE7FEE7704790
:1014E0007047704708B5034B1B6803B1984700F07D
:1014F00093F908BD640C002010B50446024802F0C0
:1015000035FA024B1C6010BD30990008640C0020B5
:101510000120704708B502F04BF9162303604FF025
:10152000FF3008BD08B54FF0FF31FFF7F3FFFEE7CE
:1015300070B50C461646002506E0AFF30080214644
:1015400001F8010B01350C46B542F6DB304670BDA3
:1015500070B50C461646002504E014F8010BFFF7A1
:101560000DFF0135B542F8DB304670BD4FF0FF305E
:1015700070474FF400534B600020704701207047C4
:101580000020704710B503460C4A0D490D4800680D
:1015900040B10C4800680344521A934206D8094AE5
:1015A000136010BD0748084C0460F2E702F000F930
:1015B0000C2303604FF0FF30F3E700BF000003206F
:1015C00000040000680C002058120020034AD2F8E2
:1015D000883043F47003C2F88830704700ED00E0B3
:1015E00008B50A480A4B03604FF4E1334360002317
:1015F0008360C36003610C2242618361C36101F0B7
:1016000055F900B908BDFFF7C9FEFBE76C0C0020D7
:101610000048004000B589B000230393049305936C
:10162000069307930268154B9A4202D009B05DF801
:1016300004FB0021019103F5F8331A6C42F4802277
:101640001A641A6C02F480220192019A02911A6BB8
:1016500042F008021A631B6B03F008030293029B1B
:101660004FF4407303930223049303230693072349
:10167000079303A9024800F075FBD7E70048004034
:10168000000C024008B50C484FF0A043036004234F
:1016900043600222C2600023036182610122C261B1
:1016A00003624362C262036300F060FC00B908BDDC
:1016B000FFF774FEFBE700BFB00C002070B588B0E8
:1016C0000023039304930593069307930368B3F1F0
:1016D000A04F01D008B070BD00250195174C236BB9
:1016E00043F001032363236B03F001030193019B88
:1016F0004FF4E853039302230493032306930A232E
:1017000007930F4E03A9304600F02CFB4FF40073F3
:1017100003930495059503A9304600F023FB636B02
:1017200043F0800363630295636C43F48043636416
:10173000636C03F480430293029BCBE700380240C2
:1017400000000240DFF834D00D480E490E4A002355
:1017500002E0D458C4500433C4188C42F9D30B4A65
:101760000B4C002301E013600432A242FBD3FFF7CD
:101770002DFF02F023F8FFF767FE704700000320FB
:1017800000000020080A00206CA10008080A0020C0
:1017900058120020FEE7000010B504460E4B1878E2
:1017A0004FF47A73B3FBF0F30C4A1068B0FBF3F01C
:1017B00000F0A2F868B90F2C01D901200AE000223C
:1017C00021464FF0FF3000F05FF8054B1C60002011
:1017D00000E0012010BD00BF040000200000002038
:1017E0000800002008B50B4B1A6842F400721A601A
:1017F0001A6842F480621A601A6842F480721A60B1
:10180000032000F02FF80020FFF7C6FFFFF746FE89
:10181000002008BD003C0240034A1168034B1B78BE
:101820000B441360704700BFBC110020040000206F
:10183000014B1868704700BFBC11002038B5044642
:10184000FFF7F6FF0546B4F1FF3F02D0044B1B78CB
:101850001C44FFF7EDFF401BA042FAD338BD00BF88
:1018600004000020074AD36823F4E0631B041B0C28
:10187000000200F4E060034343F0BF6343F400332D
:10188000D360704700ED00E000B5194BDB68C3F38F
:101890000223C3F1070CBCF1040F28BF4FF0040C66
:1018A00003F1040EBEF1060F18D9033B4FF0FF3EC3
:1018B0000EFA0CFC21EA0C0199400EFA03F322EA1D
:1018C0000303194300280BDB0901C9B200F1604092
:1018D00000F5614080F800135DF804FB0023E5E7A4
:1018E00000F00F000901C9B2024B1954F4E700BF20
:1018F00000ED00E014ED00E00138B0F1807F0BD284
:101900004FF0E0235861054AF02182F823100020AF
:10191000986107221A6170470120704700ED00E0CE
:101920005079137943EA002307480B50D078937815
:101930001B0443EA0063507843EA00231278134300
:10194000024A8B50704700BF4080024044800240F2
:1019500030B4002208E0C468DC6051F80C3043F475
:10196000400341F80C300132032A1FD8C16802EB52
:1019700082034FEAC30C01EBC303002441F80C407F
:101980005C609C60DC60941D40F8243051F80C4091
:1019900044F4801441F80C40022ADCD8541C04EBB7
:1019A0008404C56805EBC404DC60D6E700238362C9
:1019B000C268036803F580531A6130BC704700B5F4
:1019C0004FF0000E03E00269DA600EF1010EBEF185
:1019D000030F29D801690EEB8E034FEAC30C01EB0C
:1019E000C303002241F80C205A609A60DA601A6240
:1019F0005A624FF0004241F80C2044F2F4525A600F
:101A00005A6822F000425A600EF1120240F8223069
:101A1000BEF1020FD7D801690EF1010202EB82027A
:101A200001EBC202DA60D0E70023C3650366836678
:101A3000C36683650269036803F58053DA605DF865
:101A400004FB000070B505460C46026813683B496C
:101A50001940237C002B60D14FF40003607C0028E8
:101A60005DD14FF480000343A0680343E07F43EA65
:101A7000004360690343A07F002852D14FF4005017
:101A80000343207F43EA0033A0690343207943EAFC
:101A9000802394F82000002845D14FF400700343C0
:101AA000E07B43EAC013606A034394F8280043EAEA
:101AB00000130B4313602B681E680120FFF7BEFE66
:101AC0002B681E6029688A6922F0BE021204120C7B
:101AD000A36C1B0494F84C0038BB80200343206D9A
:101AE000034394F85500012821D00020034394F8C3
:101AF000560001281DD00020034394F8540001280B
:101B000019D00020034313438B612B689C6901208B
:101B1000FFF794FE2B689C6170BD00239EE70020B8
:101B2000A1E70020ACE70020B9E70020D6E70820B5
:101B3000DCE70420E0E70220E4E700BF0F8120FF9C
:101B400070B505460C46026802F580539B692B4927
:101B50001940237B002B4DD14FF08063607B43EA1B
:101B60004063607F002847D14FF480100343A07B7F
:101B700043EA405360690343207F43EAC013A07FD8
:101B800043EA8013206A034394F8240043EA800365
:101B90000B4302F5805293612B6803F580539E69D5
:101BA0000120FFF74BFE2B6803F580539E612279DD
:101BB000A36843EA4263A26913432269134394F87A
:101BC000252043EAC213A26A43EA82032268134330
:101BD0002A6843F4000302F5805213602B6803F572
:101BE00080531C680120FFF729FE2B6803F5805302
:101BF0001C6070BD0023B1E70020B7E7233FDEF88B
:101C000070B5A4B0064601258DF83C508DF83D50C6
:101C100000240D948DF84B408DF84A508DF84840C3
:101C20008DF830508DF84C408DF83B4014948DF871
:101C300054401D948DF878401F948DF882408DF8A3
:101C400080404FF4804310934FF4006311938DF85C
:101C500081400BA9FFF7F6FE8DF80C508DF80D5062
:101C60008DF81D508DF80E5005948DF81C408DF8A0
:101C70001E4008948DF824508DF804504FF48033A2
:101C800002934FF4800306934FF4005304938DF8AE
:101C900025500A94009469463046FFF751FF24B05E
:101CA00070BD0000002857D030B583B00446D0F88E
:101CB0008430002B34D000230193284B5A6C42F41B
:101CC00080425A645B6C03F480430193019B244B74
:101CD0005A6822F400025A605A68A1680A435A609E
:101CE0005B68236803F580531A6842F001021A60AA
:101CF000FFF79EFD0546236803F580531B6813F02C
:101D0000010F13D0FFF794FD401BB0F5FA7FF2D915
:101D10000423C4F88830E023C4F88430012019E09B
:101D20002323C0F88430FFF717FAC4E72046FFF7F3
:101D300067FF2046FFF70CFE2046FFF740FE626873
:101D400000212046FFF7ECFD0020C4F88800102396
:101D5000C4F8843003B030BD012070470038024021
:101D60000038014000230F2B00F2F18070B582B0E3
:101D700061E085685E000324B44025EA0405CC6870
:101D8000B4402C438460456825EA02054C68C4F3DE
:101D900000129A402A4342605BE0DC08083450F8A5
:101DA000246003F0070295000F22AA4026EA020EE3
:101DB0000A69AA4042EA0E0240F824205DE00922A6
:101DC00000E0002202FA0EF22A430234604D45F888
:101DD0002420604A94686FEA0C0224EA0C054E68DD
:101DE00016F4801F01D04CEA04055A4CA560E46843
:101DF00002EA04054E6816F4001F01D04CEA0405FF
:101E0000544CE560646802EA04054E6816F4003F2D
:101E100001D04CEA04054F4C6560246822404D68AF
:101E200015F4803F01D04CEA04024A4C2260013391
:101E30000F2B00F28A8001229A400C6804EA020CFF
:101E400032EA0404F3D14C6804F00304013C012C91
:101E50008FD94A6802F00302032A09D0C4685D00E2
:101E60000322AA4024EA02048A68AA402243C260EC
:101E70004A6802F00302022A8FD004684FEA430E38
:101E8000032202FA0EF224EA02044A6802F0030274
:101E900002FA0EF2224302604A6812F4403FC6D0B2
:101EA000002201922C4A546C44F480445464526CD5
:101EB00002F480420192019A9C08A51C244A52F81F
:101EC000255003F003024FEA820E0F2202FA0EF2AF
:101ED00025EA0205214A90423FF473AF02F5806281
:101EE000904222D002F58062904220D002F58062BA
:101EF00090421ED002F5806290421CD002F58062B2
:101F000090421AD002F58062904218D002F58062A9
:101F1000904216D002F58062904214D002F58062A1
:101F200090423FF44CAF0A224CE701224AE70222DA
:101F300048E7032246E7042244E7052242E7062257
:101F400040E707223EE708223CE702B070BD704739
:101F500000380140003C01400038024000000240CF
:101F60000AB18161704709048161704770B58AB018
:101F7000002800F090800546046890F8BD343BB31B
:101F8000032385F8BD34E36B13F4807F01D1002374
:101F90002B61286800F093FD2C4654F8106BEC463A
:101FA0000FCCACE80F000FCCACE80F0094E80300B6
:101FB0008CE803002B1D0ECB304600F03BFD0446A1
:101FC00058B1022385F8BD34012420460AB070BD03
:101FD00080F8BC34FFF772FBD2E70021286800F0DC
:101FE000A5FE234616E003EBC30205EB82020121A6
:101FF00082F83D1082F83C30A2F84430002182F88B
:1020000040109164D16403EBC30205EB8202516579
:102010000133DBB269688B42E5D316E004EBC403FD
:1020200005EB8303002283F87D2283F87C4283F84A
:102030008022C3F88822C3F88C2204EBC40305EB8A
:102040008303C3F894220134E4B2A142E6D82C46BB
:1020500054F8106BEC460FCCACE80F000FCCACE89A
:102060000F0094E803008CE803002B1D0ECB3046D4
:1020700000F082FD044620B1022385F8BD3401241E
:10208000A3E7002385F83830012385F8BD3428689C
:1020900000F03AFE99E7012497E70000002800F0DD
:1020A000E08170B582B00446036813F0010F3BD0A5
:1020B0009F4B9B6803F00C03042B2CD09C4B9B681C
:1020C00003F00C03082B21D06368B3F5803F4FD099
:1020D000B3F5A02F52D0964B1A6822F480321A60C2
:1020E0001A6822F480221A606368002B50D0FFF730
:1020F0009FFB05468E4B1B6813F4003F14D1FFF77E
:1021000097FB401B6428F5D90320B1E1884B5B683D
:1021100013F4800FD8D0864B1B6813F4003F03D014
:102120006368002B00F09F81236813F0020F54D0E6
:102130007F4B9B6813F00C0F3ED07D4B9B6803F0E8
:102140000C03082B33D0E368002B68D0794B0122B5
:102150001A60FFF76DFB0546754B1B6813F0020F05
:1021600054D1FFF765FB401B0228F5D903207FE11E
:102170006F4A136843F480331360B5E76C4B1A68F9
:1021800042F480221A601A6842F480321A60ABE787
:10219000FFF74EFB0546664B1B6813F4003FC3D0A8
:1021A000FFF746FB401B6428F5D9032060E1604B34
:1021B0005B6813F4800FC6D15D4B1B6813F0020FF0
:1021C00003D0E368012B40F05081594A136823F093
:1021D000F803216943EAC1031360236813F0080F71
:1021E00042D063696BB3534B0122C3F8802EFFF7D3
:1021F0001FFB05464E4B5B6F13F0020F34D1FFF708
:1022000017FB401B0228F5D9032031E1484A136827
:1022100023F0F803216943EAC1031360DDE7454B6E
:1022200000221A60FFF704FB0546414B1B6813F0C0
:10223000020FD2D0FFF7FCFA401B0228F5D9032089
:1022400016E13C4B0022C3F8802EFFF7F1FA054659
:10225000374B5B6F13F0020F06D0FFF7E9FA401B14
:102260000228F5D9032003E1236813F0040F77D087
:102270002F4B1B6C13F0805F33D1002301932C4B49
:102280001A6C42F080521A641B6C03F08053019365
:10229000019B0125284B1B6813F4807F23D0A36882
:1022A000012B34D0052B38D0214B1A6F22F00102BC
:1022B0001A671A6F22F004021A67A368002B3DD038
:1022C000FFF7B6FA06461A4B1B6F13F0020F46D102
:1022D000FFF7AEFA801B41F288339842F3D903200E
:1022E000C6E00025D6E7144A136843F480731360F0
:1022F000FFF79EFA0646104B1B6813F4807FCED181
:10230000FFF796FA801B0228F5D90320B0E0084AAF
:10231000136F43F001031367CFE7054B1A6F42F0C9
:1023200004021A671A6F42F001021A67C5E700BF7C
:10233000003802400000474200700040FFF778FA82
:102340000646524B1B6F13F0020F08D0FFF770FACE
:10235000801B41F288339842F3D9032088E0EDB91D
:10236000A369002B00F08380484A926802F00C02B7
:10237000082A51D0022B17D0454B00221A66FFF7CE
:1023800057FA0446414B1B6813F0007F42D0FFF719
:102390004FFA001B0228F5D9032069E03B4A136C71
:1023A00023F080531364DBE7394B00221A66FFF7F2
:1023B0003FFA0546354B1B6813F0007F06D0FFF748
:1023C00037FA401B0228F5D9032051E0E369226A5D
:1023D0001343626A43EA8213A26A5208013A43EA4B
:1023E0000243E26A43EA0263284A5360284B01220F
:1023F0001A66FFF71DFA0446244B1B6813F0007F92
:1024000006D1FFF715FA001B0228F5D903202FE0AB
:1024100000202DE000202BE0012B2BD01B4B5B6814
:1024200003F48001E269914226D103F03F02216A60
:102430008A4223D1616A47F6C0721A40B2EB811F0B
:102440001ED103F44031A26A5208013AB1EB024FA7
:1024500018D103F07063E26AB3EB026F14D100206D
:1024600006E001207047012002E0012000E000208A
:1024700002B070BD0120FBE70120F9E70120F7E77A
:102480000120F5E70120F3E70120F1E700380240E1
:102490000000474208B5314B9B6803F00C03042B46
:1024A00057D0082B57D12D4B5A6802F03F025B687A
:1024B00013F4800F2AD0294B5968C1F3881C4FEAC6
:1024C0004C11B1EB0C006EEB0E0E4FEA8E1343EA8B
:1024D00090638101091A63EB0E03DB0043EA517339
:1024E000C90011EB0C0C43F10003590200234FEA21
:1024F0004C2041EADC51FDF783FE184B5B68C3F3C7
:10250000014301335B00B0FBF3F025E0134B596846
:10251000C1F3881C4FEA4C11B1EB0C006EEB0E0EB0
:102520004FEA8E1343EA90638101091A63EB0E03AD
:10253000DB0043EA5173C90011EB0C0C43F10003BB
:10254000990200234FEA8C2041EA9C51FDF758FE86
:10255000D3E7034800E0034808BD00BF003802404D
:1025600000127A000024F400002800F09B8070B56F
:102570000D4604464F4B1B6803F00F038B4208D2F5
:10258000CBB24C4A1370136803F00F038B4240F038
:102590008B80236813F0020F17D013F0040F04D0C0
:1025A000454A936843F4E0539360236813F0080F9F
:1025B00004D0414A936843F4604393603E4A936871
:1025C00023F0F003A1680B439360236813F0010F1D
:1025D00032D06368012B21D09A1E012A25D9364AB0
:1025E000126812F0020F61D033498A6822F00302A8
:1025F00013438B60FFF71CF906462F4B9B6803F0D3
:102600000C036268B3EB820F16D0FFF711F9801B41
:1026100041F288339842F0D9032042E0264A1268FA
:1026200012F4003FE0D101203BE0234A126812F08F
:10263000007FD9D1012034E01E4B1B6803F00F034B
:10264000AB4207D9EAB21B4B1A701B6803F00F03A9
:10265000AB422DD1236813F0040F06D0164A9368BD
:1026600023F4E053E1680B439360236813F0080FF1
:1026700007D0114A936823F46043216943EAC103F8
:102680009360FFF707FF0C4B9B68C3F303130B4AE0
:10269000D35CD8400A4B18600A4B1868FFF77CF8E7
:1026A000002070BD012070470120FAE70120F8E703
:1026B0000120F6E7003C024000380240489900083B
:1026C0000000002008000020014B1868704700BF80
:1026D0000000002008B5FFF7F7FF044B9B68C3F329
:1026E0008223034AD35CD84008BD00BF00380240B3
:1026F0005899000808B5FFF7E7FF044B9B68C3F340
:102700004233034AD35CD84008BD00BF00380240C2
:102710005899000838B504460268136923F44053F9
:10272000C1680B4313618368026913434269134311
:10273000C2691A430168CB6823F4164323F00C03E3
:102740001343CB600268536923F4407381690B43E0
:1027500053610368314A934206D002F58062934286
:1027600002D0FFF7B7FF01E0FFF7C4FFE369B3F55D
:10277000004F29D00021031849411B1841F10001E5
:10278000C90041EA5371DB00181863684FEA8302FD
:102790004FEA937341F10001FDF732FD204DA5FB97
:1027A00000325109642303FB11031B013233A5FBE3
:1027B00003235B0903F0F00202EB011203F00F03A5
:1027C000216813448B6038BD0023021843EB0301DA
:1027D000121841F10001C90041EA5271D2001018EB
:1027E00041F10001626892185B41FDF709FD0C4D53
:1027F000A5FB00325109642303FB1103DB003233D4
:10280000A5FB03235B095A0002F4F87202EB0112E4
:1028100003F00703216813448B60D4E700100140E4
:102820001F85EB512DE9F84305460F46164699469C
:10283000DDF820802C68246837EA04030CBF4FF0D1
:10284000010C4FF0000CB4452DD1B8F1FF3FF1D091
:10285000B8F1000F05D0FEF7EBFFA0EB09004045F3
:10286000E8D92A6802F10C0353E8003F23F4D0733F
:102870000C3242E800310029F3D12A6802F1140336
:1028800053E8003F23F00103143242E800310029ED
:10289000F3D1202385F83D3085F83E30002385F8BC
:1028A0003C30032000E00020BDE8F88358B310B5A9
:1028B000044690F83D300BB3242384F83D30226861
:1028C000D36823F40053D3602046FFF723FF226828
:1028D000136923F4904313612268536923F02A0398
:1028E00053612268D36843F40053D360002020640E
:1028F000202384F83D3084F83E3010BD80F83C3011
:10290000FEF788FED8E7012070472DE9F04182B03C
:102910001E4690F83D30DBB2202B54D104460D46C4
:102920009046002953D0002A53D090F83C30012B18
:1029300051D0012380F83C3000230364212380F828
:102940003D30FEF775FF0746A4F82480A4F82680E2
:10295000A368B3F5805F05D04FF00008002384F82A
:102960003C3012E0236913B14FF00008F6E7A846A7
:102970000025F3E738F8023B2268C3F308035360ED
:10298000E28C92B2013A92B2E284E38C9BB273B1D0
:1029900000963B46002280212046FFF743FFE0B926
:1029A000002DE7D015F8012B23685A60E8E7009660
:1029B0003B46002240212046FFF734FF78B9202310
:1029C00084F83D3000E0022002B0BDE8F081012033
:1029D000FAE70120F8E70220F6E70320F4E70320F6
:1029E000F2E7000082B000230193019B01330193C1
:1029F000019A0F4B9A4215D80369002BF5DA002390
:102A00000193036943F001030361019B01330193C7
:102A1000019A074B9A4208D8036913F0010FF4D1C9
:102A2000002000E0032002B070470320FBE700BF56
:102A3000400D030084B010B5044603A880E80E00E2
:102A4000089B012B1FD1A36B23F48033A363E3689E
:102A500023F4840323F04003E360E36823F440138A
:102A6000E3600F9B012B09D02046FFF7BBFF069BBD
:102A7000012B1BD0BDE8104004B07047E36843F45D
:102A80008013E360F0E7E36843F04003E36020462F
:102A9000FFF7A8FF0C9B23B9A36B43F48033A36318
:102AA000E5E7A36B23F48033A363E0E7A36843F077
:102AB0000603A360A36843F02003A360DAE78368FA
:102AC00023F00103836000207047000082B00023E0
:102AD0000193019B01330193019A0F4B9A4215D840
:102AE0000369002BF5DA00230193890141F02001ED
:102AF0000161019B01330193019A074B9A4208D867
:102B0000036913F0200FF4D1002000E0032002B08D
:102B100070470320FBE700BF400D030082B0002395
:102B20000193019B01330193019A0E4B9A4213D8F2
:102B30000369002BF5DA0023019310230361019B45
:102B400001330193019A074B9A4208D8036913F0A5
:102B5000100FF4D1002000E0032002B070470320E2
:102B6000FBE700BF400D0300D0F800381943C0F860
:102B7000001800207047000084B02DE9F0410446A1
:102B800007A880E80E00002306E003F1400204EBF2
:102B900082020021516001330E2BF6D9119F27BB11
:102BA000D4F8043843F00203C4F80438A36B43F4A8
:102BB0000013A363A36B23F40023A363A36B23F489
:102BC0008023A3630023C4F8003E04F50065D4F815
:102BD0000038C4F800380C9B012B14D1099B6BB949
:102BE00000212046FFF7C0FF11E0A36B23F4001380
:102BF000A363A36B43F40023A363E3E7012120460F
:102C0000FFF7B2FF03E003212046FFF7ADFF1021DD
:102C10002046FFF75BFF804608B14FF001082046D1
:102C2000FFF77CFF08B14FF0010800232B616B61B7
:102C3000EB610AE0C3B94FF00060C2F8000900225E
:102C40000A614FF67F328A6001330799994210D9A1
:102C500004EB431202F51061D2F800090028E9DB09
:102C60000020C2F80009EAE74FF09040C2F80009DE
:102C7000E5E700230AE0C3B14FF0904CC2F800CB67
:102C8000002202614FF67F3282600133994211D9EE
:102C900004EB431202F53060D2F8006B002EEADB41
:102CA0004FF0000CC2F800CBEAE74FF0006CC2F81E
:102CB00000CBE5E72B6923F480732B610023A3612C
:102CC0006FF0804363610A9B1BB9A36943F0100353
:102CD000A361A2690B4B1343A3610D9B1BB1A369B5
:102CE00043F00803A361012F04D04046BDE8F04142
:102CF00004B07047A36943F0804343F00403A36129
:102D0000F3E700BF00383C80D0F8003E23F0030317
:102D1000C0F8003ED0F8043843F00203C0F804388D
:102D200000207047406900F00100704738B5054643
:102D3000C36823F0C043C360012913D019BBC36823
:102D400043F08043C36000240120FEF777FD013487
:102D50002846FFF7E7FF08B1312CF5D9322C14D003
:102D6000002038BDC36843F00053C3600024012035
:102D7000FEF764FD01342846FFF7D4FF0128EDD0AB
:102D8000312CF4D9EAE70120EBE70120E9E710B59F
:102D900004460023C82201462C3000F0E3FC00204A
:102DA00000F0A8F8012000F0A5F8022000F0A2F839
:102DB00000F05AF894F82430013384F8243010BD20
:102DC00008B50023C82201462C3000F0CBFC0020BF
:102DD00000F0A0F8012000F09DF8022000F09AF821
:102DE00000F04AF808BD38B50446002580F82850A0
:102DF00080F8295080F82A5000F128012C3000F08A
:102E000085FC84F8245038BD08B50D4800F0AEFDAF
:102E10000C490D4800F048FD00F040F901460B4810
:102E200000F042FD00F03EF90146094800F03CFD8B
:102E3000084800F09BFD084800F098FD08BD00BF61
:102E4000D8990008589D0008089A0008209A0008A0
:102E5000389A0008509A0008C89B000808B5FFF788
:102E6000D3FF00F0FDF808BD08B5024800F07EFD74
:102E700008BD00BFE49B000808B5024800F076FDDD
:102E800008BD00BFEC9B000808B5074B1B681BB1D1
:102E9000013B054A136003B108BD13460A221A60BC
:102EA00000F0EEFBF8E700BFC011002008B50548B0
:102EB00000F05CFD044B0A221A600448FEF71CFB7C
:102EC00008BD00BFF49B0008C0110020892E000837
:102ED00008B5054800F04AFD044A13680133136041
:102EE00000F03EF808BD00BF049C0008C41100209B
:102EF00062B6704708B50122044B33F81010044B3A
:102F000053F82000FFF72CF808BD00BF189C0008FC
:102F10004C00002008B50022044B33F81010044B7D
:102F200053F82000FFF71CF808BD00BF189C0008EC
:102F30004C00002010B5044601E098470434236893
:102F4000002BFAD110BD0000034B00221A80034B66
:102F500001221A60704700BFC8110020CC11002068
:102F600038B5144800F002FD134B1B680BB3032364
:102F7000124D01E0083523465A1ED4B26BB12A889F
:102F80000F4B1B88B3FBF2F102FB11339BB2002BFA
:102F9000F0D16868FFF7CEFFECE7094A13880133E8
:102FA0009BB2138035F8082C934202D3044B0022C5
:102FB0001A8038BD209C0008CC110020389C0008E5
:102FC000C8110020072802D8024B185C7047FF2068
:102FD000704700BF509C0008014B185C704700BF51
:102FE000589C00080078003818BF0120704770B561
:102FF00004460D46CE083046FFF7E4FF2378184319
:10300000207005F00700FFF7DDFF344463781843B4
:10301000607070BD38B505460C4601F00700FFF73B
:10302000D1FFE20805EBD404637823EA0003637060
:1030300003B138BD1046FFF7C5FF2B7823EA000324
:103040002B70F6E738B504460078FFF7C5FFC500DA
:10305000EDB204446078FFF7BFFF2844C0B238BD2A
:103060007047000010B5FFF721FF0CE000F0D0FA28
:10307000094B53F8204062B6204600F0A7FA0146FB
:10308000204600F0A8FA72B600F0AAFA0028EDD1A6
:10309000FFF72EFFF7E700BF00120020004870473F
:1030A000609D000800487047689D0008C16041604D
:1030B000816002704FF0000C80F801C001EB8201CA
:1030C000016143617047000070B50446EFF311865B
:1030D0004FF0000383F31188BFF36F8FBFF34F8F5F
:1030E0001A4B1A68511C19604569D5B1284600F081
:1030F00097FA63681A1D62601D686378013BDBB252
:10310000637021698A4215D06069B0B1ABB900F033
:103110008EFA0E4A1368013B1360ABB986F311882F
:1031200012E04378002BE4D1084B1A6062B986F3B1
:10313000118809E0E2686260E6E7044A1368013B2F
:1031400013600BB986F31188284670BDD01100209A
:1031500008B5427803789A420ED283681A1D8260BD
:103160001960437801334370826803699A4204D03E
:10317000406908B100F055FA08BDC3688360F7E7FD
:1031800000E010300378FF2B03D0FE2BF9D1012093
:1031900070470020704738B504460568802D05D07B
:1031A000882D0CD1E36843B1012009E00069FFF7E5
:1031B000E7FF0028F4D0012002E0002000E000201A
:1031C00038BD1378012B0AD859B103681960036818
:1031D000043303601378013313700020704701201B
:1031E00070470020704703460068A0F1800CBCF1D6
:1031F000010F0BD988280BD00020704741F8043B01
:10320000DB680130C0B29342F8D170470020FAE782
:103210000020F8E72DE9F04F85B005460E460B7803
:10322000FD2B14BF4FF0000B4FF0010B4FF00009C6
:10323000CA46BBF1000F1CD16B680393BAF1000FB3
:1032400002D04FF0000A8A4EBBF1000F15D0894B17
:10325000039F1F602B689A68874B1A600023874A78
:103260001370874A1370874B00221A700197B84673
:10327000B4E02B685B680393E0E77E4B039A1A6027
:10328000002413E010342378FF2B08D0BB42F9D17F
:10329000636823B13146284698470128F2D1237844
:1032A000FF2B09D1734B1A68D2681A60714B1B68E7
:1032B00013B137781C69E6E72378FF2B00F01D81F6
:1032C000E768A2686C4B1A60CDE700236E4A137062
:1032D0006E4A13706A4A13706D4B039A1A60444623
:1032E000B0461AE0694B01221A70684B1B781BB17B
:1032F000634B1B78002B4CD1DCF808300BB128460F
:103300009847624B1B78012B2CD0614B1A68D2680E
:103310001A605B4A1378013313705D4BD3F800C019
:10332000BCF1000F2ED0584B00221A70594B5A4A4C
:103330001A60504B1C604F4B1B68002BD5D0634567
:10334000D0D0514A1278012A00F2DD80514801683C
:1033500041F8043BDE68474B1E60016001324A4B76
:103360001A70E8E74646A0464A4B1B68414A126875
:103370001A60454A137801331370414A13780133B8
:10338000137001E04646A0463F4B1A783B4B1A703B
:1033900046E04646A046F7E7364B1A683E49019894
:1033A000FFF721FF354B18703AE03C4C23681B684F
:1033B000314628469847236804332360384A1378F7
:1033C000013B1370364B1B78002BEED1334B354A43
:1033D0001A604FBBB9F1000F00F08680304A00231D
:1033E00013702E482F4B0360234B1968FFF7E9FE3B
:1033F0000290002840F084800FB1DDF804807FB196
:10340000B9F1000FC8D1BBF1000F3FF45EAF00224D
:1034100021494046FFF7E7FE184B1A781044187010
:103420001E4B204A1A60CDE7144B1A78164B1A70BF
:10343000194B03EB8203174A1360504608E0154B03
:103440001B681868FFF7A7FE0F4A1378013B13703B
:103450000D4B1B7843B30F4A1368191F116053F8C3
:10346000043C5B68002BEAD028469847E7E700BF9A
:103470007C9D0008F4110020FC110020E1110020C7
:10348000DE110020DF110020DD110020DC11002002
:10349000F8110020F0110020E8110020E4110020B4
:1034A000E0110020D411002082461A4B1B681A68D4
:1034B000194B1A60194A1378194909780B4413708B
:1034C000D8F80030812B0CD1D8F81820154B1A6091
:1034D000D8F814300193104BC3F800804FF0010965
:1034E00078E7DDF8089075E717B10B4B1B686B6048
:1034F000BAF1000F09D0CB469BE64FF0010A04E079
:103500004FF0060A01E04FF0050A504605B0BDE84D
:10351000F08F00BFF0110020F4110020DF11002017
:10352000E1110020FC11002008B50249FFF772FEEE
:1035300008BD00BF809D000800B5036893F800C077
:10354000EFF3118E4FF0000383F31188BFF36F8FF9
:10355000BFF34F8F064A1368591C1160054941F8A3
:103560002C0013600BB98EF311885DF804FB00BFCB
:10357000D01100200012002010B504460346083088
:10358000FFF794FD2046FFF7D7FF2046FFF7CCFF5B
:1035900010BD000038B5EFF311854FF0000383F341
:1035A0001188BFF36F8FBFF34F8F074C2368013330
:1035B00023600830FFF7CCFD2368013B23600BB983
:1035C00085F3118838BD00BFD011002008B5083040
:1035D000FFF77AFD08BD08B5FFF71CFE08BD000027
:1035E00008B50248FFF7FEFC08BD00BF0812002026
:1035F00008B501460148FFF7FAFC08BD0812002093
:1036000008B501460148FFF705FD08BD0812002076
:1036100008B50248FFF716FD08BD00BF08120020DC
:10362000704708B503681878FFF7E2FF08BD08B5D2
:1036300003681878FFF7E4FF08BD0000064B1B681D
:10364000834204D043684B60002303747047426890
:10365000014B1A60F8E700BF0C12002008B50346C2
:10366000064A1068002101E00146406808B198420E
:10367000FAD108B1FFF7E2FF08BD00BF0C1200202D
:1036800070B51F4800F072F9FFF722FCEFF31186C6
:103690004FF0000383F31188BFF36F8FBFF34F8F99
:1036A000184A136801331360174B1C6800250BE0A0
:1036B00029462046FFF7C2FF05E029462046FFF7CE
:1036C000BDFF10E02546646894B1237C002BEFD049
:1036D000A389013B9BB2A381002BF3D1E389002B8B
:1036E000EBD0A38125462168A068FFF753FFEAE7E6
:1036F000044A1368013B13600BB986F3118870BD4F
:10370000849D0008D01100200C12002070B50446E2
:103710000D46124800F02AF9EFF311864FF000032E
:1037200083F31188BFF36F8FBFF34F8F0C4A136879
:1037300001331360237C012B0BD00023A38123745E
:103740002560074A1368013B13600BB986F31188A3
:1037500070BD2046FFF782FFEFE700BF949D000891
:10376000D011002070B4EFF3118C4FF0000484F3FB
:103770001188BFF36F8FBFF34F8F0B4D2C68661C02
:103780002E6081608281C381037C2BB9074B1A684C
:103790004260186001230374034B1C600CB98CF366
:1037A000118870BC704700BFD01100200C1200209F
:1037B000014B1868704700BF5800002070B50D4ECF
:1037C0000D4D761BB61006D0002455F8043B01348D
:1037D0009847A642F9D1094E094D761B06F098F894
:1037E000B61006D0002455F8043B01349847A64291
:1037F000F9D170BD60A1000860A1000868A10008AF
:1038000060A10008830730B548D0541E002A3FD07D
:10381000CAB2034601E0013C3AD303F8012B9D07ED
:10382000F9D1032C2DD9CDB245EA05250F2C45EA57
:10383000054536D9A4F1100222F00F0C03F1200E39
:10384000E6444FEA121C03F1100242E9045542E932
:10385000025510327245F8D10CF1010214F00C0F30
:1038600003EB021204F00F0C13D0ACF1040323F0AD
:1038700003030433134442F8045B9342FBD10CF07E
:1038800003042CB1CAB21C4403F8012B9C42FBD1A7
:1038900030BD64461346002CF4D1F9E703461446C4
:1038A000BFE71A46A446E0E70FB400B5074983B066
:1038B00004AB086853F8042B8168019300F060F8AA
:1038C00003B05DF804EB04B0704700BF580000205F
:1038D00070B5054688B008460C46FCF7B1FE224E8E
:1038E000AA6B059001214318CDE9066104A80221C5
:1038F00004940393AC680190029122B3636E13F0B9
:10390000010FB4F90C309AB201D1980525D5910474
:1039100006D4626E43F4005322F40052A38162661F
:10392000284601AA214603F0ABF9636E002814BFB4
:103930004FF0FF350A25DA0702D4A3899B0506D587
:10394000284608B070BD284602F09CFFD6E7A06D5F
:1039500003F03CFB284608B070BDA06D03F034FBBB
:10396000B4F90C309AB2D2E7049A0008024B01462F
:103970001868FFF7ADBF00BF58000020000000002E
:103980002DE9F04F2DED0A8BCFB01C460AEE101A30
:1039900091460AEE900A054603F00EFB0368139366
:1039A00018460994FCF74CFE12901DB1AB6B002B2E
:1039B00000F048821AEE102A536EDB0740F147816F
:1039C000B2F90C309AB2960409D41AEE101A43F4E4
:1039D00000538B819AB24B6E23F400534B6615074C
:1039E00040F1CC801AEE103A1B69002B00F0C68023
:1039F00002F01A030A2B00F0D2804D469FED9C7B0B
:103A00002B78002425AACDE92344CDE91544CDE93E
:103A100017448DED107B1AEE909A0E9422929046E8
:103A200014940694002B00F0B081AB4604E01BF820
:103A3000013F002B00F0CD80252BF8D1BBEB050614
:103A400040F0CB809BF80030002B00F09E810023DB
:103A50004FF0FF329BF801708DF86B3005930BF13E
:103A6000010B04929A462B2420210BF1010BA7F1A4
:103A700020035A2B00F20081DFE813F00A03FE0056
:103A8000FE000503FE00FE00FE006A00FE00FE00D0
:103A900076029E02FE008102A802FE00A3025B00E5
:103AA0005B005B005B005B005B005B005B005B003E
:103AB000FE00FE00FE00FE00FE00FE00FE008E0185
:103AC000FE001602ED018E018E018E01FE00FE0049
:103AD000FE00FE000003FE00FE004502FE00FE00A8
:103AE000FE002002FE00C202FE00FE009907FE005A
:103AF000FE00FE00FE00FE00FE00FE00FE008E0145
:103B0000FE001602EF018E018E018E01E602EF012A
:103B1000E801FE00F302FE0086024702D402E8013B
:103B2000FE0020027D007507FE00FE007907FE0002
:103B30007D00A7F1300300221BF8017B02EB82021B
:103B400003EB4202A7F13003092BF5D905928EE76A
:103B5000484603F031FA436817931846FCF770FDA6
:103B600018900646484603F027FA836815932021EB
:103B7000002E40F0E9869BF8007076E71AEE101AE6
:103B80001AEE900A1AEE105A01F002FD002841F0D8
:103B90002783AA8902F01A030A2B7FF42EAF1AEEAC
:103BA000101AB1F90E30002BFFF627AF4B6ED90774
:103BB00002D4920541F15A811AEE101A1AEE900AB7
:103BC00023464A464FB0BDEC0A8BBDE8F04F01F0EA
:103BD0009FBCBBEB050600F0D880249B33442493A4
:103BE000239B0133072BC8E90056239305DC08F11A
:103BF0000808069B3344069324E71AEE101A22AAFB
:103C0000484604F02DFC90B90DF19408F1E71AEE46
:103C1000101A22AA484604F023FC002800F0A680CF
:103C2000089B23B11AEE900A194602F023FF1AEE00
:103C3000102A536ED80740F1FA8093895A0601F191
:103C4000D88206984FB0BDEC0A8BBDE8F08FB2F970
:103C50000C309F059AB23FF5B6AE1AEE105AA86D19
:103C600003F0B2F9B5F90C309AB2ACE6AFF30080CC
:103C70000000000000000000002F00F086800023FC
:103C80008DF8D4708DF86B300122CDE907230392B3
:103C900004930C930F930D9335AD1AF002020A9220
:103CA00002D0039A023203921AF084020B9205D1D9
:103CB000059A0399561A002E00F36883249C8BB151
:103CC000239B0DF16B0201330134C8F80020072B50
:103CD0004FF0010224942393C8F8042000F39F833B
:103CE00008F108080A9B83B1239B1BAA0133023405
:103CF000C8F80020072B4FF0020224942393C8F841
:103D0000042000F3998308F108080B9B802B00F036
:103D10006A82049B079A9E1A002E00F3AB821AF463
:103D2000807F40F00682079BC8F804301C44239B28
:103D3000C8F800500133072B2494239300F3198310
:103D400008F108081AF0040F05D0059B039A9D1A84
:103D5000002D00F38583DDE9052303998A42ACBF7A
:103D60009B185B180693002C7FF451AF002323931C
:103D7000089B1BB10899484602F07CFE0DF194089F
:103D80005D462B78002B7FF450AE249B002B41F036
:103D90001B82002323934AE7099B073323F0070381
:103DA000B3EC027B8DED107BDDE91012099322F05C
:103DB00000430BEE101A0BEE903A4FF0FF32B0EECC
:103DC0004B9AF0EE6B9AB74B51EC190BFDF74EF98D
:103DD000002840F0E884B34B51EC190B4FF0FF3250
:103DE000FDF726F9002840F0DE84DDE9100100220D
:103DF0000023FDF713F9002840F067879DF86B302A
:103E0000A94DAA4A2AF0800A0321472FC8BF1546A8
:103E1000002208920391079104920C920F920D9246
:103E2000002B3FF43AAF039A0132039235E79389AE
:103E300099053FF503AF1AEE104A906D03F0C6F8EE
:103E4000A389FBE6284602F01DFDB3E59BF8007050
:103E50004AF0200A09E64AF0100A1AF0200F099BDE
:103E600000F04084073323F007031A465B6852F8DA
:103E7000084B09921E46002BC0F24384049B013379
:103E800000F0BC822AF08003039354EA060340F05A
:103E9000B782049B002B40F0B882DDF80CA0002311
:103EA000049307934EAD1FE1099A002352F8041BB7
:103EB0008DF86B308DF8D4100992E5E6099C54F822
:103EC000045B00268DF86B60002D00F08F85049B4D
:103ED0005A1C00F051861A4631462846FCF720FC51
:103EE0000890002801F02F81089B0496591B079128
:103EF00021EAE1719DF86B300994039108960C96C4
:103F00000F960D968CE74AF0100A1AF0200600F082
:103F1000C983099B073323F007035E6853F8084BF6
:103F200009932AF480630393002300228DF86B2009
:103F3000049A551C00F0C080039921F0800A54EACD
:103F4000060140F0B780002A40F00786002BA6D17A
:103F5000039B13F00103079300F0148430238DF8C2
:103F600037310DF23715BFE0099B53F8042B05924A
:103F7000002A80F2D583059A0993524205929BF854
:103F800000704AF0040A70E51AF0200F40F0D18466
:103F90001AF0100F40F0E7851AF0400F40F0A986A4
:103FA0001AF4007F00F0DF85099B069953F8042B73
:103FB000099311705D46E4E69BF800708DF86B4044
:103FC00053E59BF800704AF0800A4EE55A4612F815
:103FD000017B2A2F01F06F82A7F13003092B934652
:103FE00098BF002201F2EC801BF8017B02EB8202F9
:103FF00003EB4202A7F13003092BF5D9049236E511
:104000004AF010030393039B13F0200600F059833A
:10401000099B073323F007035E6853F8084B0993A5
:10402000012382E7099B53F8044B099330234AF09C
:10403000020278278DF86C301D4B149303928DF893
:104040006D700026022370E79BF80070682F03BF95
:104050009BF801704AF4007A0BF1010B4AF0400A18
:1040600003E59BF800706C2F03BF9BF801704AF0CA
:10407000200A0BF1010B4AF0100AF6E49BF80070DD
:104080004AF0080AF1E49BF800704AF0010AECE4F7
:104090009DF86B30002B7FF46EAD9BF800708DF8AF
:1040A0006B10E2E4FFFFEF7FA89D0008AC9D0008C5
:1040B000B89D0008CDF80CA0012B00F0A181022BC7
:1040C0004EAD20D1149A04F00F032409D35C05F8F7
:1040D000013D44EA0674360954EA0603F3D14EABB7
:1040E0005B1BDDF80CA00793049907989DF86B30D3
:1040F00081424FF00002B8BF0146089203910C9232
:104100000F920D928CE604F00703E40844EA46742B
:10411000F608303354EA06012A4605F8013DF2D18B
:104120000399CC0700F175824EAB5B1B8A4607935F
:10413000DAE7652F40F3D780DDE910010022002384
:10414000FCF762FF002800F0C681239BC14AC8F833
:104150000020013301340122072B24942393C8F853
:10416000042000F3DE8408F108081C9B0E9A934299
:1041700080F2D182129B139A1C44C8E90023239B2E
:1041800024940133072B239300F3228408F10808B9
:104190000E9B5D1E002D7FF7D5AD102D239B41F3A7
:1041A0006981AD4F0A97224610261AEE104A05E0A3
:1041B00008F10808103D102D40F3C184013310327E
:1041C000072BC8E90076CDE92332F1DD22AA21468A
:1041D000484604F045F900287FF422ADDDE923329A
:1041E0000DF19408E6E7059B039A9E1A002E7FF7CF
:1041F00090AD102E239B41F33F8097490B952246AB
:104200001AEE105A0A910C4604E0103E102E08F1E6
:10421000080819DD013310321021072BCDE92332B4
:10422000C8F80040C8F80410EFDD22AA2946484625
:104230000DF1940804F014F900287FF4F1AC103E5D
:10424000102EDDE92332E5DC0B9D144601330A9A7A
:10425000C8F800203444072BCDE92334C8F80460A3
:1042600000F3A883049B079A9E1A002E08F1080801
:104270007FF755AD102E239B40F30F8576480A90AB
:10428000424621461AEE108A044604E0103E102EE3
:1042900002F1080216DD013310311020072BCDE9A1
:1042A000233114605060F1DD22AA4146484604F0F3
:1042B000D7F800287FF4B4AC103E102EDDE923318E
:1042C00025AAE8DC90460C4601330A9AC8F800207B
:1042D0003444072BCDE92334C8F8046000F3D481BB
:1042E00008F108081BE50E9B012B40F37381239E08
:1042F000C8F80050013601340123072E2494239678
:10430000C8F8043000F3968308F10808129B139A4A
:1043100001361C44072EC8E90023CDE9236400F3CD
:10432000978308F10808DDE9100100220023FCF75B
:104330006BFE002840F07B810E9B0136013B01356E
:104340001C44072EC8F800502396C8F80430249463
:1043500000F3518108F10808169BC8F804300136B3
:104360001C44072E1EABCDE92364C8F800307FF74C
:10437000E7AC1AEE101A22AA484604F071F8002899
:104380007FF44EAC249C0DF19408DBE4102EDDE9A3
:10439000233222DD199510241AEE105A04E0103E43
:1043A000102E08F1080817DD01332C491032072BB5
:1043B000C8E90014CDE92332F1DD22AA2946484696
:1043C0000DF1940804F04CF800287FF429AC103E5D
:1043D000102EDDE92332E7DC199DC8F804600133B3
:1043E000B418072B1D4AC8F80020CDE9233400F388
:1043F0007D839DF86B3008F1080860E4CDF80CA0CF
:104400000A2C76F1000380F0318330340123DDF88B
:104410000CA08DF8374107930DF2371564E61AEEBC
:10442000101A22AA484604F01BF800287FF4F8ABC3
:10443000249C0DF1940855E41AEE101A22AA48465D
:1044400004F00EF800287FF4EBAB249C0DF19408E7
:104450005BE400BFE89D0008FC9D0008EC9D00089F
:10446000102D239B20DD1AEE107A102604E0103D5B
:10447000102D08F1080817DD0133AC4A1034072B62
:10448000C8E90026CDE92334F1DD22AA39464846A1
:104490000DF1940803F0E4FF00287FF4C1AB103D58
:1044A000102DDDE92334E7DC0133A04AC8F80450BD
:1044B0002C44072BCDE92334C8F800207FF74BAC00
:1044C0001AEE101A22AA484603F0CAFF00287FF409
:1044D000A7AB249C3FE41C9A002A40F32B81DDE922
:1044E0000D739F42A8BF1F46002F0BDD239B013396
:1044F0003C44072BC8E900572494239300F3D58547
:1045000008F108080D9E002FA8BFF61B002E00F32F
:1045100044830D9B1AF4806F2B44079340F0E3848F
:104520001C9B0E9A934203DB1AF0010F00F0D2831A
:10453000129A13991444C8E90012239A2494013260
:10454000072A239200F3BF8508F108080E9A0799FD
:10455000AE18761AD51AAE42A8BF2E46002E0DDD33
:10456000239BC8F8001001333444072BC8F80460BB
:104570002494239300F3098608F10808002EA8BFAD
:10458000AD1B002D7FF7DEAB102D239B40F3728710
:10459000674F0A97224610261AEE104A05E008F1E6
:1045A0000808103D102D40F3CA8201331032072B4A
:1045B000C8E90076CDE92332F1DD22AA214648463A
:1045C00003F04EFF00287FF42BABDDE923320DF121
:1045D0009408E6E71AF0010F7FF489AE239EC8F82D
:1045E0000050013601340123072E24942396C8F885
:1045F00004307FF7AFAE1AEE101A22AA484603F035
:104600002FFF00287FF40CABDDE923640DF1940843
:10461000A2E6302B3FF463AD3023023A05F8013CAB
:104620004EAB9B1ADDF80CA0079315465CE50E9B7C
:104630005D1E002D7FF790AE102D40F321873C4A80
:10464000CDF810A023461AEE10AA0A92102714469D
:1046500005E008F10808103D102D40F3E382013613
:104660001033072EC8E90047CDE92363F1DD22AA04
:104670005146484603F0F4FE00287FF4D1AADDE954
:1046800023630DF19408E6E71AEE101A22AA4846B1
:1046900003F0E6FE00287FF4C3AA249C0DF19408E1
:1046A000FFF73DBB1AF0100340F03D811AF04002C5
:1046B00000F0C882099A52F8044B09921E46A4B22F
:1046C0002FE4039B13F0100366D1039A12F040020B
:1046D00000F0C682099A52F8044B09921E46A4B211
:1046E000012322E453F8044B09931AF0100F4FD121
:1046F0001AF0400F48D044F3C036334624B2FFF7D7
:10470000BABB2D2364428DF86B3066EB4606CDF8BC
:104710000CA001230CE41AF0010F3FF413AB29E5C0
:104720009BF800700993FFF7A0B900BFEC9D00084B
:10473000FC9D0008239BB649C8F8001001330134E2
:104740000121072B24942393C8F8041000F38484D8
:1047500008F10808002A40F046820E9A0AF0010388
:1047600013433FF4EFAA129B139A1C44C8E9002399
:10477000239B24940133072B239300F3688308F1D0
:10478000080841E24EADAFE41AF4007F40F0AB827E
:10479000E6173346FFF76FBB099B53F8044B0993A9
:1047A0000123FFF7C2BBDDE9100102460B46FCF70F
:1047B0005DFC002840F02E86612F00F07F85412FA0
:1047C00000F0A082049B013327F02003039300F044
:1047D000C085472B00F0AB85DDE910014AF48072FB
:1047E000002907924FF00003C0F2458441EC180BFA
:1047F0000A930893039B462B00F07484452B00F02A
:104800002585B0EE480AF0EE680A20AB01931DAB97
:104810000093049A1CAB0221484600F0C9FF039B99
:10482000472B054640F05E861AF0010F5646DDF82C
:104830001CA040F0E384209B5B1B0E93039B472B43
:1048400000F01B83039B462B00F089841C9B0D9377
:104850000D9B039A013B412A1C9300F0E985FAB2B3
:104860000021002BB8BF0D9B8DF87820BABFC3F193
:1048700001032D222B22092B8DF8792040F36D8521
:104880000DF18704DFF898C1224610468CFB032106
:10489000DA17C2EBA10202EB8201A3EB4101303136
:1048A00000F8011C19466329134600F1FF32ECDCC5
:1048B0003033D9B2831E9C4202F8011C40F20E86AE
:1048C00013460DF17A0201E013F8011B02F8011BF7
:1048D0009C42F9D10DF189030DF17A021B1A1344A0
:1048E0001EAA9B1A16930E9B169A012B1A44079226
:1048F00040F3B285079B129A13440793079A00234B
:1049000026F4806622EAE27246F4807A0C930392DF
:104910000F930D930A9B002B40F0DE8204939DF8C9
:104920006B30FFF77DBA099B53F8044B0993FFF7EF
:10493000F8BA099B069853F8041B0993C217C1E9FA
:1049400000025D46FFF71DBA159B002B3FF413A92B
:10495000159B1B78002B3FF40EA99BF800704AF4BE
:10496000806AFFF782B8CDF80CA0FFF74CBB294B4B
:1049700014931AF0200655D0099B073323F0070340
:104980005E6853F8084B09931AF0010F09D054EAF6
:10499000060306D030238DF86D704AF0020A8DF8B8
:1049A0006C302AF4806303930223FFF7BEBA1A4BDC
:1049B0001493DEE71AEE101A22AA484603F050FDBF
:1049C00000287FF42DA9249C0DF19408FFF7A1B9CC
:1049D0001AEE101A22AA484603F042FD00287FF47E
:1049E0001FA9249C0DF19408FFF7D2BB049A0895E7
:1049F000062A294628BF062204952B460392074D16
:104A0000099407920C910F910D91FFF709BA00BF1D
:104A1000E89D0008B89D0008CC9D0008E09D0008B6
:104A2000676666661AF0100370D0099B53F8044B52
:104A30000993A9E71AEE101A22AA484603F010FDBE
:104A400000287FF4EDA8DDE923640DF194085DE40E
:104A50001AEE101A22AA484603F002FD00287FF43D
:104A6000DFA8DDE923640DF194085CE4039B0022D8
:104A700003F48063CDE9077809EE109A0DF59C7A6E
:104A8000DDF85490174698460CE000232046314646
:104A90000A22FBF7B5FB0A2C76F100031CD304466F
:104AA0000E46AA4620460A2200233146FBF7A8FB01
:104AB00030320AF1FF3501370AF8012CB8F1000F46
:104AC000E3D099F800309F42DFD1FF2FDDD00A2CD0
:104AD00076F1000380F0E580CDF854900E97DDF874
:104AE0002080079F19EE109AFFF7F9BA1AEE101AF4
:104AF00022AA484603F0B4FC00287FF491A89DF850
:104B00006B30249C0DF19408FFF7D9B81AF04002DD
:104B100000F0B680099A52F8044B09921E46A4B2DE
:104B200032E71AEE101A22AA484603F099FC002830
:104B30007FF476A8249C0DF19408FFF716BB144669
:104B400001330A9AC8F800202C44072BC8F80450F7
:104B5000CDE923347FF7F4A80BE4012BCDF80CA0AA
:104B60007FF4ADAA51E4099B069953F8042B5D46E6
:104B700011600993FFF705B9284604960994FBF7DD
:104B80005FFD20EAE0719DF86B3007900391089675
:104B90000C960F960D96FFF743B9102E239B40F30A
:104BA0009684BC480A90424621461AEE108A102785
:104BB000044604E00832103E102E40F33B820133DD
:104BC0001031072BC2E90047CDE92331F2DD22AADB
:104BD0004146484603F044FC00287FF421A8DDE963
:104BE000233125AAE7E7129B13991C44C8E9001357
:104BF000239B24940133072B239300F3288108F18E
:104C00000808002AC0F2FD820E9AC8F8005001334D
:104C10001444072BCDE92334C8F804207FF790A86B
:104C2000FFF7A7BBDDF810A01C4601360A9BC8F8A9
:104C300000302C44072ECDE92364C8F804507FF7D8
:104C400089ABD8E4099B1AF4007614BF53F8044BDF
:104C500053F8044B09931CBF1646E4B2FFF761B941
:104C6000039B13F40076099B14BF53F8044B53F8CD
:104C7000044B09931CBF1646E4B20123FFF755B954
:104C8000099B1AF4007614BF53F8044B53F8044BF5
:104C900009931CBF1646E4B276E67E4A0A92FFF7F5
:104CA00013BB189B1799ED1A1A46284603F06AFBA6
:104CB00099F801300BB109F10109204631460A2269
:104CC00000230027FBF79CFAE9E62D238DF86B30D3
:104CD000FFF796B80E9A0799AE18761AD51AAE4213
:104CE000A8BF2E464AE444F3C016334664B2FFF729
:104CF000C2B8099B069953F8042B099311805D46AD
:104D0000FFF73FB830238DF86C3058238DF86D30A5
:104D1000049B632B4AF0020400F3D582002308931E
:104D200035ADDDE910124AF481730793002A27F0AC
:104D30002003A2460393C0F29F81002342EC181B7C
:104D40000A93612F00F04A83412F7FF453ADB0EEF8
:104D5000480AF0EE680A1CA803F086FA00224FF019
:104D60007F5351EC100BFBF7E7FE02460B4643EC7A
:104D7000192B00220023FCF747F908B101231C93EB
:104D8000454B0B93049B1995CDE90C7BCDE90EA8FF
:104D90000CEE109ADDF82CB059EC198B5E1E2C46E7
:104DA00005E000220023013EFCF72EF9E0B93B4B61
:104DB000002240464946FBF7BFFE89468046FCF785
:104DC0006BF90546FBF74EFE0B4602464946404648
:104DD000FBF7FAFC1BF80530A24604F8013B731CF4
:104DE000374680468946DCD149EC198B2C4BDDF8DF
:104DF0003C8051EC190B00223E461CEE109ADDE976
:104E00000C7BCDF830A00D95DDF838A0199DFCF78E
:104E100023F9002840F0368251EC190B204B002278
:104E2000FCF7F2F818B10D9BD90700F12B82002E88
:104E3000334606DB01332344302204F8012BA3421E
:104E4000FBD1631B56460E93DDF81CA0F6E41AEE68
:104E5000101A22AA484603F003FB00287EF4E0AEB5
:104E6000DDE923341C9A0DF19408CAE61AEE103AD3
:104E7000986D02F0ABF8FEF79FBE1C9B0D93DA1CF9
:104E800002DB049A93420DDD023F27F020030393D7
:104E9000DEE400BFFC9D0008CC9D0008000030400F
:104EA0000000E03FDDE90D329342C0F27F81F00760
:104EB00040F19182129A13440793710503D50D9B1B
:104EC000002B00F35A82079B23EAE37303936727BF
:104ED00000230C930F931DE52D2300228DF86B30DA
:104EE0000492FEF7A0BF0E9BCDF828B0DDF83CB0D1
:104EF000079E159FCDF81CA0EB1804934246DDF8E1
:104F000060A00C9B0B951AEE108AA446BBF1000F13
:104F100030D0002B71D1013F0BF1FF3B179BC2E951
:104F2000003A239B0133D444072BCDF890C0239340
:104F300067DC0832049B38789B1B8342A8BF03467A
:104F4000002B1C460BDD239801309C440728C2E946
:104F50000063CDF890C023905FDC38780832002CD5
:104F6000ACBF051B0546002D17DC06440C9BBBF1AE
:104F7000000FCED1002B40D10B9D0E9BDDF81CA065
:104F8000DDF828B01597EB189E429046324628BFB0
:104F90001A4664460792FFF7C3BA102D23981FDD07
:104FA0001024634604E0103D102D02F1080216DDC6
:104FB0000130B34910330728C2E90014CDE92303B7
:104FC000F1DD22AA4146484603F04AFA00287EF461
:104FD00027AE103D102DDDE9230325AAE8DC9C4611
:104FE0000130A74B5560AC440728CDE9230C136072
:104FF0004DDC387808320644B8E70C9B013B0C9333
:105000008CE722AA4146484603F02AFA00287EF49B
:1050100007AEDDF890C025AA8CE722AA4146484693
:1050200003F01EFA00287EF4FBAD3878DDF890C05E
:1050300025AA94E790460C4601330A9AC8F8002046
:105040003444072BCDE92334C8F8046000F36181B0
:1050500008F10808FFF75DBA1AEE101A22AA4846AE
:1050600003F0FEF900287EF4DBAD1C9A249C0DF1C0
:105070009408FFF76FBB0893DDE9103408EE103A8F
:1050800004F1004308EE903A2D230A9359E622AA30
:105090004146484603F0E4F900287EF4C1AD387873
:1050A000DDF890C025AA064460E71AEE101A22AA7D
:1050B000484603F0D5F900287EF4B2AD249C0DF1EA
:1050C0009408FFF71FBA1AEE101A22AA484603F0F6
:1050D000C7F900287EF4A4AD1C9B249C0DF1940814
:1050E000FFF734BA20AB01931DAB0093049AB0EEE6
:1050F000480AF0EE680A1CAB0321484600F058FB52
:105100000378302B054600F099811C9B049A564683
:105110001344DDF81CA0EC1851EC180B00220023FE
:10512000FBF772FF10B12346FFF786BB209BA3421B
:10513000BFF482AB30215A1C20921970209B9C42F4
:10514000F9D8FFF779BB049B0393079309949DF863
:105150006B3004900C900F900D90FEF761BE1C9A7E
:105160000D92002A40F39081049906F001030B434D
:1051700040F02B810D9B07936627730500F1FE809D
:10518000079B23EAE3730393A2E61AEE101A22AAFE
:10519000484603F065F900287EF442AD1C9D0E9B45
:1051A000249C5D1B0DF19408FFF7E8B90E9B129A41
:1051B0009A180D9B0792002B40F353816727DCE779
:1051C00000230493FEF753BC1AEE101A1AEE900A4D
:1051D00022AA03F045F900283EF4DBADFEF727BD17
:1051E0006B6EDC0705D4AB89980502D4A86D01F07D
:1051F000EDFE4FF0FF330693FEF723BD049BEC1842
:105200008AE75642103280F26F811D480A9042466A
:1052100021461AEE108A1027044603E00832103E99
:10522000102E5ADD01331031072BC2E90047CDE9BA
:105230002331F3DD22AA4146484603F011F9002844
:105240007EF4EEACDDE9233125AAE8E7049BB0EE5D
:10525000480AF0EE680A5C1C20AB01931DAB00937A
:1052600022461CAB0221484600F0A2FA05465646EB
:105270002C44DDF81CA04FE7014A0A92FEF7E6BF76
:10528000FC9D00080C9B20930B9B14F8012CD97BF0
:105290008A42234609D1302003F8010C209B5A1E74
:1052A000209213F8012C9142F6D0392A0BBF0B9AA9
:1052B0000132927AD2B203F8012CC2E530238DF884
:1052C0006C30782322E5591C484601F0F1FE054672
:1052D000002800F00C81089023E590460C4601332D
:1052E0000A9AC8F800203444072BCDE92334C8F8C3
:1052F00004607FF744AA1AEE101A22AA484603F067
:10530000AFF800287EF48CACDDE923340DF194086D
:105310007AE41AEE101A22AA484603F0A1F80028EF
:105320007EF47EAC249C0DF19408FFF7F2B8049B48
:10533000002B08BF01230493119B4AF48072002BB9
:105340000792C0F29B809DED108B0A900890FFF7AA
:1053500058BA06230493FFF73FBA002940F0A8800B
:1053600030228DF87A200DF17B02303302F8013BB8
:105370001EABD31A1693FFF7B6BA672715990B78A9
:10538000FF2B00F0A78000240D9A204603E0013097
:105390000131FF2B08D0934206DAD21A4B78002B4A
:1053A000F5D10B780134F4E715910D920F900C9420
:1053B0000C9A0F9B18991344079A01FB0323079338
:1053C00023EAE3730393FFF7A5BA129BD31819449A
:1053D00007916627D1E60D9B07936EE51CA8B0EEFA
:1053E000480AF0EE680A02F03FFF00224FF07F53B8
:1053F00051EC100BFBF7A0FB02460B4643EC192BBC
:1054000000220023FBF700FE08B101231C933C4B54
:105410000B93B7E4119B3B4D3B4A002BB6BF2D23AA
:105420009DF86B308DF86B302AF0800AFEF7ECBCEB
:1054300007F10F02D2B20121FFF713BA51EC180B9A
:1054400000220023FBF7E0FD00287FF45EAE049B02
:10545000C3F101031C9359E6F4077FF54FAAFFF748
:1054600049BAC3F101031A4422EAE2730792039393
:1054700067272DE5254A0A92FFF762BB0890FBE5F6
:10548000224B0A93FFF7D1BB049A06F0010656EAB5
:10549000020304D1012303936627079318E5129BA7
:1054A00001331A4422EAE2730792039366270FE559
:1054B0000DF17A0259E7099B9BF80170934653F866
:1054C000042B099342EAE2720492FEF7CEBA0F4A25
:1054D0000A92B1E500230C930F9369E70223169318
:1054E000FFF701BA049CC2E6084A0A92F7E61AEEF0
:1054F000102A938943F040039381FEF798BB00BFC5
:10550000B89D0008B09D0008B49D0008FC9D0008EF
:1055100070B50C468989ADF58E6D21F00201ADF8AC
:105520001410616E1B91E189ADF81610E1690991C3
:10553000616A0B911CA9029106914FF480610646A5
:105540000491079118A80021CDE90032089101F0DB
:1055500037FDDDE9003202A93046FEF711FA051EDB
:1055600007DB02A9304601F059F9002818BF4FF0B7
:10557000FF35BDF814305B0603D5A38943F0400323
:10558000A381189801F01EFD28460DF58E6D70BDA3
:1055900038B5334B1B6805460C460BB19A6B12B3FA
:1055A000B4F90C3018079AB225D5216900292DD0FD
:1055B00012F0010007D00020A06060694042A061A5
:1055C00039B1002038BD950758BF6069A060002937
:1055D000F7D1120658BF0846F4D543F04003A38123
:1055E0004FF0FF3038BD184601F04CF9B4F90C30DB
:1055F00018079AB2D9D4D1062AD5520714D42169F2
:1056000043F00803A3819AB20029D1D102F420709B
:10561000B0F5007FCCD02146284601F0D9FCB4F982
:105620000C3021699AB2C3E7216B51B104F14002F9
:10563000914204D0284601F01DFAB4F90C30002242
:10564000226321690022C4E9001223F02403D7E772
:10565000092243F040032A604FF0FF30A38138BD98
:1056600058000020024B13B1024800F005B8704703
:1056700000000000A9690008002301461A461846E8
:1056800003F04EBE2DE9F04F03690C69A34283B0CD
:10569000C0F28780013C01F11405A30000F1140859
:1056A000009355F8243058F82420013381469A425B
:1056B00008EB840005EB84070190B2FBF3F63BD3C3
:1056C0000023AE4640469B465EF804AB02681FFAD4
:1056D0008AFC06FB0C334FEA134C4FEA1A4A06FBCE
:1056E0000ACA1FFA83FCABEB0C0C1FFA8AF31CFAF4
:1056F00082FCC3EB124202EB2C421FFA8CFC4CEAF8
:105700000243774540F8043B4FEA224B4FEA1A43E5
:10571000DAD2009B58F8033073B9019B043B9845DB
:1057200004D307E0984504F1FF3403D253F8042969
:10573000002AF7D0C9F81040484602F079FA00284C
:105740002BDB01364046002355F8041BD0F800C07F
:105750008AB29A1A0B0C12FA8CF2C3EB1C4303EBBD
:10576000224392B242EA0342AF4240F8042B4FEA8E
:105770002343E9D258F8242008EB84036AB9043B98
:10578000984504D307E0984504F1FF3403D253F859
:105790000429002AF7D0C9F81040304603B0BDE80C
:1057A000F08F002003B0BDE8F08F00BF00000000C4
:1057B0002DE9F04F2DED068B95B08DED020B01918B
:1057C000016C249D099259EC108B0446069341B15B
:1057D000426C4A60012393408B6001F0C7FF0023B5
:1057E0002364B9F1000AB4BF012300232B607C4B72
:1057F000BCBF2AF0004ACDF80CA033EA0A0300F03F
:10580000B2809DED027B002251EC170BB0EE479A5F
:10581000F0EE679A0023FBF7F7FB074680B1069A84
:1058200001231360259B002B00F0DB826D4818607C
:10583000431E0093009815B0BDEC068BBDE8F08FB9
:1058400012AA13A92046B0EE490AF0EE690A02F046
:10585000B7FAB0EE498AF0EE698A5FEA1A56054651
:1058600040F09980DDE912763E4406F2324020286D
:1058700040F3AB83C0F140000AFA00FA06F212408E
:1058800028FA00F04AEA0000FBF7DCF80123013EA9
:105890000D93A1F1F871544B0022FAF795FF4AA33A
:1058A000D3E90023FBF748F949A3D3E90023FAF72A
:1058B0008DFF804630468946FBF7D4F846A3D3E9EE
:1058C0000023FBF739F902460B4640464946FAF7F2
:1058D0007DFF80468946FBF7DFFB002283460023DD
:1058E00040464946FBF79AFB002840F06D82BBF129
:1058F000160F00F25C823D4B03EBCB03D3E9002390
:1059000051EC190BFBF78AFB002875D00023BE1B56
:105910000C93731E0BF1FF3B049300F14F820023A5
:105920000893BBF1000F6EDA089BCDF814B0A3EB1F
:105930000B030893CBF100030B93019B092B4FF052
:10594000000B69D8052B40F33E83043B01930026EE
:10595000019B023B032B00F29986DFE813F04E0413
:105960004B0443042604069A42F20F73CAF3130A47
:1059700013605AEA08031DD1259B002B00F07D8699
:105980001B4B00930833259A0098136015B0BDECAB
:10599000068BBDE8F08F18EE903AC3F3130351EC79
:1059A000190B43F07F510D97A6F2FF36129F41F479
:1059B000401170E7259B002B40F0DB830D4B0093DB
:1059C00038E700BFAFF3008061436F63A787D23F22
:1059D000B3C8608B288AC63FFB799F501344D33FDE
:1059E0000000F07FE99D00080000F83F109F0008CC
:1059F000109E00080C9E0008BE1B731E049300F14D
:105A00009A840C900890049B5B44CDE9043B0023EE
:105A10000B93019B092B95D9002301264FF0FF32F0
:105A200001930A9607920993079B0F9300216164E3
:105A3000204601F075FE0090002800F02F86009BA4
:105A40002364079B0E2B00F2F980002E00F0F680F5
:105A50000599002940F37184BD4B01F00F0203EB5F
:105A6000C2034FEA2118C905D3E9006740F1038456
:105A7000B84B51EC190BD3E90823FBF787F941EC3C
:105A8000180B08F00F084FF0030AB8F1000F13D0FD
:105A9000DFF8C09218F0010F09D030463946D9E935
:105AA0000023FBF749F80AF1010A06460F465FEAB0
:105AB000680809F10809EDD151EC180B32463B4654
:105AC000FBF764F941EC1A0B0C9B5BB157EC1A6BBA
:105AD000A14B1AEE100A00223946FBF79FFA002864
:105AE00040F052855046FAF7BDFF53EC1A2BFBF7F6
