:020000040800F2
:100000000000032091A2000851A0000853A000089E
:1000100055A0000857A0000859A0000800000000E3
:100020000000000000000000000000005BA00008CD
:100030005DA00008000000005FA0000861A00008AB
:10004000E1A20008E1A20008E1A20008E1A2000884
:10005000E1A20008E1A2000839370108433701088E
:10006000E1A20008E1A20008E1A20008E1A2000864
:10007000E1A20008E1A20008E1A20008E1A2000854
:10008000E1A20008E1A20008E1A20008E1A2000844
:10009000E1A20008E1A20008E1A20008E1A2000834
:1000A000E1A20008E1A20008E1A20008E1A2000824
:1000B000E1A20008E1A20008E1A20008E1A2000814
:1000C000E1A20008E1A20008E1A20008E1A2000804
:1000D000E1A200084D3701087D370108BD3701084E
:1000E0002D370108E1A20008E1A20008E1A2000802
:1000F000E1A20008E1A20008E1A20008E1A20008D4
:10010000E1A20008E1A20008E1A20008E1A20008C3
:10011000E9370108E1A20008E1A20008E1A2000815
:10012000E1A20008E1A20008E1A20008E1A20008A3
:10013000E1A20008E1A20008E1A20008E1A2000893
:10014000E1A20008E1A20008E1A20008E1A2000883
:10015000E1A20008E1A20008E1A20008E1A2000873
:10016000E1A20008E1A20008E1A20008E1A2000863
:10017000E1A20008E1A20008E1A2000800000000DE
:10018000E1A20008E1A20008E1A20008E1A2000843
:10019000E1A20008E1A20008E1A20008E1A2000833
:0C01A000E1A20008E1A20008E1A20008B2
:1001C0000348044B834202D0034B03B118477047E6
:1001D000040A0020040A0020000000000548064927
:1001E0000B1AD90F01EBA301491002D0034B03B145
:1001F00018477047040A0020040A0020000000008D
:1002000010B5064C237843B9FFF7DAFF044B13B15E
:100210000448AFF300800123237010BD080A0020BA
:1002200000000000344B010808B5044B1BB1044921
:100230000448AFF30080BDE80840CFE700000000AD
:100240000C0A0020344B010881F0004102E000BF9D
:1002500083F0004330B54FEA41044FEA430594EA86
:10026000050F08BF90EA020F1FBF54EA000C55EAC1
:10027000020C7FEA645C7FEA655C00F0E2804FEA92
:100280005454D4EB5555B8BF6D420CDD2C4480EA74
:10029000020281EA030382EA000083EA010180EAA4
:1002A000020281EA0303362D88BF30BD11F0004FF2
:1002B0004FEA01314FF4801C4CEA113102D0404228
:1002C00061EB410113F0004F4FEA03334CEA133363
:1002D00002D0524263EB430394EA050F00F0A7807B
:1002E000A4F10104D5F1200E0DDB02FA0EFC22FA76
:1002F00005F2801841F1000103FA0EF2801843FA6A
:1003000005F359410EE0A5F120050EF1200E012A5A
:1003100003FA0EFC28BF4CF0020C43FA05F3C01898
:1003200051EBE37101F0004507D54FF0000EDCF111
:10033000000C7EEB00006EEB0101B1F5801F1BD3BA
:10034000B1F5001F0CD349085FEA30004FEA3C0CBE
:1003500004F101044FEA445212F5800F80F09A80B4
:10036000BCF1004F08BF5FEA500C50F1000041EBB8
:10037000045141EA050130BD5FEA4C0C404141EBBC
:100380000101013C28BFB1F5801FE9D291F0000FB7
:1003900004BF01460020B1FA81F308BF2033A3F166
:1003A0000B03B3F120020CDA0C3208DD02F1140C5D
:1003B000C2F10C0201FA0CF021FA02F10CE002F198
:1003C0001402D8BFC2F1200C01FA02F120FA0CFC91
:1003D000DCBF41EA0C019040E41AA2BF01EB0451DA
:1003E000294330BD6FEA04041F3C1CDA0C340EDCD8
:1003F00004F11404C4F1200220FA04F001FA02F31B
:1004000040EA030021FA04F345EA030130BDC4F1D8
:100410000C04C4F1200220FA02F001FA04F340EACD
:100420000300294630BD21FA04F0294630BD94F07E
:10043000000F83F4801306BF81F480110134013D65
:100440004EE77FEA645C18BF7FEA655C29D094EAD6
:10045000050F08BF90EA020F05D054EA000C04BF54
:100460001946104630BD91EA030F1EBF002100203F
:1004700030BD5FEA545C05D14000494128BF41F0DE
:10048000004130BD14F580043CBF01F5801130BD42
:1004900001F0004545F0FE4141F470014FF00000CD
:1004A00030BD7FEA645C1ABF194610467FEA655C7E
:1004B0001CBF0B46024650EA013406BF52EA033520
:1004C00091EA030F41F4002130BD00BF90F0000F0E
:1004D00004BF0021704730B54FF4806404F132044A
:1004E0004FF000054FF0000150E700BF90F0000F03
:1004F00004BF0021704730B54FF4806404F132042A
:1005000010F0004548BF40424FF000013EE700BFF9
:1005100042004FEAE2014FEA31014FEA02701FBF89
:1005200012F07F4393F07F4F81F06051704732F0BB
:100530007F4208BF704793F07F4F04BF41F4002112
:10054000704730B54FF4607401F0004521F0004170
:100550001CE700BF50EA010208BF704730B54FF0FA
:1005600000050AE050EA010208BF704730B511F0FB
:10057000004502D5404261EB41014FF4806404F133
:1005800032045FEA915C3FF4D8AE4FF003025FEAB9
:10059000DC0C18BF03325FEADC0C18BF033202EB3D
:1005A000DC02C2F1200300FA03FC20FA02F001FA97
:1005B00003FE40EA0E0021FA02F11444BDE600BF3A
:1005C00070B54FF0FF0C4CF4E06C1CEA11541DBFE9
:1005D0001CEA135594EA0C0F95EA0C0F00F0DEF8B4
:1005E0002C4481EA030621EA4C5123EA4C5350EA99
:1005F000013518BF52EA033541F4801143F48013EA
:1006000038D0A0FB02CE4FF00005E1FB02E506F07A
:100610000042E0FB03E54FF00006E1FB03569CF0CF
:10062000000F18BF4EF0010EA4F1FF04B6F5007FD5
:1006300064F5407404D25FEA4E0E6D4146EB060647
:1006400042EAC62141EA55514FEAC52040EA5E50D0
:100650004FEACE2EB4F1FD0C88BFBCF5E06F1ED87A
:10066000BEF1004F08BF5FEA500E50F1000041EBB1
:10067000045170BD06F0004646EA010140EA02005E
:1006800081EA0301B4EB5C04C2BFD4EB0C0541EA80
:10069000045170BD41F480114FF0000E013C00F395
:1006A000AB8014F1360FDEBF002001F0004170BDB9
:1006B000C4F10004203C35DA0C341BDC04F11404D2
:1006C000C4F1200500FA05F320FA04F001FA05F25E
:1006D00040EA020001F0004221F0004110EBD3702B
:1006E00021FA04F642EB06015EEA430E08BF20EA57
:1006F000D37070BDC4F10C04C4F1200500FA04F3FA
:1007000020FA05F001FA04F240EA020001F000418B
:1007100010EBD37041F100015EEA430E08BF20EAFE
:10072000D37070BDC4F1200500FA05F24EEA020E46
:1007300020FA04F301FA05F243EA020321FA04F075
:1007400001F0004121FA04F220EA020000EBD3702C
:100750005EEA430E08BF20EAD37070BD94F0000F2C
:100760000FD101F00046400041EB010111F4801F60
:1007700008BF013CF7D041EA060195F0000F18BF11
:10078000704703F00046520043EB030313F4801F4D
:1007900008BF013DF7D043EA0603704794EA0C0F07
:1007A0000CEA135518BF95EA0C0F0CD050EA41061D
:1007B00018BF52EA4306D1D181EA030101F000419A
:1007C0004FF0000070BD50EA410606BF10461946C2
:1007D00052EA430619D094EA0C0F02D150EA0136CE
:1007E00013D195EA0C0F05D152EA03361CBF10460F
:1007F00019460AD181EA030101F0004141F0FE41AE
:1008000041F470014FF0000070BD41F0FE4141F431
:10081000780170BD70B54FF0FF0C4CF4E06C1CEA31
:1008200011541DBF1CEA135594EA0C0F95EA0C0FE6
:1008300000F0A7F8A4EB050481EA030E52EA0335A1
:100840004FEA013100F088804FEA03334FF08055C2
:1008500045EA131343EA12634FEA022245EA1115EF
:1008600045EA10654FEA00260EF000419D4208BFA0
:10087000964244F1FD0404F5407402D25B084FEA4D
:100880003202B61A65EB03055B084FEA32024FF4F9
:1008900080104FF4002CB6EB020E75EB030E22BF56
:1008A000B61A754640EA0C005B084FEA3202B6EB16
:1008B000020E75EB030E22BFB61A754640EA5C00C5
:1008C0005B084FEA3202B6EB020E75EB030E22BF55
:1008D000B61A754640EA9C005B084FEA3202B6EB56
:1008E000020E75EB030E22BFB61A754640EADC0015
:1008F00055EA060E18D04FEA051545EA16754FEA77
:1009000006164FEAC30343EA52734FEAC2025FEA94
:100910001C1CC0D111F4801F0BD141EA00014FF023
:1009200000004FF0004CB6E711F4801F04BF0143F4
:100930000020B4F1FD0C88BFBCF5E06F3FF6AFAE10
:10094000B5EB030C04BFB6EB020C5FEA500C50F1A0
:10095000000041EB045170BD0EF0004E4EEA113123
:1009600014EB5C04C2BFD4EB0C0541EA045170BD2A
:1009700041F480114FF0000E013C90E645EA060E6E
:100980008DE60CEA135594EA0C0F08BF95EA0C0F9C
:100990003FF43BAF94EA0C0F0AD150EA01347FF4E4
:1009A00034AF95EA0C0F7FF425AF104619462CE7BB
:1009B00095EA0C0F06D152EA03353FF4FDAE10461E
:1009C000194622E750EA410618BF52EA43067FF46F
:1009D000C5AE50EA41047FF40DAF52EA43057FF4FF
:1009E000EBAE12E74FF0FF3C06E000BF4FF0010C0A
:1009F00002E000BF4FF0010C4DF804CD4FEA410C6E
:100A00007FEA6C5C4FEA430C18BF7FEA6C5C1BD03A
:100A100001B050EA410C0CBF52EA430C91EA030FBB
:100A200002BF90EA020F0020704710F1000F91EA18
:100A3000030F58BF994208BF90422CBFD8176FEAE6
:100A4000E37040F0010070474FEA410C7FEA6C5CB4
:100A500002D150EA013C07D14FEA430C7FEA6C5CBB
:100A6000D6D152EA033CD3D05DF8040B704700BFE7
:100A70008446104662468C461946634600E000BF35
:100A800001B5FFF7B7FF002848BF10F1000F01BD07
:100A90004DF808EDFFF7F4FF0CBF012000205DF8D2
:100AA00008FB00BF4DF808EDFFF7EAFF34BF012057
:100AB00000205DF808FB00BF4DF808EDFFF7E0FFF0
:100AC00094BF012000205DF808FB00BF4DF808ED41
:100AD000FFF7CEFF94BF012000205DF808FB00BFA8
:100AE0004DF808EDFFF7C4FF34BF012000205DF88A
:100AF00008FB00BF4FEA410212F5001215D211D5D2
:100B00006FF47873B3EB625212D94FEAC12343F00A
:100B1000004343EA505311F0004F23FA02F018BF8C
:100B2000404270474FF00000704750EA013005D155
:100B300011F0004008BF6FF0004070474FF0000018
:100B4000704700BF4A0011D212F5001211D20DD524
:100B50006FF47873B3EB62520ED44FEAC12343F0C3
:100B6000004343EA505323FA02F070474FF000006D
:100B7000704750EA013002D14FF0FF3070474FF01C
:100B80000000704780F0004002E000BF81F00041AB
:100B900042001FBF5FEA410392EA030F7FEA226C23
:100BA0007FEA236C6AD04FEA1262D2EB1363C1BFB3
:100BB000D218414048404140B8BF5B42192B88BF22
:100BC000704710F0004F40F4000020F07F4018BF45
:100BD000404211F0004F41F4000121F07F4118BF65
:100BE000494292EA030F3FD0A2F1010241FA03FC0D
:100BF00010EB0C00C3F1200301FA03F100F00043F5
:100C000002D5494260EB4000B0F5000F13D3B0F1BC
:100C1000807F06D340084FEA310102F10102FE2A2B
:100C200051D2B1F1004F40EBC25008BF20F001009B
:100C300040EA03007047490040EB0000013A28BF3A
:100C4000B0F5000FEDD2B0FA80FCACF1080CB2EBBD
:100C50000C0200FA0CF0AABF00EBC250524218433B
:100C6000BCBFD0401843704792F0000F81F40001E0
:100C700006BF80F400000132013BB5E74FEA4103B3
:100C80007FEA226C18BF7FEA236C21D092EA030F1F
:100C900004D092F0000F08BF0846704790EA010F99
:100CA0001CBF0020704712F07F4F04D1400028BFC6
:100CB00040F00040704712F100723CBF00F50000A8
:100CC000704700F0004343F0FE4040F400007047DE
:100CD0007FEA226216BF08467FEA2363014642028A
:100CE00006BF5FEA412390EA010F40F4800070479D
:100CF0004FF0000304E000BF10F0004348BF404243
:100D00005FEA000C08BF704743F0964301464FF07E
:100D100000001CE050EA010208BF70474FF00003DA
:100D20000AE000BF50EA010208BF704711F000431B
:100D300002D5404261EB41015FEA010C02BF8446EB
:100D40000146002043F0B64308BFA3F18053A3F54A
:100D50000003BCFA8CF2083AA3EBC25310DB01FA91
:100D600002FC634400FA02FCC2F12002BCF1004F15
:100D700020FA02F243EB020008BF20F001007047A6
:100D800002F1200201FA02FCC2F1200250EA4C00FA
:100D900021FA02F243EB020008BF20EADC70704740
:100DA00053B94AB9002908BF00281CBF4FF0FF31D2
:100DB0004FF0FF3000F074B9ADF1080C6DE904CECE
:100DC00000F006F8DDF804E0DDE9022304B0704726
:100DD0002DE9F047089E0D4604468846002B4DD16C
:100DE0008A42944668D9B2FA82F252B101FA02F309
:100DF000C2F1200120FA01F10CFA02FC41EA0308D9
:100E000094404FEA1C45210CB8FBF5FE1FFA8CF705
:100E100005FB1E8341EA03430EFB07F199420BD900
:100E20001CEB03030EF1FF3080F01E81994240F26B
:100E30001B81AEF1020E63445B1AA4B2B3FBF5F062
:100E400005FB103344EA034400FB07F7A7420AD925
:100E50001CEB040400F1FF3380F00881A74240F24C
:100E6000058164440238E41B40EA0E4000211EB1B3
:100E7000D4400023C6E90043BDE8F0878B4208D97F
:100E8000002E00F0EE800021C6E900050846BDE80E
:100E9000F087B3FA83F100294AD1AB4202D38242F0
:100EA00000F2F980841A65EB030301209846002EB6
:100EB000E2D0C6E90048DFE702B9FFDEB2FA82F20B
:100EC000002A40F09180A1EB0C054FEA1C471FFA65
:100ED0008CFE0121B5FBF7F307FB1350250C45EA07
:100EE00000450EFB03F0A84208D91CEB050503F1F1
:100EF000FF3802D2A84200F2CB8043462D1AA4B29A
:100F0000B5FBF7F007FB105544EA05440EFB00FE65
:100F1000A64508D91CEB040400F1FF3502D2A64512
:100F200000F2BB802846A4EB0E0440EA03409EE793
:100F3000C1F120078B4022FA07FC4CEA030C20FA8F
:100F400007F405FA01F31C43FD404FEA1C4900FA7F
:100F500001F3B5FBF9F8200C1FFA8CFE09FB1855BC
:100F600040EA054508FB0EF0A84202FA01F20BD94F
:100F70001CEB050508F1FF3A80F08880A84240F29A
:100F80008580A8F1020865442D1AA4B2B5FBF9F0DA
:100F900009FB105544EA054500FB0EFEAE4508D995
:100FA0001CEB050500F1FF346CD2AE456AD902385E
:100FB000654440EA0840A0FB0294A5EB0E05A5425B
:100FC000C846A64656D353D05EB1B3EB080265EBD4
:100FD0000E0505FA07F722FA01F3CD401F43C6E9D3
:100FE00000750021BDE8F087C2F1200320FA03F16B
:100FF0000CFA02FC25FA03F395400D434FEA1C4717
:101000001FFA8CFEB3FBF7F107FB11302B0C43EA00
:10101000004301FB0EF0984204FA02F408D91CEBDD
:10102000030301F1FF382FD298422DD902396344CE
:101030001B1AADB2B3FBF7F007FB103345EA0345CB
:1010400000FB0EF3AB4208D91CEB050500F1FF389D
:1010500016D2AB4214D902386544ED1A40EA014178
:1010600038E73146304607E78646E5E61846FAE6B1
:101070004B45A9D2B9EB020864EB0C0E0138A3E78B
:101080004046EAE7204694E74146D1E7D0467BE771
:10109000023B654432E7084609E76444023842E708
:1010A000704700BF002301461A46184603F05EBB96
:1010B00038B5084B084D5B1B9C1007D0043B1D4402
:1010C000013C55F804399847002CF9D1BDE8384067
:1010D00013F036BD287501082475010870B50D4E52
:1010E0000D4D761BB61006D0002455F8043B013494
:1010F0009847A642F9D1094E094D761B13F01AFD07
:10110000B61006D0002455F8043B01349847A64297
:10111000F9D170BD1C7501081C7501082475010802
:101120001C750108024B0146186800F00BB800BF9F
:1011300000000020024B0146186804F069BD00BFA2
:10114000000000202DE9F04F01F10B06162E83B0B0
:10115000044624D8102900F2BA8000F039FC102689
:1011600018220220B74F3A44A2F1080153688B427B
:1011700000F0BA805A68D96822F003021A449D68C8
:10118000E9608D60516841F001012046516003F132
:10119000080500F01FFC284603B0BDE8F08F36F0CC
:1011A000070600F19480B14200F2918000F010FC3B
:1011B000B6F5FC7FC0F09681730A00F08F80042B97
:1011C00000F26B81B30903F1390003F1380CC3005D
:1011D0009C4F3B44A3F108055B689D4206D10CE09F
:1011E000002980F22B81DB689D4206D05A6822F0EC
:1011F0000302911B0F29F3DD60463D69DFF848C209
:1012000065457CD06A6822F00302931B0F2B00F324
:101210007781002BC7E904CC80F26881B2F5007FAA
:1012200080F01681D308796801334FEA521E0122FB
:1012300002FA0EF20A4357F833E0C5F808E007EB6C
:10124000C3010839E9607A6047F83350CEF80C5092
:10125000831001219940914257D8114206D120F0C4
:1012600003004900114200F10400FAD007EBC00965
:101270004D468646D5F80C80454508D119E1002B2E
:1012800080F22081D8F80C80454500F01281D8F812
:10129000042022F00302931B0F2BF0DD2046D8E937
:1012A000025408EB060146F00106C8F80460EC6041
:1012B000A56043F00104C7E90411C1E902CC4C6008
:1012C00048F8023000F086FB08F1080502E00C2324
:1012D00023600025284603B0BDE8F08F4FF400736B
:1012E00040204FF03F0C73E7D3689A4208BF0230AA
:1012F0007FF440AF3D69DFF850C1654582D17A681F
:101300008310012199409142A7D9BD686B6823F0F1
:101310000308464503D8A8EB06030F2B7EDCDFF855
:101320002C91D7F80824D9F800300132334405EB6A
:10133000080A00F02F8103F580530F3323F47F6BED
:101340002BF00F0B5946204600F0D6FB411C0246FD
:1013500000F0EF80824500F2EA80D9F80410594489
:10136000C9F804100B4600F04B81D7F8081401317E
:101370001BBFA2EB0A0A5344C7F80824C9F804307B
:1013800012F0070300F01281C3F108010A44C3F50B
:10139000805193440831A1EB0B01C1F30B0A514674
:1013A00020460192009300F0A7FB421CDDE90032C9
:1013B00000F04B81831A03EB0A0BD9F80400BA60E2
:1013C0004BF001030AEB0001BD425360C9F8041061
:1013D00000F02281B8F10F0F40F220816B68A8F174
:1013E0000C0020F0070003F0010303436B604FF093
:1013F000050C2B180F28C3E901CC00F22D8153688E
:101400001546D9F82C208A42D9F8302038BFC9F8BF
:101410002C108A4238BFC9F830108CE0AA1943F06A
:10142000010346F001066E602046BA60536000F08A
:10143000D1FA0835284603B0BDE8F08FD9681A44C0
:101440009DE600BF3004002038040020240A00205C
:10145000B2F5206F4FEA522363D3142B00F2B88009
:1014600003F15C01C9005B3307EB010E7958AEF163
:10147000080E8E4500F091804B6823F003039342E1
:1014800002D989688E45F7D1D1F80CE07A68C5E9B0
:10149000021ECEF80850CD60DAE6142B59D9542B31
:1014A00000F29E80330B03F16F0003F16E0CC3005A
:1014B0008EE60EF1010E1EF0030F05F108057FF414
:1014C000D9AE51E0424445465368D8F80C1043F079
:1014D0000103536055F8083F2046D9608B6000F047
:1014E00079FAF7E6F00806F108023BE62A442046BE
:1014F000536843F001035360083500F06BFAE9E6E6
:10150000A919204646F0010643F001046E60C7E9C0
:101510000411C1E902CC4C60AB5000F05BFA083515
:10152000D8E6930903F13901C90038339CE7BD427D
:1015300060D0BD686B6823F0030B5E45ABEB060320
:1015400002D80F2B3FF76AAF204600F043FA002580
:10155000C0E603F15C0003F15B0CC30038E659F808
:1015600008394B4540F0968010F0030F00F1FF3032
:10157000F5D17B6823EA01037B60490099423FF67D
:10158000C4AE19B9C1E649000EF1040E1942FAD0F1
:1015900070466BE603F1100BD4E69A104FF0010889
:1015A0007B6808FA02F21A437A6070E702EB0B01DB
:1015B0004942C1F30B0A514620460193009200F0C4
:1015C0009BFA431CDDE900237FF4F4AE9A46F4E66F
:1015D000542B26D8130B03F16F01C9006E3343E778
:1015E000B3F5AA7F26D8F30B03F1780003F1770C4B
:1015F000C300EDE5D9F804305B44C9F80430B4E623
:10160000CAF30B0000287FF4B0AEBD6808EB0B03F3
:1016100043F001036B60F4E61546F2E601235360E4
:1016200092E7B3F5AA7F21D8D30B03F17801C90063
:10163000773319E740F25452934221D8B30C03F1A7
:101640007D0003F17C0CC300C2E5083B9B44ABEB7F
:10165000020B4FF0000AB0E605F10801204604F045
:10166000D7FABD68D9F804106B68CAE640F2545145
:101670008B420BD8930C03F17D01C9007C33F3E658
:101680004FF47E737F204FF07E0CA1E54FF47E7106
:101690007E23E9E67B6870E7032A10B517D940EA94
:1016A000010C1CF0030F04460B4623D119462046BB
:1016B000D1F800E0D0F800C0F44504F1040403F1CF
:1016C000040317D1043A032A20461946EED8541EC3
:1016D000A2B100F1FF3C013901E0C3180CD01CF8A5
:1016E00001EF11F8012F9645A4EB0C03F5D0AEEBFA
:1016F000020010BD541EECE7184610BD104610BD88
:10170000844641EA000313F003036DD1403A41D30C
:1017100051F8043B40F8043B51F8043B40F8043BCB
:1017200051F8043B40F8043B51F8043B40F8043BBB
:1017300051F8043B40F8043B51F8043B40F8043BAB
:1017400051F8043B40F8043B51F8043B40F8043B9B
:1017500051F8043B40F8043B51F8043B40F8043B8B
:1017600051F8043B40F8043B51F8043B40F8043B7B
:1017700051F8043B40F8043B51F8043B40F8043B6B
:1017800051F8043B40F8043B51F8043B40F8043B5B
:10179000403ABDD2303211D351F8043B40F8043BFB
:1017A00051F8043B40F8043B51F8043B40F8043B3B
:1017B00051F8043B40F8043B103AEDD20C3205D30B
:1017C00051F8043B40F8043B043AF9D2043208D003
:1017D000D2071CBF11F8013B00F8013B01D30B8875
:1017E00003806046704700BF082A13D38B078DD053
:1017F00010F003038AD0C3F10403D21ADB071CBF25
:1018000011F8013B00F8013B80D331F8023B20F88E
:10181000023B7BE7043AD9D3013A11F8013B00F8C7
:10182000013BF9D20B7803704B7843708B7883704F
:101830006046704788420DD98B1883420AD900EB65
:10184000020CBAB1624613F801CD02F801CD9942FB
:10185000F9D170470F2A0ED8034602F1FF3C4AB176
:101860000CF1010C013B8C4411F8012B03F8012F02
:101870006145F9D1704740EA01039B0750D1A2F1BD
:10188000100370B501F1200C23F00F0501F1100ECB
:1018900000F11004AC441B095EF8105C44F8105CC5
:1018A0005EF80C5C44F80C5C5EF8085C44F8085C7C
:1018B0005EF8045C44F8045C0EF1100EE64504F199
:1018C0001004E9D1013312F00C0F01EB031102F007
:1018D0000F0400EB031327D0043C24F003064FEA67
:1018E000940C1E441C1F8E465EF8045B44F8045F93
:1018F000B442F9D10CF1010402F0030203EB8403BA
:1019000001EB840102F1FF3C4AB10CF1010C013BF7
:101910008C4411F8012B03F8012F6145F9D170BDFA
:1019200002F1FF3C03469BE72246EBE7830730B515
:1019300048D0541E002A3FD0CAB2034601E0013C01
:101940003AD303F8012B9D07F9D1032C2DD9CDB241
:1019500045EA05250F2C45EA054536D9A4F11002C4
:1019600022F00F0C03F1200EE6444FEA121C03F1A3
:10197000100242E9045542E9025510327245F8D18D
:101980000CF1010214F00C0F03EB021204F00F0C27
:1019900013D0ACF1040323F003030433134442F8DF
:1019A000045B9342FBD10CF003042CB1CAB21C447B
:1019B00003F8012B9C42FBD130BD64461346002C3A
:1019C000F4D1F9E703461446BFE71A46A446E0E718
:1019D000704700BF704700BF0EB400B582B003ABC4
:1019E000816853F8042B019301F0C4FB02B05DF849
:1019F00004EB03B0704700BF0FB400B5074983B0D4
:101A000004AB086853F8042B8168019301F0B2FB22
:101A100003B05DF804EB04B0704700BF0000002085
:101A2000826805F04BBA00BF024B01461868826815
:101A300005F044BA0000002070B5044688B008469E
:101A40000D4600F0FDF8154EA26B059001214318DC
:101A5000CDE9066104A8022104950393A5680190CD
:101A60000291B2B1B5F90C309A0406D46A6E43F40F
:101A7000005322F40052AB816A6601AA294620462F
:101A800004F0CCF9002814BF4FF0FF300A2008B052
:101A900070BD204604F04CF8E4E700BF046501087F
:101AA000024B01461868FFF7C7BF00BF00000020C7
:101AB000024B1B680022C3E92A0270470000002085
:101AC0000A4A0B4910B414680A4AD4E92A0300FBF5
:101AD00002F201FB0322A0FB0101431C42EB0100C7
:101AE000C4E92A3020F0004010BC704700000020FC
:101AF0002D7F954C2DF4515838B5074D00220446E2
:101B000008462A6008F0EAFA431C00D038BD2B686A
:101B1000002BFBD0236038BD580A002008B410B554
:101B2000002A9DB0044633DB4FF40273ADF8143045
:101B30000291069120AB17D0013A4FF6FF71049243
:101B40000792ADF816101F9A019302A900F0E6F86B
:101B5000421C01DA8B232360029B00221A701DB005
:101B6000BDE8104001B070474FF6FF710492079234
:101B7000ADF816101F9A019302A900F0CFF8431C8C
:101B800001DA8B2323601DB0BDE8104001B070471F
:101B90008B2303604FF0FF30F5E700BF0CB410B5A6
:101BA0001F4B00291C689CB035DB4FF40273ADF865
:101BB0001430029006901FAB18D001394FF6FF7217
:101BC00004910791ADF8162002A91E9A01932046B0
:101BD00000F0A4F8421C01DA8B232360029B002250
:101BE0001A701CB0BDE8104002B070474FF6FF728B
:101BF00004910791ADF8162002A91E9A0193204680
:101C000000F08CF8431C01DA8B2323601CB0BDE884
:101C1000104002B070478B2323604FF0FF30F5E790
:101C20000000002000000000000000000000000094
:101C300000000000000000000000000000000000A4
:101C400090F800F06DE9024520F007016FF0000CFC
:101C500010F0070491F820F040F049804FF00004A4
:101C60006FF00700D1E9002391F840F000F108007F
:101C700082FA4CF2A4FA8CF283FA4CF3A2FA8CF3B7
:101C80004BBBD1E9022382FA4CF200F10800A4FA1E
:101C90008CF283FA4CF3A2FA8CF3E3B9D1E9042372
:101CA00082FA4CF200F10800A4FA8CF283FA4CF3A9
:101CB000A2FA8CF37BB9D1E9062301F1200182FA63
:101CC0004CF200F10800A4FA8CF283FA4CF3A2FA69
:101CD0008CF3002BC6D0002A04BF04301A4612BA77
:101CE000B2FA82F2FDE8024500EBD2007047D1E97A
:101CF000002304F00305C4F100004FEAC50514F009
:101D0000040F91F840F00CFA05F562EA05021CBFD9
:101D100063EA050362464FF00004A9E72DE9F04F9E
:101D2000BFB0884691460D930C9004F077FA036893
:101D300014931846FFF784FFB8F80C301390180678
:101D400004D5D8F81030002B00F0CA860023CDE966
:101D500022330F9312931593099300240023CDE9A6
:101D600010342EAA2192924699F80030002B00F0F0
:101D700080814C4604E014F8013F002B00F0C58040
:101D8000252BF8D1B4EB090540F0C3802378002B54
:101D900000F06F8100234FF0FF3265788DF86730D7
:101DA00004F10109184608920A939B4609F10109BA
:101DB000A5F12002582A00F2D380DFE812F0530286
:101DC000D100D1004E02D100D100D100D100D1000C
:101DD000D10001024902D1000C021102D1004402DB
:101DE000590059005900590059005900590059002B
:101DF0005900D100D100D100D100D100D100D100D3
:101E0000D100D100D1002B026401D1006401D100C6
:101E1000D100D100D1005B02D100D1007800D10007
:101E2000D100D100D100D1006800D100D1006E02F4
:101E3000D100D100D100D100D100D100D100D1001A
:101E4000D100D1006002C4016401640164018F0209
:101E5000C401D100D1000303D100ED027A00D20207
:101E6000CD02D100AB02D1006A00D100D1009402B2
:101E7000A5F13002002119F8015B01EB810102EBB1
:101E80004101A5F13002092AF5D90A9190E74BF0FA
:101E9000100B1BF0200100F048810D9B073323F04D
:101EA0000703596853F8080B0D9301230EE04BF01C
:101EB000100B1BF0200100F02B810D9B073323F04A
:101EC0000703596853F8080B0D93002300248DF87D
:101ED0006740089A561C00F084822BF08006069614
:101EE00050EA010640F07B82002A40F00383002B79
:101EF00040F024851BF001030B9300F09085302304
:101F00008DF8B7300DF1B70690E2B4EB090500F09B
:101F1000B080239B2B442393229B0133072BCAE9D8
:101F20000095229305DC0AF1080A099B2B440993CA
:101F30002CE70C9821AA414605F0C0FB18B90DF119
:101F4000B80AF2E7B846B8F80C3013F0400F099B16
:101F500018BF4FF0FF33099309983FB0BDE8F08FE9
:101F6000002B40F0C587002D00F0838000238DF802
:101F7000673001238DF8905007930B9324AE002314
:101F8000CDF818B008930E93069B13F0020302D00D
:101F9000079A02320792069A12F0840B05D10A9A28
:101FA0000799571A002F00F39883239C9DF8672008
:101FB0008AB1229A0DF1670101320134CAF800108A
:101FC000072A4FF0010123942292CAF8041000F36B
:101FD000CD830AF1080A83B1229B1AAA0133023485
:101FE000CAF80020072B4FF0020223942293CAF86C
:101FF000042000F3C9830AF1080ABBF1800F00F046
:102000009582089B0B9AA3EB020BBBF1000F00F328
:10201000CF82069BDF0500F112820B9BCAF80430C9
:102020001C44229BCAF800600133072B239422939F
:1020300000F347830AF1080A069B5B0705D50A9B54
:10204000079A9D1A002D00F3AB83DDE90932079949
:102050008A42ACBF9B185B180993002C40F0E282C7
:102060000023229399F800300DF1B80A002B7FF479
:1020700080AE239B002B3FF466AF0C9821AA41460B
:1020800005F01CFB5FE7002B40F0D4870D9B073366
:1020900023F00702F2E80234CDE91034DDE9103410
:1020A00024F000440D921E4618462146B54B4FF0D1
:1020B000FF3207F057FB002840F0B884B14B3046A0
:1020C00021464FF0FF32FEF7F7FC002840F0AE84C7
:1020D000DDE9100100220023FEF7E4FC002840F0B7
:1020E000E0869DF86740A84E2BF080030693A74B2F
:1020F0000022472DC8BF1E460323CDE907320B93AC
:102100000E92002C3FF440AF079B013307933BE74F
:102110001BF0100348D11BF0400145D00D9A52F836
:10212000040B0D92194680B2D0E61BF0100341D18A
:102130001BF040013ED00D9A52F8040B0D92194647
:1021400080B20123C2E6002B40F07C871BF0200FF9
:102150000D9B68D0073323F007031A465B6852F8DB
:10216000080B0D921946002BC0F23084089B0133F6
:1021700000F06B852BF08003069350EA01039DF875
:10218000674000F0D783DDF818B00A2871F100032A
:1021900080F0FC84303001238DF8B700CDF818B002
:1021A0000B930DF1B70641E10D9B53F8040B0D9312
:1021B0000B468BE60D9B53F8040B0D93012385E62C
:1021C0000D9A52F8041B0A91002980F223840A997F
:1021D0000D9249420A9199F800504BF0040BE5E545
:1021E000494611F8015B2A2D00F0A387A5F13002C2
:1021F000092A894698BF002100F2208719F8015B5F
:1022000001EB810102EB4101A5F13002092AF5D968
:102210000891CDE5002B40F019874BF0100B1BF017
:10222000200F0D9B96D153F8040B0D931BF0100F4C
:1022300040F0C7831BF0400F00F0C38340F3C03170
:102240000B4600B28FE799F800504BF0800BADE5DC
:1022500099F8005001232B20A8E599F800504BF085
:10226000010BA3E599F8005000287FF49FAD0123EE
:1022700020209BE599F800504BF0080B96E50D9B4C
:1022800000228DF8672053F8042B0D9301238DF85D
:10229000902007930B9324AE71E6002B40F0DA8672
:1022A0003B4B12931BF0200125D00D9B073323F0ED
:1022B0000703596853F8080B0D931BF0010F0BD05F
:1022C00050EA010308D030238DF868308DF869504A
:1022D0004BF0020B0223F9E50223F7E599F80050D1
:1022E0004BF0400B62E5002B40F0A086294B129387
:1022F0001BF02001D9D11BF0100340F05D831BF0CF
:10230000400100F059830D9A52F8040B0D921946C2
:1023100080B2D2E70D9C089B54F8046B00278DF81F
:102320006770002E00F0C8845A1C00F0E9831A463A
:102330003946304604F03CF8002800F05F86831BE5
:102340000B9323EAE3730D9408979DF86740CDF84B
:1023500018B007930E97D4E699F800504BF0200B75
:1023600024E50D9B53F8040B0D93302378258DF84D
:102370006830084B12934BF0020B8DF86950002126
:102380000223A3E5FFFFEF7FFC730108007401083F
:10239000207401080C740108002B40F05F861BF0CC
:1023A000200F40F087831BF0100F40F0E1831BF0FB
:1023B000400F00F0DD830D9B099953F8042B0D931A
:1023C0001180D1E499F800506C2D03BF99F80150A9
:1023D0004BF0200B09F101094BF0100BE6E4DDF89E
:1023E00018B0012B3FF4D1AE022B00F08B802EAE43
:1023F00000F00703C00840EA4170C908303350EAD2
:102400000107324606F8013DF2D11BF0010F00F042
:102410008780302B00F084803023023A06F8013C9C
:102420002EAB9B1ACDF818B00B931646089B0B9A4F
:102430009342B8BF1346079300230E9361E6652DC0
:1024400040F3F980DDE9100100220023FEF720FBB4
:10245000002800F0DE81229BC14ACAF80020013327
:1024600001340122072B23942293CAF8042000F39D
:10247000FC830AF1080A1B9B0F9A934203DB069B1D
:10248000D8077FF5D9AD139B149A1C44CAE90023E1
:10249000229B23940133072B229300F300840AF13B
:1024A000080A0F9B5D1E002D7FF7C6AD102D229BE5
:1024B000AC4F40F3CE83DDF830B0102605E00AF1D2
:1024C000080A103D102D40F3C48301331034072B4C
:1024D000CAE90076CDE92234F1DD21AA4146584609
:1024E00005F0ECF800287FF42EADDDE922340DF183
:1024F000B80AE6E7012B00F04C85022BDDF818B096
:102500007FF475AF129A2EAE00F00F030009D35C72
:1025100006F8013D40EA0170090950EA0103F3D1D0
:102520002EAB9B1BCDF818B00B937FE70A9B079A45
:10253000A3EB020BBBF1000F7FF763ADBBF1100FF4
:10254000229A884F26DD214610230C9C06E0ABF131
:10255000100BBBF1100F0AF1080A1ADD013210311D
:10256000072ACAE90073CDE92221F0DD21AA4146FC
:1025700020460DF1B80A05F0A1F800287FF4E3AC7D
:10258000ABF1100BBBF1100FDDE922214FF010036E
:10259000E4DC0C4601325C44072ACDE92224CAF867
:1025A0000070CAF804B000F36D830AF1080A28E548
:1025B000BBF1100F229A6B4F26DD214610230C9C95
:1025C00006E0ABF1100BBBF1100F0AF1080A1ADD9F
:1025D00001321031072ACAE90073CDE92221F0DD6A
:1025E00021AA4146204605F069F800287FF4ABACEB
:1025F000ABF1100BBBF1100FDDE922210DF1B80A90
:102600004FF01003E4DC0C4601325C44072ACDE9AC
:102610002224CAF80070CAF804B000F3C0810AF19D
:10262000080AF6E40C9821AA414605F047F800286C
:102630003FF416AD87E40F9B012B40F35D81229D93
:10264000CAF80060013501340123072D2394229537
:10265000CAF8043000F3C4810AF1080A139B149AE3
:1026600001351C44072DCAE90023CDE9225400F3AB
:10267000C4810AF1080ADDE9100100220023FEF7F7
:1026800007FA002840F05F810F9B0135013B0136BE
:102690001C44072DCAF800602295CAF80430239420
:1026A00000F33B810AF1080A159BCAF80430013592
:1026B0001C44072D1DABCDE92254CAF800307FF72A
:1026C000B9AC0C9821AA414604F0F8FF00287FF429
:1026D0003AAC239C0DF1B80AAEE4102FDDE92221BB
:1026E0002FDDCDE916354B460C9DB14610243E46F4
:1026F00008464746984604E0103E102E0AF1080AA4
:1027000017DD0132184B1030072ACAE90034CDE931
:102710002220F1DD21AA394628460DF1B80A04F03D
:10272000CDFF00287FF40EAC103E102EDDE92220F4
:10273000E7DCDDE9163501464046B84637464E46E9
:10274000814601327C18072A0749CAF80470CDE98E
:102750002224CAF8001000F335820AF1080A25E4A1
:10276000C05D0108684C0108584C01080C9816938C
:1027700021AA414604F0A2FF00287FF4E4AB239C89
:10278000169B0DF1B80A26E40C9821AA414604F0E4
:1027900095FF00287FF4D7AB239C0DF1B80A2CE4F9
:1027A000102D229B1FDD0C9F102604E0103D102DE4
:1027B0000AF1080A17DD01339A4A1034072BCAE9D7
:1027C0000026CDE92234F1DD21AA414638460DF13B
:1027D000B80A04F073FF00287FF4B5AB103D102D4C
:1027E000DDE92234E7DC01338E4ACAF804502C4478
:1027F000072BCDE92234CAF800207FF726AC0C98CD
:1028000021AA414604F05AFF00287FF49CAB239C88
:102810001BE41B99002940F3E481DDE90E379F4258
:10282000A8BF1F46002F0BDD229B01333C44072B22
:10283000CAE900672394229300F3C2830AF1080ACD
:102840000E9D002FA8BFED1B002D00F369811B9D7D
:102850000F9B9D4280F23881139B149A1C44CAE955
:102860000023229B23940133072B229300F31E8322
:102870000AF1080A0F9B0E9A5D1B9F1AAF42A8BF70
:102880002F46002F0EDD229BCAF804700133164438
:102890003C44072BCAF800602394229300F39F83E3
:1028A0000AF1080A002FA8BFED1B002D7FF7C4AB6B
:1028B000102D229B5C4F40F3CC81DDF830B0102608
:1028C00005E00AF1080A103D102D40F3C2810133E2
:1028D0001034072BCAE90076CDE92234F1DD21AAB4
:1028E0004146584604F0EAFE00287FF42CABDDE9AF
:1028F00022340DF1B80AE6E7069BDA073FF59FAEF2
:10290000229DCAF80060013501340123072D23946C
:102910002295CAF804307FF7C5AE0C9821AA41462B
:1029200004F0CCFE00287FF40EABDDE922540DF15B
:10293000B80AB9E6089B002B40F02B8300230893CC
:102940000B932EAE72E50F9B5E1E002E7FF7ACAE92
:10295000102E354F40F3F081CDF820904FF0100B42
:10296000C146DDF8308005E00AF1080A103E102E5D
:1029700040F3DF8101351034072DCAE9007BCDE932
:102980002254F1DD21AA4946404604F097FE002872
:1029900040F06883DDE922540DF1B80AE6E70C98AF
:1029A00021AA414604F08AFE00287FF4CCAA239C89
:1029B0000DF1B80AFFF72DBB0D9B53F8040B0D93D7
:1029C0007BE4C1170B46002BBFF6D0AB40424FF063
:1029D0002D0461EB41018DF867400123FFF779BABF
:1029E0000C9821AA414604F069FE00287FF4ABAAA6
:1029F000DDE922540DF1B80A30E60C9821AA4146CF
:102A000004F05CFE00287FF49EAADDE922540DF15B
:102A1000B80A30E699F800500D92FFF7C7B92EAE0C
:102A200004E500BF584C0108684C0108DDE91001BD
:102A300002460B4606F096FE002840F03C83089BB9
:102A4000013325F020030B9300F0C682472B00F0E2
:102A50009780DDE910124BF48073171E0693C0F2C5
:102A60003F82109B079300231693662D00F0708120
:102A7000462D00F06D810B9B079A0C98452B1FA9E2
:102A800008BF089B04911CA903911BA90CBF5C1CE7
:102A9000089C029102213B460194009101F02EFF17
:102AA000672D064640F082821BF0010F00F09881EE
:102AB000344464E10D9B099853F8041B0D93C2172D
:102AC000C1E90002FFF750B9069BD9073FF5C4AE34
:102AD000DDE90E239F1A5D1BAF42A8BF2F46E1E63A
:102AE0000C984021FEF72EFBC8F80000C8F8100033
:102AF000002800F02D834023C8F81430FFF726B9D2
:102B000030460D940897CDF818B0FFF799F820EAF1
:102B1000E0739DF867400B9007930E97FFF7F1BAAB
:102B2000102D229BAB4F40F3AF813A4608964746A3
:102B30000C9E4FF0100B904605E00AF1080A103D7C
:102B4000102D40F39D8101331034072BCAE9008B0F
:102B5000CDE92234F1DD21AA3946304604F0AEFD3C
:102B600000287FF4EFA9DDE922340DF1B80AE6E789
:102B70000D9B099953F8042B11600D93FFF7F4B8DE
:102B8000089B002B08BF0123089362E72EAE069531
:102B90000A22002307460D46FEF702F9303206F8F6
:102BA000012D0023384629460A22FEF7F9F80A2F9C
:102BB00075F10003ECD22EAB9B1B069D0B93CDF859
:102BC00018B033E40C98169321AA414604F076FD20
:102BD00000287FF4B8A9239C169B0DF1B80AFFF7D3
:102BE000E5B9229B7C4ACAF8002001330134012256
:102BF000072B23942293CAF8042000F364810AF17E
:102C0000080A002961D1069B0F9A03F001031343C0
:102C10003FF412AA139B14991A19CAE90013229BB4
:102C200023920133072B229300F366810AF1080AED
:102C30000F99CAF8006001338C18072BCDE92234B4
:102C4000CAF804107FF7F6A93BE59DF86740FFF747
:102C50009CBA01332C44072BCAF80070CAF8045000
:102C6000CDE922347FF7E6A92BE50C9821AA41464D
:102C700004F024FD00287FF466A9239C0DF1B80A16
:102C8000FFF7F9BB0C9821AA414604F017FD002874
:102C90007FF459A9239C0DF1B80AFFF7B2B90C983B
:102CA00021AA414604F00AFD00287FF44CA9239C88
:102CB0000DF1B80AFFF7F5BB062B28BF0623474ED8
:102CC0000B930D940793FFF75AB9139B14981A1995
:102CD000CAE90003229B23920133072B229300F3BE
:102CE0000B810AF1080A0029A2DA4D421031394F4E
:102CF00080F2BB81DDF830B0102405E00AF1080A4B
:102D0000103D102D40F3B18101331032072BCAE979
:102D10000074CDE92232F1DD21AA4146584604F083
:102D2000CDFC00287FF40FA9DDE922320DF1B80AAD
:102D3000E6E7C846DDF82090CAF800700135344453
:102D4000072DCDE92254CAF804607FF7ABACE4E567
:102D50001FA904911CA903911BA9089C029103219E
:102D60003B460194079A0C98009101F0C7FD064676
:102D700004193378302B00F090811B9B1C4407987A
:102D8000394600220023FDF783FE002840F0AE8084
:102D90001F9BA34206D230215A1C1F9219701F9B01
:102DA0009C42F9D89B1B0F930B9B472B1FD0662D82
:102DB00040F0D6811B9B0E93002B0BF0010B40F3D0
:102DC000EC8008995BEA010240F098810E9B079322
:102DD0000B9321E0684C0108C05D010834740108C0
:102DE0001F9B9B1B0F930B9B472B40F0B9811B9B99
:102DF0000E93D91C1BDB089A934218DCDDE90E32D6
:102E00009342C0F207811BF0010F40F06E8123EA6C
:102E1000E37207920B936725169B002B00F0CA8084
:102E20002D238DF8673000230893FFF76DB9023D1D
:102E30000E9A8DF87450531E002B1B93B6BFC2F12F
:102E400001032B222D22092B8DF875206EDC3033E7
:102E50008DF8773030238DF87630042315930F9A50
:102E6000159B012A13440B9340F336810B9B139A55
:102E700013440B9323EAE373079300230E93CBE7EA
:102E80004246089EB846174601332C44072BCDE92D
:102E90002234CAF80070CAF804503BDC0AF1080A70
:102EA000D5E42D248DF86740FFF71DB90C9821AAB1
:102EB000414604F003FC00287FF445A81B9D239C99
:102EC0000DF1B80AD6E40C9821AA414604F0F6FBAD
:102ED00000287FF438A81B99239C0DF1B80A90E6CE
:102EE0002D23079102F100471693BEE5234659E7CB
:102EF0008DF86700FFF737B80C9821AA414604F017
:102F0000DDFB00287FF41FA8DDE922321B990DF1BB
:102F1000B80AE8E60C9821AA414604F0CFFB002845
:102F20007FF411A8239C0DF1B80A90E40DF18304FD
:102F30008D4F2246104687FB0321DA17C2EBA10210
:102F400002EB8201A3EB4101303100F8011C19466C
:102F50006329134600F1FF32ECDC3033D9B2831E13
:102F60009C4202F8011C40F2F08013460DF17602FB
:102F700001E013F8011B02F8011B9C42F9D10DF18D
:102F800085030DF176021B1A13441DAA9B1A159393
:102F900065E7DDF818B0FFF7FDB8089A5BEA0203B1
:102FA00040F0B480012307930B9335E7472D3FF49E
:102FB0007BAD7DE5169B9DF867400893FFF7A1B8B0
:102FC0000C9821AA414604F079FB00287EF4BBAF9F
:102FD000239C0DF1B80A33E40623089339E50C98D5
:102FE00021AA414604F06AFB00287EF4ACAF1B9D89
:102FF0000F9B239C5D1B0DF1B80A53E4089B0D94B5
:10300000CDF818B09DF8674007930B9308900E9089
:10301000FFF777B8139A0F9B13440E9A0B93002A6D
:103020007CDD23EAE37307936725F5E68DF86700F7
:10303000FFF75CB98DF86700FFF728B80022089207
:10304000FEF7B6BE8DF86700FFF780B88DF8670011
:10305000FFF7E3B88DF86700FFF722B98DF8670036
:10306000FFF79DB9C846FEF76EBF01332A44072B10
:10307000CDE92232CAF80070CAF804507FF7D6AD05
:103080000C9821AA414604F019FB00287EF45BAF9E
:10309000DDE922320DF1B80ACAE507983946002267
:1030A0000023FDF7F5FC00287FF467AE089BC3F111
:1030B00001031B9362E6119B2C4E002BB8BF2D24FD
:1030C0002BF080030693A8BF9DF86740284BB8BF3C
:1030D0008DF86740FFF70CB81BF001020E927FF4E9
:1030E000C5AE23EAE373079396E60E9B139A134447
:1030F0000B9323EAE373079367258DE6139A134432
:10310000194421EAE1730B91079385E6139B013380
:103110001A4422EAE2730B9207937DE60E9B0B9A08
:10312000C3F101031A4422EAE2730B920793672565
:1031300072E60D9A99F80150894652F8041B0D92D7
:1031400041EAE1710891FEF731BE0223159386E64C
:103150000C9A0C2313604FF0FF330993FEF7FCBE6B
:103160001B9B0E9364E600BF6766666604740108E5
:10317000087401082DE9F04FBFB01C4688469146FF
:1031800005460C9003F04AF80268149210460D941C
:10319000FEF756FD12901DB1AB6B002B00F0328292
:1031A000B8F90C309D049AB20AD443F40053A8F83D
:1031B0000C309AB2D8F8643023F40053C8F8643065
:1031C000100740F1AB80D8F81030002B00F0A6803B
:1031D00002F01A020A2A00F0AF800023CDE9223360
:1031E0000F93139315930A9300240023CDE9103411
:1031F0002EAA2192924699F80030002B00F0988177
:103200004C4604E014F8013F002B00F0E180252B30
:10321000F8D1B4EB090540F0DF802378002B00F0F3
:10322000878100234FF0FF32CDE9082365788DF8C0
:10323000673004F1010918469B4609F10109A5F11F
:103240002002582A00F2EB80DFE812F06F02E9005A
:10325000E9006A02E900E900E900E900E900E900A3
:103260001D026502E90028022D02E90060025900F2
:103270005900590059005900590059005900590086
:10328000E900E900E900E900E900E900E900E900F6
:10329000E900E90047027C01E9007C01E900E9005E
:1032A000E900E900A602E900E9009400E900E9006C
:1032B000E900E900E9008400E900E9008502E9008D
:1032C000E900E900E900E900E900E900E900E900B6
:1032D000E9007702E0017C017C017C01AB02E001A6
:1032E000E900E900DC02E900C6029600B502B0027E
:1032F000E9000A03E9008600E900E900E902A5F116
:103300003002002119F8015B01EB810102EB410160
:10331000A5F13002092AF5D9099190E70C984146A8
:1033200001F0BAF9002841F0F380B8F80C2002F05F
:103330001A020A2A7FF451AFB8F90E30002BFFF6BB
:103340004CAF0C9823464A4641463FB0BDE8F04F8B
:1033500001F06CB94BF0100B1BF0200100F0448120
:103360000D9B073323F00703596853F8080B0D939F
:1033700001230EE04BF0100B1BF0200100F0278121
:103380000D9B073323F00703596853F8080B0D937F
:10339000002300248DF86740089A561C00F08482B0
:1033A0002BF08006069650EA010640F07B82002A48
:1033B00040F00083002B40F003851BF001030B93CA
:1033C00000F0788530238DF8B7300DF1B70690E224
:1033D000B4EB090500F0AC80239B2B442393229B84
:1033E0000133072BCAE90095229305DC0AF1080A8C
:1033F0000A9B2B440A9310E70C9821AA414604F03B
:1034000043FF18B90DF1B80AF2E7B846B8F80C3026
:103410005B0601F17D800A983FB0BDE8F08F002B7C
:1034200040F0BF87002D00F0838000238DF86730C7
:1034300001238DF8905007930B9324AE0023CDF811
:1034400018B008930E93069B13F0020302D0079A5C
:1034500002320792069A12F0840B05D1099A079955
:10346000571A002F00F39983239C9DF867208AB197
:10347000229A0DF1670101320134CAF80010072ABF
:103480004FF0010123942292CAF8041000F3CE8376
:103490000AF1080A83B1229B1AAA01330234CAF83E
:1034A0000020072B4FF0020223942293CAF8042035
:1034B00000F3CA830AF1080ABBF1800F00F096827C
:1034C000089B0B9AA3EB020BBBF1000F00F3D08219
:1034D000069BDF0500F116820B9BCAF804301C44E2
:1034E000229BCAF800600133072B2394229300F338
:1034F00048830AF1080A069B5A0705D5099B079AD3
:103500009D1A002D00F3AC83DDE9092307998A4257
:10351000ACBF9B185B180A93002C40F0E382002399
:10352000229399F800300DF1B80A002B7FF468AEB1
:10353000239B002B3FF46AAF0C9821AA414604F06C
:10354000A3FE63E7002B40F0CC870D9B073323F0ED
:103550000702F2E80234CDE91034DDE9103424F03A
:1035600000440D921E4618462146B84B4FF0FF32DC
:1035700006F0F8F8002840F0A384B44B304621460A
:103580004FF0FF32FDF798FA002840F09984DDE90A
:10359000100100220023FDF785FA002840F0E486A0
:1035A0009DF86740AA4E2BF080030693A94B00229A
:1035B000472DC8BF1E460323CDE907320B930E9259
:1035C000002C3FF440AF079B013307933BE71BF010
:1035D000100352D11BF040014FD00D9A52F8040B4A
:1035E0000D92194680B2D4E61BF010033FD11BF0B8
:1035F00040013CD00D9A52F8040B0D92194680B24E
:103600000123C6E60C9802F093FAC9E5002B40F0BE
:1036100078871BF0200F0D9B68D0073323F007033A
:103620001A465B6852F8080B0D921946002BC0F23F
:103630002D84089B013300F0F2842BF08003069365
:1036400050EA01039DF8674000F0B683DDF818B03A
:103650000A2871F1000380F0E984303001238DF8ED
:10366000B700CDF818B00B930DF1B70641E10D9BF3
:1036700053F8040B0D9301238BE60D9B53F8040BB9
:103680000D930B4685E60D9A52F8041B099100290B
:1036900080F20B8409990D924942099199F80050E2
:1036A0004BF0040BC9E5494611F8015B2A2D00F0E7
:1036B0009E87A5F13002092A894698BF002100F2B1
:1036C0000C8719F8015B01EB810102EB4101A5F1C7
:1036D0003002092AF5D90891B1E5002B40F009879D
:1036E0004BF0100B1BF0200F0D9B96D153F8040BE1
:1036F0000D931BF0100F40F0C4831BF0400F00F03F
:10370000C08340F3C0310B4600B28FE799F80050F8
:103710004BF0800B91E599F8005001232B208CE5AC
:1037200099F800504BF0010B87E599F800500028FC
:103730007FF483AD012320207FE50D9B00228DF8CF
:10374000672053F8042B0D9301238DF890200793E5
:103750000B9324AE72E6002B40F0BB863E4B1393D6
:103760001BF0200163D00D9B073323F0070359683A
:1037700053F8080B0D931BF0010F0BD050EA010317
:1037800008D030238DF868308DF869504BF0020B6B
:103790000223FEE50223FCE599F800504BF0080BEC
:1037A0004BE599F800504BF0400B46E599F8005076
:1037B0004BF0200B41E50D9B53F8040B0D93302388
:1037C00078258DF86830254B13934BF0020B8DF85C
:1037D000695000210223DCE5002B40F086861BF0B7
:1037E000200F40F012841BF0100F40F084841BF077
:1037F000400F00F080840D9B0A9953F8042B0D9321
:103800001180F8E499F800506C2D03BF99F801502D
:103810004BF0200B09F101094BF0100B0DE5002BCB
:1038200040F06B860D4B13931BF020019BD11BF0D6
:10383000100340F021831BF0400100F01D830D9A1E
:1038400052F8040B0D92194680B294E7FFFFEF7F08
:10385000FC73010800740108207401080C7401084D
:103860000D9C089B54F8046B00278DF86770002EA0
:1038700000F010845A1C00F005851A46394630467F
:1038800002F096FD002800F00C86831B0B9323EAC0
:10389000E3730D9408979DF86740CDF818B007932F
:1038A0000E978DE6DDF818B0012B3FF4D1AE022B58
:1038B00000F088802EAE00F00703C00840EA417097
:1038C000C908303350EA0107324606F8013DF2D10B
:1038D0001BF0010F00F08480302B00F0818030233A
:1038E000023A06F8013C2EAB9B1ACDF818B00B93A8
:1038F0001646089B0B9A9342B8BF134607930023C2
:103900000E935DE6652D40F3F680DDE9100100229F
:103910000023FDF7BDF8002800F0DB81229BC04AA0
:10392000CAF80020013301340122072B239422938B
:10393000CAF8042000F350840AF1080A1B9B0F9A6E
:10394000934280F2AD82129B149A1C44CAE9002370
:10395000229B23940133072B229300F38F830AF1D8
:10396000080A0F9B5D1E002D7FF7C5AD102D229B11
:10397000AC4F40F32584DDF830B0102605E00AF1A5
:10398000080A103D102D40F31B8401331034072B1F
:10399000CAE90076CDE92234F1DD21AA4146584634
:1039A00004F072FC00287FF431ADDDE922340DF122
:1039B000B80AE6E7012B00F02585022BDDF818B0E8
:1039C0007FF478AF139A2EAE00F00F030009D35C9A
:1039D00006F8013D40EA0170090950EA0103F3D1FC
:1039E0002EAB9B1BCDF818B00B9382E7099B079A6F
:1039F000A3EB020BBBF1000F7FF762ADBBF1100F21
:103A0000229A884F26DD214610230C9C06E0ABF15C
:103A1000100BBBF1100F0AF1080A1ADD0132103148
:103A2000072ACAE90073CDE92221F0DD21AA414627
:103A300020460DF1B80A04F027FC00287FF4E6AC1C
:103A4000ABF1100BBBF1100FDDE922214FF0100399
:103A5000E4DC0C4601325C44072ACDE92224CAF892
:103A60000070CAF804B000F3C4830AF1080A27E51D
:103A7000BBF1100F229A6B4F26DD214610230C9CC0
:103A800006E0ABF1100BBBF1100F0AF1080A1ADDCA
:103A900001321031072ACAE90073CDE92221F0DD95
:103AA00021AA4146204604F0EFFB00287FF4AEAC8B
:103AB000ABF1100BBBF1100FDDE922210DF1B80ABB
:103AC0004FF01003E4DC0C4601325C44072ACDE9D8
:103AD0002224CAF80070CAF804B000F3C0810AF1C9
:103AE000080AF5E40C9821AA414604F0CDFB002811
:103AF0003FF415AD8AE40F9B012B40F36681229DB4
:103B0000CAF80060013501340123072D2394229562
:103B1000CAF8043000F3F7820AF1080A129B149ADB
:103B200001351C44072DCAE90023CDE9225400F3D6
:103B3000F7820AF1080ADDE9100100220023FCF7F0
:103B4000A7FF002840F05F810F9B0135013B013644
:103B50001C44072DCAF800602295CAF8043023944B
:103B600000F344810AF1080A159BCAF804300135B4
:103B70001C44072D1DABCDE92254CAF800307FF755
:103B8000B8AC0C9821AA414604F07EFB00287FF4D3
:103B90003DAC239C0DF1B80AADE4102FDDE92221E4
:103BA0002FDDCDE916354B460C9DB14610243E461F
:103BB00008464746984604E0103E102E0AF1080ACF
:103BC00017DD0132184B1030072ACAE90034CDE95D
:103BD0002220F1DD21AA394628460DF1B80A04F069
:103BE00053FB00287FF411AC103E102EDDE922209B
:103BF000E7DCDDE9163501464046B84637464E4615
:103C0000814601327C18072A0749CAF80470CDE9B9
:103C10002224CAF8001000F3C4820AF1080A24E43E
:103C2000C05D0108884C0108784C01080C98169377
:103C300021AA414604F028FB00287FF4E7AB239C2F
:103C4000169B0DF1B80A25E40C9821AA414604F010
:103C50001BFB00287FF4DAAB239C0DF1B80A2BE4A0
:103C6000102D229B1FDD0C9F102604E0103D102D0F
:103C70000AF1080A17DD01338F4A1034072BCAE90D
:103C80000026CDE92234F1DD21AA414638460DF166
:103C9000B80A04F0F9FA00287FF4B8AB103D102DF3
:103CA000DDE92234E7DC0133834ACAF804502C44AE
:103CB000072BCDE92234CAF800207FF725AC0C98F9
:103CC00021AA414604F0E0FA00287FF49FAB239C30
:103CD0001AE41B99002940F33082DDE90E379F4238
:103CE000A8BF1F46002F0BDD229B01333C44072B4E
:103CF000CAE900672394229300F3B5830AF1080A06
:103D00000E9D002FA8BFED1B002D00F3CC811B9D45
:103D10000F9B9D4280F2A681129B149A1C44CAE913
:103D20000023229B23940133072B229300F38E83DD
:103D30000AF1080A0F9B0E9A5D1B9F1AAF42A8BF9B
:103D40002F46002F0EDD229BCAF804700133164463
:103D50003C44072BCAF800602394229300F392831B
:103D60000AF1080A002FA8BFED1B002D7FF7C3AB97
:103D7000102D229B514F40F32382DDF830B01026E6
:103D800005E00AF1080A103D102D40F319820133B5
:103D90001034072BCAE90076CDE92234F1DD21AADF
:103DA0004146584604F070FA00287FF42FABDDE955
:103DB00022340DF1B80AE6E7089B002B40F022837D
:103DC000002308930B932EAE93E5069BD9073FF58E
:103DD00096AE229DCAF80060013501340123072DFB
:103DE00023942295CAF804307FF7BCAE0C9821AA20
:103DF000414604F049FA00287FF408ABDDE922547B
:103E00000DF1B80AB0E60F9B5E1E002E7FF7ACAE38
:103E1000102E2A4F40F34982CDF820904FF0100B1E
:103E2000C146DDF8308005E00AF1080A103E102E88
:103E300040F3388201351034072DCAE9007BCDE903
:103E40002254F1DD21AA4946404604F01DFA00281B
:103E500040F05B83DDE922540DF1B80AE6E70C98E7
:103E600021AA414604F010FA00287FF4CFAA239C2F
:103E70000DF1B80AFFF72CBB0D9B53F8040B0D9303
:103E800079E4C1170B46002BBFF6D3AB40424FF08D
:103E90002D0461EB41018DF867400123FFF77CBAE7
:103EA000069BDD077FF527AB4DE599F800500D9295
:103EB000FFF7C3B92EAE1CE5784C0108884C010809
:103EC000DDE9100102460B4605F04CFC002840F0ED
:103ED0004E83089B013325F020030B9300F0CF8223
:103EE000472B00F06F82DDE910124BF48073171E30
:103EF0000693C0F23E82109B079300231693662D13
:103F000000F0DF81462D00F0DC810B9B079A0C98B6
:103F1000452B1FA908BF089B04911CA903911BA94D
:103F20000CBF5C1C089C029102213B46019400914D
:103F300000F0E4FC672D064640F02E821BF0010FD6
:103F400040F02D821F9B9B1B0F930B9B472B40F038
:103F50005A831B9B0E93D91C03DB089A934240F3B0
:103F60006782023D0E9A8DF87450531E002B1B93EE
:103F7000B6BFC2F101032B222D22092B8DF875202B
:103F800040F3E3820DF18304BA4F2246104687FBCB
:103F90000321DA17C2EBA10202EB8201A3EB41017C
:103FA000303100F8011C19466329134600F1FF3235
:103FB000ECDC3033D9B2831E9C4202F8011C40F283
:103FC000138313460DF1760201E013F8011B02F88A
:103FD000011B9C42F9D10DF185030DF176021B1AEC
:103FE00013441DAA9B1A15930F9A159B012A13447B
:103FF0000B9340F3B3820B9B129A13440B9323EA67
:10400000E373079300230E9393E10D9B0A9853F8F3
:10401000041B0D93C217C1E90002FFF7ECB80A2890
:1040200071F100039DF86740FFF417AB2EAE0695C3
:104030000A22002307460D46FCF7B2FE303206F88E
:10404000012D0023384629460A22FCF7A9FE0A2F33
:1040500075F10003ECD22EAB9B1B069D0B93CDF8A4
:1040600018B046E4069BD8073FF556AEDDE90E23AF
:104070009F1A5D1BAF42A8BF2F4673E60C9821AA7A
:10408000414604F001F900287FF4C0A9239C0DF1FA
:10409000B80A66E4062B28BF0623774E0B930D94CF
:1040A0000793FFF7CBB9102D229B744F40F34F813C
:1040B0003A46089647460C9E4FF0100B904605E096
:1040C0000AF1080A103D102D40F33D8101331034F0
:1040D000072BCAE9008BCDE92234F1DD21AA39464C
:1040E000304604F0D1F800287FF48FA9DDE92234AE
:1040F0000DF1B80AE6E70D9B0A9953F8042B1160FD
:104100000D93FFF778B80C9821AA414604F0BCF84B
:1041100000287FF47BA9DDE922540DF1B80AFDE403
:104120000C9821AA414604F0AFF800287FF46EA94C
:10413000DDE922540DF1B80AFDE4229B504ACAF889
:104140000020013301340122072B23942293CAF863
:10415000042000F314810AF1080A002956D1069BB5
:104160000F9A03F0010313433FF4C5A9129B14995E
:104170001A19CAE90013229B23920133072B2293B9
:1041800000F326810AF1080A0F99CAF8006001338A
:104190008C18072BCDE92234CAF804107FF7A9A99F
:1041A000EFE40C98169321AA414604F06DF800281C
:1041B0007FF42CA9239C169B0DF1B80AFFF755B983
:1041C00001332C44072BCAF80070CAF80450CDE91B
:1041D00022347FF78EA9D4E40C9821AA414604F03A
:1041E00053F800287FF412A9239C0DF1B80AFFF7B9
:1041F000A5BB0C9821AA414604F046F800287FF49C
:1042000005A9239C0DF1B80AFFF75AB9129B14981F
:104210001A19CAE90003229B23920133072B229328
:1042200000F3D6800AF1080A0029ADDA4D421031B8
:10423000124F80F27281DDF830B0102405E00AF1EF
:10424000080A103D102D40F3688101331032072B0E
:10425000CAE90074CDE92232F1DD21AA414658466F
:1042600004F012F800287FF4D1A8DDE922320DF124
:10427000B80AE6E76766666634740108884C010888
:10428000C05D010830460D940897CDF818B0FDF7D1
:10429000D7FC20EAE0739DF867400B9007930E97D8
:1042A000FFF78EB9C846DDF82090CAF800700135D6
:1042B0003444072DCDE92254CAF804607FF752AC8C
:1042C00094E51FA904911CA903911BA9089C0291C4
:1042D00003213B460194079A0C98009100F00EFBD5
:1042E000064604193378302B5FD01B9B1C4407987B
:1042F000394600220023FCF7CBFB002800F0868023
:1043000023469B1B0F930B9B472B3FF422AE662D3E
:1043100040F079811B9B0E93002B0BF0010B40F3B7
:10432000538108995BEA010240F03B810E9B0793A1
:104330000B93169B002B75D02D238DF8673000232F
:104340000893FFF740B94246089EB8461746013326
:104350002C44072BCDE92234CAF80070CAF8045067
:1043600044DC0AF1080AD2E42D248DF86740FFF7F7
:1043700019B92D23079102F100471693BFE50C9858
:1043800021AA414603F080FF00287FF43FA81B9933
:10439000239C0DF1B80AE0E6472D3FF4CFAD34443D
:1043A000A5E78DF86700FFF73DB80798394600226A
:1043B0000023FCF76DFB002897D1089BC3F1010394
:1043C0001B9393E7089B002B08BF012308938AE502
:1043D0000C9821AA414603F057FF00287FF416A845
:1043E000DDE922321B990DF1B80A1DE70C9821AACC
:1043F000414603F049FF00287FF408A8239C0DF1F3
:10440000B80A84E4DDF818B0FFF727B91F9BA34270
:10441000BFF477AF30215A1C1F9219701F9B9C422A
:10442000F9D86EE7169B9DF867400893FFF7C8B868
:10443000DDE90E32934240DB1BF0010F40F0A88013
:1044400023EAE37207920B93672572E70C9821AA7F
:10445000414603F019FF00287EF4D8AF1B9D239C32
:104460000DF1B80A66E40C9821AA414603F00CFF4E
:1044700000287EF4CBAF239C0DF1B80A40E406235C
:10448000089330E50C9821AA414603F0FDFE002870
:104490007EF4BCAF1B9D0F9B239C5D1B0DF1B80AE6
:1044A00060E4089B0D94CDF818B09DF86740079321
:1044B0000B9308900E90FFF783B8129A0F9B13444A
:1044C0000E9A0B93002A74DD23EAE37307936725A2
:1044D0002FE78DF86700FFF741B900220892FEF739
:1044E000AEBE8DF86700FFF730B88DF86700FFF7B4
:1044F00076B98DF86700FFF7F3B88DF86700FFF71E
:1045000091B98DF86700FFF784B8C846FEF77EBF03
:104510004FF0FF330A93FEF77EBF01332A44072B87
:10452000CDE92232CAF80070CAF804507FF72AAEEB
:104530000C9821AA414603F0A7FE00287EF466AF3E
:10454000DDE922320DF1B80A1EE630338DF87730FE
:1045500030238DF876300423159345E51BF00102D6
:104560000E927FF448AD23EAE3730793E1E6119BD3
:10457000264E002BB8BF2D242BF080030693A8BF36
:104580009DF86740224BB8BF8DF86740FFF70FB822
:104590000E9B129A13440B9323EAE3730793672548
:1045A000C7E6129A1344194421EAE1730B91079369
:1045B000BFE60E9B0B9AC3F101031A4422EAE27391
:1045C0000B9207936725B4E6089A5BEA020303D1CE
:1045D000012307930B93ACE6129B01331A4422EAA2
:1045E000E2730B920793A4E602231593FCE40D9A61
:1045F00099F80150894652F8041B0D9241EAE17185
:104600000891FEF71ABE1B9B0E93ABE404740108DD
:104610000874010810B4044C84461346206810BC8A
:104620000A466146FEF7A6BD0000002070B50C46A4
:104630008989ADF58D6D21F00201ADF80C10616E28
:104640001991E189ADF80E10E1690791616A09914C
:104650001AA9009104914FF4806102910591002103
:10466000069169460646FEF785FD051E07DB69468D
:10467000304601F033F9002818BF4FF0FF35BDF880
:104680000C305B0603D5A38943F04003A381284681
:104690000DF58D6D70BD00BF38B5334B1B680546F9
:1046A0000C460BB19A6B12B3B4F90C3018079AB2DE
:1046B00025D5216900292DD012F0010007D0002056
:1046C000A06060694042A06139B1002038BD950703
:1046D00058BF6069A0600029F7D1120658BF08468C
:1046E000F4D543F04003A3814FF0FF3038BD1846A6
:1046F00001F01EFAB4F90C3018079AB2D9D4D106D9
:104700002AD5520714D4216943F00803A3819AB231
:104710000029D1D102F42070B0F5007FCCD0214621
:10472000284601F083FDB4F90C3021699AB2C3E741
:10473000216B51B104F14002914204D0284601F0AE
:1047400067FAB4F90C300022226321690022C4E91F
:10475000001223F02403D7E7092243F040032A6024
:104760004FF0FF30A38138BD0000002070B4184C1A
:104770002568D5F848411CB365681F2D25DC38B97C
:10478000AB1C0135656044F82310002070BC7047F5
:1047900004EB850C0228CCF88820D4F888614FF00F
:1047A000010202FA05F246EA0206C4F88861CCF872
:1047B0000831E5D1D4F88C311343C4F88C31DFE7EC
:1047C00005F5A674C5F84841D6E74FF0FF30DDE7A0
:1047D000544C0108000000002DE9F04F03690C69FA
:1047E000A34283B0C0F28680013C01F11405A3000E
:1047F00000F11408009355F8243058F824200133B0
:104800008A469A4208EB8401814605EB84070191B0
:10481000B2FBF3F638D30023AE4640469B465EF823
:10482000041B02681FFA81FC06FB0C33090C4FEADB
:10483000134C06FB01CC99B2ABEB01011FFA8CF3D0
:1048400011FA82F1C3EB124202EB214289B241EA32
:104850000241774540F8041B4FEA1C434FEA224BC4
:10486000DDD2009B58F8033073B9019B043B984597
:1048700004D307E0984504F1FF3403D253F8042928
:10488000002AF7D0C9F810405146484602F0BCF85B
:1048900000282BDB01364046002355F8041BD0F8D6
:1048A00000C08AB29A1A0B0C12FA8CF2C3EB1C43AA
:1048B00003EB224392B242EA0342AF4240F8042B98
:1048C0004FEA2343E9D258F8242008EB84036AB95D
:1048D000043B984504D307E0984504F1FF3403D224
:1048E00053F80429002AF7D0C9F81040304603B025
:1048F000BDE8F08F002003B0BDE8F08F2DE9F04F48
:10490000016C99B090469946CDE90489259D0446ED
:1049100041B1426C4A60012393408B6001F0BEFDBF
:1049200000232364B9F1000AB4BF012300232B60E4
:10493000754BBCBF2AF0004ACDF814A033EA0A0335
:1049400000F0AA80DDE90423104619460022002366
:10495000CDE90A01FCF79CF8074670B1249A0123BF
:104960001360269B002B00F0E28268481860431E0B
:104970000393039819B0BDE8F08F16AB019317AB02
:1049800000932046DDE90A2302F08EF95FEA1A5609
:10499000054640F09780DDE916763E4406F2324047
:1049A000202840F3B383C0F140000AFA00FA06F26F
:1049B000124028FA00F04AEA0000FBF787FD0123C5
:1049C000013EA1F1F8710F93514B0022FBF740FC1F
:1049D00047A3D3E90023FBF7F3FD47A3D3E9002363
:1049E000FBF738FC804630468946FBF77FFD44A341
:1049F000D3E90023FBF7E4FD02460B464046494657
:104A0000FBF728FC80468946FCF774F800228346B1
:104A1000002340464946FCF745F8002840F07A82DA
:104A2000BBF1160F00F269823A4B03EBCB03D3E9DB
:104A30000023DDE90A01FCF735F8002870D00023D7
:104A4000BE1B0E93731E0BF1FF3B069300F15C82BD
:104A500000230993BBF1000F69DA099BCDF81CB064
:104A6000A3EB0B030993CBF100030D93229B092BBE
:104A70004FF0000B64D8052B40F34683043B229390
:104A80000026229B023B032B00F26686DFE813F030
:104A90005A0457044E043104249A42F20F73CAF3A5
:104AA000130A13605AEA08031AD1269B002B00F060
:104AB0006286194B03930833269A0398136019B042
:104AC000BDE8F08FDDE90A12C2F31303084643F094
:104AD0007F510F97A6F2FF36169F41F4401173E7FE
:104AE000269B002B40F0E8830C4B039341E700BF6B
:104AF00061436F63A787D23FB3C8608B288AC63FE4
:104B0000FB799F501344D33F0000F07FC15D010843
:104B10000000F83FA84C0108407401083C740108EB
:104B2000BE1B731E069300F185840E900990069BB0
:104B30005B44CDE9063B00230D93229B092B9AD9B8
:104B40000023CDE9223301264FF0FF330C96089362
:104B5000089B129300216164204601F079FC0390C8
:104B6000002800F00186039B2364089B0E2B00F2B3
:104B70001381002E00F010810799002940F35C8416
:104B8000AE4B01F00F0203EBC2034FEA2118C90537
:104B9000D3E9006740F11484A94BDDE90A01D3E9A8
:104BA0000823FBF737FECDE9100108F00F084FF09E
:104BB000030AB8F1000F13D0DFF8849218F0010F48
:104BC00009D030463946D9E90023FBF7F9FC0AF150
:104BD000010A06460F465FEA680809F10809EDD1A7
:104BE000DDE9100132463B46FBF714FE804689465C
:104BF0000E9B43B1934B002240464946FBF752FFC0
:104C0000002840F030855046FBF770FC42464B468A
:104C1000FBF7D6FC8C4B0022FBF71CFBA1F1507379
:104C2000CDE910011193089B002B00F09780079BA2
:104C30001493089B13930C9B002B00F0A584139AEC
:104C40007E4B8249039E03EBC20353E902230020FB
:104C5000FBF7E0FDDDE91023FBF7FAFACDE91001DF
:104C600049464046FBF746FF0746FBF73FFC024636
:104C70000B4640464946FBF7EBFA3037DDE9102397
:104C800006F8017B80468946FBF70CFF002840F0C0
:104C90002985CDF854B00027DDE910AB1095139DA0
:104CA00013942AE00137AF4280F22C85684B5046BE
:104CB00059460022FBF784FC654B002282468B4656
:104CC00040464946FBF77CFC89468046FBF712FFCD
:104CD0000446FBF70BFC02460B4640464946FBF7F1
:104CE000B7FA303406F8014B52465B468046894697
:104CF000FBF7D8FE002840F0F38442464B4651496A
:104D00000020FBF7A5FA52465B46FBF7CBFE0028D6
:104D1000C8D0DDE91343109D039A079302E0964241
:104D200000F0C884B24616F8013D392BF7D00133A4
:104D3000DBB23370079B01330793C8E15046FBF7A2
:104D4000D5FB42464B46FBF73BFC3F4B0022FBF7B3
:104D500081FAA1F15073CDE9100111933D4B40460A
:104D600049460022FBF774FADDE910894B464246BA
:104D700006460F46FBF7B4FE8146002840F0AA84A1
:104D8000DDE91001024601F1004330463946FBF7E8
:104D900089FE002840F04583179B002BC0F28C80D1
:104DA000079A0E2A00F38880244B03EBC203D3E951
:104DB00000AB239B002B1BDA089B002B18DC40F078
:104DC0002E83244B002250465946FBF7F9FB02463E
:104DD0000B46DDE90A01FBF76FFEDDF820904E4639
:104DE000002800F0C782239BDDF80C80DF43C9E276
:104DF000DDE90A7852465B4638464146FBF70AFD34
:104E0000FBF778FE81460990FBF770FB52465B4644
:104E1000FBF7D6FB039E0B46024641463846FBF79E
:104E200017FA09F1300306F8013B089B012B00F04B
:104E30005C830694012704951C462AE0A84C0108CF
:104E4000984D01080000F03F00001C400000E03FCA
:104E5000000024400000144052465B46404649464C
:104E6000FBF7D8FCFBF746FE0546FBF73FFB524637
:104E70005B46FBF7A5FB01370B4602464946404619
:104E8000FBF7E6F905F13003A74206F8013B00F015
:104E90002983AC4B0022FBF793FB002200238046C2
:104EA0008946FBF7F5FD0028D6D0049D069C079B9C
:104EB00001330793B2460AE10C9A002A3DD0229AA8
:104EC000012A40F39C82089B03F1FF380D9B434568
:104ED000C0F26D82A3EB0808089B002BC0F23C8354
:104EE000069A1A440692099A17461A440992012111
:104EF000204601F0D5FB064623E00123BE1B0E939E
:104F0000731E06937FF5A4ADC6F101030993002338
:104F100006939FE55846FBF7E9FA42464B46FBF7F6
:104F2000B7FD00287FF47CAD0BF1FF3B78E5864BA5
:104F30000393039819B0BDE8F08FDDF83480099F22
:104F40000C9E002F0CDD069900290B4608DD099AFE
:104F5000B942A8BF3B46D21AFF1ACB1A0992069350
:104F60000D9BDBB10C9B002B00F05D82B8F1000FB4
:104F70000FDD31464246204601F06EFC2A460146CE
:104F80000646204601F0BAFB29460546204601F0B8
:104F900085FA0D9BB3EB080240F0D8820121204630
:104FA00001F07EFBBBF1000F814600F3B480229B31
:104FB000012B40F386814FF0000A0120BBF1000F66
:104FC00040F0B580069A104410F01F0000F0938066
:104FD000C0F12003042B40F3D283099BC0F11C00D5
:104FE00003440244099307440692099B002B05DD04
:104FF00029461A46204601F08FFC0546069B002BE9
:1050000005DD49461A46204601F086FC81460E9B86
:10501000002B40F03681089B002B40F31D810C9B38
:10502000002B40F0A080079B01330793DDF80C8034
:10503000DDF820A0012707E0294600230A222046A8
:1050400001F036FA0137054649462846FFF7C4FB0A
:10505000574500F1300308F8013BEDDB089A002AC0
:10506000C8BF9346039AD8BF4FF0010B9344002763
:10507000294601222046049301F04EFC494605468C
:1050800001F0C2FC002840F3A8811BF8013C039A00
:105090000BF1FF3B04E05A4500F0AA811BF8013DEB
:1050A000392B0BF1010AF6D001338BF80030494659
:1050B000204601F0F3F956B12FB1B74203D039467B
:1050C000204601F0EBF93146204601F0E7F9294688
:1050D000204601F0E3F900238AF80030249B079A68
:1050E0001A60269B002B3FF444AC0398C3F800A041
:1050F00019B0BDE8F08F1C20099B03440993069B5F
:1051000003440744069370E70126BAE4C0F1200087
:1051100008FA00F051E401465A46204601F09CFB93
:10512000229B012B814640F3B3814FF0000AD9F84E
:10513000103009EB8303186901F064FAC0F1200014
:1051400040E700BF00002440C05D01083146002355
:105150000A22204601F0ACF9129B002B064640F3D0
:10516000E782CDE90783002F00F31A81BAF1000F1F
:1051700040F0D581B046049B039F089903F00102DB
:105180007B1E1944229B0C92134309910A934946B2
:105190002846FFF721FB31468346284601F034FCC0
:1051A000424649468246204601F04EFCC26801460E
:1051B0000BF13003002A42D106902846089301F0F3
:1051C00023FC06990490204601F068F9049A089B94
:1051D0001AB90A99002900F09B82BAF1000FC0F2B7
:1051E000638122994AEA010A0C9951EA0A0100F006
:1051F0005B81002A00F3B481099A3B7007F1010A30
:105200009742D34600F0B281294600230A22204665
:1052100001F04EF94645054631464FF000034FF088
:105220000A02204612D001F043F941460646002307
:105230000A22204601F03CF957468046A7E720465F
:10524000049301F02BF9049B0122C6E701F030F929
:105250005746064680469AE7229B022B79DC0C9B38
:10526000002B80D1079B4946013328460793FFF75F
:10527000B3FADDF80CB000F130030BF8013B002766
:10528000F6E64946284601F0BFFB0028BFF6C3AE4C
:10529000294600230A22204601F00AF9079B03F160
:1052A000FF380C9B0546002B7FF450AF129B002B60
:1052B00040F335820893B9E6AF4B03930333FFF70E
:1052C000FBBBDDE9041200297FF475AEC2F31303C2
:1052D000002B7FF470AEA94B1340002B00F0FE8131
:1052E000099B01330993069B013306934FF0010A92
:1052F00063E601230C93239B079A13441293013313
:10530000012B1F460893B8BF01270021172F6164A6
:105310007FF722AC012204235B0003F11400B842A2
:10532000114602F10102F7D9616415E401230C93DF
:10533000239B002B4CDD129308931F46E5E70023C7
:105340000C93D8E700230C93F2E7129BCDF81C8056
:105350000893089B002B7FF446AD49460522204662
:1053600001F0A6F801468146284601F04DFB0028D1
:105370007FF739AD0398079F3123804600F8013B42
:10538000013703904946204601F088F87B1CDDF880
:105390000CA00793CDF80C80002E7FF494AE96E617
:1053A00031463A46204601F0B7FA0646DEE60D9B46
:1053B000CDF83480A8EB03039B444FF000088BE545
:1053C000DDE90A234FF0020ACDE91023FFF7F1BB14
:1053D000012323930893FFF7BBBB03D1049BDB0797
:1053E0003FF553AEDA461BF8013D302BFAD05EE6AE
:1053F000079B039A013307933123137057E60F9AE3
:10540000002A00F0268103F23343069ADDF8348047
:105410001A440692099A17461A44099267E54FF012
:1054200000094E46DFE429460D9A204601F014FAA1
:105430000546B3E50E9067E500F00F81079A504BE3
:10544000564206F00F0203EBC203D3E90023DDE965
:105450000A01FBF7B5F836118046894600F07181E4
:10546000484F00234FF0020AF20706D5D7E9002380
:10547000FBF7A6F80AF1010A0123761007F10807E5
:10548000F2D1002B3FF4B4AB80468946FFF7B0BBA6
:10549000049B002B7FF449AEDDE90412C2F3130331
:1054A000002B3FF418AF40E6002A12DD2946012206
:1054B0002046049301F030FA4946054601F0A4FA6B
:1054C0000028049B40F31881392B00F0F9800BF180
:1054D0003103BA460AF8013B079B0133374607936D
:1054E0004646E4E50995069C049D02460B46FAF7FC
:1054F000B1FE52465B4680468946FBF7F1FA60B939
:1055000052465B4640464946FBF7C2FA00283FF444
:10551000CEAC099BD9077FF5CAAC039A02E4716847
:10552000204600F095FF0746002800F00E81336901
:1055300002339A0006F10C010C30FCF7E1F8394611
:105540000122204601F0E8F9804614E6294620466B
:1055500001F082F9054621E5DDE908239F1AC6E43A
:10556000392B00F0AD80BA460133B3E7079A013218
:105570003746079246467BE53C7401080000F07F01
:10558000A84C0108984D0108DDF84CA0844901EBB6
:10559000CA01DDE9102351E90201FBF711F8CDE959
:1055A000100149464046FBF7A5FA0646FAF79EFF6A
:1055B0000B46024649464046FAF74AFE039F5346C9
:1055C0003036012B07F8016B8046894600F0AE802B
:1055D000139E039B1E44734B002240464946FAF734
:1055E000EFFF89468046FBF785FA8246FAF77EFF91
:1055F0000AF1300A02460B4640464946FAF728FEB1
:1056000007F801ABB74280468946E4D1664B0022D9
:10561000DDE91001FAF71EFE42464B46FBF742FA5F
:10562000002864D1DDE910235F490020FAF710FE5D
:1056300042464B46FBF754FA00283FF4ADABB24666
:10564000013E1AF8013C302BF9D0149B013307932B
:105650003DE5169BC3F13603D7E6DDE90A894FF035
:10566000020AFFF7C5BA089B002B3FF467AB129BF9
:10567000002B7FF791AB079A013ACDE913324046F0
:10568000484B00224946FAF79BFF804689460AF1BB
:105690000100FAF72BFF42464B46FAF791FF434BC6
:1056A0000022FAF7D7FDA1F15073CDE91001119353
:1056B000FFF7C1BA079B013307933123FFF739BBCB
:1056C000079BBB4601330793392337460BF8013B51
:1056D0004646DCE44FF000094E464BE69A466CE441
:1056E000109D139C149B01330793B246EFE4149B67
:1056F000039A0793FFF716BB7FF4EBAEDA077FF54B
:10570000E8AEE1E6DDF854B0109D139CFFF744BB12
:10571000392BD5D0BAF1000F3FF7D9AED9E6229B8D
:10572000022B3FF712AECDF81C809BE53E466DE79D
:10573000229B022B3FF709AE129BCDF81C800893E9
:1057400011E54FF0020AFFF753BA194B19483A46D0
:1057500040F2EA2103F08EFC0026666431462046C2
:1057600000F076FE039078B9114B124800224FF4F6
:10577000D57103F07FFC104B0393FFF7FAB83FF4A9
:1057800034ACC0F13C00B7E4039B236401224FF02A
:10579000FF33239612930C920893FFF7FDBA00BFD4
:1057A000A84C0108000024400000E03F00001C401D
:1057B0004C7401086074010840740108B1F90C20B0
:1057C000F8B50C461107074642D4636842F40062FC
:1057D000002BA28159DDA56A002D54D000233E681C
:1057E0003B6093B212F4805253D1E16901233846F1
:1057F000A847421C63D0A389A56A5B0705D56368E7
:10580000C01A236B0BB1E36BC01AE1690246002397
:105810003846A847411C3ED13B68002B3BD01D2B8E
:1058200001D0162B52D1A3892269226023F4006390
:1058300000216160A381216B3E6021B304F140032C
:10584000994202D0384600F0E3F900202063F8BD09
:105850002669C6B193B2256826609A070CBF6369B2
:105860000023AD1BA3600CE0D4F824C0E1692B46F3
:1058700032463846E047B0F1000CA5EB0C05664413
:1058800016DD002DF0DC0020F8BDE36B002BA2DC60
:10589000F9E7206DB1E7B4F90C302269226023F4F6
:1058A0000063A3810022DB046260C4D52065C2E7E7
:1058B000A38943F040034FF0FF30A381F8BD3B685C
:1058C000002B98D01D2B06D0162B04D0A38943F0B3
:1058D0004003A381F8BD3E60D5E700BF38B50D4653
:1058E000044608B1836B1BB1B5F90C0030B938BD63
:1058F00000F01EF9B5F90C000028F8D02946204622
:10590000BDE83840FFF75ABF38B5B8B10F4B1D6836
:1059100004460DB1AB6B4BB1B4F90C0000B938BD06
:1059200021462846BDE83840FFF748BF284600F02A
:10593000FFF8B4F90C000028F1D0F1E7044B054959
:105940001868BDE8384000F0FDBB00BF0000002033
:10595000544C0108DD58000800207047014900F050
:10596000F1BB00BFA9910008002070472DE9F84F56
:105970002D4A4668C26300240323C0E9B8430746A2
:1059800000F53B720423C0F8E8222146C6E9024331
:105990000822C6E90044C6E904447466B46106F10D
:1059A0005C00FBF7C3FFDFF884B0BD68DFF880A0C0
:1059B000DFF88090DFF88080204BC6F824A0C6E98D
:1059C000076BC6F82890C6F82C800822EB60C5E962
:1059D0000044C5E904446C66AC60AC61214605F145
:1059E0005C00FBF7A3FFC5E9075BC5E909A9C5F89A
:1059F0002C80FD68124BEB60C5E90044C5E9044406
:105A00006C66AC60AC612146082205F15C00FBF7D6
:105A10008DFF0123C5E9075BC5E90A98C5F824A0F5
:105A2000BB63BDE8F88F00BF5D5900084D730008E7
:105A300075730008B5730008D573000809000100EC
:105A40001200020070B568224D1E02FB05F50E46DD
:105A500005F17401FBF776FB044640B100210C30E0
:105A6000C4E90016A06005F16802FBF75FFF20465D
:105A700070BD00BF274B2DE9F0411E68B36B074690
:105A80005BB306F538764FF00408D6E90134013BE4
:105A900004D51EE05A1C04F168041AD0B4F90C5065
:105AA000013B002DF6D11C4B6566C4E90055C4E9E5
:105AB0000253C4E90455A5610822294604F15C009B
:105AC000FBF734FFC4E90C55C4E911552046BDE885
:105AD000F08135682DB12E46D7E73046FFF746FFF7
:105AE000CFE74FF4D6713846FBF72CFB044668B17C
