:020000040800F2
:100000000000032099150008391300083B1300086D
:100010003D1300083F1300084113000800000000D2
:100020000000000000000000000000004313000872
:10003000451300080000000047130008491300089A
:10004000E9150008E9150008E9150008E915000898
:10005000E9150008E9150008793400088334000820
:10006000E9150008E9150008E9150008E915000878
:10007000E9150008E9150008E9150008E915000868
:10008000E9150008E9150008E9150008E915000858
:10009000E9150008E9150008E9150008E915000848
:1000A000E9150008E9150008E9150008E915000838
:1000B000E9150008E9150008E9150008E915000828
:1000C000E9150008E9150008E9150008E915000818
:1000D000E91500088D340008BD340008FD3400081F
:1000E0006D340008E9150008E9150008E915000855
:1000F000E9150008E9150008E9150008E9150008E8
:10010000E9150008E9150008E9150008E9150008D7
:1001100029350008E9150008E9150008E915000867
:10012000E9150008E9150008E9150008E9150008B7
:10013000E9150008E9150008E9150008E9150008A7
:10014000E9150008E9150008E9150008E915000897
:10015000E9150008E9150008E9150008E915000887
:10016000E9150008E9150008E9150008E915000877
:10017000E9150008E9150008E9150008000000006D
:10018000E9150008E9150008E9150008E915000857
:10019000E9150008E9150008E9150008E915000847
:0C01A000E9150008E9150008E915000841
:1001C00081F0004102E000BF83F0004330B54FEA08
:1001D00041044FEA430594EA050F08BF90EA020F75
:1001E0001FBF54EA000C55EA020C7FEA645C7FEA08
:1001F000655C00F0E2804FEA5454D4EB5555B8BF2B
:100200006D420CDD2C4480EA020281EA030382EA9B
:10021000000083EA010180EA020281EA0303362D2D
:1002200088BF30BD11F0004F4FEA01314FF4801C00
:100230004CEA113102D0404261EB410113F0004F12
:100240004FEA03334CEA133302D0524263EB4303C9
:1002500094EA050F00F0A780A4F10104D5F1200E67
:100260000DDB02FA0EFC22FA05F2801841F10001C2
:1002700003FA0EF2801843FA05F359410EE0A5F196
:1002800020050EF1200E012A03FA0EFC28BF4CF0C7
:10029000020C43FA05F3C01851EBE37101F000457D
:1002A00007D54FF0000EDCF1000C7EEB00006EEB8A
:1002B0000101B1F5801F1BD3B1F5001F0CD3490814
:1002C0005FEA30004FEA3C0C04F101044FEA44526B
:1002D00012F5800F80F09A80BCF1004F08BF5FEAF2
:1002E000500C50F1000041EB045141EA050130BDD2
:1002F0005FEA4C0C404141EB0101013C28BFB1F5E4
:10030000801FE9D291F0000F04BF01460020B1FA2E
:1003100081F308BF2033A3F10B03B3F120020CDA01
:100320000C3208DD02F1140CC2F10C0201FA0CF0DF
:1003300021FA02F10CE002F11402D8BFC2F1200C44
:1003400001FA02F120FA0CFCDCBF41EA0C019040FA
:10035000E41AA2BF01EB0451294330BD6FEA040443
:100360001F3C1CDA0C340EDC04F11404C4F120022E
:1003700020FA04F001FA02F340EA030021FA04F340
:1003800045EA030130BDC4F10C04C4F1200220FA97
:1003900002F001FA04F340EA0300294630BD21FAD5
:1003A00004F0294630BD94F0000F83F4801306BF9B
:1003B00081F480110134013D4EE77FEA645C18BF8F
:1003C0007FEA655C29D094EA050F08BF90EA020F26
:1003D00005D054EA000C04BF1946104630BD91EA1E
:1003E000030F1EBF0021002030BD5FEA545C05D121
:1003F0004000494128BF41F0004130BD14F5800460
:100400003CBF01F5801130BD01F0004545F0FE41D3
:1004100041F470014FF0000030BD7FEA645C1ABF08
:10042000194610467FEA655C1CBF0B46024650EA3F
:10043000013406BF52EA033591EA030F41F400216B
:1004400030BD00BF90F0000F04BF0021704730B5F1
:100450004FF4806404F132044FF000054FF00001C6
:1004600050E700BF90F0000F04BF0021704730B587
:100470004FF4806404F1320410F0004548BF40425C
:100480004FF000013EE700BF42004FEAE2014FEAB1
:1004900031014FEA02701FBF12F07F4393F07F4F8C
:1004A00081F06051704732F07F4208BF704793F08F
:1004B0007F4F04BF41F40021704730B54FF46074A2
:1004C00001F0004521F000411CE700BF50EA0102A5
:1004D00008BF704730B54FF000050AE050EA01024E
:1004E00008BF704730B511F0004502D5404261EBBE
:1004F00041014FF4806404F132045FEA915C3FF4FF
:10050000D8AE4FF003025FEADC0C18BF03325FEA9B
:10051000DC0C18BF033202EBDC02C2F1200300FA4C
:1005200003FC20FA02F001FA03FE40EA0E0021FA71
:1005300002F11444BDE600BF70B54FF0FF0C4CF45F
:10054000E06C1CEA11541DBF1CEA135594EA0C0F11
:1005500095EA0C0F00F0DEF82C4481EA030621EA4C
:100560004C5123EA4C5350EA013518BF52EA033587
:1005700041F4801143F4801338D0A0FB02CE4FF039
:100580000005E1FB02E506F00042E0FB03E54FF069
:100590000006E1FB03569CF0000F18BF4EF0010E61
:1005A000A4F1FF04B6F5007F64F5407404D25FEA5D
:1005B0004E0E6D4146EB060642EAC62141EA555110
:1005C0004FEAC52040EA5E504FEACE2EB4F1FD0C52
:1005D00088BFBCF5E06F1ED8BEF1004F08BF5FEAD0
:1005E000500E50F1000041EB045170BD06F0004682
:1005F00046EA010140EA020081EA0301B4EB5C042F
:10060000C2BFD4EB0C0541EA045170BD41F4801126
:100610004FF0000E013C00F3AB8014F1360FDEBF4B
:10062000002001F0004170BDC4F10004203C35DA27
:100630000C341BDC04F11404C4F1200500FA05F3AA
:1006400020FA04F001FA05F240EA020001F000424B
:1006500021F0004110EBD37021FA04F642EB0601C1
:100660005EEA430E08BF20EAD37070BDC4F10C04EB
:10067000C4F1200500FA04F320FA05F001FA04F2AF
:1006800040EA020001F0004110EBD37041F100019B
:100690005EEA430E08BF20EAD37070BDC4F12005A6
:1006A00000FA05F24EEA020E20FA04F301FA05F20E
:1006B00043EA020321FA04F001F0004121FA04F2B6
:1006C00020EA020000EBD3705EEA430E08BF20EA86
:1006D000D37070BD94F0000F0FD101F000464000C0
:1006E00041EB010111F4801F08BF013CF7D041EA42
:1006F000060195F0000F18BF704703F00046520046
:1007000043EB030313F4801F08BF013DF7D043EA16
:100710000603704794EA0C0F0CEA135518BF95EACC
:100720000C0F0CD050EA410618BF52EA4306D1D153
:1007300081EA030101F000414FF0000070BD50EA72
:10074000410606BF1046194652EA430619D094EAFC
:100750000C0F02D150EA013613D195EA0C0F05D1E6
:1007600052EA03361CBF104619460AD181EA03013A
:1007700001F0004141F0FE4141F470014FF00000F2
:1007800070BD41F0FE4141F4780170BD70B54FF08D
:10079000FF0C4CF4E06C1CEA11541DBF1CEA13550D
:1007A00094EA0C0F95EA0C0F00F0A7F8A4EB0504EF
:1007B00081EA030E52EA03354FEA013100F08880E6
:1007C0004FEA03334FF0805545EA131343EA1263AF
:1007D0004FEA022245EA111545EA10654FEA002664
:1007E0000EF000419D4208BF964244F1FD0404F51D
:1007F000407402D25B084FEA3202B61A65EB030579
:100800005B084FEA32024FF480104FF4002CB6EB35
:10081000020E75EB030E22BFB61A754640EA0C00B5
:100820005B084FEA3202B6EB020E75EB030E22BFF5
:10083000B61A754640EA5C005B084FEA3202B6EB36
:10084000020E75EB030E22BFB61A754640EA9C00F5
:100850005B084FEA3202B6EB020E75EB030E22BFC5
:10086000B61A754640EADC0055EA060E18D04FEA83
:10087000051545EA16754FEA06164FEAC30343EA23
:1008800052734FEAC2025FEA1C1CC0D111F4801FF0
:100890000BD141EA00014FF000004FF0004CB6E7E9
:1008A00011F4801F04BF01430020B4F1FD0C88BF88
:1008B000BCF5E06F3FF6AFAEB5EB030C04BFB6EB93
:1008C000020C5FEA500C50F1000041EB045170BD86
:1008D0000EF0004E4EEA113114EB5C04C2BFD4EBB3
:1008E0000C0541EA045170BD41F480114FF0000E37
:1008F000013C90E645EA060E8DE60CEA135594EAB3
:100900000C0F08BF95EA0C0F3FF43BAF94EA0C0FB5
:100910000AD150EA01347FF434AF95EA0C0F7FF42A
:1009200025AF104619462CE795EA0C0F06D152EA7E
:1009300003353FF4FDAE1046194622E750EA410662
:1009400018BF52EA43067FF4C5AE50EA41047FF473
:100950000DAF52EA43057FF4EBAE12E74FF0FF3CD8
:1009600006E000BF4FF0010C02E000BF4FF0010CA9
:100970004DF804CD4FEA410C7FEA6C5C4FEA430C22
:1009800018BF7FEA6C5C1BD001B050EA410C0CBF71
:1009900052EA430C91EA030F02BF90EA020F0020D3
:1009A000704710F1000F91EA030F58BF994208BF3A
:1009B00090422CBFD8176FEAE37040F001007047F7
:1009C0004FEA410C7FEA6C5C02D150EA013C07D14E
:1009D0004FEA430C7FEA6C5CD6D152EA033CD3D099
:1009E0005DF8040B704700BF8446104662468C4693
:1009F0001946634600E000BF01B5FFF7B7FF0028C6
:100A000048BF10F1000F01BD4DF808EDFFF7F4FFEE
:100A10000CBF012000205DF808FB00BF4DF808ED79
:100A2000FFF7EAFF34BF012000205DF808FB00BF9C
:100A30004DF808EDFFF7E0FF94BF012000205DF8BE
:100A400008FB00BF4DF808EDFFF7CEFF94BF012073
:100A500000205DF808FB00BF4DF808EDFFF7C4FF6C
:100A600034BF012000205DF808FB00BF4FEA4102BF
:100A700012F5001215D211D56FF47873B3EB6252F0
:100A800012D94FEAC12343F0004343EA505311F017
:100A9000004F23FA02F018BF404270474FF00000A9
:100AA000704750EA013005D111F0004008BF6FF0E7
:100AB000004070474FF00000704700BF53B94AB97B
:100AC000002908BF00281CBF4FF0FF314FF0FF3056
:100AD00000F00CB8ADF1080C6DE904CE03F022FA79
:100AE000DDF804E0DDE9022304B07047704700BF81
:100AF000844641EA000313F003036DD1403A41D329
:100B000051F8043B40F8043B51F8043B40F8043BE7
:100B100051F8043B40F8043B51F8043B40F8043BD7
:100B200051F8043B40F8043B51F8043B40F8043BC7
:100B300051F8043B40F8043B51F8043B40F8043BB7
:100B400051F8043B40F8043B51F8043B40F8043BA7
:100B500051F8043B40F8043B51F8043B40F8043B97
:100B600051F8043B40F8043B51F8043B40F8043B87
:100B700051F8043B40F8043B51F8043B40F8043B77
:100B8000403ABDD2303211D351F8043B40F8043B17
:100B900051F8043B40F8043B51F8043B40F8043B57
:100BA00051F8043B40F8043B103AEDD20C3205D327
:100BB00051F8043B40F8043B043AF9D2043208D01F
:100BC000D2071CBF11F8013B00F8013B01D30B8891
:100BD00003806046704700BF082A13D38B078DD06F
:100BE00010F003038AD0C3F10403D21ADB071CBF41
:100BF00011F8013B00F8013B80D331F8023B20F8AB
:100C0000023B7BE7043AD9D3013A11F8013B00F8E3
:100C1000013BF9D20B7803704B7843708B7883706B
:100C20006046704700000000000000000000000067
:100C300000000000000000000000000000000000B4
:100C400030B490F800F020F007016FF0000C10F0C5
:100C5000070491F820F040F048804FF000046FF056
:100C60000700D1E9002391F840F000F1080082FA72
:100C70004CF2A4FA8CF283FA4CF3A2FA8CF34BBB3D
:100C8000D1E9022382FA4CF200F10800A4FA8CF2B6
:100C900083FA4CF3A2FA8CF3E3B9D1E9042382FA84
:100CA0004CF200F10800A4FA8CF283FA4CF3A2FA99
:100CB0008CF37BB9D1E9062301F1200182FA4CF2D1
:100CC00000F10800A4FA8CF283FA4CF3A2FA8CF338
:100CD000002BC6D0002A04BF04301A4612BAB2FA5A
:100CE00082F200EBD20030BC7047D1E9002304F05F
:100CF0000305C4F100004FEAC50514F0040F91F894
:100D000040F00CFA05F562EA05021CBF63EA050330
:100D100062464FF00004AAE7000000000000000057
:100D200001F0FF01102A2BDB10F0070F08D010F89C
:100D3000013B013A8B422DD010F0070F42B3F6D1A0
:100D4000F0B441EA012141EA014122F007047FF0B9
:100D500000070023F0E80256083C85EA010586EA10
:100D6000010685FA47F5A3FA87F586FA47F6A5FA4C
:100D700087F68EB9EED1F0BC01F0FF0102F0070258
:100D800032B110F8013B013A83EA010313B1F8D103
:100D90000020704701387047002D06BF35460338E4
:100DA000073815F0010F07D1013015F4807F02BF1D
:100DB000013015F4C03F0130F0BC0138704700BF6E
:100DC0004FEA410C7FEA6C5C02D150EA013C0AD147
:100DD0004FEA430C7FEA6C5C02D152EA033C02D139
:100DE0004FF0000070474FF0010070470348044B7C
:100DF000834202D0034B03B11847704730070020ED
:100E000030070020000000000548064B1B1AD90FD0
:100E100001EBA301491002D0034B03B118477047FF
:100E200030070020300700200000000010B5064CFD
:100E3000237843B9FFF7DAFF044B13B10448AFF34B
:100E400000800123237010BD300700200000000047
:100E5000A8A2000808B5054B1BB105490548AFF32A
:100E60000080BDE80840FFF7CFBF00BF00000000D2
:100E700034070020A8A2000810B51548154B0360E0
:100E8000154B00221A7080215970E1219970DA7097
:100E90001A715A7143604FF4000383600F4BC360B3
:100EA0000F4B036140F2F453436100F08FFE58B9D9
:100EB0000C4C38220021204603F04AFB21232360FA
:100EC0004FF44003636110BD00F030F9F0E700BF5C
:100ED00054070020008002404C0700203C080020FE
:100EE000DC08002004080020F0B58DB00023079333
:100EF000089309930A930B9302683D4B9A4201D0E1
:100F00000DB0F0BD00240094A3F590431A6B42F09D
:100F100000721A631A6B02F000720092009A019438
:100F20001A6B42F080621A631A6B02F080620192BF
:100F3000019A02941A6B42F000621A631A6B02F073
:100F400000620292029A03941A6B42F004021A633E
:100F50001A6B02F004020392039A04941A6B42F093
:100F600001021A631A6B02F001020492049A0594BA
:100F70001A6B42F002021A631A6B02F00202059227
:100F8000059A06941A6B42F040021A631B6B03F039
:100F900040030693069B32230793022708970326F4
:100FA0000A960B250B9507A9124800F06FFE8623C1
:100FB0000793089709940A960B9507A90E4800F025
:100FC00065FE4FF400530793089709940A960B9512
:100FD00007A90A4800F05AFE4FF4205307930897D8
:100FE00009940A960B9507A9054800F04FFE87E77C
:100FF000008002400008024000000240000402405D
:1010000000180240F0B58DB00024079408940994AC
:101010000A940B940194394B1A6B42F004021A6340
:101020001A6B02F004020192019A02941A6B42F0C8
:1010300080021A631A6B02F080020292029A0394F1
:101040001A6B42F001021A631A6B02F0010203925A
:10105000039A04941A6B42F002021A631A6B02F0AC
:1010600002020492049A05941A6B42F008021A6371
:101070001A6B02F008020592059A06941A6B42F068
:1010800040021A631B6B03F040030693069B1C4F40
:10109000224644F28101384600F005FF194D2246F0
:1010A0004021284600F0FFFE4FF4005307934FF411
:1010B00088130893099407A9134800F0E7FD44F248
:1010C000810307930126089609940A9407A93846D4
:1010D00000F0DCFD40230793089609940A9407A9C1
:1010E000284600F0D3FD802307930894099407A9AC
:1010F000284600F0CBFD0DB0F0BD00BF0038024027
:1011000000040240001802400008024000B583B00D
:1011100001904FF0FF33012201A9034801F067FC61
:10112000019803B05DF804FBEC09002072B6FEE7FD
:1011300000B595B03022002108A803F009FA002379
:10114000039304930593069307930193204A116C2C
:1011500041F080511164126C02F080520192019AA8
:1011600002931C4B1A6842F440421A601B6803F455
:1011700040430293029B012308934FF4A023099359
:1011800002230E934FF480020F9204221092A822A1
:10119000119212930723139308A800F031FF98B916
:1011A0000F23039302230493002305934FF4A053CA
:1011B00006934FF480530793052103A801F08AF9A1
:1011C00020B915B05DF804FBFFF7B0FFFFF7AEFFE5
:1011D000003802400070004030B583B000F02CFAB7
:1011E000FFF7A6FFFFF70EFFFFF746FE00F022F91C
:1011F00000F072F900F018F802F06AF802F0DEF878
:10120000074B186883681D68002400942346042255
:101210000449A84702F028FA204603B030BD00BFB9
:1012200030A700087C09002008B50D480D4B03606D
:101230004FF48273436000238360C36003614361A2
:101240004FF400728261C3610362436283620A23C6
:10125000C36201F015FA00B908BDFFF767FFFBE7AD
:101260008C09002000300140F0B589B000230393C1
:10127000049305930693079302681E4B9A4201D08C
:1012800009B0F0BD0024009403F584335A6C42F495
:1012900080525A645A6C02F480520092009A01946F
:1012A0001A6B42F001021A631A6B02F001020192FA
:1012B000019A02941A6B42F002021A631B6B03F04C
:1012C00002030293029B60230393022704970326E1
:1012D00006960525079503A9074800F0D7FC2023AB
:1012E0000393049705940696079503A9034800F015
:1012F000CDFCC5E700300140000002400004024080
:1013000082B0002100910B4B5A6C42F480425A6427
:101310005A6C02F480420092009A01911A6C42F0D9
:1013200080521A641B6C03F080530193019B02B03E
:10133000704700BF003802407047FEE7FEE7FEE757
:10134000FEE770477047704708B5034B1B6803B151
:10135000984700F08BF908BDE409002010B5044659
:10136000024802F09FFF024B1C6010BDC0A20008A3
:10137000E40900200120704708B503F041F9162365
:1013800003604FF0FF3008BD08B54FF0FF31FFF7A5
:10139000F3FFFEE770B50C461646002506E0AFF3F6
:1013A0000080214601F8010B01350C46B542F6DB01
:1013B000304670BD70B50C461646002504E014F8A2
:1013C000010BFFF7A3FE0135B542F8DB304670BDD7
:1013D0004FF0FF3070474FF400534B6000207047D0
:1013E000012070470020704710B503460C4A0D4994
:1013F0000D48006840B10C4800680344521A9342FB
:1014000006D8094A136010BD0748084C0460F2E78B
:1014100003F0F6F80C2303604FF0FF30F3E700BF52
:101420000000032000040000E8090020E013002071
:101430007047000008B50A480A4B03604FF4E133D7
:10144000436000238360C36003610C2242618361B7
:10145000C36101F09DFA00B908BDFFF767FEFBE725
:10146000EC0900200048004000B589B00023039338
:1014700004930593069307930268154B9A4202D092
:1014800009B05DF804FB0021019103F5F8331A6CF3
:1014900042F480221A641A6C02F480220192019AAA
:1014A00002911A6B42F008021A631B6B03F00803E7
:1014B0000293029B4FF4407303930223049303238C
:1014C00006930723079303A9024800F0DFFBD7E741
:1014D00000480040000C024008B50C484FF0A04303
:1014E0000360042343600222C2600023036182611F
:1014F0000122C26103624362C262036300F0E8FC3E
:1015000000B908BDFFF712FEFBE700BF300A00205C
:1015100070B588B000230393049305930693079353
:101520000368B3F1A04F01D008B070BD002501954C
:10153000174C236B43F001032363236B03F0010378
:101540000193019B4FF4E853039302230493032375
:1015500006930A2307930F4E03A9304600F096FB2B
:101560004FF4007303930495059503A9304600F0EA
:101570008DFB636B43F0800363630295636C43F4FC
:1015800080436364636C03F480430293029BCBE764
:101590000038024000000240DFF834D00D480E4908
:1015A0000E4A002302E0D458C4500433C4188C42BD
:1015B000F9D30B4A0B4C002301E013600432A24222
:1015C000FBD3FFF735FF03F021F8FFF705FE704767
:1015D00000000320000000203007002054AB00086A
:1015E00030070020E0130020FEE7000010B504469D
:1015F0000E4B1A784FF47A73B3FBF2F30C4A10686F
:10160000B0FBF3F000F0AEF868B90F2C01D901205F
:101610000AE0002221464FF0FF3000F093F8054B1E
:101620001C60002000E0012010BD00BF040000206D
:10163000000000200800002008B50B4B1A6842F497
:1016400000721A601A6842F480621A601A6842F4E2
:1016500080721A60032000F063F80020FFF7C6FFD5
:10166000FFF74EFE002008BD003C0240034A11680F
:10167000034B1B780B441360704700BF3C0F0020E6
:1016800004000020014B1868704700BF3C0F002089
:1016900038B50446FFF7F6FF0546B4F1FF3F02D028
:1016A000044B1B781C44FFF7EDFF401BA042FAD30C
:1016B00038BD00BF04000020002808DB0901C9B2C2
:1016C00000F1604000F5614080F80013704700F0C1
:1016D0000F000901C9B2014B1954704714ED00E025
:1016E00000B500F00700C0F1070CBCF1040F28BFE3
:1016F0004FF0040C031D062B0FD9C31E4FF0FF3E05
:101700000EFA0CF021EA000199400EFA03FE22EADB
:101710000E0241EA02005DF804FB0023EEE7000040
:10172000074AD36823F4E0631B041B0C000200F497
:10173000E060034343F0BF6343F40033D36070477A
:1017400000ED00E010B50446054BD868C0F3022058
:10175000FFF7C6FF01462046FFF7AEFF10BD00BFF2
:1017600000ED00E00138B0F1807F0BD24FF0E023B4
:101770005861054AF02182F8231000209861072261
:101780001A6170470120704700ED00E070B5044613
:10179000866DFFF777FF94F83530DBB2022B06D069
:1017A00080236365002384F83430012070BD054632
:1017B0002268136823F0160313602268536923F02C
:1017C00080035361236CE3B12268136823F008039C
:1017D00013602268136823F00103136023681B68F9
:1017E00013F0010F11D0FFF74DFF431B052BF5D967
:1017F00020236365032084F83500002384F8343007
:10180000D4E7A36C002BDFD1E3E7E26D3F239340E5
:10181000B360012384F83530002084F83400C5E734
:1018200090F83530DBB2022B03D0802343650120D2
:101830007047052380F835300268136823F00103F0
:1018400013600020704700005079137943EA0023A9
:1018500007480B50D07893781B0443EA0063507814
:1018600043EA002312781343024A8B50704700BFAB
:10187000408002404480024010B5002208E0C46865
:10188000DC6051F80C3043F4400341F80C30013275
:10189000032A20D8C16802EB82034FEAC30C01EB94
:1018A000C303002441F80C405C609C60DC60941D24
:1018B00040F8243051F80C4044F4801441F80C40B6
:1018C000022ADCD8541C04EB8404D0F80CE00EEBA4
:1018D000C404DC60D5E700238362C268036803F5B3
:1018E00080531A6110BD00B54FF0000E03E002698D
:1018F000DA600EF1010EBEF1030F29D801690EEB7B
:101900008E034FEAC30C01EBC303002241F80C2005
:101910005A609A60DA601A625A624FF0004241F8E7
:101920000C2044F2F4525A605A6822F000425A6085
:101930000EF1120240F82230BEF1020FD7D8016931
:101940000EF1010202EB820201EBC201D960D0E785
:101950000023C36503668366C36683650269036803
:1019600003F58053DA605DF804FB000070B50546AE
:101970000C46026813683B491940237C002B60D158
:101980004FF40003607C00285DD14FF480000343D6
:10199000A0680343E07F43EA004360690343A07FFC
:1019A000002852D14FF400500343207F43EA003314
:1019B000A0690343207943EA802394F8200000289B
:1019C00045D14FF400700343E07B43EAC013606AE3
:1019D000034394F8280043EA00130B4313602B6879
:1019E0001E680120FFF754FE2B681E6029688A6973
:1019F00022F0BE021204120CA36C1B0494F84C00DB
:101A000038BB80200343206D034394F85500012820
:101A100021D00020034394F8560001281DD0002057
:101A2000034394F85400012819D0002003431343C2
:101A30008B612B689C690120FFF72AFE2B689C6153
:101A400070BD00239EE70020A1E70020ACE7002046
:101A5000B9E70020D6E70820DCE70420E0E7022011
:101A6000E4E700BF0F8120FF70B505460C46026811
:101A700002F580539B692B491940237B002B4DD1E4
:101A80004FF08063607B43EA4063607F002847D16A
:101A90004FF480100343A07B43EA40536069034343
:101AA000207F43EAC013A07F43EA8013206A0343E8
:101AB00094F8240043EA80030B4302F580529361BB
:101AC0002B6803F580539E690120FFF7E1FD2B6829
:101AD00003F580539E612279A36843EA4263A269B9
:101AE00013432269134394F8252043EAC213A26AE0
:101AF00043EA8203226813432A6843F4000302F591
:101B0000805213602B6803F580531C680120FFF797
:101B1000BFFD2B6803F580531C6070BD0023B1E747
:101B20000020B7E7233FDEF870B5A4B006460125D4
:101B30008DF83C508DF83D5000240D948DF84B40AD
:101B40008DF84A508DF848408DF830508DF84C4053
:101B50008DF83B4014948DF854401D948DF87840D6
:101B60001F948DF882408DF880404FF4804310938D
:101B70004FF4006311938DF881400BA9FFF7F6FE37
:101B80008DF80C508DF80D508DF81D508DF80E50BD
:101B900005948DF81C408DF81E4008948DF8245053
:101BA0008DF804504FF4803302934FF48003069372
:101BB0004FF4005304938DF825500A94009469461D
:101BC0003046FFF751FF24B070BD0000002857D009
:101BD00030B583B00446D0F88430002B34D00023D5
:101BE0000193284B5A6C42F480425A645B6C03F4B4
:101BF00080430193019B244B5A6822F400025A60EF
:101C00005A68A1680A435A605B68236803F58053E9
:101C10001A6842F001021A60FFF734FD0546236896
:101C200003F580531B6813F0010F13D0FFF72AFD53
:101C3000401BB0F5FA7FF2D90423C4F88830E023C2
:101C4000C4F88430012019E02323C0F88430FFF762
:101C50004BF9C4E72046FFF767FF2046FFF70CFE6D
:101C60002046FFF740FE626800212046FFF7ECFDAA
:101C70000020C4F888001023C4F8843003B030BDBD
:101C800001207047003802400038014000230F2B2C
:101C900000F2F98030B583B069E085684FEA430E01
:101CA000032404FA0EF425EA0405CC6804FA0EF4C1
:101CB0002C438460446824EA02044A68C2F3001298
:101CC0009A402243426060E0DC08083450F8242047
:101CD00003F00705AD004FF00F0E0EFA05FE22EAE5
:101CE0000E0E0A69AA4042EA0E0240F8242060E083
:101CF000092200E0002202FA0EF22A430234624D69
:101D000045F82420614A94686FEA0C0224EA0C0525
:101D1000D1F804E01EF4801F01D04CEA04055B4CAE
:101D2000A560E46802EA0405D1F804E01EF4001F8F
:101D300001D04CEA0405554CE560646802EA0405EC
:101D4000D1F804E01EF4003F01D04CEA04054F4CEA
:101D50006560246822404D6815F4803F01D04CEA4C
:101D600004024A4C226001330F2B00F28A800122C8
:101D70009A400C6804EA020C32EA0404F3D14C687D
:101D800004F00304013C012C87D94A6802F00302E5
:101D9000032A09D0C4685D000322AA4024EA020491
:101DA0008A68AA402243C2604A6802F00302022AFB
:101DB0008AD004684FEA430E032202FA0EF224EAA4
:101DC00002044A6802F0030202FA0EF222430260A1
:101DD0004A6812F4403FC6D0002201922C4A546C4B
:101DE00044F480445464526C02F480420192019A9B
:101DF0009C08A51C244A52F8255003F0030E4FEA14
:101E00008E0E0F2202FA0EF225EA0205214A9042B6
:101E10003FF470AF02F58062904222D002F58062FA
:101E2000904220D002F5806290421ED002F580627E
:101E300090421CD002F5806290421AD002F5806276
:101E4000904218D002F58062904216D002F580626E
:101E5000904214D002F5806290423FF449AF0A22CA
:101E600049E7012247E7022245E7032243E704222C
:101E700041E705223FE706223DE707223BE708222C
:101E800039E703B030BD704700380140003C0140E5
:101E900000380240000002400369194201D00120CD
:101EA0007047002070470AB1816170470904816161
:101EB0007047000008B5054B5B69034200D108BDBF
:101EC000024B586101F0C4FAF9E700BF003C014041
:101ED00070B58AB0002800F090800546046890F83C
:101EE000BD343BB3032385F8BD34E36B13F4807F2B
:101EF00001D100232B61286801F01BF82C4654F80F
:101F0000106BEC460FCCACE80F000FCCACE80F0028
:101F100094E803008CE803002B1D0ECB304600F044
:101F2000C3FF044658B1022385F8BD34012420467E
:101F30000AB070BD80F8BC34FFF7EAFAD2E700219E
:101F4000286801F02DF9234616E003EBC30205EBE8
:101F50008202012182F83D1082F83C30A2F8443020
:101F6000002182F840109164D16403EBC30205EBB9
:101F7000820251650133DBB269688B42E5D316E01A
:101F800004EBC40305EB8303002283F87D2283F86E
:101F90007C4283F88022C3F88822C3F88C2204EBA9
:101FA000C40305EB8303C3F894220134E4B2A142D5
:101FB000E6D82C4654F8106BEC460FCCACE80F007A
:101FC0000FCCACE80F0094E803008CE803002B1D55
:101FD0000ECB304601F00AF8044620B1022385F802
:101FE000BD340124A3E7002385F83830012385F8A8
:101FF000BD34286801F0C2F899E7012497E7000092
:10200000002800F0E08170B582B00446036813F048
:10201000010F3BD09F4B9B6803F00C03042B2CD08B
:102020009C4B9B6803F00C03082B21D06368B3F52D
:10203000803F4FD0B3F5A02F52D0964B1A6822F4B0
:1020400080321A601A6822F480221A606368002BBA
:1020500050D0FFF717FB05468E4B1B6813F4003F6B
:1020600014D1FFF70FFB401B6428F5D90320B1E121
:10207000884B5B6813F4800FD8D0864B1B6813F431
:10208000003F03D06368002B00F09F81236813F0AA
:10209000020F54D07F4B9B6813F00C0F3ED07D4B4A
:1020A0009B6803F00C03082B33D0E368002B68D047
:1020B000794B01221A60FFF7E5FA0546754B1B685C
:1020C00013F0020F54D1FFF7DDFA401B0228F5D9B7
:1020D00003207FE16F4A136843F480331360B5E750
:1020E0006C4B1A6842F480221A601A6842F48032FB
:1020F0001A60ABE7FFF7C6FA0546664B1B6813F498
:10210000003FC3D0FFF7BEFA401B6428F5D9032077
:1021100060E1604B5B6813F4800FC6D15D4B1B68B8
:1021200013F0020F03D0E368012B40F05081594AAD
:10213000136823F0F803216943EAC103136023689D
:1021400013F0080F42D063696BB3534B0122C3F8FD
:10215000802EFFF797FA05464E4B5B6F13F0020F88
:1021600034D1FFF78FFA401B0228F5D9032031E163
:10217000484A136823F0F803216943EAC103136056
:10218000DDE7454B00221A60FFF77CFA0546414B1C
:102190001B6813F0020FD2D0FFF774FA401B02281D
:1021A000F5D9032016E13C4B0022C3F8802EFFF73F
:1021B00069FA0546374B5B6F13F0020F06D0FFF745
:1021C00061FA401B0228F5D9032003E1236813F0CC
:1021D000040F77D02F4B1B6C13F0805F33D100239B
:1021E00001932C4B1A6C42F080521A641B6C03F062
:1021F00080530193019B0125284B1B6813F4807FBA
:1022000023D0A368012B34D0052B38D0214B1A6F73
:1022100022F001021A671A6F22F004021A67A368FB
:10222000002B3DD0FFF72EFA06461A4B1B6F13F01A
:10223000020F46D1FFF726FA801B41F288339842FD
:10224000F3D90320C6E00025D6E7144A136843F407
:1022500080731360FFF716FA0646104B1B6813F4E1
:10226000807FCED1FFF70EFA801B0228F5D903201C
:10227000B0E0084A136F43F001031367CFE7054B43
:102280001A6F42F004021A671A6F42F001021A67CD
:10229000C5E700BF00380240000047420070004020
:1022A000FFF7F0F90646524B1B6F13F0020F08D0F0
:1022B000FFF7E8F9801B41F288339842F3D90320F5
:1022C00088E0EDB9A369002B00F08380484A92684A
:1022D00002F00C02082A51D0022B17D0454B0022E5
:1022E0001A66FFF7CFF90446414B1B6813F0007FD5
:1022F00042D0FFF7C7F9001B0228F5D9032069E097
:102300003B4A136C23F080531364DBE7394B002204
:102310001A66FFF7B7F90546354B1B6813F0007FC7
:1023200006D0FFF7AFF9401B0228F5D9032051E092
:10233000E369226A1343626A43EA8213A26A52087B
:10234000013A43EA0243E26A43EA0263284A5360DD
:10235000284B01221A66FFF795F90446244B1B68A7
:1023600013F0007F06D1FFF78DF9001B0228F5D985
:1023700003202FE000202DE000202BE0012B2BD0AC
:102380001B4B5B6803F48001E269914226D103F0A4
:102390003F02216A8A4223D1616A47F6C0721A401D
:1023A000B2EB811F1ED103F44031A26A5208013AF8
:1023B000B1EB024F18D103F07063E26AB3EB026F26
:1023C00014D1002006E001207047012002E0012026
:1023D00000E0002002B070BD0120FBE70120F9E71A
:1023E0000120F7E70120F5E70120F3E70120F1E7FD
:1023F000003802400000474208B5334B9B6803F0A9
:102400000C03042B5BD0082B5BD12F4B5A6802F0D6
:102410003F025B6813F4800F2CD02B4B5868C0F33D
:1024200088104FEA401CBCEB000C6EEB0E0E4FEA1E
:102430008E1343EA9C634FEA8C11B1EB0C0163EB02
:102440000E03DB0043EA5173C90011EB000C43F1AA
:102450000003590200234FEA4C2041EADC51FEF709
:102460002DFB194B5B68C3F3014301335B00B0FBE9
:10247000F3F008BD144B5868C0F388104FEA401CB5
:10248000BCEB000C6EEB0E0E4FEA8E1343EA9C631E
:102490004FEA8C11B1EB0C0163EB0E03DB0043EA56
:1024A0005173C90011EB000C43F1000399020023A2
:1024B0004FEA8C2041EA9C51FEF700FBD1E703482C
:1024C000D7E70348D5E700BF0038024000127A0082
:1024D0000024F400002800F09B8070B50D460446EF
:1024E0004F4B1B6803F00F038B4208D2CBB24C4A10
:1024F0001370136803F00F038B4240F08B80236846
:1025000013F0020F17D013F0040F04D0454A93685C
:1025100043F4E0539360236813F0080F04D0414A5A
:10252000936843F4604393603E4A936823F0F0035A
:10253000A1680B439360236813F0010F32D06368E6
:10254000012B21D09A1E012A25D9364A126812F091
:10255000020F61D033498A6822F0030213438B6073
:10256000FFF790F806462F4B9B6803F00C03626858
:10257000B3EB820F16D0FFF785F8801B41F288334A
:102580009842F0D9032042E0264A126812F4003F34
:10259000E0D101203BE0234A126812F0007FD9D13C
:1025A000012034E01E4B1B6803F00F03AB4207D938
:1025B000EAB21B4B1A701B6803F00F03AB422DD11C
:1025C000236813F0040F06D0164A936823F4E053EF
:1025D000E1680B439360236813F0080F07D0114A9A
:1025E000936823F46043216943EAC1039360FFF7D2
:1025F00003FF0C4B9B68C3F303130B4AD35CD84017
:102600000A4B18600A4B1868FEF7F0FF002070BDF7
:10261000012070470120FAE70120F8E70120F6E7E2
:10262000003C02400038024020A7000800000020C3
:1026300008000020014B1868704700BF0000002010
:1026400008B5FFF7F7FF044B9B68C3F38223034AE7
:10265000D35CD84008BD00BF0038024018A700086E
:1026600008B5FFF7E7FF044B9B68C3F34233034A07
:10267000D35CD84008BD00BF0038024018A700084E
:1026800000285AD010B50446436A33B94368B3F5FD
:10269000827F05D00023C36102E000230361436110
:1026A0000023A36294F85130002B40D0022384F819
:1026B00051302268136823F040031360636803F409
:1026C0008273A26802F404421343E26802F40062D7
:1026D0001343226902F002021343626902F001020D
:1026E0001343A26902F400721343E26902F0380254
:1026F0001343226A02F080021343A26A02F40052DA
:10270000216813430B60638B03F00403626A02F0D9
:102710001002216813434B602268D36923F40063DD
:10272000D36100206065012384F8513010BD84F826
:1027300050302046FEF798FDB8E701207047026848
:1027400002F10C0353E8003F23F490730C3242E88B
:1027500000310029F3D1026802F1140353E8003F6D
:1027600023F00103143242E800310029F3D1036B56
:10277000012B05D0202380F83E30002303637047EF
:10278000026802F10C0353E8003F23F010030C32FF
:1027900042E800310029F3D1ECE790F83D30DBB29C
:1027A000212B01D0022070478368B3F5805F17D0DA
:1027B000036A5A1C02621A7803685A60C38C9BB27F
:1027C000013B9BB2C3844BB90268D36823F08003FA
:1027D000D3600268D36843F04003D36000207047A1
:1027E0000369002BE4D1036A1B880268C3F3080362
:1027F0005360036A02330362E0E7000010B5044649
:102800000268136923F44053C1680B431361836862
:1028100002691A4343691A43C3691A430168CB68C2
:1028200023F4164323F00C031343CB60026853696F
:1028300023F4407381690B4353610368314A934227
:1028400006D002F58062934202D0FFF7F9FE01E064
:10285000FFF706FFE369B3F5004F29D00021031805
:1028600049411B1841F10001C90041EA5371DB00E5
:10287000181863684FEA83024FEA937341F100012D
:10288000FEF71CF9204AA2FB00314909642303FB2F
:1028900011031B013233A2FB03235B0903F0F00297
:1028A00002EB011203F00F03216813448B6010BD8B
:1028B0000023021843EB0301121841F10001C90083
:1028C00041EA5271D200101841F100016268921879
:1028D0005B41FEF7F3F80C4AA2FB0031490964237F
:1028E00003FB1103DB003233A2FB03235B095A0015
:1028F00002F4F87202EB011203F00703216813449B
:102900008B60D4E7001001401F85EB512DE9F8439F
:1029100005460F4616469946DDF820802B681C6850
:1029200037EA04040CBF01240024B4422DD1B8F1CD
:10293000FF3FF3D0B8F1000F05D0FEF7A3FEA0EBE8
:1029400009004045EAD92A6802F10C0353E8003F28
:1029500023F4D0730C3242E800310029F3D12A6805
:1029600002F1140353E8003F23F00103143242E85C
:1029700000310029F3D1202385F83D3085F83E3021
:10298000002385F83C30032000E00020BDE8F883F8
:1029900058B310B5044690F83D300BB3242384F8A7
:1029A0003D302268D36823F40053D3602046FFF7FC
:1029B00025FF2268136923F4904313612268536949
:1029C00023F02A0353612268D36843F40053D36091
:1029D00000202064202384F83D3084F83E3010BD70
:1029E00080F83C30FEF740FDD8E7012070472DE924
:1029F000F04182B01E4690F83D30DBB2202B54D11E
:102A000004460D469046002953D0002A53D090F832
:102A10003C30012B51D0012380F83C30002303646B
:102A2000212380F83D30FEF72DFE0746A4F82480D0
:102A3000A4F82680A368B3F5805F05D04FF00008A6
:102A4000002384F83C3012E0236913B14FF00008F2
:102A5000F6E7A8460025F3E738F8023B2268C3F3FF
:102A600008035360E28C92B2013A92B2E284E38CA2
:102A70009BB273B100963B46002280212046FFF7AF
:102A800045FFE0B9002DE7D015F8012B23685A6007
:102A9000E8E700963B46002240212046FFF736FF3C
:102AA00078B9202384F83D3000E0022002B0BDE870
:102AB000F0810120FAE70120F8E70220F6E7032081
:102AC000F4E70320F2E7704708B50168CA6822F00E
:102AD0004002CA60202280F83D20FFF7F4FF00206A
:102AE00008BD7047704708B5806B0023C385C38459
:102AF000FFF7F8FF08BD704790F83E30DBB2222B9D
:102B000067D18368B3F5805F4DD0826AB3F5805F8B
:102B100004D0002B54D10369002B51D103685B68AA
:102B20001370836A01338362C38D9BB2013B9BB2F6
:102B3000C385002B4FD100B583B00268D36823F062
:102B40002003D3600268D36823F48073D3600268E3
:102B5000536923F001035361202380F83E30036B57
:102B6000012B33D100230363026802F10C0353E805
:102B7000003F23F010030C3242E800310029F3D16A
:102B800003681A6812F0100F06D0002201921A682A
:102B900001925B680193019B818DFFF7ACFF0020E0
:102BA00003B05DF804FB0269002AAED1826A0368B3
:102BB0005B68C3F308031380836A02338362B3E75D
:102BC00003685B6803F07F031370AAE7FFF789FFD0
:102BD000E5E70220704700207047000010B582B082
:102BE000044602681368D068516913F00F0F09D1C9
:102BF00013F0200F0CD010F0200F09D02046FFF763
:102C00007BFF16E011F0010115D110F4907F12D175
:102C1000216B012979D013F0800F03D010F0800FC1
:102C200040F0108113F0400F03D010F0400F40F03F
:102C30000D8102B010BD13F0010F06D010F4807F9B
:102C400003D0226C42F00102226413F0040F04D07E
:102C500019B1226C42F00202226413F0020F04D078
:102C600019B1226C42F00402226413F0080F07D05D
:102C700010F0200F00D119B1226C42F0080222643A
:102C8000226C002AD5D013F0200F02D010F0200FB4
:102C900029D123685B6903F04003226C12F0080F0E
:102CA00000D163B32046FFF74AFD23685B6913F048
:102CB000400F20D0226802F1140353E8003F23F0B4
:102CC0004003143242E800310029F3D1A36B73B101
:102CD000604A1A65A06BFEF7A3FD0028A9D0A06B7F
:102CE000036D9847A5E72046FFF706FFD1E720468A
:102CF000FFF7F8FE9DE72046FFF7F4FE99E7204630
:102D0000FFF7F0FE0023236493E713F0100F82D047
:102D100010F0100F3FF47FAF00230193136801936D
:102D200053680193019B536913F0400F50D0A26B7D
:102D300013685B689BB2002B3FF47BAFA18D994277
:102D40007FF677AFE385D369B3F5807F37D022680C
:102D500002F10C0353E8003F23F480730C3242E885
:102D600000310029F3D1226802F1140353E8003F37
:102D700023F00103143242E800310029F3D1226824
:102D800002F1140353E8003F23F04003143242E8F9
:102D900000310029F3D1202384F83E30002323633F
:102DA000226802F10C0353E8003F23F010030C32B9
:102DB00042E800310029F3D1A06BFEF7E7FCA18DBA
:102DC000E38D9BB2C91A89B22046FFF794FE30E723
:102DD000A18DE38D9BB2C91A89B2E38D9BB2002B02
:102DE0003FF427AF00293FF424AF226802F10C031F
:102DF00053E8003F23F490730C3242E8003000287F
:102E0000F3D1226802F1140353E8003F23F00103D9
:102E1000143242E800300028F3D1202384F83E30F9
:102E200000232363226802F10C0353E8003F23F0E0
:102E300010030C3242E800300028F3D12046FFF79F
:102E40005AFEF6E62046FFF7A8FCF2E62046FFF71A
:102E50003BFEEEE6E72A000882B000230193019BC7
:102E600001330193019A0F4B9A4215D80369002B45
:102E7000F5DA00230193036943F001030361019B29
:102E800001330193019A074B9A4208D8036913F062
:102E9000010FF4D1002000E0032002B070470320AE
:102EA000FBE700BF400D030084B010B5044603A843
:102EB00080E80E00089B012B1FD1A36B23F4803305
:102EC000A363E36823F4840323F04003E360E3682F
:102ED00023F44013E3600F9B012B09D02046FFF73A
:102EE000BBFF069B012B1BD0BDE8104004B0704710
:102EF000E36843F48013E360F0E7E36843F04003E2
:102F0000E3602046FFF7A8FF0C9B23B9A36B43F4B3
:102F10008033A363E5E7A36B23F48033A363E0E787
:102F2000A36843F00603A360A36843F02003A360F3
:102F3000DAE7836823F00103836000207047000014
:102F400082B000230193019B01330193019A0F4B3F
:102F50009A4215D80369002BF5DA00230193890101
:102F600041F020010161019B01330193019A074B5C
:102F70009A4208D8036913F0200FF4D1002000E032
:102F8000032002B070470320FBE700BF400D0300A1
:102F900082B000230193019B01330193019A0E4BF0
:102FA0009A4213D80369002BF5DA0023019310230A
:102FB0000361019B01330193019A074B9A4208D8A0
:102FC000036913F0100FF4D1002000E0032002B0D9
:102FD00070470320FBE700BF400D0300D0F8003826
:102FE0001943C0F8001800207047000084B02DE994
:102FF000F041044607A880E80E00002306E003F134
:10300000400204EB82020021516001330E2BF6D9FD
:10301000119F27BBD4F8043843F00203C4F80438E6
:10302000A36B43F40013A363A36B23F40023A363F4
:10303000A36B23F48023A3630023C4F8003E04F5AC
:103040000065D4F80038C4F800380C9B012B14D16B
:10305000099B6BB900212046FFF7C0FF11E0A36B6D
:1030600023F40013A363A36B43F40023A363E3E7F8
:1030700001212046FFF7B2FF03E003212046FFF7BE
:10308000ADFF10212046FFF75BFF804608B14FF0EF
:1030900001082046FFF77CFF08B14FF0010800232C
:1030A0002B616B61EB610AE0C3B94FF00060C2F8BD
:1030B000000900220A614FF67F328A6001330799C6
:1030C000994210D904EB431202F51061D2F80009BD
:1030D0000028E9DB0020C2F80009EAE74FF0904041
:1030E000C2F80009E5E700230AE0C3B14FF0904CB5
:1030F000C2F800CB002202614FF67F3282600133BA
:10310000994211D904EB431202F53060D2F8006BFA
:10311000002EEADB4FF0000CC2F800CBEAE74FF0DC
:10312000006CC2F800CBE5E72B6923F480732B61B8
:103130000023A3616FF0804363610A9B1BB9A369FD
:1031400043F01003A361A2690B4B1343A3610D9BD2
:103150001BB1A36943F00803A361012F04D04046CB
:10316000BDE8F04104B07047A36943F0804343F0E9
:103170000403A361F3E700BF00383C80D0F8003EB1
:1031800023F00303C0F8003ED0F8043843F00203F4
:10319000C0F8043800207047406900F00100704713
:1031A00038B50546C36823F0C043C360012913D076
:1031B00019BBC36843F08043C36000240120FEF7BD
:1031C00067FA01342846FFF7E7FF08B1312CF5D93B
:1031D000322C14D0002038BDC36843F00053C360C4
:1031E00000240120FEF754FA01342846FFF7D4FFEB
:1031F0000128EDD0312CF4D9EAE70120EBE70120DA
:10320000E9E710B504460023C8220146303000F03B
:1032100063FE002000F0A8F8012000F0A5F80220CD
:1032200000F0A2F800F05AF894F82830013384F83E
:10323000283010BD08B50023C8220146303000F008
:103240004BFE002000F0A0F8012000F09DF80220C5
:1032500000F09AF800F04AF808BD38B50446002599
:1032600080F82C5080F82D5080F82E5000F12C0161
:10327000303000F005FE84F8285038BD08B50D4800
:1032800001F010F80C490D4800F0AAFF00F02CFAEC
:1032900001460B4800F0A4FF00F02AFA0146094855
:1032A00000F09EFF084800F0FDFF084800F0FAFF1C
:1032B00008BD00BFD8A20008DCA8000808A30008C9
:1032C00020A3000838A3000850A30008C8A40008E1
:1032D00008B5FFF7D3FF00F0C5F908BD08B50248EF
:1032E00000F0E0FF08BD00BFE4A4000808B50248F4
:1032F00000F0D8FF08BD00BFECA4000808B5074BDC
:103300001B681BB1013B054A136003B108BD13469E
:103310000A221A6000F06CFDF8E700BF440F00209D
:1033200008B5054800F0BEFF044B0A221A600448A5
:10333000FEF714F808BD00BFF4A40008440F0020F5
:10334000FD32000808B5054800F0ACFF044A1368D8
:103350000133136000F03EF808BD00BF04A500086B
:10336000400F002062B6704708B50122044B33F8C5
:103370001010044B53F82000FEF795FD08BD00BF68
:10338000A8A700085000002008B50022044B33F81D
:103390001010044B53F82000FEF785FD08BD00BF58
:1033A000A8A700085000002010B5044601E0984787
:1033B00004342368002BFAD110BD0000034B002217
:1033C0001A80034B01221A60704700BF4C0F002087
:1033D000480F002038B5144800F064FF134B1B68F9
:1033E0000BB30323124D01E0083523465A1ED4B215
:1033F0006BB12A880F4B1B88B3FBF2F102FB113330
:103400009BB2002BF0D16868FFF7CEFFECE7094ACA
:10341000138801339BB2138035F8082C934202D3F2
:10342000044B00221A8038BD18A50008480F002060
:10343000B0A700084C0F002008B54FF40051034816
:10344000FEF72AFDB0FA80F0400908BD00080240EE
:10345000B0F5005F00D0704710B5034B1C6814B185
:10346000FFF7EAFFA04710BD500F002008B54FF44A
:103470000050FEF71FFD08BD08B50120FEF71AFD3C
:1034800008BD08B50220FEF715FD08BD08B5084BBC
:10349000D3F888301A6812F0200F05D05868C0B2EF
:1034A000044B1B6803B198470348FFF797FB08BD1F
:1034B000640F0020600F0020EC0F002010B50B4BB4
:1034C0005B6C1A6812F0200F0BD05C68E4B2084BFA
:1034D0001B680BB120469847064B1B680BB1204672
:1034E00098470548FFF77AFB10BD00BF640F002026
:1034F000580F0020540F0020A80F002008B5084BDB
:103500001B681A6812F0200F05D05868C0B2054B2E
:103510001B6803B198470248FFF760FB08BD00BF76
:10352000640F00205C0F002008B5084BD3F8CC30A6
:103530001A6812F0200F05D05868C0B2044B1B68FF
:1035400003B198470348FFF749FB08BD640F00200B
:10355000540F002030100020072802D8024B185CBE
:103560007047FF20704700BFD4A80008014B185CCB
:10357000704700BFD4A70008437863B310B5014675
:10358000EFF311834FF0000282F31188BFF36F8FC6
:10359000BFF34F8F1A46104B1868441C1C604B78C1
:1035A000012B09D9013B4B700B490B68013B0B60A8
:1035B00083B982F311880DE08B78013BDBB2064CB6
:1035C000206008B982F31188044A02EBC3035868EB
:1035D00000F006F810BD70478C1000207410002019
:1035E00008B500F063F808BD0078003818BF012066
:1035F000704770B504460D46CE083046FFF7ACFF65
:1036000023780343237005F00700FFF7A5FF344438
:1036100063780343637070BD38B505460C4601F00E
:103620000700FFF799FFE20805EBD404637823EA6B
:103630000003637003B138BD1046FFF78DFF2B7890
:1036400023EA00032B70F6E738B504460078FFF74D
:103650008DFFC500EDB204446078FFF787FF284472
:10366000C0B238BD7047000038B5FFF759FE12E010
:1036700000F086FB0C4B53F8205062B6284600F051
:1036800062FB0446AB685B680146284698472946BA
:103690002046FFF771FF72B600F05AFB0028E7D111
:1036A000FFF760FEF7E700BFBC100020EFF31183C7
:1036B0004FF0000282F31188BFF36F8FBFF34F8F7B
:1036C0009C46084A13680133136003680B6001606D
:1036D0000379013303711368013B13600BB98CF359
:1036E000118870478C1000200048704724A50008FE
:1036F000004870472CA50008C160416081600270DD
:103700004FF0000C80F801C001EB820101614361C0
:103710007047000070B50446EFF311864FF00003C8
:1037200083F31188BFF36F8FBFF34F8F1A4B1A6863
:10373000511C19604569D5B1284600F029FB636822
:103740001A1D62601D686378013BDBB263702169FA
:103750008A4215D06069B0B1ABB900F020FB0E4AC7
:103760001368013B1360ABB986F3118812E043780C
:10377000002BE4D1084B1A6062B986F3118809E086
:10378000E2686260E6E7044A1368013B13600BB924
:1037900086F31188284670BD8C10002008B5427849
:1037A00003789A420ED283681A1D826019604378AA
:1037B00001334370826803699A4204D0406908B1BA
:1037C00000F0E7FA08BDC3688360F7E708B5427800
:1037D00003789A420FD24268C3689A420CD0436879
:1037E0001A1F426043F8041C437801334370406958
:1037F00008B100F0CEFA08BD03694360EFE700E0CE
:1038000010300378FF2B03D0FE2BF9D10120704735
:103810000020704738B504460568802D05D0882DF6
:103820000CD1E36843B1012009E00069FFF7E7FF2D
:103830000028F4D0012002E0002000E0002038BD84
:103840001378012B0AD859B103681960036804334F
:103850000360137801331370002070470120704714
:103860000020704703460068A0F1800CBCF1010FF6
:103870000BD988280BD00020704741F8043BDB6847
:103880000130C0B29342F8D170470020FAE700201F
:10389000F8E700002DE9F04F85B005460E460B789D
:1038A000FD2B14BF002301234FF00008C346DBB9F2
:1038B0006968BBF1000F02D04FF0000B854EB3B129
:1038C000854A11602A689068844A10600022844802
:1038D0000270844802700F46834A00201070B94677
:1038E00003913C469A462AE12A685168E1E77A4A00
:1038F0001160002489469A4613E010342378FF2B88
:1039000008D0BB42F9D1636823B1314628469847B5
:103910000128F2D12378FF2B09D16F4B1A68D268A6
:103920001A606D4B1B6813B137781C69E6E749468E
:1039300053462278FF2A00F05F81E768A068674A53
:103940001060C9E74C4635E0DFF8A091D9F80030A7
:103950001B68314628469847D9F800300433C9F827
:103960000030634A1378013B1370614B1B78002BC6
:10397000EAD15E4B5F4A1A60646800E01034237835
:10398000FF2B07D06368002BF8D0314628469847B4
:103990000128F3D12378FF2B00F03A81544AA16823
:1039A0005248FFF74DFF002840F03581E468B8F138
:1039B000000F0ED1236813F0800F01D0822B11D19C
:1039C000022BD9D0042B40F01D81484B494A1A6084
:1039D000CBE7414B1A6848492046FFF743FF404B6D
:1039E0001870E7E7A146B8F1000F6AD1BAF1000FED
:1039F00009D0002240492046FFF734FF384A1378A7
:103A000003441370ABE000233C4A13703C4A13702C
:103A1000344A13703B4B039A1A6019E0384B012269
:103A20001A70374B1B781BB12E4B1B78002B42D1E1
:103A3000A3680BB128469847314B1B78012B2DD03A
:103A4000304B1A68D2681A60264A13780133137013
:103A50002C4B1C68002C2ED0284B00221A702A4BAD
:103A6000254A1A601C4BC3F800901B4B1B68002BA7
:103A7000D7D0A342D2D0214A1278012A00F2CE80B8
:103A80002148016841F8043BD3F80CC0124BC3F83D
:103A900000C001600132194B1A70E6E71A4B1B682F
:103AA0000D4A12681A60154A1378013313700D4AD3
:103AB000137801331370114B1A78094B1A704C4666
:103AC0004DE0054B1A680C492046FFF7CBFE044B2E
:103AD000187044E0E8A80008B8100020B4100020D6
:103AE000B3100020B2100020B1100020AC10002054
:103AF000B0100020A41000209C100020991000207D
:103B0000981000209410002090100020454C23684D
:103B10001B68314628469847236804332360424A8D
:103B20001378013B1370404B1B78002BEED1029CA5
:103B30003C4B3E4A1A60BFB9B8F1000F53D03A4A25
:103B4000002313703748394B0360394B1968FFF76E
:103B500077FE0190002852D1002F7FF4F3AE314B55
:103B6000324A1A600294DEE7324B1A78324B1A70EE
:103B7000324B03EB8203324A1360584608E0304B65
:103B80001B681868FFF746FE2B4A1378013B137039
:103B9000294B1B785BB12A4A1368191F116053F82F
:103BA000043C5B68002BEAD028469847E7E7834649
:103BB000234B1B681A68234B1A60234A13781D494C
:103BC00009780B4413702368812B09D1A269184B23
:103BD0001A60D4F814901B4B1C604FF00108ABE73F
:103BE000DDF80480A8E717B1164B1B686B60BBF1CA
:103BF000000F09D043465AE64FF0010B04E04FF0A6
:103C0000060B01E04FF0040B584605B0BDE8F08FFD
:103C10004FF0020BF8E74FF0060BF5E74FF0050BFE
:103C2000F2E700BFAC100020B0100020A41000206C
:103C3000B4100020B3100020991000209C10002028
:103C400090100020B8100020B110002008B50249E3
:103C5000FFF720FE08BD00BFE4A8000810B5EFF391
:103C600011844FF0000383F31188BFF36F8FBFF30C
:103C70004F8F0A4A1368013313608B7813B14B7866
:103C800001334B700C30FFF789FD044A1368013B88
:103C900013600BB984F3118810BD00BF8C10002095
:103CA00010B5EFF311844FF0000383F31188BFF3D5
:103CB0006F8FBFF34F8F0A4A1368013313608B78FD
:103CC00013B14B7801334B700C30FFF77FFD044A82
:103CD0001368013B13600BB984F3118810BD00BF5A
:103CE0008C10002008B5FFF7D5FD08BD10B403689F
:103CF00093F800C0EFF311834FF0000282F31188B4
:103D0000BFF36F8FBFF34F8F1946064A13685C1CD1
:103D10001460054C44F82C0013600BB981F3118832
:103D200010BC70478C100020BC10002010B5044659
:103D300003460C30FFF7E0FC2046FFF7D7FF204694
:103D4000FFF784FF10BD08B50C30FFF7E3FC08BD9A
:103D500008B50248FFF748FC08BD00BFC4100020AA
:103D600008B501460148FFF744FC08BDC410002017
:103D700008B501460148FFF74FFC08BDC4100020FC
:103D800008B50248FFF760FC08BD00BFC410002062
:103D9000704708B503681878FFF7E2FF08BD08B55B
:103DA00003681878FFF7E4FF08BD0000064B1B68A6
:103DB000834204D043684B60002303747047426819
:103DC000014B1A60F8E700BFC810002008B5034691
:103DD000064A1068002101E00146406808B1984297
:103DE000FAD108B1FFF7E2FF08BD00BFC8100020FC
:103DF00070B5204800F056FAFFF7A4FAEFF31186E9
:103E00004FF0000383F31188BFF36F8FBFF34F8F21
:103E1000194A136801331360184B1C6800250BE026
:103E200029462046FFF7C2FF05E029462046FFF756
:103E3000BDFF10E0254664689CB1237C002BEFD0C9
:103E4000A389013B9BB2A381002BF3D1E389002B13
:103E5000EBD0A3812546A06883689B6821689847BA
:103E6000E9E7054A1368013B13600BB986F3118833
:103E700070BD00BF40A500088C100020C8100020B5
:103E800070B504460D46124800F00CFAEFF31186A7
:103E90004FF0000383F31188BFF36F8FBFF34F8F91
:103EA0000C4A136801331360237C012B0BD00023D1
:103EB000A38123742560074A1368013B13600BB983
:103EC00086F3118870BD2046FFF780FFEFE700BF43
:103ED00050A500088C10002070B4EFF311844FF04F
:103EE000000585F31188BFF36F8FBFF34F8FA44692
:103EF0000A4D2C68661C2E6081608281C381037C20
:103F00002BB9074B1A684260186001230374034BF6
:103F10001C600CB98CF3118870BC70478C100020A9
:103F2000C81000202DE9F047089D0E4604460F46B4
:103F3000002B4AD194468C45B2FA82F260D942B144
:103F4000C2F12003974020FA03F30CFA02FC1F434E
:103F500094404FEA1C4E1FFA8CF6B7FBFEF1230C7F
:103F60000EFB117743EA074301FB06F098420AD99A
:103F70001CEB030301F1FF3780F01581984240F2FA
:103F80001281023963441B1AA4B2B3FBFEF00EFB8C
:103F9000103344EA034400FB06F6A6420AD91CEBA0
:103FA000040400F1FF3380F00081A64240F2FD805E
:103FB0006444023840EA0140A41B00211DB1D440F2
:103FC0000023C5E90043BDE8F0878B4205D90DB158
:103FD000C5E9000100210846F5E7B3FA83F100299D
:103FE00046D1B34202D3824200F2F580841A66EBD6
:103FF000030201201746002DE5D0C5E90047E2E79E
:10400000002A40F09380A1EB0C034FEA1C471FFAF3
:104010008CFE0121B3FBF7F607FB1630230C43EAB5
:1040200000430EFB06F0984208D91CEB030306F18F
:10403000FF3802D2984200F2D08046461B1AA4B242
:10404000B3FBF7F007FB103344EA03440EFB00FE1A
:10405000A64508D91CEB040400F1FF3302D2A645A3
:1040600000F2B6801846A4EB0E0440EA0640A5E72D
:10407000C1F120078B4022FA07FC4CEA030C06FA38
:1040800001FE20FA07F426FA07F344EA0E0400FAC8
:1040900001F84FEA1C404FEA1449B3FBF0FE1FFA47
:1040A0008CF600FB1E3349EA03430EFB06F99945E3
:1040B00002FA01F20BD91CEB03030EF1FF3A80F078
:1040C0008580994540F28280AEF1020E6344A3EBF5
:1040D0000909A4B2B9FBF0F300FB139944EA0944BF
:1040E00003FB06F6A64208D91CEB040403F1FF30DB
:1040F00068D2A64266D9023B644443EA0E40A41B40
:10410000A0FB02E6B4427346B14652D34FD05DB134
:10411000B8EB030264EB090404FA07F722FA01F38F
:104120001F43CC40C5E9007400214CE7C2F12001D7
:1041300020FA01F30CFA02FC26FA01F1964033430F
:104140004FEA1C471FFA8CFEB1FBF7F007FB101675
:10415000190C41EA064100FB0EF68E4204FA02F405
:1041600008D91CEB010100F1FF382DD28E422BD96A
:1041700002386144891B9BB2B1FBF7F607FB1611AD
:1041800043EA014306FB0EF1994208D91CEB0303F5
:1041900006F1FF3814D2994212D9023E63445B1AE9
:1041A00046EA004136E73946EDE6184602E7F045B3
:1041B000ADD2BEEB020366EB0C060138B146A6E7B2
:1041C0004646ECE7034698E74046D3E7D6467EE707
:1041D0006444023847E708460DE7023E63442DE792
:1041E0000FB400B5074983B004AB086853F8042B3B
:1041F0008168019300F012FD03B05DF804EB04B098
:10420000704700BFD401002070B5054688B008464D
:104210000C46FCF715FD224E6A6B059001214318F0
:10422000CDE9066104A8022104940393AC680190CF
:1042300002916AB3636EB4F90C20D90701D49605D4
:104240001FD5900405D442F4005223F40053A281F8
:104250006366990420D401AA2146284602F04CFB4B
:10426000636EC8B90A25DA0702D4A3899B0502D573
:10427000284608B070BDA06D00F0F6F9284608B0D9
:1042800070BDA06D00F0EEF9B4F90C20636ED8E7B4
:10429000284600F0B3F8CDE74FF0FF35E3E700BF65
:1042A00004A30008024B01461868FFF7ADBF00BF2A
:1042B000D4010020024A0349034802F0A5BC00BF14
:1042C0005C00002051770008D80100200C4B4168A9
:1042D000994210B5044601D003F03AFAA168094B9F
:1042E000994202D0204603F033FAE168064B994226
:1042F00004D02046BDE8104003F02ABA10BD00BF2C
:10430000CC100020341100209C1100202DE9F8432E
:10431000314A324C3249DFF8CC90DFF8CC80334F51
:104320001160002504232946082204F15C00C4E939
:1043300003352F4EA560C4E90055C4E905556566EF
:1043400000F006F904F15800C4E90749C4E90987F7
:10435000E66200F083F92946264B6367082204F1E0
:10436000C400C4E91A55C4E91E552567C4F8CC50E9
:10437000C4F8805000F0ECF804F1680304F1C000C8
:10438000C4F88430C4E92298C4E9247600F066F9C0
:10439000194BC4F8DC30294604F596700822C4E9AC
:1043A0003455C4E93855C4F8D850C4F83451C4F869
:1043B000E85000F0CDF804F1D003C4E93D87C4F81B
:1043C000F09004F59470C4F8FC60C4F8EC30BDE8DB
:1043D000F84300F043B900BF04120020CC100020C5
:1043E000B54200088D790008B1790008F17900081C
:1043F000157A0008090001001200020010B50446F9
:104400000A4800F02FF9636B23B9094B094A1B686E
:10441000626323B1BDE81040044800F025B9FFF7FE
:1044200075FFBDE81040014800F01EB910120020D1
:1044300004120020CD420008014800F013B900BF6B
:1044400010120020014800F00FB900BF1012002028
:1044500088420ED98B1883420BD900EB020C002A3C
:104460006ED0624613F801CD02F801CD9942F9D120
:1044700070470F2A0FD8034602F1FF3C002A5FD095
:104480000CF1010C013B8C4411F8012B03F8012FB6
:104490006145F9D1704740EA01039B0751D1A2F170
:1044A000100370B501F1200C23F00F0501F1100E7F
:1044B00000F11004AC441B095EF8105C44F8105C79
:1044C0005EF80C5C44F80C5C5EF8085C44F8085C30
:1044D0005EF8045C44F8045C0EF1100EE64504F14D
:1044E0001004E9D1013312F00C0F01EB031102F0BB
:1044F0000F0400EB031328D0043C24F003064FEA1A
:10450000940C1E441C1F8E465EF8045B44F8045F46
:10451000B442F9D10CF1010402F0030203EB84036D
:1045200001EB840102F1FF3C4AB10CF1010C013BAB
:104530008C4411F8012B03F8012F6145F9D170BDAE
:10454000704702F1FF3C03469AE72246EAE700BFC4
:10455000830730B547D0541E002A3ED0CAB2034666
:1045600001E0013C39D303F8012B9D07F9D1032C5D
:104570002CD9CDB205EB05250F2C05EB054535D91A
:10458000A4F1100222F00F0C03F1100EE6444FEAE2
:10459000121C1A46C2E90055C2E902551032724592
:1045A000F8D10CF1010214F00C0F03EB021204F02D
:1045B0000F0C13D0ACF1040323F0030304331344B2
:1045C00042F8045B9342FBD10CF003042CB1C9B256
:1045D0001C4403F8011BA342FBD130BD64461346C3
:1045E000002CF4D1F9E703461446C0E71A46A44666
:1045F000E0E700BF014B93F82801704768000020F6
:10460000014B1868704700BFD401002070B50F4BF4
:104610000F4DAB42A3EB050607D0B610002455F8AA
:10462000043B01349847A642F9D805F03DFE094DF8
:10463000094B5E1BAB424FEAA60606D0002455F894
:10464000043B01349847A642F9D870BD48AB000836
:1046500048AB000848AB000850AB0008704700BFEB
:10466000704700BF704700BF704700BF024B13B1D7
:10467000024800F005B8704700000000397C0008CF
:10468000002301461A46184603F01EBB2DE9F04FE1
:1046900001F10B05162D83B0064623D8102900F230
:1046A000AF8002F0A5FA102518230220B74F3B4433
:1046B000A3F108025C68944200F01F816368E2681D
:1046C000A16823F00303CA602344304691605A680E
:1046D00042F001025A6002F091FA0834204603B019
:1046E000BDE8F08F35F0070500F18A80A94200F29D
:1046F000878002F07DFAB5F5FC7FC0F06E816B0A11
:1047000000F08280042B00F21E81AB0903F1390016
:1047100003F1380EC3009D4F3B44A3F1080C5C68C5
:10472000A44507D10DE0002AE16880F2E0808C45C5
:1047300007D00C46636823F003035A1B0F2AF2DDEF
:104740007046DFF84C823C69444500F0BD806368E8
:1047500023F0030CACEB05030F2B00F34281002B7D
:10476000C7E9048880F22D81BCF5007FD7F804E00A
:1047700080F0C9804FEADC0101314FEA5C1C012363
:1047800003FA0CF357F83120A2604EEA030E07EB50
:10479000C103083BE360C7F804E047F83140D46048
:1047A00083104FF0010C0CFA03FCF44532D81CEADC
:1047B0000E0F08D120F003004FEA4C0C1CEA0E0F3C
:1047C00000F10400F8D007EBC00AD6468146DEF8B7
:1047D0000C300BE0596821F003014A1B0F2A1C46DC
:1047E000DB6800F3BC80002A80F2DE809E45F1D1B8
:1047F00009F1010919F0030F0EF1080EE7D119E1D3
:104800000C233360002469E74FF4007340204FF01D
:104810003F0E80E7BC68636823F00309A94503D312
:10482000A9EB05030F2B52DC5A4B1B68082003F140
:10483000100804EB0903009303F0F0F9564A1368DB
:104840000133A844834605D008F1FF388044434231
:1048500003EA08084146304603F0B8F9B0F1FF3FDB
:104860004D4A824600F0D88004EB0903834200F2EF
:10487000D1804A4B186840440BF1FF3118608446E0
:1048800040F0FB801AEA010F40F0F780D7F808A04B
:10489000C84448F00102CAF80420414B196881421B
:1048A00038BF18603F4B1968814238BF18605446C2
:1048B00022F00308A845A8EB050301D30F2B06DC63
:1048C000304602F09BF99DE7D7F804E068E76219EB
:1048D00043F0010345F0010565603046BA6053605E
:1048E00002F08CF90834204603B0BDE8F08FA268CE
:1048F0002344D16030468A60E9E6DC68A3427FF455
:10490000DDAE02301DE7BCF5206F4FEA5C227AD3A2
:10491000142A00F2128102F15C03DB005B32F91809
:10492000FB580839994203D1ECE09B68994204D0C6
:104930005A6822F003026245F7D8D968C4E9023107
:104940008C60DC602CE7142B69D9542B00F2FE80BC
:104950002B0B03F16F0003F16E0EC300DBE6D4F8FE
:1049600008C03046661945F001056560CCF80C308A
:10497000C3F808C042F00103C7E90466C6E902882B
:104980007360625002F03AF90834A7E62803002069
:1049900030030020481200201C03002018120020C1
:1049A0004412002040120020214430464A6842F060
:1049B00001024A6054F8082FD3609A6002F01EF991
:1049C0008CE6A4443046DCF8043043F00103CCF814
:1049D000043002F013F9083480E6E80805F1080312
:1049E00064E6621943F0010145F001056560304657
:1049F000C7E90422C2E90288516044F80C3002F091
:104A0000FDF808346AE64FEA9C1202F13903DB0034
:104A1000383284E7BC4228D0BC68626848E703F1BA
:104A20005C0003F15B0EC30075E65AF80839534584
:104A300040F0DA8010F0030F00F1FF30F5D17B6811
:104A400023EA0C037B604FEA4C0C9C453FF6E2AE38
:104A5000BCF1000F04D1DDE64FEA4C0C09F104096A
:104A60001CEA030FF8D04846ADE6604B186808EB27
:104A7000000C0BF1FF31C3F800C0106801306FD09B
:104A800004EB0902AAEB020262441A601AF0070260
:104A9000CDE9002340D0C2F108029244D04408EA94
:104AA00001005A44121A02EA010B5946304603F03B
:104AB0008DF8421C019B6FD0A0EB0A0000EB0B08A5
:104AC0001868C7F808A048F001025844BC42CAF868
:104AD000042018603FF4E1AEB9F10F0F43D96168CB
:104AE000A9F10C0222F0070201F0010111436160FB
:104AF0004FF0050CA1180F2AC1E901CC54D8DAF8FF
:104B00000420CAE692104FF0010C0CFA02F24EEAB1
:104B1000020EC7F804E011E70AEB08020A40ABEB0B
:104B2000020202EA010B5946304603F04FF8431CDB
:104B3000019BC1D1DDF800B0C2E7542A17D84FEA73
:104B40001C3202F16F03DB006E32E8E6B3F5AA7F98
:104B500017D8EB0B03F1780003F1770EC300DAE509
:104B6000C2F800A092E70123CAF80430A8E6B2F523
:104B7000AA7F24D84FEADC3202F17803DB007732D7
:104B8000CDE640F25452934224D8AB0C03F17D00A1
:104B900003F17C0EC300BEE5009A083A9044A8EBEE
:104BA0000A084FF0000B8BE7304604F10801009330
:104BB00004F08AF9009BD7F808A018689FE740F234
:104BC00054539A420CD84FEA9C4202F17D03DB0019
:104BD0007C32A4E64FF47E737F204FF07E0E9AE580
:104BE0004FF47E737E229AE67B682CE71812002031
:104BF00082B049B15AB16BB113780B601278101EB4
:104C000018BF012002B0704701A9002AF3D1104655
:104C100002B070476FF00100F4E700BF2DE9F04FDC
:104C2000DDB0164609911C4683460F9302F08CFFB7
:104C3000036818931846FCF703F808221790002120
:104C40002CA8FFF785FCBBF1000F04D0DBF8343053
:104C5000002B01F07380099A536EB2F90C20D8072B
:104C600002D4910540F17786970406D4099942F45D
:104C7000005223F400538A814B669D0401F14A845B
:104C8000099AB2F90C30190740F1CC801269002A58
:104C900000F0C88003F01A020A2A00F0D280002334
:104CA00033AA0024CDE93133CDE91B331293199394
:104CB00020931D930B930023CDE9143430921446B6
:104CC000B246914BD3F8E450FFF794FC2CAA03466C
:104CD000009228A952465846A847002800F0D080E4
:104CE000C0F2C680289A252A034601D09A44E8E7F4
:104CF000BAEB0607054640F0C78000231A464FF07E
:104D0000FF318DF897300C930AF1010A9AF80030C0
:104D10000A9108920AF1010AA3F120025A2A00F22C
:104D2000F580DFE812F03603F300F3002F03F30001
:104D3000F300F3006A00F300F30075026403F3006C
:104D400080024803F30041035B005B005B005B00F3
:104D50005B005B005B005B005B00F300F300F300B3
:104D6000F300F300F300F3006D01F3000102EA0227
:104D70006D016D016D01F300F300F300F300E30238
:104D8000F300F3008702F300F300F3001E02F300C8
:104D9000BD02F300F300EC06F300F300F300F300B0
:104DA000F300F300F300F3006D01F3000102500281
:104DB0006D016D016D01D0025002FA01F300040390
:104DC000F300200312070E03FA01F3001E027C0019
:104DD000E806F300F3001507F3007C00A3F13002AE
:104DE00000211AF8013B01EB810102EB4101A3F123
:104DF0003002092AF5D90C918EE7584602F0A4FE3C
:104E000043681D931846FBF71BFF20900546584644
:104E100002F09AFE83681B93002D40F006869AF8F4
:104E2000003077E7099D5846294602F0F7FD002833
:104E300041F0B284B5F90C3003F01A020A2A7FF46B
:104E40002EAF0999B1F90E20002AFFF628AF4A6E5D
:104E5000D50702D4980541F12C81099923463246A1
:104E6000584601F009FD0B900B985DB0BDE8F08F3E
:104E7000082200212CA8FFF76BFB01239A4420E7AE
:104E8000BAEB0607054610D0329B3B443293319B68
:104E90000133072BC4E90067319310DC08340B9B06
:104EA0003B440B93002D7FF428AF329B002B41F045
:104EB000E980099B0022B3F90C30319218E009997E
:104EC00030AA584602F026FC78B933ACE7E70999D6
:104ED00030AA584602F01EFC002800F086800E9B87
:104EE0001BB10E99584603F0EFFF099BB3F90C3044
:104EF000099A526ED00740F106815A0601F11483D7
:104F00000B985DB0BDE8F08F680000201093002B77
:104F1000CBD000228DF80C310123CDE90D328DF874
:104F2000972006930A9216921392119243AE089B11
:104F300013F0020302D00699023106910899329DBE
:104F400011F0840805D10C9906980F1A002F00F370
:104F50009E806AB101226260319A013201350DF101
:104F60009701072A32953192216000F3CE830834ED
:104F70006BB1319B26AA013302352260072B4FF01B
:104F8000020232953193626000F3B4830834B8F1C1
:104F9000800F00F0C8820A9B0D9A9F1A002F00F321
:104FA0000383089BDF0500F128820D9B63601D448D
:104FB000319B26600133072B3295319300F3388300
:104FC0000834089B5E0705D50C9B069A9E1A002E96
:104FD00000F3A883DDE90B3206998A42ACBF9B1827
:104FE0005B180B93002D7FF472AF002331930E9B5F
:104FF0001BB10E99584603F067FF33AC56465FE687
:1050000010930F9B073323F00703F3E802780F9305
:1050100028F000431F931E97DDE91E01AF4B4FF0B0
:10502000FF32CDE91478FBF7CBFE002840F00D8568
:10503000DDE91E01A94B4FF0FF32FBF7F9FC002818
:1050400040F003850022002338464146FBF7E6FC8A
:10505000002841F001829DF89720089BA04E23F084
:10506000800308939F4B10994729D8BF1E46002301
:1050700003210E9306910D910A93169313931193A6
:10508000002A3FF454AF069B013306934FE7102FDD
:10509000319A41F33B82DFF850C2CDF868C0214617
:1050A0002846099C21934FF01009654604E0103F03
:1050B000102F01F1080115DD01321030072AC1E976
:1050C0000059CDE93120F2DD30AA2146584602F0E0
:1050D00021FB00287FF403AF103F102FDDE93120C2
:1050E00033A9E9DC219B0C46054601321A9921605F
:1050F0003D44072ACDE93125676000F30F869DF80E
:105100009720083425E799053FF5F7AE099CA06D77
:10511000FFF7AAFAB4F90C30EFE6089B43F020033E
:1051200008939AF80030F5E50F9A1093432B02F19B
:10513000040500F04D85089BDA0600F149850F9BB8
:105140001B688DF80C31012306930D9343AE0022AA
:105150000F958DF897200E920A9216921392119243
:10516000E5E60F9F109357F8046B00238DF89730F6
:10517000002E00F01C85109B532B00F0F585089B3A
:1051800013F01003119340F0EF850A9B002BC0F23F
:10519000668711991A463046FBF7C2FD0E9000282B
:1051A00001F09E820E9B11999DF897200F979B1BF3
:1051B0000D9323EAE373069373230A9116911391D7
:1051C0000E9110935CE71093089B9B0640F19E8024
:1051D0000F9B073323F007031A46596852F8083B20
:1051E0000F920A460029C0F201840A990029C0F2F0
:1051F0007282089921F0800553EA020140F06C8226
:105200000A9A002A40F06D8208950D925CAE60E12A
:105210000F9B53F8042B0C92002A80F2AA830C9A5D
:105220000F9352420C92089B43F0040308939AF8A0
:1052300000306FE51093089B43F010030893089B20
:1052400013F0200200F076830F9B073323F007034F
:1052500019465A6851F8083B0F91089921F4806566
:10526000002100200A9E8DF89700002EC0F21A81BE
:1052700025F08000089053EA020040F01281002ED1
:1052800040F06185002940F0DA8415F001030D93A8
:1052900000F09A8330238DF86F310DF26F1618E10C
:1052A0001093089B43F0100515F0200200F03483A2
:1052B0000F9B073323F0070319465A6851F8083B40
:1052C0000F910121CDE79AF80030682B00F05B8444
:1052D000089A42F0400208921CE500BFFFFFEF7FF2
:1052E000ACA50008A8A5000810AA0008089B43F078
:1052F000080308939AF800300CE51093089B43F0DC
:1053000010030893089B9B063FF562AF0F9A52F873
:10531000043B0F92089AD70600F16383089A560659
:1053200040F15B8343F3C03211461BB25AE79AF84F
:1053300000306C2B00F03184089A42F01002089281
:10534000E8E40F9A089B43F0020552F8043B0F92E1
:1053500047F63002ADF898207820AD4A1992022124
:10536000002210907DE7089B9D0640F14D830F9B26
:105370000B9A1B681A60D2175A600F9B04330F9365
:1053800056469DE4089B43F0010308939AF80030C9
:10539000C0E49DF897209AF80030002A7FF4BAAC58
:1053A00020228DF89720B5E4089B43F080030893F2
:1053B0009AF80030AEE4504610F8013B2A2B01F079
:1053C0002382A3F13002092A98BF002101F2B180A3
:1053D00010F8013B01EB810102EB4101A3F1300226
:1053E000092AF5D941EAE1720A92824694E42B2314
:1053F0008DF897309AF800308CE4109B652B40F3C1
:105400002281DDE9140100220023FBF7FDFA0028C8
:1054100000F0C381319B7F4A2260013301350122B4
:10542000072B32953193626000F392840834279BF6
:10543000129A934280F29882179B189A1D44C4E9ED
:105440000023319B32950133072B319300F3908376
:105450000834129B5E1E002E7FF7B3AD102E319BD9
:10546000DFF8B49140F3DA80DDF82480102704E0FF
:105470000834103E102E40F3D18001331035072B35
:10548000C4E90097CDE93135F2DD30AA41465846EE
:1054900002F040F900287FF422ADDDE9313533AC6C
:1054A000E7E7089D012900F0178102295CAE1FD1B2
:1054B000199803F00F011B09415C06F8011D43EA2E
:1054C0000273120953EA0201F3D15CAB9B1B0895EE
:1054D0000D930A990D989DF8972081424FF0000393
:1054E000B8BF01460E930691169313931193C7E527
:1054F00003F00701DB0843EA4273D208303153EA74
:105500000207304606F8011DF2D1EB07DDD5302940
:10551000DBD03023023806F8013C5CAB1B1A08953F
:105520000D930646D5E70C9B069A9F1A002F7FF72E
:1055300032AD102F319BDFF8E09023DD2A464FF08B
:1055400010084D46DDF8249004E0103F102F04F1C0
:10555000080415DD01331032072BC4E90058CDE9EA
:105560003132F2DD30AA4946584602F0D3F800281D
:105570007FF4B5AC103F102FDDE9313233ACE9DCFC
:10558000A946154601333D44072BCDE93135C4F812
:105590000090676000F3E0820A9B0D9A9F1A002F2B
:1055A00004F108047FF7FDAC102F319BDFF8689001
:1055B00021DD2A464FF01008099D04E0103F102F0E
:1055C00004F1080416DD013313491032072BC4E936
:1055D0000018CDE93132F1DD30AA2946584602F0F3
:1055E00099F800287FF47BAC103F102FDDE93132B1
:1055F00033ACE8DC154601333D44072BCDE93135AA
:10560000C4F80090676000F37B810834C9E400BFF0
:10561000B8A50008E8A5000800AA00080133354431
:10562000072BC4F800906660CDE931357FF7C8AC30
:10563000099930AA584602F06DF800287FF44FAC63
:10564000329D33ACBDE4129B319F012B05F1010566
:1056500007F1010704F1080840F30E810123072F29
:10566000CDE931752660636000F3FA82179B189AC2
:1056700001371D44072FC8E90023CDE9317500F338
:10568000E28208F10808129BDDE914015C1E002289
:105690000023FBF7B9F9002840F0078101370136F4
:1056A0002544072FCDE93175C8F80060C8F80440DB
:1056B00000F3EE8008F108081C9BC8F8043001379D
:1056C0001D44072F2AABCDE93175C8F80030AFDC97
:1056D00008F1080475E4089D0A2B72F1000180F0BE
:1056E000CC8230338DF86F31012308950D930DF284
:1056F0006F16EEE6099930AA584602F00BF800281A
:105700007FF4EDAB329D33AC41E409991A9330AA92
:10571000584601F0FFFF00287FF4E1AB329D1A9B51
:1057200033AC25E4102E319B40F34787DFF8CC9251
:10573000DDF82480CDF86890102704E0103E102E8C
:1057400004F1080415DD01331035072BC4E9009777
:10575000CDE93135F2DD30AA4146584601F0DAFF95
:1057600000287FF4BCAB103E102EDDE9313533ACA0
:10577000E9DC01331A9A3544072BC4E90026CDE948
:1057800031357FF727AC099930AA584601F0C2FF9E
:1057900000287FF4A4AB329D1CE42799002940F334
:1057A000ED80DDE911839845A8BF9846B8F1000F58
:1057B0000ADD319B01334544072BC4E9006832956B
:1057C000319300F38A860834119FB8F1000FA8BF07
:1057D000A7EB0807002F00F35D83119B3344984625
:1057E000089B590500F18E85279B129A9342C0F2BF
:1057F0000782089AD20700F10382129AB718D61AC4
:105800004346FF1AB742A8BF3746002F0BDD319B36
:10581000C4F8008001333D44072B67603295319313
:1058200000F390860834002FA8BFF61B002E7FF7E8
:10583000C8AB102E319BDFF8C8917FF7EFAEDDF8D3
:105840002480102704E00834103E102E7FF7E6AEC7
:1058500001331035072BC4E90097CDE93135F2DD6E
:1058600030AA4146584601F055FF00287FF437AB77
:10587000DDE9313533ACE7E7089BDB073FF5EEAEFA
:105880000123072FCDE93175266063607FF714AFE0
:10589000099930AA584601F03DFF00287FF41FAB5C
:1058A000DDE931750DF1CC0806E7129B012B7FF77E
:1058B00003AF112BDFF8489140F3C182CDF828A047
:1058C0001026CA46DDF8249005E008F10808103CCF
:1058D000102C40F3B18201371035072FC8E900A61C
:1058E000CDE93175F1DD30AA4946584601F012FF85
:1058F00000287FF4F4AADDE931750DF1CC08E6E764
:10590000099930AA584601F005FF00287FF4E7AA5C
:10591000329D33ACFFF745BB0F9951F8043B0F9113
:1059200015F0100157D115F040004FD00A469BB238
:10593000012196E40F9951F8043B0F91089911F059
:1059400010017FF48AAC089A12F0400000F0C78280
:105950009BB20A4681E4099DA86DFEF783FEB5F966
:105960000C206B6EFFF780B9089BD8077FF529AB39
:1059700062E50F939AF80030FFF7CCB9319B214ACA
:105980002260013301350122072B32953193626089
:1059900000F386850834002940F05D82089B129A46
:1059A00003F0010313433FF40CAB179B189A1D44FB
:1059B000C4E90023319B32950133072B319300F367
:1059C0006B8304F1080257E25CAE82E515F40072C5
:1059D0001CBFDBB20246012143E4089A950500F1A1
:1059E0002083DA1711460029BFF6FFAB5B42089D02
:1059F00062EB42022D20012134E400BF10AA00080E
:105A000000AA0008E8A50008089BD80600F10E824D
:105A1000089B590600F10B83089B9A0540F106820A
:105A20000F9B0B9A1B681A70A7E41B9A9AF8003018
:105A3000002A3FF46FA91278002A3FF46BA9089A54
:105A400042F480620892FFF765B9DDE9140102466D
:105A50000B46FBF7B5F9002840F02A86109B612B16
:105A600000F03985412B00F0E8820A9B013300F0F9
:105A70001586109B23F02003472B00F0F5850E9030
:105A8000DDE914120898002A40F48079C0F2F48409
:105A900000231A93DDE91423CDE92223109B413B17
:105AA000252B00F23B82DFE813F05B033902390259
:105AB00039021503E5033902390239023902390284
:105AC00039023902390239023902390239023902FE
:105AD00039023902390239023902390239023902EE
:105AE000390239023902390239025B0339023902BB
