:020000040800F2
:1000000000000320C5220008CD1F0008CF1F0008F4
:10001000D11F0008D31F0008D51F000800000000F2
:10002000000000000000000000000000D71F0008D2
:10003000D91F000800000000DB1F0008DD1F0008BA
:1000400015230008152300081523000815230008B0
:1000500015230008152300081D4A0008274A000838
:100060001523000815230008152300081523000890
:100070001523000815230008152300081523000880
:100080001523000815230008152300081523000870
:100090001523000815230008152300081523000860
:1000A0001523000815230008152300081523000850
:1000B0001523000815230008152300081523000840
:1000C0001523000815230008152300081523000830
:1000D00015230008E14B0008114C0008514C0008A2
:1000E000F94300081523000815230008152300080C
:1000F0001523000815230008152300081523000800
:1001000015230008152300081523000815230008EF
:100110007D4C00081523000815230008152300084E
:1001200015230008152300081523000815230008CF
:1001300015230008152300081523000815230008BF
:1001400015230008152300081523000815230008AF
:10015000152300081523000815230008152300089F
:10016000152300081523000815230008152300088F
:1001700015230008152300081523000800000000BF
:10018000152300081523000815230008152300086F
:10019000152300081523000815230008152300085F
:0C01A00015230008152300081523000893
:1001C0004FF0FF0C1CEAD0521EBF1CEAD15392EA3A
:1001D0000C0F93EA0C0F6FD01A4480EA010C400216
:1001E00018BF5FEA41211ED04FF0006343EA501070
:1001F00043EA5111A0FB01310CF00040B1F5000FB2
:100200003EBF490041EAD3715B0040EA010062F160
:100210007F02FD2A1DD8B3F1004F40EBC25008BF4A
:1002200020F00100704790F0000F0CF0004C08BF68
:1002300049024CEA502040EA51207F3AC2BFD2F135
:10024000FF0340EAC250704740F400004FF0000343
:10025000013A5DDC12F1190FDCBF00F0004070477D
:10026000C2F10002410021FA02F1C2F1200200FABB
:1002700002FC5FEA310040F1000053EA4C0308BF82
:1002800020EADC70704792F0000F00F0004C02BFD3
:10029000400010F4000F013AF9D040EA0C0093F04E
:1002A000000F01F0004C02BF490011F4000F013BA8
:1002B000F9D041EA0C018FE70CEAD15392EA0C0F16
:1002C00018BF93EA0C0F0AD030F0004C18BF31F081
:1002D000004CD8D180EA010000F00040704790F057
:1002E000000F17BF90F0004F084691F0000F91F0FB
:1002F000004F14D092EA0C0F01D142020FD193EAC1
:100300000C0F03D14B0218BF084608D180EA010048
:1003100000F0004040F0FE4040F40000704740F024
:10032000FE4040F44000704781F0004102E000BF11
:1003300083F0004330B54FEA41044FEA430594EAA5
:10034000050F08BF90EA020F1FBF54EA000C55EAE0
:10035000020C7FEA645C7FEA655C00F0E2804FEAB1
:100360005454D4EB5555B8BF6D420CDD2C4480EA93
:10037000020281EA030382EA000083EA010180EAC3
:10038000020281EA0303362D88BF30BD11F0004F11
:100390004FEA01314FF4801C4CEA113102D0404247
:1003A00061EB410113F0004F4FEA03334CEA133382
:1003B00002D0524263EB430394EA050F00F0A7809A
:1003C000A4F10104D5F1200E0DDB02FA0EFC22FA95
:1003D00005F2801841F1000103FA0EF2801843FA89
:1003E00005F359410EE0A5F120050EF1200E012A7A
:1003F00003FA0EFC28BF4CF0020C43FA05F3C018B8
:1004000051EBE37101F0004507D54FF0000EDCF130
:10041000000C7EEB00006EEB0101B1F5801F1BD3D9
:10042000B1F5001F0CD349085FEA30004FEA3C0CDD
:1004300004F101044FEA445212F5800F80F09A80D3
:10044000BCF1004F08BF5FEA500C50F1000041EBD7
:10045000045141EA050130BD5FEA4C0C404141EBDB
:100460000101013C28BFB1F5801FE9D291F0000FD6
:1004700004BF01460020B1FA81F308BF2033A3F185
:100480000B03B3F120020CDA0C3208DD02F1140C7C
:10049000C2F10C0201FA0CF021FA02F10CE002F1B7
:1004A0001402D8BFC2F1200C01FA02F120FA0CFCB0
:1004B000DCBF41EA0C019040E41AA2BF01EB0451F9
:1004C000294330BD6FEA04041F3C1CDA0C340EDCF7
:1004D00004F11404C4F1200220FA04F001FA02F33A
:1004E00040EA030021FA04F345EA030130BDC4F1F8
:1004F0000C04C4F1200220FA02F001FA04F340EAED
:100500000300294630BD21FA04F0294630BD94F09D
:10051000000F83F4801306BF81F480110134013D84
:100520004EE77FEA645C18BF7FEA655C29D094EAF5
:10053000050F08BF90EA020F05D054EA000C04BF73
:100540001946104630BD91EA030F1EBF002100205E
:1005500030BD5FEA545C05D14000494128BF41F0FD
:10056000004130BD14F580043CBF01F5801130BD61
:1005700001F0004545F0FE4141F470014FF00000EC
:1005800030BD7FEA645C1ABF194610467FEA655C9D
:100590001CBF0B46024650EA013406BF52EA03353F
:1005A00091EA030F41F4002130BD00BF90F0000F2D
:1005B00004BF0021704730B54FF4806404F1320469
:1005C0004FF000054FF0000150E700BF90F0000F22
:1005D00004BF0021704730B54FF4806404F1320449
:1005E00010F0004548BF40424FF000013EE700BF19
:1005F00042004FEAE2014FEA31014FEA02701FBFA9
:1006000012F07F4393F07F4F81F06051704732F0DA
:100610007F4208BF704793F07F4F04BF41F4002131
:10062000704730B54FF4607401F0004521F000418F
:100630001CE700BF50EA010208BF704730B54FF019
:1006400000050AE050EA010208BF704730B511F01A
:10065000004502D5404261EB41014FF4806404F152
:1006600032045FEA915C3FF4D8AE4FF003025FEAD8
:10067000DC0C18BF03325FEADC0C18BF033202EB5C
:10068000DC02C2F1200300FA03FC20FA02F001FAB6
:1006900003FE40EA0E0021FA02F11444BDE600BF59
:1006A00070B54FF0FF0C4CF4E06C1CEA11541DBF08
:1006B0001CEA135594EA0C0F95EA0C0F00F0DEF8D3
:1006C0002C4481EA030621EA4C5123EA4C5350EAB8
:1006D000013518BF52EA033541F4801143F4801309
:1006E00038D0A0FB02CE4FF00005E1FB02E506F09A
:1006F0000042E0FB03E54FF00006E1FB03569CF0EF
:10070000000F18BF4EF0010EA4F1FF04B6F5007FF4
:1007100064F5407404D25FEA4E0E6D4146EB060666
:1007200042EAC62141EA55514FEAC52040EA5E50EF
:100730004FEACE2EB4F1FD0C88BFBCF5E06F1ED899
:10074000BEF1004F08BF5FEA500E50F1000041EBD0
:10075000045170BD06F0004646EA010140EA02007D
:1007600081EA0301B4EB5C04C2BFD4EB0C0541EA9F
:10077000045170BD41F480114FF0000E013C00F3B4
:10078000AB8014F1360FDEBF002001F0004170BDD8
:10079000C4F10004203C35DA0C341BDC04F11404F1
:1007A000C4F1200500FA05F320FA04F001FA05F27D
:1007B00040EA020001F0004221F0004110EBD3704A
:1007C00021FA04F642EB06015EEA430E08BF20EA76
:1007D000D37070BDC4F10C04C4F1200500FA04F319
:1007E00020FA05F001FA04F240EA020001F00041AB
:1007F00010EBD37041F100015EEA430E08BF20EA1E
:10080000D37070BDC4F1200500FA05F24EEA020E65
:1008100020FA04F301FA05F243EA020321FA04F094
:1008200001F0004121FA04F220EA020000EBD3704B
:100830005EEA430E08BF20EAD37070BD94F0000F4B
:100840000FD101F00046400041EB010111F4801F7F
:1008500008BF013CF7D041EA060195F0000F18BF30
:10086000704703F00046520043EB030313F4801F6C
:1008700008BF013DF7D043EA0603704794EA0C0F26
:100880000CEA135518BF95EA0C0F0CD050EA41063C
:1008900018BF52EA4306D1D181EA030101F00041B9
:1008A0004FF0000070BD50EA410606BF10461946E1
:1008B00052EA430619D094EA0C0F02D150EA0136ED
:1008C00013D195EA0C0F05D152EA03361CBF10462E
:1008D00019460AD181EA030101F0004141F0FE41CD
:1008E00041F470014FF0000070BD41F0FE4141F451
:1008F000780170BD70B54FF0FF0C4CF4E06C1CEA51
:1009000011541DBF1CEA135594EA0C0F95EA0C0F05
:1009100000F0A7F8A4EB050481EA030E52EA0335C0
:100920004FEA013100F088804FEA03334FF08055E1
:1009300045EA131343EA12634FEA022245EA11150E
:1009400045EA10654FEA00260EF000419D4208BFBF
:10095000964244F1FD0404F5407402D25B084FEA6C
:100960003202B61A65EB03055B084FEA32024FF418
:1009700080104FF4002CB6EB020E75EB030E22BF75
:10098000B61A754640EA0C005B084FEA3202B6EB35
:10099000020E75EB030E22BFB61A754640EA5C00E4
:1009A0005B084FEA3202B6EB020E75EB030E22BF74
:1009B000B61A754640EA9C005B084FEA3202B6EB75
:1009C000020E75EB030E22BFB61A754640EADC0034
:1009D00055EA060E18D04FEA051545EA16754FEA96
:1009E00006164FEAC30343EA52734FEAC2025FEAB4
:1009F0001C1CC0D111F4801F0BD141EA00014FF043
:100A000000004FF0004CB6E711F4801F04BF014313
:100A10000020B4F1FD0C88BFBCF5E06F3FF6AFAE2F
:100A2000B5EB030C04BFB6EB020C5FEA500C50F1BF
:100A3000000041EB045170BD0EF0004E4EEA113142
:100A400014EB5C04C2BFD4EB0C0541EA045170BD49
:100A500041F480114FF0000E013C90E645EA060E8D
:100A60008DE60CEA135594EA0C0F08BF95EA0C0FBB
:100A70003FF43BAF94EA0C0F0AD150EA01347FF403
:100A800034AF95EA0C0F7FF425AF104619462CE7DA
:100A900095EA0C0F06D152EA03353FF4FDAE10463D
:100AA000194622E750EA410618BF52EA43067FF48E
:100AB000C5AE50EA41047FF40DAF52EA43057FF41E
:100AC000EBAE12E74FF0FF3C06E000BF4FF0010C29
:100AD00002E000BF4FF0010C4DF804CD4FEA410C8D
:100AE0007FEA6C5C4FEA430C18BF7FEA6C5C1BD05A
:100AF00001B050EA410C0CBF52EA430C91EA030FDB
:100B000002BF90EA020F0020704710F1000F91EA37
:100B1000030F58BF994208BF90422CBFD8176FEA05
:100B2000E37040F0010070474FEA410C7FEA6C5CD3
:100B300002D150EA013C07D14FEA430C7FEA6C5CDA
:100B4000D6D152EA033CD3D05DF8040B704700BF06
:100B50008446104662468C461946634600E000BF54
:100B600001B5FFF7B7FF002848BF10F1000F01BD26
:100B70004DF808EDFFF7F4FF0CBF012000205DF8F1
:100B800008FB00BF4DF808EDFFF7EAFF34BF012076
:100B900000205DF808FB00BF4DF808EDFFF7E0FF0F
:100BA00094BF012000205DF808FB00BF4DF808ED60
:100BB000FFF7CEFF94BF012000205DF808FB00BFC7
:100BC0004DF808EDFFF7C4FF34BF012000205DF8A9
:100BD00008FB00BF4FEA410212F5001215D211D5F1
:100BE0006FF47873B3EB625212D94FEAC12343F02A
:100BF000004343EA505311F0004F23FA02F018BFAC
:100C0000404270474FF00000704750EA013005D174
:100C100011F0004008BF6FF0004070474FF0000037
:100C2000704700BF4A0011D212F5001211D20DD543
:100C30006FF47873B3EB62520ED44FEAC12343F0E2
:100C4000004343EA505323FA02F070474FF000008C
:100C5000704750EA013002D14FF0FF3070474FF03B
:100C6000000070474FEA4102B2F1E04324BFB3F500
:100C7000001CDCF1FE5C0DD901F0004C4FEAC00213
:100C80004CEA5070B2F1004F40EB830008BF20F0F7
:100C90000100704711F0804F21D113F13872BCBFB1
:100CA00001F00040704741F480114FEA5252C2F106
:100CB0001802C2F1200C10FA0CF320FA02F018BF4F
:100CC00040F001004FEAC1234FEAD32303FA0CFCA2
:100CD00040EA0C0023FA02F34FEA4303CCE77FEA31
:100CE000625307D150EA01331EBF4FF0FE4040F47B
:100CF0004000704701F0004040F0FE4040F400002A
:100D0000704700BF80F0004002E000BF81F000416A
:100D100042001FBF5FEA410392EA030F7FEA226CA1
:100D20007FEA236C6AD04FEA1262D2EB1363C1BF31
:100D3000D218414048404140B8BF5B42192B88BFA0
:100D4000704710F0004F40F4000020F07F4018BFC3
:100D5000404211F0004F41F4000121F07F4118BFE3
:100D6000494292EA030F3FD0A2F1010241FA03FC8B
:100D700010EB0C00C3F1200301FA03F100F0004373
:100D800002D5494260EB4000B0F5000F13D3B0F13B
:100D9000807F06D340084FEA310102F10102FE2AAA
:100DA00051D2B1F1004F40EBC25008BF20F001001A
:100DB00040EA03007047490040EB0000013A28BFB9
:100DC000B0F5000FEDD2B0FA80FCACF1080CB2EB3C
:100DD0000C0200FA0CF0AABF00EBC25052421843BA
:100DE000BCBFD0401843704792F0000F81F400015F
:100DF00006BF80F400000132013BB5E74FEA410332
:100E00007FEA226C18BF7FEA236C21D092EA030F9D
:100E100004D092F0000F08BF0846704790EA010F17
:100E20001CBF0020704712F07F4F04D1400028BF44
:100E300040F00040704712F100723CBF00F5000026
:100E4000704700F0004343F0FE4040F4000070475C
:100E50007FEA226216BF08467FEA23630146420208
:100E600006BF5FEA412390EA010F40F4800070471B
:100E70004FF0000304E000BF10F0004348BF4042C1
:100E80005FEA000C08BF704743F0964301464FF0FD
:100E900000001CE050EA010208BF70474FF0000359
:100EA0000AE000BF50EA010208BF704711F000439A
:100EB00002D5404261EB41015FEA010C02BF84466A
:100EC0000146002043F0B64308BFA3F18053A3F5C9
:100ED0000003BCFA8CF2083AA3EBC25310DB01FA10
:100EE00002FC634400FA02FCC2F12002BCF1004F94
:100EF00020FA02F243EB020008BF20F00100704725
:100F000002F1200201FA02FCC2F1200250EA4C0078
:100F100021FA02F243EB020008BF20EADC707047BE
:100F20004FF0FF3C06E000BF4FF0010C02E000BFB5
:100F30004FF0010C4DF804CD4FEA40024FEA410357
:100F40007FEA226C18BF7FEA236C11D001B052EA0D
:100F5000530C18BF90EA010F58BFB2EB030088BFD3
:100F6000C81738BF6FEAE17018BF40F00100704742
:100F70007FEA226C02D15FEA402C05D17FEA236C24
:100F8000E4D15FEA412CE1D05DF8040B704700BF6B
:100F9000844608466146FFE70FB5FFF7C9FF002802
:100FA00048BF10F1000F0FBD4DF808EDFFF7F4FF3B
:100FB0000CBF012000205DF808FB00BF4DF808EDD4
:100FC000FFF7EAFF34BF012000205DF808FB00BFF7
:100FD0004DF808EDFFF7E0FF94BF012000205DF819
:100FE00008FB00BF4DF808EDFFF7D2FF94BF0120CA
:100FF00000205DF808FB00BF4DF808EDFFF7C8FFC3
:1010000034BF012000205DF808FB00BF53B94AB986
:10101000002908BF00281CBF4FF0FF314FF0FF3000
:1010200000F00CB8ADF1080C6DE904CE0AF092FEA8
:10103000DDF804E0DDE9022304B07047704700BF2B
:1010400002780B78012A28BF9A4240F0D8806DE9D7
:10105000044540EA0104CDE902676FF0000C4FEA55
:1010600044721AB380EA010414F0070F6BD100F048
:10107000070420F0070004F0030521F007014FEA00
:10108000C505F0E8042314F0040FF1E804670CFA36
:1010900005F462EA040266EA04060BD063EA04037C
:1010A000624667EA0407664604E000BFF0E80423EE
:1010B000F1E8046782FA4CF582EA0604A4FA8CF49B
:1010C0006CBB83FA4CF583EA0705A5FA8CF595B954
:1010D00050E9022351E9026782FA4CF582EA0604DC
:1010E000A4FA8CF483FA4CF583EA0705A5FA8CF58B
:1010F0002543DBD09CB92DBAB5FA85F424F007045A
:1011000027FA04F1DDE9026723FA04F303F0FF0094
:1011100001F0FF01FDE80445A0EB0100704724BA8F
:10112000B4FA84F424F0070426FA04F1DDE9026736
:1011300022FA04F202F0FF0001F0FF01FDE804458D
:10114000A0EB0100704714F0030F3CD110F0030432
:1011500028D150F8082B51F8083B82FA4CF582EA66
:101160000305A5FA8CF55DB950F8042C51F8043C40
:1011700082FA4CF582EA0305A5FA8CF5002DE8D039
:101180002DBAB5FA85F424F0070423FA04F122FA03
:1011900004F202F0FF0001F0FF01FDE80445A0EBBE
:1011A000010070474FEAC40420F0030050F8082BF8
:1011B00021F0030151F8083B0CFA04F462EA04023E
:1011C00063EA0403C9E710F003041DD0A1EB040196
:1011D00020F00300E40750F8042B06D012D28B78DD
:1011E0005FFAA2F4E41A06D12BB1CB785FFAB2F41D
:1011F000E41A00D133B920465DF8104B7047A2EBDA
:101200000300704701F1040150F8042BCC0721F0D2
:10121000030151F8043B48D824D222F07F4482FADB
:101220004CF594EA1325A5FA8CF50AD165B951F865
:10123000043B84EA0204B4EB036F0ED150F8042B94
:10124000EBE74FEA132355E035F07F454DD10878A1
:10125000FDE80445C0F1000070474FEA126203F058
:10126000FF0347E002EA1C4482FA4CF594EA134576
:10127000A5FA8CF50AD165B951F8043B84EA020459
:10128000B4EB034F0CD150F8042BEBE74FEA1343B8
:1012900030E015EA1C4528D10B884FEA124229E0BC
:1012A0004FEA124203EA1C4324E002F0FF0482FAF0
:1012B0004CF594EA1365A5FA8CF50AD165B951F895
:1012C000043B84EA0204B4EB032F09D150F8042B49
:1012D000EBE74FEA13630DE015F0FF0F05D10B6844
:1012E0004FEA122223F07F4304E04FF00000FDE8B4
:1012F0000445704712BA1BBA82FA4CF482EA03041E
:10130000A4FA8CF5B5FA85F402FA04F203FA04F3B0
:101310004FEA1260FDE80445A0EB1360704700BF80
:10132000844641EA000313F003036DD1403A41D3F0
:1013300051F8043B40F8043B51F8043B40F8043BAF
:1013400051F8043B40F8043B51F8043B40F8043B9F
:1013500051F8043B40F8043B51F8043B40F8043B8F
:1013600051F8043B40F8043B51F8043B40F8043B7F
:1013700051F8043B40F8043B51F8043B40F8043B6F
:1013800051F8043B40F8043B51F8043B40F8043B5F
:1013900051F8043B40F8043B51F8043B40F8043B4F
:1013A00051F8043B40F8043B51F8043B40F8043B3F
:1013B000403ABDD2303211D351F8043B40F8043BDF
:1013C00051F8043B40F8043B51F8043B40F8043B1F
:1013D00051F8043B40F8043B103AEDD20C3205D3EF
:1013E00051F8043B40F8043B043AF9D2043208D0E7
:1013F000D2071CBF11F8013B00F8013B01D30B8859
:1014000003806046704700BF082A13D38B078DD036
:1014100010F003038AD0C3F10403D21ADB071CBF08
:1014200011F8013B00F8013B80D331F8023B20F872
:10143000023B7BE7043AD9D3013A11F8013B00F8AB
:10144000013BF9D20B7803704B7843708B78837033
:10145000604670470000000000000000000000002F
:10146000000000000000000000000000000000007C
:10147000000000000000000000000000000000006C
:1014800030B490F800F020F007016FF0000C10F07D
:10149000070491F820F040F048804FF000046FF00E
:1014A0000700D1E9002391F840F000F1080082FA2A
:1014B0004CF2A4FA8CF283FA4CF3A2FA8CF34BBBF5
:1014C000D1E9022382FA4CF200F10800A4FA8CF26E
:1014D00083FA4CF3A2FA8CF3E3B9D1E9042382FA3C
:1014E0004CF200F10800A4FA8CF283FA4CF3A2FA51
:1014F0008CF37BB9D1E9062301F1200182FA4CF289
:1015000000F10800A4FA8CF283FA4CF3A2FA8CF3EF
:10151000002BC6D0002A04BF04301A4612BAB2FA11
:1015200082F200EBD20030BC7047D1E9002304F016
:101530000305C4F100004FEAC50514F0040F91F84B
:1015400040F00CFA05F562EA05021CBF63EA0503E8
:1015500062464FF00004AAE700000000000000000F
:1015600001F0FF01102A2BDB10F0070F08D010F854
:10157000013B013A8B422DD010F0070F42B3F6D158
:10158000F0B441EA012141EA014122F007047FF071
:1015900000070023F0E80256083C85EA010586EAC8
:1015A000010685FA47F5A3FA87F586FA47F6A5FA04
:1015B00087F68EB9EED1F0BC01F0FF0102F0070210
:1015C00032B110F8013B013A83EA010313B1F8D1BB
:1015D0000020704701387047002D06BF354603389C
:1015E000073815F0010F07D1013015F4807F02BFD5
:1015F000013015F4C03F0130F0BC0138704700BF26
:101600004FEA410C7FEA6C5C02D150EA013C0AD1FE
:101610004FEA430C7FEA6C5C02D152EA033C02D1F0
:101620004FF0000070474FF0010070470348044B33
:10163000834202D0034B03B118477047881600203D
:1016400088160020000000000548064B1B1AD90F21
:1016500001EBA301491002D0034B03B118477047B7
:1016600088160020881600200000000010B5064CE7
:10167000237843B9FFF7DAFF044B13B10448AFF303
:1016800000800123237010BD881600200000000098
:10169000805B010808B5054B1BB105490548AFF350
:1016A0000080BDE80840FFF7CFBF00BF000000008A
:1016B0008C160020805B010810B51548154B03609F
:1016C000154B00221A7080215970E1219970DA704F
:1016D0001A715A7143604FF4000383600F4BC3606B
:1016E0000F4B036140F2F453436101F039F958B9EB
:1016F0000C4C3822002120460BF02CFF21232360C4
:101700004FF44003636110BD00F0ACFAF0E700BF96
:10171000AC16002000800240A41600209417002080
:10172000341800205C170020F0B58DB0002307931B
:10173000089309930A930B9302683D4B9A4201D098
:101740000DB0F0BD00240094A3F590431A6B42F055
:1017500000721A631A6B02F000720092009A0194F0
:101760001A6B42F080621A631A6B02F08062019277
:10177000019A02941A6B42F000621A631A6B02F02B
:1017800000620292029A03941A6B42F004021A63F6
:101790001A6B02F004020392039A04941A6B42F04B
:1017A00001021A631A6B02F001020492049A059472
:1017B0001A6B42F002021A631A6B02F002020592DF
:1017C000059A06941A6B42F040021A631B6B03F0F1
:1017D00040030693069B32230793022708970326AC
:1017E0000A960B250B9507A9124801F019F98623D3
:1017F0000793089709940A960B9507A90E4801F0DC
:101800000FF94FF400530793089709940A960B9524
:1018100007A90A4801F004F94FF4205307930897E9
:1018200009940A960B9507A9054801F0F9F887E78E
:101830000080024000080240000002400004024014
:1018400000180240F0B58DB0002407940894099464
:101850000A940B940194394B1A6B42F004021A63F8
:101860001A6B02F004020192019A02941A6B42F080
:1018700080021A631A6B02F080020292029A0394A9
:101880001A6B42F001021A631A6B02F00102039212
:10189000039A04941A6B42F002021A631A6B02F064
:1018A00002020492049A05941A6B42F008021A6329
:1018B0001A6B02F008020592059A06941A6B42F020
:1018C00040021A631B6B03F040030693069B1C4FF8
:1018D000224644F28101384601F0AFF9194D224603
:1018E0004021284601F0A9F94FF4005307934FF423
:1018F00088130893099407A9134801F091F844F25A
:10190000810307930126089609940A9407A938468B
:1019100001F086F840230793089609940A9407A9D2
:10192000284601F07DF8802307930894099407A9BD
:10193000284601F075F80DB0F0BD00BF0038024038
:1019400000040240001802400008024008B50B4B9A
:101950001B6853B10A4B1B683BB138B1094B18687F
:1019600083689B6800220849984708BD054B1868A2
:1019700083689B68002205499847F6E7D81800203D
:10198000D4180020008B01083C7601083876010845
:1019900008B5034B1B6813B1024B1B68984708BD81
:1019A000D8180020DC180020704700002D4B1B6861
:1019B00003B9704770B5ADF5007D0C46FF252A468A
:1019C000002140A80BF0C6FD2A46002168460BF016
:1019D000C1FDA288A368C82A28BFC822224940A8FE
:1019E0000BF048FC62692369C82AA8BFC8221F49B6
:1019F00068460BF03FFCC52009F0DEFE80B91C4AAA
:101A00006169206905F0E8FE002806DD194B1868B9
:101A100083689B680022184998470DF5007D70BDCA
:101A2000EFF311834FF0000282F31188BFF36F8F41
:101A3000BFF34F8F1E46114D2B6801332B60C5201D
:101A400009F040FF40A80AF025F868460AF022F89D
:101A500009F04AFF2B68013B2B60002BCFD186F3A6
:101A60001188CCE7D8180020985B0108AC5B01080E
:101A700030190020008B010828190020803F002029
:101A800010B519480BF0A6FB184B3A221A70002427
:101A90005C709C7002F05BFB154802F0C9FF02F01D
:101AA00011FE144802F032FC02F050FC124802F021
:101AB00065FC1249052002F03FFF03F01DFB02F018
:101AC000F3FA204603F058FA0D49204603F056F980
:101AD000012003F051FA0B49012003F04FF902F005
:101AE0004FFE094B186010BDBC5B0108281900208F
:101AF000A51B0008111B00084D190008939F673FA4
:101B000091190008A9190008DC1800200000000045
:101B100038B51F4B1B6803B938BD002002F00AFC22
:101B200004460D4616A3D3E90023FFF749F848B150
:101B300015A3D3E9002320462946FFF723F888B9E7
:101B4000002300E00023134A12689342E4D0114AB4
:101B500013604BB9104B186883689B6800220F49CB
:101B60009847D9E70123EEE702F0F6FB0028F1D011
:101B7000094B186883689B68002209499847CBE79E
:101B80004B8336943545EF3F4B8336943545FF3FC5
:101B9000D8180020D4180020008B010838760108DE
:101BA0003C76010808B50E4B1B68C3B1052816D852
:101BB000DFE800F003030E03030E02F0CDFB70B16B
:101BC000084B186883689B6800220749984706E01D
:101BD000044B186883689B6800220349984708BD36
:101BE000D8180020008B01083876010808B50122BA
:101BF0000821002009F07CFDE821002009F0A0FD6B
:101C0000C521012009F09CFD6321012009F098FD08
:101C10000A4B1B681B6801221978022009F0ECFDB1
:101C2000074B1B681B6801221978022009F0E4FDAC
:101C300081220021012009F0DFFD08BD747C01082C
:101C4000008B010800B583B001904FF0FF330122F3
:101C500001A9034801F095FD019803B05DF804FB6C
:101C6000FC1C002072B6FEE700B595B030220021C2
:101C700008A80BF06FFC00230393049305930693CD
:101C800007930193204A116C41F080511164126C4A
:101C900002F080520192019A02931C4B1A6842F49E
:101CA00040421A601B6803F440430293029B0123E5
:101CB00008934FF4A023099302230E934FF480025C
:101CC0000F9204221092A8221192129307231393C9
:101CD00008A801F05FF898B90F2303930223049337
:101CE000002305934FF4A05306934FF480530793BA
:101CF000052103A801F0B8FA20B915B05DF804FB7E
:101D0000FFF7B0FFFFF7AEFF003802400070004061
:101D10002DE9F04383B000F025FBFFF7A5FFFFF7A7
:101D200091FDFFF7C9FC00F01BFA00F06BFA00F020
:101D3000C5F8FFF7A5FE08F01BFAFFF757FF02F002
:101D40008FFA08F047F903221021414808F0E2F821
:101D5000102280213F4808F0DDF860224FF4007126
:101D60003D4808F0D7F83D48052303800426468007
:101D70004FF4C8738383012780F82E700024047108
:101D8000847780F83440364B0363364905F03AFADD
:101D900035484FF00808A0F8008004F0F3FB02F08B
:101DA0002BF9324B1D68AB68D3F8009000942346A2
:101DB00042462F492846C8472E480BF00BFA2E4BB7
:101DC00018688368D3F800800094234632462B4974
:101DD000C0472B480BF0FEF92A4A2B492B480AF042
:101DE0001FF92B4B18688368D3F8008000942346B2
:101DF00010222849C04728480BF0ECF9274B1868F7
:101E00008368D3F800800094234610222449C047F9
:101E100024480BF0DFF924480BF0DCF9AB689B6831
:101E20002246224928469847214B186883681D6836
:101E30000094234632461F49A8471F4B1F6008F0F5
:101E400099F902F0D9F9204603B0BDE8F08300BF4C
:101E5000D01B0020501B002050190020E418002047
:101E6000AD190008DD820008E0180020747C01082C
:101E7000F01B0020CC5B0108E4930108E01B00206C
:101E8000D85B0108E45B0108E85B0108FC5B010822
:101E9000C0960108101C0020045C0108008B01089A
:101EA000501C0020145C0108205C010840760108E9
:101EB00068760108901C0020D818002008B50D484D
:101EC0000D4B03604FF48273436000238360C36053
:101ED000036143614FF400728261C3610362436234
:101EE00083620A23C36201F095FA00B908BDFFF7C7
:101EF000B9FEFBE7A01C002000300140F0B589B01E
:101F000000230393049305930693079302681E4BE3
:101F10009A4201D009B0F0BD0024009403F5843347
:101F20005A6C42F480525A645A6C02F48052009205
:101F3000009A01941A6B42F001021A631A6B02F0C4
:101F400001020192019A02941A6B42F002021A6392
:101F50001B6B03F002030293029B6023039302278F
:101F60000497032606960525079503A9074800F060
:101F700057FD20230393049705940696079503A91C
:101F8000034800F04DFDC5E700300140000002406D
:101F90000004024082B0002100910B4B5A6C42F4C5
:101FA00080425A645A6C02F480420092009A019175
:101FB0001A6C42F080521A641B6C03F08053019338
:101FC000019B02B0704700BF003802407047FEE737
:101FD000FEE7FEE7FEE770477047704710B500F078
:101FE000DBF9064CD4E90023501C43F10001C4E99D
:101FF0000001002009F0FCF910BD00BFE043002003
:102000000120704708B50BF043FB162303604FF027
:10201000FF3008BD08B54FF0FF31FFF7F3FFFEE7D3
:1020200070B50C461646002506E0AFF30080214649
:1020300001F8010B01350C46B542F6DB304670BDA8
:1020400070B50C461646002504E014F8010BFFF7A6
:10205000F9FD0135B542F8DB304670BD4FF0FF3079
:1020600070474FF400534B600020704701207047C9
:102070000020704710B503460C4A0D490D48006812
:1020800040B10C4800680344521A934206D8094AEA
:10209000136010BD0748084C0460F2E70BF0F8FA33
:1020A0000C2303604FF0FF30F3E700BF0000032074
:1020B00000040000F81C00200047002070470000CA
:1020C000224B9B6803F00C03042B11D0082B13D078
:1020D000002B37D11E4B1F4A1A601C4B9B68C3F361
:1020E00003131D4AD15C1A4A1368CB401360704732
:1020F000174B1A4A1A60F0E7144B59685A6802F0F5
:102100003F0211F4800F13D0144BB3FBF2F30F4ACC
:102110005268C2F3881202FB03F30C4A5268C2F3FE
:10212000014201325200B3FBF2F3094A1360D4E7D3
:10213000084BB3FBF2F3054A5268C2F3881202FB64
:1021400003F3EAE7024B034A1A60C6E7003802408D
:10215000000000200024F4004C76010800127A00F0
:1021600008B50A480A4B03604FF4E133436000238B
:102170008360C36003610C2242618361C36101F02B
:10218000D1FA00B908BDFFF76DFDFBE7FC1C00208C
:102190000048004000B589B00023039304930593E1
:1021A000069307930268154B9A4202D009B05DF876
:1021B00004FB0021019103F5F8331A6C42F48022EC
:1021C0001A641A6C02F480220192019A02911A6B2D
:1021D00042F008021A631B6B03F008030293029B90
:1021E0004FF44073039302230493032306930723BE
:1021F000079303A9024800F013FCD7E7004800400A
:10220000000C024008B50C484FF0A04303600423C3
:1022100043600222C2600023036182610122C26125
:1022200003624362C262036300F01CFD00B908BD93
:10223000FFF718FDFBE700BF401D002070B588B018
:102240000023039304930593069307930368B3F164
:10225000A04F01D008B070BD00250195174C236B2D
:1022600043F001032363236B03F001030193019BFC
:102270004FF4E853039302230493032306930A23A2
:1022800007930F4E03A9304600F0CAFB4FF40073CA
:1022900003930495059503A9304600F0C1FB636BD9
:1022A00043F0800363630295636C43F4804363648B
:1022B000636C03F480430293029BCBE70038024037
:1022C00000000240DFF834D00D480E490E4A0023CA
:1022D00002E0D458C4500433C4188C42F9D30B4ADA
:1022E0000B4C002301E013600432A242FBD3FFF742
:1022F000E5FE0BF031FAFFF70BFD704700000320FD
:10230000000000208816002024AE01088816002056
:10231000FC460020FEE7000010B504460E4B1A787C
:102320004FF47A73B3FBF2F30C4A1068B0FBF3F08E
:1023300000F0D2F868B90F2C01D901200AE0002280
:1023400021464FF0FF3000F0A5F8054B1C6000203F
:1023500000E0012010BD00BF0400002000000020AC
:102360000800002008B50B4B1A6842F400721A608E
:102370001A6842F480621A601A6842F480721A6025
:10238000032000F075F80020FFF7C6FFFFF702FEFC
:10239000002008BD003C0240034A1168034B1B7833
:1023A0000B441360704700BF4C2200200400002043
:1023B000014B1868704700BF4C22002038B5044616
:1023C000FFF7F6FF0546B4F1FF3F02D0044B1B7840
:1023D0001C44FFF7EDFF401BA042FAD338BD00BFFD
:1023E0000400002000280CDB00F01F02400901233C
:1023F00093402030034A42F82030BFF34F8FBFF3A1
:102400006F8F704700E100E0002808DB0901C9B2C6
:1024100000F1604000F5614080F80013704700F063
:102420000F000901C9B2014B1954704714ED00E0C7
:1024300000B500F00700C0F1070CBCF1040F28BF85
:102440004FF0040C031D062B0FD9C31E4FF0FF3EA7
:102450000EFA0CF021EA000199400EFA03FE22EA7E
:102460000E0241EA02005DF804FB0023EEE70000E3
:10247000074AD36823F4E0631B041B0C000200F43A
:10248000E060034343F0BF6343F40033D36070471D
:1024900000ED00E010B50446054BD868C0F30220FB
:1024A000FFF7C6FF01462046FFF7AEFF10BD00BF95
:1024B00000ED00E0002807DB00F01F0240090123C7
:1024C0009340024A42F82030704700BF00E100E02C
:1024D00008B5FFF787FF08BD0138B0F1807F0BD248
:1024E0004FF0E0235861054AF02182F823100020C4
:1024F000986107221A6170470120704700ED00E0E3
:10250000042806D04FF0E022136923F0040313617E
:1025100070474FF0E022136943F0040313617047E2
:1025200070B50446866DFFF743FF94F83530DBB293
:10253000022B06D080236365002384F83430012009
:1025400070BD05462268136823F0160313602268E5
:10255000536923F080035361236CE3B1226813684D
:1025600023F0080313602268136823F0010313604B
:1025700023681B6813F0010F11D0FFF719FF431BED
:10258000052BF5D920236365032084F8350000234B
:1025900084F83430D4E7A36C002BDFD1E3E7E26D9D
:1025A0003F239340B360012384F83530002084F842
:1025B0003400C5E790F83530DBB2022B03D080231E
:1025C000436501207047052380F8353002681368A1
:1025D00023F0010313600020704700005079137945
:1025E00043EA002307480B50D07893781B0443EA52
:1025F0000063507843EA002312781343024A8B5059
:10260000704700BF408002404480024010B5002265
:1026100008E0C468DC6051F80C3043F4400341F832
:102620000C300132032A20D8C16802EB82034FEA42
:10263000C30C01EBC303002441F80C405C609C60B8
:10264000DC60941D40F8243051F80C4044F48014B0
:1026500041F80C40022ADCD8541C04EB8404D0F866
:102660000CE00EEBC404DC60D5E700238362C26893
:10267000036803F580531A6110BD00B54FF0000EDA
:1026800003E00269DA600EF1010EBEF1030F29D8F2
:1026900001690EEB8E034FEAC30C01EBC30300226A
:1026A00041F80C205A609A60DA601A625A624FF060
:1026B000004241F80C2044F2F4525A605A6822F069
:1026C00000425A600EF1120240F82230BEF1020FB1
:1026D000D7D801690EF1010202EB820201EBC201BF
:1026E000D960D0E70023C36503668366C36683654C
:1026F0000269036803F58053DA605DF804FB0000AB
:1027000070B505460C46026813683B491940237CA6
:10271000002B60D14FF40003607C00285DD14FF4A2
:1027200080000343A0680343E07F43EA00436069FD
:102730000343A07F002852D14FF400500343207F71
:1027400043EA0033A0690343207943EA802394F8E5
:102750002000002845D14FF400700343E07B43EA9A
:10276000C013606A034394F8280043EA00130B4344
:1027700013602B681E680120FFF720FE2B681E6087
:1027800029688A6922F0BE021204120CA36C1B0491
:1027900094F84C0038BB80200343206D034394F829
:1027A0005500012821D00020034394F85600012849
:1027B0001DD00020034394F85400012819D00020B4
:1027C000034313438B612B689C690120FFF7F6FDDF
:1027D0002B689C6170BD00239EE70020A1E70020CC
:1027E000ACE70020B9E70020D6E70820DCE70420AA
:1027F000E0E70220E4E700BF0F8120FF70B5054647
:102800000C46026802F580539B692B491940237BD3
:10281000002B4DD14FF08063607B43EA4063607FC3
:10282000002847D14FF480100343A07B43EA405374
:1028300060690343207F43EAC013A07F43EA80130B
:10284000206A034394F8240043EA80030B4302F513
:10285000805293612B6803F580539E690120FFF736
:10286000ADFD2B6803F580539E612279A36843EA8E
:102870004263A26913432269134394F8252043EA73
:10288000C213A26A43EA8203226813432A6843F40C
:10289000000302F5805213602B6803F580531C6817
:1028A0000120FFF78BFD2B6803F580531C6070BD82
:1028B0000023B1E70020B7E7233FDEF870B5A4B0EE
:1028C000064601258DF83C508DF83D5000240D94AE
:1028D0008DF84B408DF84A508DF848408DF83050B7
:1028E0008DF84C408DF83B4014948DF854401D9465
:1028F0008DF878401F948DF882408DF880404FF419
:10290000804310934FF4006311938DF881400BA91D
:10291000FFF7F6FE8DF80C508DF80D508DF81D5018
:102920008DF80E5005948DF81C408DF81E400894CB
:102930008DF824508DF804504FF4803302934FF4F7
:10294000800306934FF4005304938DF825500A94A6
:10295000009469463046FFF751FF24B070BD000077
:10296000002857D030B583B00446D0F88430002B0F
:1029700034D000230193284B5A6C42F480425A64AD
:102980005B6C03F480430193019B244B5A6822F44F
:1029900000025A605A68A1680A435A605B6823685B
:1029A00003F580531A6842F001021A60FFF700FD38
:1029B0000546236803F580531B6813F0010F13D0FD
:1029C000FFF7F6FC401BB0F5FA7FF2D90423C4F8F8
:1029D0008830E023C4F88430012019E02323C0F8B4
:1029E0008430FEF7A1FEC4E72046FFF767FF2046CC
:1029F000FFF70CFE2046FFF740FE626800212046EC
:102A0000FFF7ECFD0020C4F888001023C4F88430E0
:102A100003B030BD0120704700380240003801404B
:102A200000230F2B00F2F98030B583B069E0856890
:102A30004FEA430E032404FA0EF425EA0405CC6899
:102A400004FA0EF42C438460446824EA02044A68C1
:102A5000C2F300129A402243426060E0DC0808346E
:102A600050F8242003F00705AD004FF00F0E0EFACA
:102A700005FE22EA0E0E0A69AA4042EA0E0240F85A
:102A8000242060E0092200E0002202FA0EF22A432C
:102A90000234624D45F82420614A94686FEA0C02C2
:102AA00024EA0C05D1F804E01EF4801F01D04CEAA2
:102AB00004055B4CA560E46802EA0405D1F804E073
:102AC0001EF4001F01D04CEA0405554CE560646813
:102AD00002EA0405D1F804E01EF4003F01D04CEAFC
:102AE00004054F4C6560246822404D6815F4803F12
:102AF00001D04CEA04024A4C226001330F2B00F251
:102B00008A8001229A400C6804EA020C32EA04042A
:102B1000F3D14C6804F00304013C012C87D94A68C6
:102B200002F00302032A09D0C4685D000322AA4010
:102B300024EA02048A68AA402243C2604A6802F07A
:102B40000302022A8AD004684FEA430E032202FAE3
:102B50000EF224EA02044A6802F0030202FA0EF2BC
:102B6000224302604A6812F4403FC6D0002201921C
:102B70002C4A546C44F480445464526C02F48042F5
:102B80000192019A9C08A51C244A52F8255003F092
:102B9000030E4FEA8E0E0F2202FA0EF225EA02050C
:102BA000214A90423FF470AF02F58062904222D0F9
:102BB00002F58062904220D002F5806290421ED0E1
:102BC00002F5806290421CD002F5806290421AD0D9
:102BD00002F58062904218D002F58062904216D0D1
:102BE00002F58062904214D002F5806290423FF478
:102BF00049AF0A2249E7012247E7022245E70322BB
:102C000043E7042241E705223FE706223DE707228A
:102C10003BE7082239E703B030BD70470038014078
:102C2000003C0140003802400000024003691942A4
:102C300001D001207047002070470AB181617047C0
:102C4000090481617047000008B5054B5B690342C8
:102C500000D108BD024B586101F0C0FBF9E700BF8D
:102C6000003C014070B58AB0002800F09080054615
:102C7000046890F8BD343BB3032385F8BD34E36B9F
:102C800013F4807F01D100232B61286801F01BF829
:102C90002C4654F8106BEC460FCCACE80F000FCC70
:102CA000ACE80F0094E803008CE803002B1D0ECB6A
:102CB000304600F0C3FF044658B1022385F8BD3406
:102CC000012420460AB070BD80F8BC34FFF7B6FA84
:102CD000D2E70021286801F02DF9234616E003EB26
:102CE000C30205EB8202012182F83D1082F83C30DC
:102CF000A2F84430002182F840109164D16403EBC3
:102D0000C30205EB820251650133DBB269688B4275
:102D1000E5D316E004EBC40305EB8303002283F83C
:102D20007D2283F87C4283F88022C3F88822C3F88E
:102D30008C2204EBC40305EB8303C3F89422013413
:102D4000E4B2A142E6D82C4654F8106BEC460FCC06
:102D5000ACE80F000FCCACE80F0094E803008CE85F
:102D600003002B1D0ECB304601F00AF8044620B1BB
:102D7000022385F8BD340124A3E7002385F8383009
:102D8000012385F8BD34286801F0C2F899E70124D1
:102D900097E70000002800F0E08170B582B004469B
:102DA000036813F0010F3BD09F4B9B6803F00C03AB
:102DB000042B2CD09C4B9B6803F00C03082B21D0D8
:102DC0006368B3F5803F4FD0B3F5A02F52D0964B38
:102DD0001A6822F480321A601A6822F480221A607B
:102DE0006368002B50D0FFF7E3FA05468E4B1B6853
:102DF00013F4003F14D1FFF7DBFA401B6428F5D928
:102E00000320B1E1884B5B6813F4800FD8D0864B68
:102E10001B6813F4003F03D06368002B00F09F8110
:102E2000236813F0020F54D07F4B9B6813F00C0FF4
:102E30003ED07D4B9B6803F00C03082B33D0E36836
:102E4000002B68D0794B01221A60FFF7B1FA0546D2
:102E5000754B1B6813F0020F54D1FFF7A9FA401B02
:102E60000228F5D903207FE16F4A136843F48033C9
:102E70001360B5E76C4B1A6842F480221A601A6836
:102E800042F480321A60ABE7FFF792FA0546664BD0
:102E90001B6813F4003FC3D0FFF78AFA401B642875
:102EA000F5D9032060E1604B5B6813F4800FC6D155
:102EB0005D4B1B6813F0020F03D0E368012B40F059
:102EC0005081594A136823F0F803216943EAC1038A
:102ED0001360236813F0080F42D063696BB3534B40
:102EE0000122C3F8802EFFF763FA05464E4B5B6F55
:102EF00013F0020F34D1FFF75BFA401B0228F5D91B
:102F0000032031E1484A136823F0F803216943EABA
:102F1000C1031360DDE7454B00221A60FFF748FA52
:102F20000546414B1B6813F0020FD2D0FFF740FA61
:102F3000401B0228F5D9032016E13C4B0022C3F8C0
:102F4000802EFFF735FA0546374B5B6F13F0020F03
:102F500006D0FFF72DFA401B0228F5D9032003E124
:102F6000236813F0040F77D02F4B1B6C13F0805F96
:102F700033D1002301932C4B1A6C42F080521A6417
:102F80001B6C03F080530193019B0125284B1B68A8
:102F900013F4807F23D0A368012B34D0052B38D0C5
:102FA000214B1A6F22F001021A671A6F22F00402F5
:102FB0001A67A368002B3DD0FFF7FAF906461A4BB3
:102FC0001B6F13F0020F46D1FFF7F2F9801B41F29D
:102FD00088339842F3D90320C6E00025D6E7144A87
:102FE000136843F480731360FFF7E2F90646104B51
:102FF0001B6813F4807FCED1FFF7DAF9801B02281B
:10300000F5D90320B0E0084A136F43F001031367BA
:10301000CFE7054B1A6F42F004021A671A6F42F0AD
:1030200001021A67C5E700BF0038024000004742AE
:1030300000700040FFF7BCF90646524B1B6F13F0BF
:10304000020F08D0FFF7B4F9801B41F28833984291
:10305000F3D9032088E0EDB9A369002B00F0838049
:10306000484A926802F00C02082A51D0022B17D06D
:10307000454B00221A66FFF79BF90446414B1B683B
:1030800013F0007F42D0FFF793F9001B0228F5D917
:10309000032069E03B4A136C23F080531364DBE7A1
:1030A000394B00221A66FFF783F90546354B1B683A
:1030B00013F0007F06D0FFF77BF9401B0228F5D9FB
:1030C000032051E0E369226A1343626A43EA8213F0
:1030D000A26A5208013A43EA0243E26A43EA0263FF
:1030E000284A5360284B01221A66FFF761F904460B
:1030F000244B1B6813F0007F06D1FFF759F9001B22
:103100000228F5D903202FE000202DE000202BE03D
:10311000012B2BD01B4B5B6803F48001E2699142C9
:1031200026D103F03F02216A8A4223D1616A47F621
:10313000C0721A40B2EB811F1ED103F44031A26A63
:103140005208013AB1EB024F18D103F07063E26A02
:10315000B3EB026F14D1002006E00120704701207C
:1031600002E0012000E0002002B070BD0120FBE77A
:103170000120F9E70120F7E70120F5E70120F3E757
:103180000120F1E7003802400000474208B5334B08
:103190009B6803F00C03042B5BD0082B5BD12F4BF7
:1031A0005A6802F03F025B6813F4800F2CD02B4B5F
:1031B0005868C0F388104FEA401CBCEB000C6EEB63
:1031C0000E0E4FEA8E1343EA9C634FEA8C11B1EB6B
:1031D0000C0163EB0E03DB0043EA5173C90011EBF2
:1031E000000C43F10003590200234FEA4C2041EA4E
:1031F000DC51FDF70BFF194B5B68C3F3014301334F
:103200005B00B0FBF3F008BD144B5868C0F38810A6
:103210004FEA401CBCEB000C6EEB0E0E4FEA8E1317
:1032200043EA9C634FEA8C11B1EB0C0163EB0E0394
:10323000DB0043EA5173C90011EB000C43F10003BA
:10324000990200234FEA8C2041EA9C51FDF7DEFEF3
:10325000D1E70348D7E70348D5E700BF003802406D
:1032600000127A000024F400002800F09B8070B562
:103270000D4604464F4B1B6803F00F038B4208D2E8
:10328000CBB24C4A1370136803F00F038B4240F02B
:103290008B80236813F0020F17D013F0040F04D0B3
:1032A000454A936843F4E0539360236813F0080F92
:1032B00004D0414A936843F4604393603E4A936864
:1032C00023F0F003A1680B439360236813F0010F10
:1032D00032D06368012B21D09A1E012A25D9364AA3
:1032E000126812F0020F61D033498A6822F003029B
:1032F00013438B60FFF75CF806462F4B9B6803F087
:103300000C036268B3EB820F16D0FFF751F8801BF5
:1033100041F288339842F0D9032042E0264A1268ED
:1033200012F4003FE0D101203BE0234A126812F082
:10333000007FD9D1012034E01E4B1B6803F00F033E
:10334000AB4207D9EAB21B4B1A701B6803F00F039C
:10335000AB422DD1236813F0040F06D0164A9368B0
:1033600023F4E053E1680B439360236813F0080FE4
:1033700007D0114A936823F46043216943EAC103EB
:103380009360FFF703FF0C4B9B68C3F303130B4AD7
:10339000D35CD8400A4B18600A4B1868FEF7BCFF94
:1033A000002070BD012070470120FAE70120F8E7F6
:1033B0000120F6E7003C0240003802404C7601084C
:1033C0000000002008000020014B1868704700BF73
:1033D0000000002008B5FFF7F7FF044B9B68C3F31C
:1033E0008223034AD35CD84008BD00BF00380240A6
:1033F0004476010808B5FFF7E7FF044B9B68C3F369
:103400004233034AD35CD84008BD00BF00380240B5
:103410004476010800285AD010B50446436A33B9EF
:103420004368B3F5827F05D00023C36102E0002327
:10343000036143610023A36294F85130002B40D014
:10344000022384F851302268136823F0400313608C
:10345000636803F48273A26802F404421343E268CF
:1034600002F400621343226902F00202134362690C
:1034700002F001021343A26902F400721343E269ED
:1034800002F038021343226A02F080021343A26A58
:1034900002F40052216813430B60638B03F00403B2
:1034A000626A02F01002216813434B602268D369FC
:1034B00023F40063D36100206065012384F8513058
:1034C00010BD84F850302046FEF718FDB8E7012003
:1034D0007047026802F10C0353E8003F23F4907335
:1034E0000C3242E800310029F3D1026802F11403E2
:1034F00053E8003F23F00103143242E80031002971
:10350000F3D1036B012B05D0202380F83E3000233C
:1035100003637047026802F10C0353E8003F23F095
:1035200010030C3242E800310029F3D1ECE790F8A7
:103530003D30DBB2212B01D0022070478368B3F508
:10354000805F17D0036A5A1C02621A7803685A60B7
:10355000C38C9BB2013B9BB2C3844BB90268D36856
:1035600023F08003D3600268D36843F04003D36044
:10357000002070470369002BE4D1036A1B880268AE
:10358000C3F308035360036A02330362E0E70000F9
:1035900010B504460268136923F44053C1680B4315
:1035A0001361836802691A4343691A43C3691A4362
:1035B0000168CB6823F4164323F00C031343CB605C
:1035C0000268536923F4407381690B4353610368B4
:1035D000314A934206D002F58062934202D0FFF74F
:1035E000F9FE01E0FFF706FFE369B3F5004F29D0CC
:1035F0000021031849411B1841F10001C90041EAAB
:103600005371DB00181863684FEA83024FEA937323
:1036100041F10001FDF7FAFC204AA2FB0031490903
:10362000642303FB11031B013233A2FB03235B0959
:1036300003F0F00202EB011203F00F0321681344C0
:103640008B6010BD0023021843EB0301121841F1F7
:103650000001C90041EA5271D200101841F1000185
:10366000626892185B41FDF7D1FC0C4AA2FB003165
:103670004909642303FB1103DB003233A2FB03235C
:103680005B095A0002F4F87202EB011203F007031F
:10369000216813448B60D4E7001001401F85EB5173
:1036A0002DE9F84305460F4616469946DDF8208079
:1036B0002B681C6837EA04040CBF01240024B442C0
:1036C0002DD1B8F1FF3FF3D0B8F1000F05D0FEF7D0
:1036D0006FFEA0EB09004045EAD92A6802F10C030D
:1036E00053E8003F23F4D0730C3242E80031002944
:1036F000F3D12A6802F1140353E8003F23F00103D9
:10370000143242E800310029F3D1202385F83D30FE
:1037100085F83E30002385F83C30032000E000208F
:10372000BDE8F88358B310B5044690F83D300BB3AC
:10373000242384F83D302268D36823F40053D360F7
:103740002046FFF725FF2268136923F49043136195
:103750002268536923F02A0353612268D36843F433
:103760000053D36000202064202384F83D3084F887
:103770003E3010BD80F83C30FEF70CFDD8E701204C
:1037800070472DE9F04182B01E4690F83D30DBB223
:10379000202B54D104460D469046002953D0002AD0
:1037A00053D090F83C30012B51D0012380F83C30AD
:1037B00000230364212380F83D30FEF7F9FD07461E
:1037C000A4F82480A4F82680A368B3F5805F05D010
:1037D0004FF00008002384F83C3012E0236913B155
:1037E0004FF00008F6E7A8460025F3E738F8023B5B
:1037F0002268C3F308035360E28C92B2013A92B29A
:10380000E284E38C9BB273B100963B460022802198
:103810002046FFF745FFE0B9002DE7D015F8012B52
:1038200023685A60E8E700963B4600224021204684
:10383000FFF736FF78B9202384F83D3000E00220FE
:1038400002B0BDE8F0810120FAE70120F8E702208C
:10385000F6E70320F4E70320F2E7704708B50168B4
:10386000CA6822F04002CA60202280F83D20FFF79B
:10387000F4FF002008BD7047704708B5806B002337
:10388000C385C384FFF7F8FF08BD704790F83E304A
:10389000DBB2222B67D18368B3F5805F4DD0826A9B
:1038A000B3F5805F04D0002B54D10369002B51D1B4
:1038B00003685B681370836A01338362C38D9BB2B4
:1038C000013B9BB2C385002B4FD100B583B002688A
:1038D000D36823F02003D3600268D36823F4807395
:1038E000D3600268536923F001035361202380F8F9
:1038F0003E30036B012B33D100230363026802F1D6
:103900000C0353E8003F23F010030C3242E800316F
:103910000029F3D103681A6812F0100F06D00022B4
:1039200001921A6801925B680193019B818DFFF7F8
:10393000ACFF002003B05DF804FB0269002AAED1A1
:10394000826A03685B68C3F308031380836A0233E7
:103950008362B3E703685B6803F07F031370AAE731
:10396000FFF789FFE5E7022070470020704700005D
:1039700010B582B0044602681368D068516913F02C
:103980000F0F09D113F0200F0CD010F0200F09D029
:103990002046FFF77BFF16E011F0010115D110F46E
:1039A000907F12D1216B012979D013F0800F03D0C1
:1039B00010F0800F40F0108113F0400F03D010F092
:1039C000400F40F00D8102B010BD13F0010F06D082
:1039D00010F4807F03D0226C42F00102226413F0C5
:1039E000040F04D019B1226C42F00202226413F0D9
:1039F000020F04D019B1226C42F00402226413F0C9
:103A0000080F07D010F0200F00D119B1226C42F03E
:103A100008022264226C002AD5D013F0200F02D0B5
:103A200010F0200F29D123685B6903F04003226C5A
:103A300012F0080F00D163B32046FFF74AFD236858
:103A40005B6913F0400F20D0226802F1140353E8A1
:103A5000003F23F04003143242E800310029F3D143
:103A6000A36B73B1604A1A65A06BFEF7A3FD002833
:103A7000A9D0A06B036D9847A5E72046FFF706FF86
:103A8000D1E72046FFF7F8FE9DE72046FFF7F4FE5A
:103A900099E72046FFF7F0FE0023236493E713F035
:103AA000100F82D010F0100F3FF47FAF002301936E
:103AB0001368019353680193019B536913F0400FFE
:103AC00050D0A26B13685B689BB2002B3FF47BAFB6
:103AD000A18D99427FF677AFE385D369B3F5807FF7
:103AE00037D0226802F10C0353E8003F23F48073BF
:103AF0000C3242E800310029F3D1226802F11403AC
:103B000053E8003F23F00103143242E8003100295A
:103B1000F3D1226802F1140353E8003F23F040037D
:103B2000143242E800310029F3D1202384F83E30DA
:103B300000232363226802F10C0353E8003F23F0C3
:103B400010030C3242E800310029F3D1A06BFEF7DC
:103B5000E7FCA18DE38D9BB2C91A89B22046FFF71D
:103B600094FE30E7A18DE38D9BB2C91A89B2E38D33
:103B70009BB2002B3FF427AF00293FF424AF22680B
:103B800002F10C0353E8003F23F490730C3242E837
:103B900000300028F3D1226802F1140353E8003FFB
:103BA00023F00103143242E800300028F3D120232F
:103BB00084F83E3000232363226802F10C0353E8AB
:103BC000003F23F010030C3242E800300028F3D10C
:103BD0002046FFF75AFEF6E62046FFF7A8FCF2E67D
:103BE0002046FFF73BFEEEE67B38000882B000235C
:103BF0000193019B01330193019A0F4B9A4215D80F
:103C00000369002BF5DA00230193036943F00103F4
:103C10000361019B01330193019A074B9A4208D833
:103C2000036913F0010FF4D1002000E0032002B07B
:103C300070470320FBE700BF400D030084B010B5C0
:103C4000044603A880E80E00089B012B1FD1A36B3C
:103C500023F48033A363E36823F4840323F0400355
:103C6000E360E36823F44013E3600F9B012B09D06A
:103C70002046FFF7BBFF069B012B1BD0BDE8104081
:103C800004B07047E36843F48013E360F0E7E3684F
:103C900043F04003E3602046FFF7A8FF0C9B23B9E5
:103CA000A36B43F48033A363E5E7A36B23F4803372
:103CB000A363E0E7A36843F00603A360A36843F0AF
:103CC0002003A360DAE7836823F001038360002008
:103CD0007047000082B000230193019B01330193E0
:103CE000019A0F4B9A4215D80369002BF5DA00238D
:103CF0000193890141F020010161019B013301938E
:103D0000019A074B9A4208D8036913F0200FF4D1A7
:103D1000002000E0032002B070470320FBE700BF53
:103D2000400D030082B000230193019B01330193F6
:103D3000019A0E4B9A4213D80369002BF5DA00233F
:103D4000019310230361019B01330193019A074BF7
:103D50009A4208D8036913F0100FF4D1002000E054
:103D6000032002B070470320FBE700BF400D0300B3
:103D7000D0F800381943C0F8001800207047000040
:103D800084B02DE9F041044607A880E80E00002326
:103D900006E003F1400204EB82020021516001338E
:103DA0000E2BF6D9119F27BBD4F8043843F0020339
:103DB000C4F80438A36B43F40013A363A36B23F488
:103DC0000023A363A36B23F48023A3630023C4F81D
:103DD000003E04F50065D4F80038C4F800380C9BA8
:103DE000012B14D1099B6BB900212046FFF7C0FFBE
:103DF00011E0A36B23F40013A363A36B43F400232C
:103E0000A363E3E701212046FFF7B2FF03E00321AC
:103E10002046FFF7ADFF10212046FFF75BFF8046ED
:103E200008B14FF001082046FFF77CFF08B14FF0C2
:103E3000010800232B616B61EB610AE0C3B94FF00D
:103E40000060C2F8000900220A614FF67F328A60E2
:103E500001330799994210D904EB431202F510611E
:103E6000D2F800090028E9DB0020C2F80009EAE7DF
:103E70004FF09040C2F80009E5E700230AE0C3B123
:103E80004FF0904CC2F800CB002202614FF67F3217
:103E900082600133994211D904EB431202F530607C
:103EA000D2F8006B002EEADB4FF0000CC2F800CB1A
:103EB000EAE74FF0006CC2F800CBE5E72B6923F48A
:103EC00080732B610023A3616FF0804363610A9BC1
:103ED0001BB9A36943F01003A361A2690B4B134301
:103EE000A3610D9B1BB1A36943F00803A361012FDC
:103EF00004D04046BDE8F04104B07047A36943F0E8
:103F0000804343F00403A361F3E700BF00383C8023
:103F1000D0F8003E23F00303C0F8003ED0F8043888
:103F200043F00203C0F8043800207047406900F0F5
:103F30000100704738B50546C36823F0C043C3602D
:103F4000012913D019BBC36843F08043C360002428
:103F50000120FEF733FA01342846FFF7E7FF08B1E6
:103F6000312CF5D9322C14D0002038BDC36843F071
:103F70000053C36000240120FEF720FA01342846D4
:103F8000FFF7D4FF0128EDD0312CF4D9EAE7012066
:103F9000EBE70120E9E7000010B50446094809F005
:103FA00019F9002000F056F8012000F053F8022023
:103FB00000F050F864231A46214604F1280007F067
:103FC000C9FA10BD345C010810B50446094809F06F
:103FD00001F9002000F04EF8012000F04BF802201B
:103FE00000F048F864231A46214604F1280007F03F
:103FF000B1FA10BD3C5C010810B5074809F0EAF8B9
:10400000064C074A2146A62007F0A2FC054904F108
:10401000280007F059FA10BD485C01080C00002088
:104020005C760108EC76010808B5034A0349B42020
:1040300007F08EFC08BD00BF705C01085022002014
:1040400008B500F0A3F808BD08B562B600F0D6F8D0
:1040500008BD000008B50122044B33F81010044BD2
:1040600053F82000FEF7E9FD08BD00BFF076010817
:104070004800002008B50022044B33F81010044B10
:1040800053F82000FEF7D9FD08BD00BFF076010807
:104090004800002010B5044601E098470434236826
:1040A000002BFAD110BD0000034B00221A80034BF5
:1040B00001221A60704700BF5822002054220020BD
:1040C00038B5134B1B680BB30323124D01E00835C1
:1040D00023465A1ED4B26BB12A880F4B1B88B3FB00
:1040E000F2F102FB11339BB2002BF0D16868FFF7AD
:1040F000D1FFECE7084A138801339BB2138035F8EF
:10410000082C934202D3044B00221A8038BD00BF12
:1041100054220020F87601085822002010B50446E9
:1041200072B6AD2007F048FB28B900F067F806F03A
:1041300067F800BE10BDAD2007F0C4FB204607F0B5
:10414000FBFB292007F0DEFB07F0CEFBEDE708B50F
:10415000FDF7B6FF00220120002107F081FD0521B7
:10416000002007F02DFD0021032007F029FD00218C
:10417000032007F025FD0021032007F021FD002189
:10418000032007F01DFD04F09DF908BD08B5034AA2
:10419000136801331360FFF793FF08BD5C22002012
:1041A00008B50120FFF756FF08BD08B50220FFF74C
:1041B00051FF08BD08B50020FFF74CFF08BD000007
:1041C00008B50146014809F069FA08BD64220020DB
:1041D00010B50246054C0649204609F04BF8054A41
:1041E00004F1160307CA03C31A8010BD7E22002003
:1041F000785C0108845C01087047000070B582B0EB
:104200000BE014F8011B032000F0D2FDBDF80630CE
:104210005A1EADF80620002BF3D18023ADF80630EE
:10422000EFF311834FF0000282F31188BFF36F8F19
:10423000BFF34F8F1E46094D2B6801332B600DF1E4
:10424000060007F049FC04462B68013B2B600BB9C4
:1042500086F31188002CD9D102B070BD803F0020B8
:1042600038B507F003FBEFF311834FF0000282F340
:104270001188BFF36F8FBFF34F8F1D46164C236815
:104280000133236007F000FBAC2007F003FB4FF481
:10429000505007F037FB114807F03DFB142007F0A2
:1042A000F9FA422007F0F6FA112007F0F3FA02209B
:1042B00007F0F0FA132007F0EDFA0A2007F022FBCE
:1042C00007F012FB2368013B23600BB985F31188CB
:1042D000FFF794FF38BD00BF803F00208FF7030039
:1042E00008B5FCF773F906A3D3E90023FCF7D8F966
:1042F0000022054BFCF7D4F908BD00BFAFF30080E6
:104300006666666666660A400000503F024B1860AB
:10431000024B00221A607047A4220020A82200202D
:10432000002803DC024B33F8100070470020704770
:10433000AC22002008B5FFF7F3FFFFF7D1FF08BD5F
:10434000014B1870704700BFAE22002008B5002056
:10435000FFF7F6FF08BD000008B54FF40051034811
:10436000FEF764FCB0FA80F0400908BD0008024086
:10437000014B1860704700BFB022002010B586B016
:10438000002401940294039404940594FFF7F0FF31
:104390000094104B1A6B42F004021A631B6B03F07B
:1043A00004030093009B4FF4005301934FF4441314
:1043B000029301230393049401A90748FEF730FBFD
:1043C00022460F212820FEF765F82820FEF772F814
:1043D00006B010BD0038024000080240B0F5005F92
:1043E00000D0704710B5034B1C6814B1FFF7B4FF41
:1043F000A04710BDB022002008B54FF40050FEF7D2
:1044000023FC08BD08B5034B012219895868FEF743
:1044100014FC08BDB822002008B5034B00221989FE
:104420005868FEF70AFC08BDB822002008B5074B03
:104430001B7803B908BD064A515C064B197000F0A1
:104440007F00125C5A70FFF7E7FFF3E7B422002009
:104450001C770108C422002070B588B006460C46BF
:104460001546294808F0B6FE284B1E605C601D8189
:10447000002303930493059306930793244B9C42D4
:1044800028D0244B9C4232D0039501250495022369
:10449000069303A92046FEF7C3FAFFF7B3FF1E4BAE
:1044A0001D701E4808F096FE29460C20FFF7BEFF3F
:1044B00000210920FFF7BAFF03210A20FFF7B6FF0A
:1044C00006210B20FFF7B2FF00210E20FFF7AEFF01
:1044D00008B070BD00230193114B1A6B42F001022A
:1044E0001A631B6B03F001030193019BCCE70023CC
:1044F00002930B4B1A6B42F002021A631B6B03F020
:1045000002030293029BBFE7905C0108B8220020DF
:104510000000024000040240B42200209C5C01081C
:10452000003802407047000000B587B000230193B7
:10453000029303930493059300930B4B1A6B42F081
:1045400008021A631B6B03F008030093009B4FF4EF
:10455000005301930123029301A90448FEF760FA76
:1045600007B05DF804FB00BF00380240000C0240B9
:1045700010B5044641780320FFF7D4FFA17804204A
:10458000FFF7D0FFE1780520FFF7CCFF2179062067
:10459000FFF7C8FF6179890101F04001A3799B0011
:1045A00003F004031943E3791B0103F010031943DB
:1045B000237ADB0003F008031943637A41EAC3114D
:1045C00049B2A37A5B0003F00203194301F0DE0154
:1045D0000020FFF7A7FF61798910890101F04001F0
:1045E000A37903F004031943E3799B101B0103F043
:1045F00010031943237A9B10DB0003F008031943CF
:10460000637A9B1041EAC31149B2A37A9B105B0005
:1046100003F00203194301F0DE010220FFF782FFDD
:1046200063795B109B0103F04003A2795210920062
:1046300002F004021343E2795210120102F0100258
:104640001343227A5210D20002F008021343627A16
:10465000521043EAC2135BB2A17A01F0020119437E
:1046600001F0DE010120FFF75DFF10BD10B504462B
:10467000114808F0AFFD63780A2B09D806D00F4A1D
:10468000D35C22782AB943F0800302E00123F8E7E3
:1046900000230B484370A37A8372637A4372A37931
:1046A0008371E379C371237A0372637943710023C1
:1046B0000370FFF75DFF10BDB05C01081C780108B6
:1046C000C822002000B597B0FFF72EFF10220C493A
:1046D0006846FFF7C1FE0B48002343710372C371A4
:1046E000837143728372FF2303700B2343708370C3
:1046F000C3700371FFF7BAFF17B05DF804FB00BF8A
:1047000000000240C822002008B584468265C365C7
:104710004B6843608B6883608B898381CB89C381BD
:10472000044B186883689B688A68126861469847DA
:1047300008BD00BFE493010808B5014600231A46EE
:104740001846FFF7E1FF08BD08B5014600231A46E9
:104750001846FFF7D9FF08BD08B5014600231A46E1
:104760001846FFF7D1FF08BD10B5044603F044FC1E
:104770002146024803F042FF10BD00BFD4220020B2
:1047800038B5EFF311834FF0000282F31188BFF3C5
:104790006F8FBFF34F8F1D46074C23680133236093
:1047A0000649074803F016FF2368013B23600BB955
:1047B00085F31188034838BD803F00205CA80108BC
:1047C000D42200206947000808B50248FFF7B4FF6B
:1047D00008BD00BF4478010808B50248FFF7ACFFE8
:1047E00008BD00BF5478010808B50248FFF7A4FFD0
:1047F00008BD00BF6478010808B501460148FFF70D
:10480000A3FF08BD7478010808B50248FFF794FFBC
:1048100008BD00BF8478010808B50248FFF78CFF87
:1048200008BD00BF9478010808B50248FFF784FF6F
:1048300008BD00BFA478010808B50248FFF77CFF57
:1048400008BD00BFB478010808B50248FFF774FF3F
:1048500008BD00BFC478010808B50248FFF76CFF27
:1048600008BD00BFD478010808B50248FFF764FF0F
:1048700008BD00BFE478010808B513460A460146A2
:104880000148FFF769FF08BDF478010808B5024840
:10489000FFF752FF08BD00BF0479010808B50248C0
:1048A000FFF74AFF08BD00BF1479010808B50248A8
:1048B000FFF742FF08BD00BF2479010808B5134681
:1048C0000A4601460148FFF747FF08BD3479010851
:1048D00008B50248FFF730FF08BD00BF4479010862
:1048E00008B501460148FFF72FFF08BD54790108BC
:1048F00008B502460B4600208265C1650149FFF7F5
:1049000003FF08BD6479010808B50248FFF714FFEA
:1049100008BD00BF7479010808B50248FFF70CFF15
:1049200008BD00BF8479010808B50248FFF704FFFD
:1049300008BD00BF9479010810B50C4600F058F886
:10494000054B1C60054B01221A723D221A70002291
:104950005A709A7010BD00BFF4220020E822002097
:1049600030B589B000240394049405940694079408
:104970000194154B1A6B42F008021A631A6B02F08D
:1049800008020192019A02941A6B42F008021A631B
:104990001B6B03F008030293029B012303934FF464
:1049A00004130493094D03A92846FEF739F802239E
:1049B00003934FF488130493059403A92846FEF744
:1049C0002FF809B030BD00BF00380240000C024093
:1049D00008B530B10620FDF76DFD0720FDF76AFD33
:1049E00008BD0620FDF774FD0720FDF771FDF7E710
:1049F00008B5094B1860FFF7B3FF00220521062018
:104A0000FDF748FD002205210720FDF743FD0120A9
:104A1000FFF7DEFF08BD00BFF822002008B5012027
:104A2000FEF712F908BD08B50220FEF70DF908BD22
:104A300008B5064B186000F095F8002303E0044A1F
:104A40000021D1540133092BF9DD08BD08230020D2
:104A5000FC22002010B504460146032000F06EF849
:104A60002146042000F06AF82146002000F066F894
:104A70002146012000F062F82146062000F05EF891
:104A800010BD08B518B1032000F09AF840B9002114
:104A9000052000F053F80021072000F04FF808BD72
:104AA000042000F08DF80028F1D00121052000F04D
:104AB00045F80121072000F041F8F0E708B518B1EA
:104AC000002000F07DF840B90021022000F036F807
:104AD0000021082000F032F808BD012000F070F835
:104AE0000028F1D00121022000F028F8012108203F
:104AF00000F024F8F0E708B50146092000F01EF8A0
:104B000008BD000082B0002100910B4B1A6B42F0EF
:104B100020021A631A6B02F020020092009A01919F
:104B20001A6B42F040021A631B6B03F040030193BF
:104B3000019B02B0704700BF00380240092800D92D
:104B4000704708B5064B4FEA001C03EB00100A1E25
:104B500018BF0122818853F80C00FEF76EF808BDDB
:104B6000C4790108F0B587B000240194029403943D
:104B700004940594FFF7C6FF1BE0104B220103EBE2
:104B80000416B18801910127029700250395049529
:104B900001A99858FDF744FFB38901930295039743
:104BA00001A9B068FDF73CFF2946E0B2FFF7C6FF58
:104BB0003C44092CE1DD07B0F0BD00BFC479010819
:104BC000092801D90020704708B5044B020103EB06
:104BD000001081889858FEF729F808BDC4790108AB
:104BE00008B5084BD3F888301A6812F0200F05D0AA
:104BF0005868C0B2044B1B6803B198470348FEF7DE
:104C0000B7FE08BD202300201C230020A82300207D
:104C100010B50B4B5B6C1A6812F0200F0BD05C6860
:104C2000E4B2084B1B680BB120469847064B1B6843
:104C30000BB1204698470548FEF79AFE10BD00BF0D
:104C400020230020142300201023002064230020B0
:104C500008B5084B1B681A6812F0200F05D0586879
:104C6000C0B2054B1B6803B198470248FEF780FEAF
:104C700008BD00BF202300201823002008B5084BE2
:104C8000D3F8CC301A6812F0200F05D05868C0B2A3
:104C9000044B1B6803B198470348FEF769FE08BD43
:104CA0002023002010230020EC23002038B50446E8
:104CB00000EB00122B4800EB8200032C27D8DFE822
:104CC00004F00227333F274B04EB041203EB82016D
:104CD000254D43F822504FF496434B6004EB0412E9
:104CE000204B03EB820300229A60DA601A610C21E8
:104CF00059619A61DA61FEF715FD80BB04EB04147B
:104D0000184B53F82420D36843F02003D36038BDF8
:104D1000144B04EB041203EB8201144D43F82250B0
:104D20004FF496434B60D9E70E4B04EB041203EBB0
:104D300082010F4D43F822504FF4E1334B60CDE731
:104D40000C4B01221A70074B04EB041203EB820197
:104D5000094D43F822504FF496434B60BEE7FCF7F1
:104D600081FFCBE7202300200048004000440040A2
:104D7000001001400C230020004C004003280ED8F6
:104D8000DFE800F00205080B054B19607047054B82
:104D900019607047044B19607047044B19607047E5
:104DA00018230020142300201C230020102300209F
:104DB00000B583B003468DF8071000EB00120948D8
:104DC00000EB8200032B02D1074B1B7833B14FF06D
:104DD000FF3301220DF10701FEF7D3FC03B05DF8AC
:104DE00004FB00BF202300200C23002038B505461B
:104DF0000C4603E001342846FFF7DAFF217800294A
:104E0000F8D138BD08B5034600EB001C064800EB9E
:104E10008C00032B02D1054B1B7823B14FF0FF33DD
:104E200092B2FEF7AEFC08BD202300200C23002028
:104E300084B000220092154B196B41F008011963F0
:104E4000196B01F00801009100990192196B41F072
:104E500010011963196B01F010010191019902927F
:104E6000196C41F480211964196C01F480210291BC
:104E7000029903925A6C42F020025A645B6C03F070
:104E800020030393039B04B0704700BF0038024027
:104E900008B50B4B98420ED00A4B036041600023CB
:104EA0008360C36003610C2242618361C361FEF7CA
:104EB00039FC10B908BD044BEFE7FCF7D3FEF9E766
:104EC000FC1C0020001401400048004001284FD87D
:104ED00030B587B0002301930293039304930593A5
:104EE00001290ED0022918D049B9224BC0EBC00CC1
:104EF00003EB8C00818853F82C00FDF79EFE07B071
:104F000030BD1C4BC0EBC00C03EB8C0CBCF80C1080
:104F1000DCF80800FDF791FEF1E7BAB1154BC0EBE4
:104F2000C00203EB8202958A019501220292C0EB36
:104F3000C00003EB80031C6901A92046FDF770FD4A
:104F4000002229462046FDF778FED8E7094BC0EB42
:104F5000C00203EB8202928A019201220392C0EB0B
:104F6000C00003EB800301A91869FDF759FDC6E7EE
:104F7000704700BF647A0108012800D970472DE905
:104F8000F04387B0044600250195029503950495EA
:104F90000595FFF74DFF194EC4EBC40306EB8307DD
:104FA000BA8801924FF00109CDF808900395049555
:104FB00001A956F82300FDF733FDBB89019301A930
:104FC000B868FDF72DFDBB8A01930295CDF80C90D2
:104FD00001A93869FDF724FD2A4629462046FFF736
:104FE00075FF2A4649462046FFF770FF4FF4E1312E
:104FF000B869FFF74DFF07B0BDE8F083647A010898
:1050000084464FF6FF700B460139A3B11CF8013BF3
:1050100080EA0320002303E0400080B20133DBB2CA
:10502000072BF0D802B2002AF6DA41F2210080EA1A
:10503000420080B2F2E7704738B5284B1A68284B17
:105040009A4202D3254B274A1A60244B1B68254AF3
:1050500093420CD0244A93420CD0204A1368187013
:105060001368013313601E4A934209D038BD7E286D
:10507000FCD1EFE77E28F0D1184B013A1A60ECE73B
:10508000A2F11F039B7F7E2B19D000251548037FBB
:10509000447F44EA03241B210130FFF7B1FF84421F
:1050A0000FD0124B124A5A60124B186883689B68E3
:1050B00000220E499847094B0A4A1A60D6E7012593
:1050C000E4E7002DEDD0074B9879DB7943EA002027
:1050D000FBF7CEFE054B5860E6E700BF80240020BA
:1050E000A324002084240020852400207424002090
:1050F000000080BF008B010808B5094B094A1A60FF
:10510000094B00221A723C2119705A709A700220C1
:10511000FFF7CCFD05490220FFF730FE08BD00BFB8
:1051200080240020842400207424002039500008AA
:1051300008B5837AA3B10C49C069FBF741F80B4B62
:1051400058600A4902230B723E230B7000234B70F8
:105150008B70074B186883689B68064A984708BDA0
:10516000024B054A5A60ECE7560EED3FC024002082
:10517000008B01089C000020000080BF08B5044B94
:10518000186883689B68034A0349984708BD00BFB5
:10519000E49301089C000020707C010808B5044BD2
:1051A000186883689B68034A0349984708BD00BF95
:1051B000E49301089C0000206C7C01084B68836527
:1051C0007047002380F850307047002380F850303B
:1051D0007047002380F85030704790F8503001330A
:1051E00080F850307047000008B5002380F8503038
:1051F000034B186883689B68024A0349984708BDB7
:10520000C09601089C000020607C010808B50023BE
:1052100080F85030034B186883689B68024A034942
:10522000984708BDC09601089C000020CC240020AF
:1052300038B505460C1D2046FFF77AFFAB6F0BB162
:105240002046984738BD002380F85030704790F8CA
:105250005030092B01D8012070470020704790F88A
:105260005030042B01D8012070470020704790F87F
:105270005030022B01D8012070470020704790F871
:105280005030012B01D900207047012070470000E9
:1052900070B5044606F0A8FB04F12806AD4A314675
:1052A000B12006F055FB04F13C05AB4A2946B1207C
:1052B00006F04EFBA949204606F0BCFBA849204653
:1052C00006F0B8FBA749204606F0B4FBA6492046E5
:1052D00006F0B0FBA549204606F0ACFBA4492046E9
:1052E00006F0A8FBA349204606F0A4FBA2492046ED
:1052F00006F0A0FBA149204606F09CFBA0492046F1
:1053000006F098FB9F49204606F094FB9E492046F4
:1053100006F090FB9D49204606F08CFB9C492046F8
:1053200006F088FB9B49204606F084FB9A492046FC
:1053300006F080FB9949204606F07CFB9849204600
:1053400006F078FB9749204606F074FB9649204604
:1053500006F070FB9549204606F06CFB9449204608
:1053600006F068FB9349204606F064FB924920460C
:1053700006F060FB9149204606F05CFB9049204610
:1053800006F058FB8F49204606F054FB8E49204614
:1053900006F050FB8D49204606F04CFB8C49204618
:1053A00006F048FB8B49204606F044FB8A4920461C
:1053B00006F040FB8949204606F03CFB8849204620
:1053C00006F038FB8749204606F034FB8649204624
:1053D00006F030FB8549204606F02CFB8449204628
:1053E00006F028FB8349204606F024FB824920462C
:1053F00006F020FB8149204606F01CFB8049204630
:1054000006F018FB7F49204606F014FB7E4A314621
:10541000B12006F09DFA7D4A2946B12006F098FA9F
:105420007B49002006F0BAFA7A49012006F0B6FA64
:105430007949022006F0B2FA7849092006F0AEFA5E
:105440007749052006F0AAFA76490D2006F0A6FA5B
:1054500075490E2006F0A2FA74490C2006F09EFA57
:1054600073492E2006F09AFA7249102006F096FA37
:1054700071490F2006F092FA70492F2006F08EFA3B
:105480006F49122006F08AFA6E49132006F086FA58
:105490006D49142006F082FA6C49152006F07EFA58
:1054A0006B49162006F07AFA6A49172006F076FA58
:1054B0006949182006F072FA6849192006F06EFA58
:1054C00067491C2006F06AFA66491B2006F066FA56
:1054D00065491E2006F062FA64491A2006F05EFA59
:1054E00063491D2006F05AFA62491F2006F056FA59
:1054F0006149202006F052FA6049212006F04EFA58
:105500005F49222006F04AFA5E492B2006F046FA4F
:105510005D492C2006F042FA5C49312006F03EFA43
:105520005B49302006F03AFA5A49072006F036FA6D
:10553000002301225849594804F040FF5849304699
:1055400005F0C2FF5749284605F0BEFF002384F846
:10555000503070BD4C7C01083C7C0108D8890108A2
:105560002C89010850880108CC870108148801089B
:105570004C87010884870108A48601084C8601082D
:1055800014860108DC850108A485010894880108B7
:1055900008850108D0840108688401083084010866
:1055A000E8830108048301084C8301087083010823
:1055B0006C850108CC820108948201085C82010894
:1055C000F0810108A8810108908301084481010845
:1055D0009C80010828800108E07F0108887F01087D
:1055E000CC7E0108747E01083C7E0108107F010812
:1055F000047E0108AC7D0108647D0108F07C01088F
:10560000387D0108B87C0108307C0108207C010845
:10561000187C0108107C0108087C0108007C010846
:10562000F87B0108EC7B0108E07B0108D47B0108D2
:10563000CC7B0108C47B0108BC7B0108B47B01085A
:10564000A87B01089C7B0108907B0108847B0108F2
:10565000747B0108687B01085C7B0108547B0108AE
:105660004C7B0108447B0108387B01082C7B010836
:10567000207B0108107B0108FC7A0108EC7A010804
:10568000E07A0108D07A0108C47A0108B87A0108E2
:10569000AC7A01089C7A0108A4240020A8240020E8
:1056A000980000209400002008B5054B1868836816
:1056B0009B68044A04499847FFF762F808BD00BF99
:1056C000C09601089C000020587C010808B5054BD5
:1056D000186883689B68044A04499847FFF750F8A4
:1056E00008BD00BFC09601089C0000205C7C01083A
:1056F00008B590F85030013380F85030FFF740F88B
:1057000008BD08B590F85030013380F85030FFF7ED
:1057100037F808BD08B590F85030013380F85030A4
:10572000FFF752F808BD000008B5064A06231370BB
:1057300000235370937040F6B8320146283005F0CC
:1057400009FF08BD9800002008B50023C8220146C3
:10575000283005F0FFFE08BD08B5064A0623137081
:105760000023537093704FF47A720146283005F08D
:10577000F1FE08BD9800002008B5064A0623137004
:105780000023537093704FF4FA620146283005F0FD
:10579000E1FE08BD9800002008B5064A06231370F4
:1057A0000023537093704FF496720146283005F031
:1057B000D1FE08BD9800002008B5064A06231370E4
:1057C000002353709370C8220146283005F0C2FEB2
:1057D00008BD00BF9800002008B5064A06231370D4
:1057E000002353709370C8220146283005F0B2FEA2
:1057F00008BD00BF9800002008B5064A06231370B4
:105800000023537093704FF4FA720146283005F06C
:10581000A1FE08BD9800002008B5064A06231370B3
:105820000023537093704FF4FA720146283005F04C
:1058300091FE08BD9800002008B5FEF7CDFF08BD19
:1058400008B5FFF769F808BD08B5FFF76DF808BDA2
:1058500008B5FEF7C9FF08BD08B540F2D240FEF713
:10586000CBFF08BD08B5FEF7D7FF08BD08B5FEF7AA
:10587000DBFF08BD08B504316C3007F00FFF08BD31
:1058800010B5044604315C3007F008FF643420464C
:10589000FEF796FC2046FEF79BFC10BD08B5FEF710
:1058A000CBFF08BD08B5FEF7CFFF08BD08B5002047
:1058B000FEF776FC08BD08B50120FEF771FC08BDB7
:1058C00010B50446283005F091FE04F13C0005F0C7
:1058D0008DFE10BD10B50446FEF752FF04F12800FE
:1058E00005F084FE10BD08B5283005F07FFE08BD28
:1058F00008B5283005F07AFE08BD08B5283005F057
:1059000075FE08BD08B5283005F070FE08BD10B55D
:105910000446FEF735FF04F1280005F067FE10BDD0
:1059200038B50446FEF770FF0D4B06221A700025AD
:105930005D709D702B46C822214604F1280005F0B9
:1059400009FE084B07221A705D709D702B4642F2CB
:105950002832214604F13C0005F0FCFD38BD00BFB3
:10596000980000209400002008B5FEF74DFF08BD08
:1059700008B5FEF771FF08BD08B5081D02F0D6FD99
:1059800008BD08B5FEF770FF08BD000038B5054634
:10599000064C00E010343CB121682846FBF750FB70
:1059A0000028F7D1201D00E0014838BD5400002038
:1059B0005800002008B56C30FFF7E8FF82684168A6
:1059C0000068FEF759FF08BD08B5FEF75FFF08BD88
:1059D00008B5FEF76BFF08BD08B5FEF75FFF08BD11
:1059E00008B5034A03490448FEF768FF08BD00BF35
:1059F000585E0108605E0108745E010808B5FEF794
:105A000067FF08BD08B5054B186883689B68044AA2
:105A1000044998470020FEF7C8FB08BDC09601085E
:105A20009C000020647C010808B5002380F85030F9
:105A3000054B186883689B68044A0549984701200C
:105A4000FEF7B3FB08BD00BFC09601089C00002014
:105A5000687C010808B5044B1E221A7000225A7097
:105A60009A70FEF751FF08BDCC24002008B54165AF
:105A7000B1F80404FEF734FF08BD000008B5024980
:105A800005F0F4FB08BD00BFA824002010B50C46AB
:105A9000054804F0CFFC012800D110BD2146024882
:105AA00005F0B0FBF9E700BFA824002008B5406D61
:105AB000D0F804140330FEF71BFF08BD0048704700
:105AC000CC24002000487047F80000207047704741
:105AD000032380F8CB30704708B50146044B43647C
:105AE000044883689B688A6A4031984708BD00BFB4
